{
  "contractName": "Character",
  "abi": [
    {
      "inputs": [],
      "stateMutability": "nonpayable",
      "type": "constructor"
    },
    {
      "anonymous": false,
      "inputs": [
        {
          "indexed": true,
          "internalType": "address",
          "name": "owner",
          "type": "address"
        },
        {
          "indexed": true,
          "internalType": "address",
          "name": "approved",
          "type": "address"
        },
        {
          "indexed": true,
          "internalType": "uint256",
          "name": "tokenId",
          "type": "uint256"
        }
      ],
      "name": "Approval",
      "type": "event"
    },
    {
      "anonymous": false,
      "inputs": [
        {
          "indexed": true,
          "internalType": "address",
          "name": "owner",
          "type": "address"
        },
        {
          "indexed": true,
          "internalType": "address",
          "name": "operator",
          "type": "address"
        },
        {
          "indexed": false,
          "internalType": "bool",
          "name": "approved",
          "type": "bool"
        }
      ],
      "name": "ApprovalForAll",
      "type": "event"
    },
    {
      "anonymous": false,
      "inputs": [
        {
          "indexed": true,
          "internalType": "uint256",
          "name": "attrId",
          "type": "uint256"
        },
        {
          "indexed": false,
          "internalType": "string",
          "name": "name",
          "type": "string"
        },
        {
          "indexed": false,
          "internalType": "string",
          "name": "symbol",
          "type": "string"
        },
        {
          "indexed": false,
          "internalType": "string",
          "name": "uri",
          "type": "string"
        }
      ],
      "name": "AttributeCreated",
      "type": "event"
    },
    {
      "anonymous": false,
      "inputs": [
        {
          "indexed": true,
          "internalType": "address",
          "name": "from",
          "type": "address"
        },
        {
          "indexed": true,
          "internalType": "address",
          "name": "to",
          "type": "address"
        },
        {
          "indexed": true,
          "internalType": "uint256",
          "name": "tokenId",
          "type": "uint256"
        }
      ],
      "name": "Transfer",
      "type": "event"
    },
    {
      "anonymous": false,
      "inputs": [
        {
          "indexed": true,
          "internalType": "address",
          "name": "operator",
          "type": "address"
        },
        {
          "indexed": false,
          "internalType": "uint256",
          "name": "from",
          "type": "uint256"
        },
        {
          "indexed": false,
          "internalType": "uint256",
          "name": "to",
          "type": "uint256"
        },
        {
          "indexed": true,
          "internalType": "uint256[]",
          "name": "attrIds",
          "type": "uint256[]"
        },
        {
          "indexed": false,
          "internalType": "uint256[]",
          "name": "values",
          "type": "uint256[]"
        }
      ],
      "name": "TransferBatch",
      "type": "event"
    },
    {
      "anonymous": false,
      "inputs": [
        {
          "indexed": true,
          "internalType": "address",
          "name": "operator",
          "type": "address"
        },
        {
          "indexed": false,
          "internalType": "uint256",
          "name": "from",
          "type": "uint256"
        },
        {
          "indexed": false,
          "internalType": "uint256",
          "name": "to",
          "type": "uint256"
        },
        {
          "indexed": true,
          "internalType": "uint256",
          "name": "attrId",
          "type": "uint256"
        },
        {
          "indexed": false,
          "internalType": "uint256",
          "name": "value",
          "type": "uint256"
        }
      ],
      "name": "TransferSingle",
      "type": "event"
    },
    {
      "inputs": [],
      "name": "_isReveal",
      "outputs": [
        {
          "internalType": "bool",
          "name": "",
          "type": "bool"
        }
      ],
      "stateMutability": "view",
      "type": "function",
      "constant": true
    },
    {
      "inputs": [],
      "name": "_isSalesActive",
      "outputs": [
        {
          "internalType": "bool",
          "name": "",
          "type": "bool"
        }
      ],
      "stateMutability": "view",
      "type": "function",
      "constant": true
    },
    {
      "inputs": [
        {
          "internalType": "address",
          "name": "to",
          "type": "address"
        },
        {
          "internalType": "uint256",
          "name": "tokenId",
          "type": "uint256"
        }
      ],
      "name": "approve",
      "outputs": [],
      "stateMutability": "nonpayable",
      "type": "function"
    },
    {
      "inputs": [
        {
          "internalType": "uint256",
          "name": "tokenId",
          "type": "uint256"
        },
        {
          "internalType": "uint256",
          "name": "attrId",
          "type": "uint256"
        },
        {
          "internalType": "uint256",
          "name": "amount",
          "type": "uint256"
        }
      ],
      "name": "attach",
      "outputs": [],
      "stateMutability": "nonpayable",
      "type": "function"
    },
    {
      "inputs": [
        {
          "internalType": "uint256",
          "name": "",
          "type": "uint256"
        },
        {
          "internalType": "uint256",
          "name": "",
          "type": "uint256"
        }
      ],
      "name": "attrBalances",
      "outputs": [
        {
          "internalType": "uint256",
          "name": "",
          "type": "uint256"
        }
      ],
      "stateMutability": "view",
      "type": "function",
      "constant": true
    },
    {
      "inputs": [
        {
          "internalType": "uint256",
          "name": "attrId",
          "type": "uint256"
        }
      ],
      "name": "attrURI",
      "outputs": [
        {
          "internalType": "string",
          "name": "",
          "type": "string"
        }
      ],
      "stateMutability": "view",
      "type": "function",
      "constant": true
    },
    {
      "inputs": [
        {
          "internalType": "uint256",
          "name": "tokenId",
          "type": "uint256"
        }
      ],
      "name": "attributesOf",
      "outputs": [
        {
          "internalType": "uint256[]",
          "name": "",
          "type": "uint256[]"
        }
      ],
      "stateMutability": "view",
      "type": "function",
      "constant": true
    },
    {
      "inputs": [
        {
          "internalType": "uint256",
          "name": "",
          "type": "uint256"
        },
        {
          "internalType": "uint256",
          "name": "",
          "type": "uint256"
        }
      ],
      "name": "attrs",
      "outputs": [
        {
          "internalType": "uint256",
          "name": "",
          "type": "uint256"
        }
      ],
      "stateMutability": "view",
      "type": "function",
      "constant": true
    },
    {
      "inputs": [
        {
          "internalType": "address",
          "name": "owner",
          "type": "address"
        }
      ],
      "name": "balanceOf",
      "outputs": [
        {
          "internalType": "uint256",
          "name": "",
          "type": "uint256"
        }
      ],
      "stateMutability": "view",
      "type": "function",
      "constant": true
    },
    {
      "inputs": [
        {
          "internalType": "uint256",
          "name": "tokenId",
          "type": "uint256"
        },
        {
          "internalType": "uint256",
          "name": "attrId",
          "type": "uint256"
        }
      ],
      "name": "balanceOf",
      "outputs": [
        {
          "internalType": "uint256",
          "name": "",
          "type": "uint256"
        }
      ],
      "stateMutability": "view",
      "type": "function",
      "constant": true
    },
    {
      "inputs": [
        {
          "internalType": "uint256",
          "name": "tokenId",
          "type": "uint256"
        },
        {
          "internalType": "uint256[]",
          "name": "attrIds",
          "type": "uint256[]"
        }
      ],
      "name": "balanceOfBatch",
      "outputs": [
        {
          "internalType": "uint256[]",
          "name": "",
          "type": "uint256[]"
        }
      ],
      "stateMutability": "view",
      "type": "function",
      "constant": true
    },
    {
      "inputs": [],
      "name": "baseExtension",
      "outputs": [
        {
          "internalType": "string",
          "name": "",
          "type": "string"
        }
      ],
      "stateMutability": "view",
      "type": "function",
      "constant": true
    },
    {
      "inputs": [],
      "name": "baseHeader",
      "outputs": [
        {
          "internalType": "string",
          "name": "",
          "type": "string"
        }
      ],
      "stateMutability": "view",
      "type": "function",
      "constant": true
    },
    {
      "inputs": [
        {
          "internalType": "uint256",
          "name": "tokenId",
          "type": "uint256"
        },
        {
          "internalType": "uint256[]",
          "name": "attrIds",
          "type": "uint256[]"
        },
        {
          "internalType": "uint256[]",
          "name": "amounts",
          "type": "uint256[]"
        }
      ],
      "name": "batchAttach",
      "outputs": [],
      "stateMutability": "nonpayable",
      "type": "function"
    },
    {
      "inputs": [
        {
          "internalType": "uint256",
          "name": "tokenId",
          "type": "uint256"
        },
        {
          "internalType": "uint256",
          "name": "attrId",
          "type": "uint256"
        },
        {
          "internalType": "uint256",
          "name": "amount",
          "type": "uint256"
        }
      ],
      "name": "decrease",
      "outputs": [],
      "stateMutability": "nonpayable",
      "type": "function"
    },
    {
      "inputs": [
        {
          "internalType": "uint256",
          "name": "tokenId",
          "type": "uint256"
        }
      ],
      "name": "getApproved",
      "outputs": [
        {
          "internalType": "address",
          "name": "",
          "type": "address"
        }
      ],
      "stateMutability": "view",
      "type": "function",
      "constant": true
    },
    {
      "inputs": [
        {
          "internalType": "uint256",
          "name": "tokenId",
          "type": "uint256"
        },
        {
          "internalType": "uint256",
          "name": "attrId",
          "type": "uint256"
        },
        {
          "internalType": "uint256",
          "name": "amount",
          "type": "uint256"
        }
      ],
      "name": "increase",
      "outputs": [],
      "stateMutability": "nonpayable",
      "type": "function"
    },
    {
      "inputs": [
        {
          "internalType": "address",
          "name": "owner",
          "type": "address"
        },
        {
          "internalType": "address",
          "name": "operator",
          "type": "address"
        }
      ],
      "name": "isApprovedForAll",
      "outputs": [
        {
          "internalType": "bool",
          "name": "",
          "type": "bool"
        }
      ],
      "stateMutability": "view",
      "type": "function",
      "constant": true
    },
    {
      "inputs": [
        {
          "internalType": "uint256",
          "name": "attrId",
          "type": "uint256"
        }
      ],
      "name": "name",
      "outputs": [
        {
          "internalType": "string",
          "name": "",
          "type": "string"
        }
      ],
      "stateMutability": "view",
      "type": "function",
      "constant": true
    },
    {
      "inputs": [],
      "name": "name",
      "outputs": [
        {
          "internalType": "string",
          "name": "",
          "type": "string"
        }
      ],
      "stateMutability": "view",
      "type": "function",
      "constant": true
    },
    {
      "inputs": [],
      "name": "notRevealUri",
      "outputs": [
        {
          "internalType": "string",
          "name": "",
          "type": "string"
        }
      ],
      "stateMutability": "view",
      "type": "function",
      "constant": true
    },
    {
      "inputs": [
        {
          "internalType": "uint256",
          "name": "tokenId",
          "type": "uint256"
        }
      ],
      "name": "ownerOf",
      "outputs": [
        {
          "internalType": "address",
          "name": "",
          "type": "address"
        }
      ],
      "stateMutability": "view",
      "type": "function",
      "constant": true
    },
    {
      "inputs": [
        {
          "internalType": "uint256",
          "name": "tokenId",
          "type": "uint256"
        }
      ],
      "name": "primaryAttributeOf",
      "outputs": [
        {
          "internalType": "uint256",
          "name": "",
          "type": "uint256"
        }
      ],
      "stateMutability": "view",
      "type": "function",
      "constant": true
    },
    {
      "inputs": [
        {
          "internalType": "uint256",
          "name": "tokenId",
          "type": "uint256"
        },
        {
          "internalType": "uint256",
          "name": "attrId",
          "type": "uint256"
        }
      ],
      "name": "remove",
      "outputs": [],
      "stateMutability": "nonpayable",
      "type": "function"
    },
    {
      "inputs": [
        {
          "internalType": "address",
          "name": "from",
          "type": "address"
        },
        {
          "internalType": "address",
          "name": "to",
          "type": "address"
        },
        {
          "internalType": "uint256",
          "name": "tokenId",
          "type": "uint256"
        }
      ],
      "name": "safeTransferFrom",
      "outputs": [],
      "stateMutability": "nonpayable",
      "type": "function"
    },
    {
      "inputs": [
        {
          "internalType": "address",
          "name": "from",
          "type": "address"
        },
        {
          "internalType": "address",
          "name": "to",
          "type": "address"
        },
        {
          "internalType": "uint256",
          "name": "tokenId",
          "type": "uint256"
        },
        {
          "internalType": "bytes",
          "name": "_data",
          "type": "bytes"
        }
      ],
      "name": "safeTransferFrom",
      "outputs": [],
      "stateMutability": "nonpayable",
      "type": "function"
    },
    {
      "inputs": [
        {
          "internalType": "address",
          "name": "operator",
          "type": "address"
        },
        {
          "internalType": "bool",
          "name": "approved",
          "type": "bool"
        }
      ],
      "name": "setApprovalForAll",
      "outputs": [],
      "stateMutability": "nonpayable",
      "type": "function"
    },
    {
      "inputs": [
        {
          "internalType": "uint256",
          "name": "tokenId",
          "type": "uint256"
        },
        {
          "internalType": "uint256",
          "name": "attrId",
          "type": "uint256"
        }
      ],
      "name": "setPrimaryAttribute",
      "outputs": [],
      "stateMutability": "nonpayable",
      "type": "function"
    },
    {
      "inputs": [
        {
          "internalType": "uint256",
          "name": "attrId",
          "type": "uint256"
        }
      ],
      "name": "symbol",
      "outputs": [
        {
          "internalType": "string",
          "name": "",
          "type": "string"
        }
      ],
      "stateMutability": "view",
      "type": "function",
      "constant": true
    },
    {
      "inputs": [],
      "name": "symbol",
      "outputs": [
        {
          "internalType": "string",
          "name": "",
          "type": "string"
        }
      ],
      "stateMutability": "view",
      "type": "function",
      "constant": true
    },
    {
      "inputs": [
        {
          "internalType": "address",
          "name": "from",
          "type": "address"
        },
        {
          "internalType": "address",
          "name": "to",
          "type": "address"
        },
        {
          "internalType": "uint256",
          "name": "tokenId",
          "type": "uint256"
        }
      ],
      "name": "transferFrom",
      "outputs": [],
      "stateMutability": "nonpayable",
      "type": "function"
    },
    {
      "inputs": [
        {
          "internalType": "bytes4",
          "name": "interfaceId",
          "type": "bytes4"
        }
      ],
      "name": "supportsInterface",
      "outputs": [
        {
          "internalType": "bool",
          "name": "",
          "type": "bool"
        }
      ],
      "stateMutability": "view",
      "type": "function",
      "constant": true
    },
    {
      "inputs": [],
      "name": "getAttrQuantity",
      "outputs": [
        {
          "internalType": "uint256",
          "name": "",
          "type": "uint256"
        }
      ],
      "stateMutability": "view",
      "type": "function",
      "constant": true
    },
    {
      "inputs": [
        {
          "internalType": "address",
          "name": "to",
          "type": "address"
        },
        {
          "internalType": "uint256",
          "name": "tokenId",
          "type": "uint256"
        }
      ],
      "name": "mint",
      "outputs": [],
      "stateMutability": "nonpayable",
      "type": "function"
    },
    {
      "inputs": [
        {
          "internalType": "uint256",
          "name": "tokenId",
          "type": "uint256"
        },
        {
          "internalType": "uint256",
          "name": "attrId",
          "type": "uint256"
        }
      ],
      "name": "getAttrAmount",
      "outputs": [
        {
          "internalType": "uint256",
          "name": "",
          "type": "uint256"
        }
      ],
      "stateMutability": "view",
      "type": "function",
      "constant": true
    },
    {
      "inputs": [
        {
          "internalType": "uint256",
          "name": "attrId",
          "type": "uint256"
        }
      ],
      "name": "getAttrName",
      "outputs": [
        {
          "internalType": "string",
          "name": "",
          "type": "string"
        }
      ],
      "stateMutability": "view",
      "type": "function",
      "constant": true
    },
    {
      "inputs": [
        {
          "internalType": "string",
          "name": "URI",
          "type": "string"
        }
      ],
      "name": "setBaseUri",
      "outputs": [],
      "stateMutability": "nonpayable",
      "type": "function"
    },
    {
      "inputs": [
        {
          "internalType": "uint256",
          "name": "tokenId",
          "type": "uint256"
        }
      ],
      "name": "tokenURI",
      "outputs": [
        {
          "internalType": "string",
          "name": "",
          "type": "string"
        }
      ],
      "stateMutability": "view",
      "type": "function",
      "constant": true
    },
    {
      "inputs": [
        {
          "internalType": "uint256",
          "name": "tokenId",
          "type": "uint256"
        }
      ],
      "name": "burnToken",
      "outputs": [],
      "stateMutability": "nonpayable",
      "type": "function"
    },
    {
      "inputs": [
        {
          "internalType": "uint256",
          "name": "tokenId",
          "type": "uint256"
        },
        {
          "internalType": "uint256",
          "name": "attrId",
          "type": "uint256"
        }
      ],
      "name": "hasAttr",
      "outputs": [
        {
          "internalType": "bool",
          "name": "",
          "type": "bool"
        }
      ],
      "stateMutability": "view",
      "type": "function",
      "constant": true
    },
    {
      "inputs": [
        {
          "internalType": "uint256",
          "name": "tokenId",
          "type": "uint256"
        },
        {
          "internalType": "uint256",
          "name": "attrId",
          "type": "uint256"
        }
      ],
      "name": "seperate",
      "outputs": [],
      "stateMutability": "nonpayable",
      "type": "function"
    },
    {
      "inputs": [
        {
          "internalType": "uint256",
          "name": "tokenId",
          "type": "uint256"
        },
        {
          "internalType": "uint256",
          "name": "attrId",
          "type": "uint256"
        }
      ],
      "name": "combine",
      "outputs": [],
      "stateMutability": "nonpayable",
      "type": "function"
    },
    {
      "inputs": [
        {
          "internalType": "bool",
          "name": "state",
          "type": "bool"
        }
      ],
      "name": "setSalesActive",
      "outputs": [],
      "stateMutability": "nonpayable",
      "type": "function"
    },
    {
      "inputs": [
        {
          "internalType": "bool",
          "name": "state",
          "type": "bool"
        }
      ],
      "name": "setReveal",
      "outputs": [],
      "stateMutability": "nonpayable",
      "type": "function"
    }
  ],
  "bytecode": "0x60806040526006600d556040518060400160405280600581526020017f2e6a736f6e000000000000000000000000000000000000000000000000000000815250600f9080519060200190620000569291906200058b565b506040518060400160405280600781526020017f697066733a2f2f0000000000000000000000000000000000000000000000000081525060109080519060200190620000a49291906200058b565b50348015620000b257600080fd5b506040518060400160405280600881526020017f4974656d5f6e66740000000000000000000000000000000000000000000000008152506040518060400160405280600481526020017f4954454d000000000000000000000000000000000000000000000000000000008152506040518060400160405280601681526020017f687474703a2f2f6c6f63616c686f73743a333030302f000000000000000000008152506200016681620003ed60201b60201c565b5081600590805190602001906200017f9291906200058b565b508060069080519060200190620001989291906200058b565b5050506003600e819055506200023160006040518060400160405280600681526020017f61747461636b00000000000000000000000000000000000000000000000000008152506040518060400160405280600681526020017f41545441434b0000000000000000000000000000000000000000000000000000815250604051806020016040528060008152506200040960201b60201c565b620002bf60016040518060400160405280600581526020017f73706565640000000000000000000000000000000000000000000000000000008152506040518060400160405280600581526020017f5350454544000000000000000000000000000000000000000000000000000000815250604051806020016040528060008152506200040960201b60201c565b6200034d60026040518060400160405280600781526020017f646566656e7365000000000000000000000000000000000000000000000000008152506040518060400160405280600781526020017f444546454e534500000000000000000000000000000000000000000000000000815250604051806020016040528060008152506200040960201b60201c565b6040518060600160405280602f815260200162005a27602f9139601290805190602001906200037e9291906200058b565b506001600c60006101000a81548160ff0219169083151502179055506000600c60016101000a81548160ff02191690831515021790555060405180608001604052806041815260200162005a566041913960119080519060200190620003e69291906200058b565b506200082e565b8060009080519060200190620004059291906200058b565b5050565b6200041a846200055e60201b60201c565b156200045d576040517f08c379a00000000000000000000000000000000000000000000000000000000081526004016200045490620006c2565b60405180910390fd5b6000604051806080016040528085815260200184815260200183815260200160011515815250905080600160008781526020019081526020016000206000820151816000019080519060200190620004b79291906200058b565b506020820151816001019080519060200190620004d69291906200058b565b506040820151816002019080519060200190620004f59291906200058b565b5060608201518160030160006101000a81548160ff021916908315150217905550905050847fe3c3c9bbda1d6ccb059320eed92d395bd49272efb8a675a188a9d1b4e4da4ce28585856040516200054f9392919062000777565b60405180910390a25050505050565b60006001600083815260200190815260200160002060030160009054906101000a900460ff169050919050565b8280546200059990620007f8565b90600052602060002090601f016020900481019282620005bd576000855562000609565b82601f10620005d857805160ff191683800117855562000609565b8280016001018555821562000609579182015b8281111562000608578251825591602001919060010190620005eb565b5b5090506200061891906200061c565b5090565b5b80821115620006375760008160009055506001016200061d565b5090565b600082825260208201905092915050565b7f455243333636343a2061747472696275746520616c726561647920657869737460008201527f7300000000000000000000000000000000000000000000000000000000000000602082015250565b6000620006aa6021836200063b565b9150620006b7826200064c565b604082019050919050565b60006020820190508181036000830152620006dd816200069b565b9050919050565b600081519050919050565b60005b838110156200070f578082015181840152602081019050620006f2565b838111156200071f576000848401525b50505050565b6000601f19601f8301169050919050565b60006200074382620006e4565b6200074f81856200063b565b935062000761818560208601620006ef565b6200076c8162000725565b840191505092915050565b6000606082019050818103600083015262000793818662000736565b90508181036020830152620007a9818562000736565b90508181036040830152620007bf818462000736565b9050949350505050565b7f4e487b7100000000000000000000000000000000000000000000000000000000600052602260045260246000fd5b600060028204905060018216806200081157607f821691505b60208210811415620008285762000827620007c9565b5b50919050565b6151e9806200083e6000396000f3fe608060405234801561001057600080fd5b50600436106102735760003560e01c80636352211e11610151578063a35efa77116100c3578063c87b56dd11610087578063c87b56dd146107c6578063ddcd86f4146107f6578063e829ffa114610814578063e985e9c514610844578063ea69963314610874578063f8fb14fa146108a457610273565b8063a35efa7714610736578063a82fe0ac14610754578063b4101dce14610770578063b88d4fde1461078c578063c6682862146107a857610273565b806387e21d421161011557806387e21d42146106645780638a50fecb1461069457806395d89b41146106b05780639bc5ae54146106ce578063a0bcfc7f146106fe578063a22cb4651461071a57610273565b80636352211e146105b05780636526db7a146105e057806370a08231146105fc578063756cb8231461062c5780637b47ec1a1461064857610273565b80631903df48116101ea57806339e6fbfd116101ae57806339e6fbfd146104ca57806340c10f19146104fa57806342842e0e146105165780634e41a1fb146105325780634ee1bd79146105625780635d1261101461058057610273565b80631903df481461042657806322a29d311461044457806323b872dd146104625780632a3f300c1461047e57806335c479201461049a57610273565b8063095ea7b31161023c578063095ea7b3146103565780631070717b14610372578063108410341461038e578063132e09e3146103be57806314679612146103da578063169dbe6e146103f657610273565b8062ad800c1461027857806301ffc9a7146102a857806306fdde03146102d8578063081812fc146102f657806309363c4414610326575b600080fd5b610292600480360381019061028d9190613427565b6108c0565b60405161029f91906134ed565b60405180910390f35b6102c260048036038101906102bd9190613567565b6109b0565b6040516102cf91906135af565b60405180910390f35b6102e06109c2565b6040516102ed91906134ed565b60405180910390f35b610310600480360381019061030b9190613427565b610a54565b60405161031d919061360b565b60405180910390f35b610340600480360381019061033b9190613427565b610ad9565b60405161034d91906136e4565b60405180910390f35b610370600480360381019061036b9190613732565b610b44565b005b61038c60048036038101906103879190613772565b610c5c565b005b6103a860048036038101906103a39190613772565b610cc1565b6040516103b591906135af565b60405180910390f35b6103d860048036038101906103d39190613817565b610cd5565b005b6103f460048036038101906103ef9190613772565b610f80565b005b610410600480360381019061040b9190613772565b610fcb565b60405161041d91906138bb565b60405180910390f35b61042e610ffc565b60405161043b91906138bb565b60405180910390f35b61044c611006565b60405161045991906134ed565b60405180910390f35b61047c600480360381019061047791906138d6565b611094565b005b61049860048036038101906104939190613955565b6110f4565b005b6104b460048036038101906104af9190613772565b611111565b6040516104c191906138bb565b60405180910390f35b6104e460048036038101906104df9190613427565b611125565b6040516104f191906134ed565b60405180910390f35b610514600480360381019061050f9190613732565b611137565b005b610530600480360381019061052b91906138d6565b61119d565b005b61054c60048036038101906105479190613427565b6111bd565b60405161055991906134ed565b60405180910390f35b61056a6112ad565b60405161057791906135af565b60405180910390f35b61059a60048036038101906105959190613982565b6112c0565b6040516105a791906136e4565b60405180910390f35b6105ca60048036038101906105c59190613427565b61137f565b6040516105d7919061360b565b60405180910390f35b6105fa60048036038101906105f59190613772565b611431565b005b610616600480360381019061061191906139e2565b6115bd565b60405161062391906138bb565b60405180910390f35b61064660048036038101906106419190613a0f565b611675565b005b610662600480360381019061065d9190613427565b6117d5565b005b61067e60048036038101906106799190613427565b6117e1565b60405161068b91906138bb565b60405180910390f35b6106ae60048036038101906106a99190613772565b6117fe565b005b6106b861184b565b6040516106c591906134ed565b60405180910390f35b6106e860048036038101906106e39190613427565b6118dd565b6040516106f591906134ed565b60405180910390f35b61071860048036038101906107139190613b92565b611a65565b005b610734600480360381019061072f9190613bdb565b611a7f565b005b61073e611c00565b60405161074b91906134ed565b60405180910390f35b61076e60048036038101906107699190613955565b611c8e565b005b61078a60048036038101906107859190613a0f565b611cab565b005b6107a660048036038101906107a19190613cbc565b611e2a565b005b6107b0611e8c565b6040516107bd91906134ed565b60405180910390f35b6107e060048036038101906107db9190613427565b611f1a565b6040516107ed91906134ed565b60405180910390f35b6107fe612076565b60405161080b91906135af565b60405180910390f35b61082e60048036038101906108299190613772565b612089565b60405161083b91906138bb565b60405180910390f35b61085e60048036038101906108599190613d3f565b6120ae565b60405161086b91906135af565b60405180910390f35b61088e60048036038101906108899190613772565b612142565b60405161089b91906138bb565b60405180910390f35b6108be60048036038101906108b99190613a0f565b612171565b005b60606108cb82612301565b61090a576040517f08c379a000000000000000000000000000000000000000000000000000000000815260040161090190613df1565b60405180910390fd5b60016000838152602001908152602001600020600001805461092b90613e40565b80601f016020809104026020016040519081016040528092919081815260200182805461095790613e40565b80156109a45780601f10610979576101008083540402835291602001916109a4565b820191906000526020600020905b81548152906001019060200180831161098757829003601f168201915b50505050509050919050565b60006109bb8261232e565b9050919050565b6060600580546109d190613e40565b80601f01602080910402602001604051908101604052809291908181526020018280546109fd90613e40565b8015610a4a5780601f10610a1f57610100808354040283529160200191610a4a565b820191906000526020600020905b815481529060010190602001808311610a2d57829003601f168201915b5050505050905090565b6000610a5f82612410565b610a9e576040517f08c379a0000000000000000000000000000000000000000000000000000000008152600401610a9590613ee4565b60405180910390fd5b6009600083815260200190815260200160002060009054906101000a900473ffffffffffffffffffffffffffffffffffffffff169050919050565b606060046000838152602001908152602001600020805480602002602001604051908101604052809291908181526020018280548015610b3857602002820191906000526020600020905b815481526020019060010190808311610b24575b50505050509050919050565b6000610b4f8261137f565b90508073ffffffffffffffffffffffffffffffffffffffff168373ffffffffffffffffffffffffffffffffffffffff161415610bc0576040517f08c379a0000000000000000000000000000000000000000000000000000000008152600401610bb790613f76565b60405180910390fd5b8073ffffffffffffffffffffffffffffffffffffffff16610bdf61247c565b73ffffffffffffffffffffffffffffffffffffffff161480610c0e5750610c0d81610c0861247c565b6120ae565b5b610c4d576040517f08c379a0000000000000000000000000000000000000000000000000000000008152600401610c4490614008565b60405180910390fd5b610c578383612484565b505050565b610c66828261253d565b610ca5576040517f08c379a0000000000000000000000000000000000000000000000000000000008152600401610c9c9061409a565b60405180910390fd5b8060036000848152602001908152602001600020819055505050565b6000610ccd838361253d565b905092915050565b6000610cdf61247c565b9050610d8181600088888880806020026020016040519081016040528093929190818152602001838360200280828437600081840152601f19601f82011690508083019250505050505050878780806020026020016040519081016040528093929190818152602001838360200280828437600081840152601f19601f820116905080830192505050505050506040518060200160405280600081525061256e565b60005b85859050811015610f0a57610db1868683818110610da557610da46140ba565b5b90506020020135612301565b610df0576040517f08c379a0000000000000000000000000000000000000000000000000000000008152600401610de79061415b565b60405180910390fd5b600060026000888885818110610e0957610e086140ba565b5b9050602002013581526020019081526020016000206000898152602001908152602001600020541415610e8a5760046000888152602001908152602001600020868683818110610e5c57610e5b6140ba565b5b9050602002013590806001815401808255809150506001900390600052602060002001600090919091909150555b838382818110610e9d57610e9c6140ba565b5b9050602002013560026000888885818110610ebb57610eba6140ba565b5b90506020020135815260200190815260200160002060008981526020019081526020016000206000828254610ef091906141aa565b925050819055508080610f0290614200565b915050610d84565b508484604051610f1b9291906142b5565b60405180910390208173ffffffffffffffffffffffffffffffffffffffff167fbfb4d8e5891aebe97980c97616b6b0af2006a58ccabe6e1b7e3da24d0906a8566000898787604051610f70949392919061436f565b60405180910390a3505050505050565b6000600383610f8f91906143af565b600d54610f9c91906141aa565b9050610fa88383611431565b610fc630610fb58561137f565b8484610fc191906141aa565b612576565b505050565b60046020528160005260406000208181548110610fe757600080fd5b90600052602060002001600091509150505481565b6000600e54905090565b6011805461101390613e40565b80601f016020809104026020016040519081016040528092919081815260200182805461103f90613e40565b801561108c5780601f106110615761010080835404028352916020019161108c565b820191906000526020600020905b81548152906001019060200180831161106f57829003601f168201915b505050505081565b6110a561109f61247c565b826127d2565b6110e4576040517f08c379a00000000000000000000000000000000000000000000000000000000081526004016110db9061447b565b60405180910390fd5b6110ef838383612576565b505050565b80600c60016101000a81548160ff02191690831515021790555050565b600061111d8383612142565b905092915050565b6060611130826108c0565b9050919050565b600c60009054906101000a900460ff16611186576040517f08c379a000000000000000000000000000000000000000000000000000000000815260040161117d906144e7565b60405180910390fd5b61119082826128b0565b611199816128ce565b5050565b6111b883838360405180602001604052806000815250611e2a565b505050565b60606111c882612301565b611207576040517f08c379a00000000000000000000000000000000000000000000000000000000081526004016111fe90614579565b60405180910390fd5b60016000838152602001908152602001600020600101805461122890613e40565b80601f016020809104026020016040519081016040528092919081815260200182805461125490613e40565b80156112a15780601f10611276576101008083540402835291602001916112a1565b820191906000526020600020905b81548152906001019060200180831161128457829003601f168201915b50505050509050919050565b600c60019054906101000a900460ff1681565b606060008383905067ffffffffffffffff8111156112e1576112e0613a67565b5b60405190808252806020026020018201604052801561130f5781602001602082028036833780820191505090505b50905060005b848490508110156113735761134386868684818110611337576113366140ba565b5b90506020020135612142565b828281518110611356576113556140ba565b5b6020026020010181815250508061136c90614200565b9050611315565b50809150509392505050565b6000806007600084815260200190815260200160002060009054906101000a900473ffffffffffffffffffffffffffffffffffffffff169050600073ffffffffffffffffffffffffffffffffffffffff168173ffffffffffffffffffffffffffffffffffffffff161415611428576040517f08c379a000000000000000000000000000000000000000000000000000000000815260040161141f9061460b565b60405180910390fd5b80915050919050565b61143a81612301565b611479576040517f08c379a00000000000000000000000000000000000000000000000000000000081526004016114709061469d565b60405180910390fd5b6000600260008381526020019081526020016000206000848152602001908152602001600020549050600081116114e5576040517f08c379a00000000000000000000000000000000000000000000000000000000081526004016114dc9061472f565b60405180910390fd5b60006114ef61247c565b905061151f8185600061150187612958565b61150a87612958565b6040518060200160405280600081525061256e565b6002600084815260200190815260200160002060008581526020019081526020016000206000905561156360046000868152602001908152602001600020846129d2565b828173ffffffffffffffffffffffffffffffffffffffff167f73b5fbfbf0177b0de2ffe9fd0ae9887dd73d0d865db7ab5ff3c4a6b9bb8db1e3866000866040516115af9392919061474f565b60405180910390a350505050565b60008073ffffffffffffffffffffffffffffffffffffffff168273ffffffffffffffffffffffffffffffffffffffff16141561162e576040517f08c379a0000000000000000000000000000000000000000000000000000000008152600401611625906147f8565b60405180910390fd5b600860008373ffffffffffffffffffffffffffffffffffffffff1673ffffffffffffffffffffffffffffffffffffffff168152602001908152602001600020549050919050565b61167e82612301565b6116bd576040517f08c379a00000000000000000000000000000000000000000000000000000000081526004016116b49061488a565b60405180910390fd5b6116c7838361253d565b611706576040517f08c379a00000000000000000000000000000000000000000000000000000000081526004016116fd9061472f565b60405180910390fd5b600061171061247c565b90506117408160008661172287612958565b61172b87612958565b6040518060200160405280600081525061256e565b81600260008581526020019081526020016000206000868152602001908152602001600020600082825461177491906141aa565b92505081905550828173ffffffffffffffffffffffffffffffffffffffff167f73b5fbfbf0177b0de2ffe9fd0ae9887dd73d0d865db7ab5ff3c4a6b9bb8db1e3600087866040516117c7939291906148aa565b60405180910390a350505050565b6117de81612a32565b50565b600060036000838152602001908152602001600020549050919050565b600060038361180d91906143af565b600d5461181a91906141aa565b905061182883836001611cab565b6118466118348461137f565b30848461184191906141aa565b612576565b505050565b60606006805461185a90613e40565b80601f016020809104026020016040519081016040528092919081815260200182805461188690613e40565b80156118d35780601f106118a8576101008083540402835291602001916118d3565b820191906000526020600020905b8154815290600101906020018083116118b657829003601f168201915b5050505050905090565b60606118e882612301565b611927576040517f08c379a000000000000000000000000000000000000000000000000000000000815260040161191e90614953565b60405180910390fd5b600060016000848152602001908152602001600020600201805461194a90613e40565b80601f016020809104026020016040519081016040528092919081815260200182805461197690613e40565b80156119c35780601f10611998576101008083540402835291602001916119c3565b820191906000526020600020905b8154815290600101906020018083116119a657829003601f168201915b50505050509050600081511115611a0657806119de84612a85565b6040516020016119ef9291906149af565b604051602081830303815290604052915050611a60565b6000808054611a1490613e40565b905011611a305760405180602001604052806000815250611a5c565b6000611a3b84612a85565b604051602001611a4c929190614a67565b6040516020818303038152906040525b9150505b919050565b8060129080519060200190611a7b9291906132fa565b5050565b611a8761247c565b73ffffffffffffffffffffffffffffffffffffffff168273ffffffffffffffffffffffffffffffffffffffff161415611af5576040517f08c379a0000000000000000000000000000000000000000000000000000000008152600401611aec90614ad7565b60405180910390fd5b80600a6000611b0261247c565b73ffffffffffffffffffffffffffffffffffffffff1673ffffffffffffffffffffffffffffffffffffffff16815260200190815260200160002060008473ffffffffffffffffffffffffffffffffffffffff1673ffffffffffffffffffffffffffffffffffffffff16815260200190815260200160002060006101000a81548160ff0219169083151502179055508173ffffffffffffffffffffffffffffffffffffffff16611baf61247c565b73ffffffffffffffffffffffffffffffffffffffff167f17307eab39ab6107e8899845ad3d59bd9653f200f220920489ca2b5937696c3183604051611bf491906135af565b60405180910390a35050565b60108054611c0d90613e40565b80601f0160208091040260200160405190810160405280929190818152602001828054611c3990613e40565b8015611c865780601f10611c5b57610100808354040283529160200191611c86565b820191906000526020600020905b815481529060010190602001808311611c6957829003601f168201915b505050505081565b80600c60006101000a81548160ff02191690831515021790555050565b611cb482612301565b611cf3576040517f08c379a0000000000000000000000000000000000000000000000000000000008152600401611cea90614b69565b60405180910390fd5b6000611cfd61247c565b9050611d2d81600086611d0f87612958565b611d1887612958565b6040518060200160405280600081525061256e565b6000600260008581526020019081526020016000206000868152602001908152602001600020541415611d9557600460008581526020019081526020016000208390806001815401808255809150506001900390600052602060002001600090919091909150555b816002600085815260200190815260200160002060008681526020019081526020016000206000828254611dc991906141aa565b92505081905550828173ffffffffffffffffffffffffffffffffffffffff167f73b5fbfbf0177b0de2ffe9fd0ae9887dd73d0d865db7ab5ff3c4a6b9bb8db1e360008786604051611e1c939291906148aa565b60405180910390a350505050565b611e3b611e3561247c565b836127d2565b611e7a576040517f08c379a0000000000000000000000000000000000000000000000000000000008152600401611e719061447b565b60405180910390fd5b611e8684848484612be6565b50505050565b600f8054611e9990613e40565b80601f0160208091040260200160405190810160405280929190818152602001828054611ec590613e40565b8015611f125780601f10611ee757610100808354040283529160200191611f12565b820191906000526020600020905b815481529060010190602001808311611ef557829003601f168201915b505050505081565b6060611f2582612410565b611f64576040517f08c379a0000000000000000000000000000000000000000000000000000000008152600401611f5b90614bfb565b60405180910390fd5b60001515600c60019054906101000a900460ff16151514156120125760118054611f8d90613e40565b80601f0160208091040260200160405190810160405280929190818152602001828054611fb990613e40565b80156120065780601f10611fdb57610100808354040283529160200191612006565b820191906000526020600020905b815481529060010190602001808311611fe957829003601f168201915b50505050509050612071565b600061201c612c42565b9050600081511161203c576040518060200160405280600081525061206d565b60108161204885612a85565b600f60405160200161205d9493929190614c1b565b6040516020818303038152906040525b9150505b919050565b600c60009054906101000a900460ff1681565b6002602052816000526040600020602052806000526040600020600091509150505481565b6000600a60008473ffffffffffffffffffffffffffffffffffffffff1673ffffffffffffffffffffffffffffffffffffffff16815260200190815260200160002060008373ffffffffffffffffffffffffffffffffffffffff1673ffffffffffffffffffffffffffffffffffffffff16815260200190815260200160002060009054906101000a900460ff16905092915050565b600060026000838152602001908152602001600020600084815260200190815260200160002054905092915050565b61217a82612301565b6121b9576040517f08c379a00000000000000000000000000000000000000000000000000000000081526004016121b090614ccb565b60405180910390fd5b6121c3838361253d565b612202576040517f08c379a00000000000000000000000000000000000000000000000000000000081526004016121f99061472f565b60405180910390fd5b600061220c61247c565b905061223c8185600061221e87612958565b61222787612958565b6040518060200160405280600081525061256e565b60006002600085815260200190815260200160002060008681526020019081526020016000205490508281101561227257600080fd5b828161227e9190614ceb565b60026000868152602001908152602001600020600087815260200190815260200160002081905550838273ffffffffffffffffffffffffffffffffffffffff167f73b5fbfbf0177b0de2ffe9fd0ae9887dd73d0d865db7ab5ff3c4a6b9bb8db1e3876000876040516122f29392919061474f565b60405180910390a35050505050565b60006001600083815260200190815260200160002060030160009054906101000a900460ff169050919050565b60007f80ac58cd000000000000000000000000000000000000000000000000000000007bffffffffffffffffffffffffffffffffffffffffffffffffffffffff1916827bffffffffffffffffffffffffffffffffffffffffffffffffffffffff191614806123f957507f5b5e139f000000000000000000000000000000000000000000000000000000007bffffffffffffffffffffffffffffffffffffffffffffffffffffffff1916827bffffffffffffffffffffffffffffffffffffffffffffffffffffffff1916145b80612409575061240882612cd4565b5b9050919050565b60008073ffffffffffffffffffffffffffffffffffffffff166007600084815260200190815260200160002060009054906101000a900473ffffffffffffffffffffffffffffffffffffffff1673ffffffffffffffffffffffffffffffffffffffff1614159050919050565b600033905090565b816009600083815260200190815260200160002060006101000a81548173ffffffffffffffffffffffffffffffffffffffff021916908373ffffffffffffffffffffffffffffffffffffffff160217905550808273ffffffffffffffffffffffffffffffffffffffff166124f78361137f565b73ffffffffffffffffffffffffffffffffffffffff167f8c5be1e5ebec7d5bd14f71427d1e84f3dd0314c0f7b2291e5b200ac8c7c3b92560405160405180910390a45050565b6000806002600084815260200190815260200160002060008581526020019081526020016000205411905092915050565b505050505050565b8273ffffffffffffffffffffffffffffffffffffffff166125968261137f565b73ffffffffffffffffffffffffffffffffffffffff16146125ec576040517f08c379a00000000000000000000000000000000000000000000000000000000081526004016125e390614d91565b60405180910390fd5b600073ffffffffffffffffffffffffffffffffffffffff168273ffffffffffffffffffffffffffffffffffffffff16141561265c576040517f08c379a000000000000000000000000000000000000000000000000000000000815260040161265390614e23565b60405180910390fd5b612667838383612db6565b612672600082612484565b6001600860008573ffffffffffffffffffffffffffffffffffffffff1673ffffffffffffffffffffffffffffffffffffffff16815260200190815260200160002060008282546126c29190614ceb565b925050819055506001600860008473ffffffffffffffffffffffffffffffffffffffff1673ffffffffffffffffffffffffffffffffffffffff168152602001908152602001600020600082825461271991906141aa565b92505081905550816007600083815260200190815260200160002060006101000a81548173ffffffffffffffffffffffffffffffffffffffff021916908373ffffffffffffffffffffffffffffffffffffffff160217905550808273ffffffffffffffffffffffffffffffffffffffff168473ffffffffffffffffffffffffffffffffffffffff167fddf252ad1be2c89b69c2b068fc378daa952ba7f163c4a11628f55a4df523b3ef60405160405180910390a4505050565b60006127dd82612410565b61281c576040517f08c379a000000000000000000000000000000000000000000000000000000000815260040161281390614eb5565b60405180910390fd5b60006128278361137f565b90508073ffffffffffffffffffffffffffffffffffffffff168473ffffffffffffffffffffffffffffffffffffffff16148061289657508373ffffffffffffffffffffffffffffffffffffffff1661287e84610a54565b73ffffffffffffffffffffffffffffffffffffffff16145b806128a757506128a681856120ae565b5b91505092915050565b6128ca828260405180602001604052806000815250612dbb565b5050565b60006003826128dd91906143af565b600d546128ea91906141aa565b90506128f98260006001611cab565b61290582600180611cab565b6129128260026001611cab565b6129283060008361292391906141aa565b612e16565b61293e3060018361293991906141aa565b612e16565b6129543060028361294f91906141aa565b612e16565b5050565b60606000600167ffffffffffffffff81111561297757612976613a67565b5b6040519080825280602002602001820160405280156129a55781602001602082028036833780820191505090505b50905082816000815181106129bd576129bc6140ba565b5b60200260200101818152505080915050919050565b60005b818382815481106129e9576129e86140ba565b5b906000526020600020015414612a0c578080612a0490614200565b9150506129d5565b828181548110612a1f57612a1e6140ba565b5b9060005260206000200160009055505050565b612a3b81612fe4565b6000600b60008381526020019081526020016000208054612a5b90613e40565b905014612a8257600b60008281526020019081526020016000206000612a819190613380565b5b50565b60606000821415612acd576040518060400160405280600181526020017f30000000000000000000000000000000000000000000000000000000000000008152509050612be1565b600082905060005b60008214612aff578080612ae890614200565b915050600a82612af89190614f04565b9150612ad5565b60008167ffffffffffffffff811115612b1b57612b1a613a67565b5b6040519080825280601f01601f191660200182016040528015612b4d5781602001600182028036833780820191505090505b5090505b60008514612bda57600182612b669190614ceb565b9150600a85612b759190614f35565b6030612b8191906141aa565b60f81b818381518110612b9757612b966140ba565b5b60200101907effffffffffffffffffffffffffffffffffffffffffffffffffffffffffffff1916908160001a905350600a85612bd39190614f04565b9450612b51565b8093505050505b919050565b612bf1848484612576565b612bfd848484846130f5565b612c3c576040517f08c379a0000000000000000000000000000000000000000000000000000000008152600401612c3390614fd8565b60405180910390fd5b50505050565b606060128054612c5190613e40565b80601f0160208091040260200160405190810160405280929190818152602001828054612c7d90613e40565b8015612cca5780601f10612c9f57610100808354040283529160200191612cca565b820191906000526020600020905b815481529060010190602001808311612cad57829003601f168201915b5050505050905090565b60007f8ee1b373000000000000000000000000000000000000000000000000000000007bffffffffffffffffffffffffffffffffffffffffffffffffffffffff1916827bffffffffffffffffffffffffffffffffffffffffffffffffffffffff19161480612d9f57507fd5298fa3000000000000000000000000000000000000000000000000000000007bffffffffffffffffffffffffffffffffffffffffffffffffffffffff1916827bffffffffffffffffffffffffffffffffffffffffffffffffffffffff1916145b80612daf5750612dae8261327d565b5b9050919050565b505050565b612dc58383612e16565b612dd260008484846130f5565b612e11576040517f08c379a0000000000000000000000000000000000000000000000000000000008152600401612e0890614fd8565b60405180910390fd5b505050565b600073ffffffffffffffffffffffffffffffffffffffff168273ffffffffffffffffffffffffffffffffffffffff161415612e86576040517f08c379a0000000000000000000000000000000000000000000000000000000008152600401612e7d90615044565b60405180910390fd5b612e8f81612410565b15612ecf576040517f08c379a0000000000000000000000000000000000000000000000000000000008152600401612ec6906150b0565b60405180910390fd5b612edb60008383612db6565b6001600860008473ffffffffffffffffffffffffffffffffffffffff1673ffffffffffffffffffffffffffffffffffffffff1681526020019081526020016000206000828254612f2b91906141aa565b92505081905550816007600083815260200190815260200160002060006101000a81548173ffffffffffffffffffffffffffffffffffffffff021916908373ffffffffffffffffffffffffffffffffffffffff160217905550808273ffffffffffffffffffffffffffffffffffffffff16600073ffffffffffffffffffffffffffffffffffffffff167fddf252ad1be2c89b69c2b068fc378daa952ba7f163c4a11628f55a4df523b3ef60405160405180910390a45050565b6000612fef8261137f565b9050612ffd81600084612db6565b613008600083612484565b6001600860008373ffffffffffffffffffffffffffffffffffffffff1673ffffffffffffffffffffffffffffffffffffffff16815260200190815260200160002060008282546130589190614ceb565b925050819055506007600083815260200190815260200160002060006101000a81549073ffffffffffffffffffffffffffffffffffffffff021916905581600073ffffffffffffffffffffffffffffffffffffffff168273ffffffffffffffffffffffffffffffffffffffff167fddf252ad1be2c89b69c2b068fc378daa952ba7f163c4a11628f55a4df523b3ef60405160405180910390a45050565b60006131168473ffffffffffffffffffffffffffffffffffffffff166132e7565b15613270578373ffffffffffffffffffffffffffffffffffffffff1663150b7a0261313f61247c565b8786866040518563ffffffff1660e01b81526004016131619493929190615125565b6020604051808303816000875af192505050801561319d57506040513d601f19601f8201168201806040525081019061319a9190615186565b60015b613220573d80600081146131cd576040519150601f19603f3d011682016040523d82523d6000602084013e6131d2565b606091505b50600081511415613218576040517f08c379a000000000000000000000000000000000000000000000000000000000815260040161320f90614fd8565b60405180910390fd5b805181602001fd5b63150b7a0260e01b7bffffffffffffffffffffffffffffffffffffffffffffffffffffffff1916817bffffffffffffffffffffffffffffffffffffffffffffffffffffffff191614915050613275565b600190505b949350505050565b60007f01ffc9a7000000000000000000000000000000000000000000000000000000007bffffffffffffffffffffffffffffffffffffffffffffffffffffffff1916827bffffffffffffffffffffffffffffffffffffffffffffffffffffffff1916149050919050565b600080823b905060008111915050919050565b82805461330690613e40565b90600052602060002090601f016020900481019282613328576000855561336f565b82601f1061334157805160ff191683800117855561336f565b8280016001018555821561336f579182015b8281111561336e578251825591602001919060010190613353565b5b50905061337c91906133c0565b5090565b50805461338c90613e40565b6000825580601f1061339e57506133bd565b601f0160209004906000526020600020908101906133bc91906133c0565b5b50565b5b808211156133d95760008160009055506001016133c1565b5090565b6000604051905090565b600080fd5b600080fd5b6000819050919050565b613404816133f1565b811461340f57600080fd5b50565b600081359050613421816133fb565b92915050565b60006020828403121561343d5761343c6133e7565b5b600061344b84828501613412565b91505092915050565b600081519050919050565b600082825260208201905092915050565b60005b8381101561348e578082015181840152602081019050613473565b8381111561349d576000848401525b50505050565b6000601f19601f8301169050919050565b60006134bf82613454565b6134c9818561345f565b93506134d9818560208601613470565b6134e2816134a3565b840191505092915050565b6000602082019050818103600083015261350781846134b4565b905092915050565b60007fffffffff0000000000000000000000000000000000000000000000000000000082169050919050565b6135448161350f565b811461354f57600080fd5b50565b6000813590506135618161353b565b92915050565b60006020828403121561357d5761357c6133e7565b5b600061358b84828501613552565b91505092915050565b60008115159050919050565b6135a981613594565b82525050565b60006020820190506135c460008301846135a0565b92915050565b600073ffffffffffffffffffffffffffffffffffffffff82169050919050565b60006135f5826135ca565b9050919050565b613605816135ea565b82525050565b600060208201905061362060008301846135fc565b92915050565b600081519050919050565b600082825260208201905092915050565b6000819050602082019050919050565b61365b816133f1565b82525050565b600061366d8383613652565b60208301905092915050565b6000602082019050919050565b600061369182613626565b61369b8185613631565b93506136a683613642565b8060005b838110156136d75781516136be8882613661565b97506136c983613679565b9250506001810190506136aa565b5085935050505092915050565b600060208201905081810360008301526136fe8184613686565b905092915050565b61370f816135ea565b811461371a57600080fd5b50565b60008135905061372c81613706565b92915050565b60008060408385031215613749576137486133e7565b5b60006137578582860161371d565b925050602061376885828601613412565b9150509250929050565b60008060408385031215613789576137886133e7565b5b600061379785828601613412565b92505060206137a885828601613412565b9150509250929050565b600080fd5b600080fd5b600080fd5b60008083601f8401126137d7576137d66137b2565b5b8235905067ffffffffffffffff8111156137f4576137f36137b7565b5b6020830191508360208202830111156138105761380f6137bc565b5b9250929050565b600080600080600060608688031215613833576138326133e7565b5b600061384188828901613412565b955050602086013567ffffffffffffffff811115613862576138616133ec565b5b61386e888289016137c1565b9450945050604086013567ffffffffffffffff811115613891576138906133ec565b5b61389d888289016137c1565b92509250509295509295909350565b6138b5816133f1565b82525050565b60006020820190506138d060008301846138ac565b92915050565b6000806000606084860312156138ef576138ee6133e7565b5b60006138fd8682870161371d565b935050602061390e8682870161371d565b925050604061391f86828701613412565b9150509250925092565b61393281613594565b811461393d57600080fd5b50565b60008135905061394f81613929565b92915050565b60006020828403121561396b5761396a6133e7565b5b600061397984828501613940565b91505092915050565b60008060006040848603121561399b5761399a6133e7565b5b60006139a986828701613412565b935050602084013567ffffffffffffffff8111156139ca576139c96133ec565b5b6139d6868287016137c1565b92509250509250925092565b6000602082840312156139f8576139f76133e7565b5b6000613a068482850161371d565b91505092915050565b600080600060608486031215613a2857613a276133e7565b5b6000613a3686828701613412565b9350506020613a4786828701613412565b9250506040613a5886828701613412565b9150509250925092565b600080fd5b7f4e487b7100000000000000000000000000000000000000000000000000000000600052604160045260246000fd5b613a9f826134a3565b810181811067ffffffffffffffff82111715613abe57613abd613a67565b5b80604052505050565b6000613ad16133dd565b9050613add8282613a96565b919050565b600067ffffffffffffffff821115613afd57613afc613a67565b5b613b06826134a3565b9050602081019050919050565b82818337600083830152505050565b6000613b35613b3084613ae2565b613ac7565b905082815260208101848484011115613b5157613b50613a62565b5b613b5c848285613b13565b509392505050565b600082601f830112613b7957613b786137b2565b5b8135613b89848260208601613b22565b91505092915050565b600060208284031215613ba857613ba76133e7565b5b600082013567ffffffffffffffff811115613bc657613bc56133ec565b5b613bd284828501613b64565b91505092915050565b60008060408385031215613bf257613bf16133e7565b5b6000613c008582860161371d565b9250506020613c1185828601613940565b9150509250929050565b600067ffffffffffffffff821115613c3657613c35613a67565b5b613c3f826134a3565b9050602081019050919050565b6000613c5f613c5a84613c1b565b613ac7565b905082815260208101848484011115613c7b57613c7a613a62565b5b613c86848285613b13565b509392505050565b600082601f830112613ca357613ca26137b2565b5b8135613cb3848260208601613c4c565b91505092915050565b60008060008060808587031215613cd657613cd56133e7565b5b6000613ce48782880161371d565b9450506020613cf58782880161371d565b9350506040613d0687828801613412565b925050606085013567ffffffffffffffff811115613d2757613d266133ec565b5b613d3387828801613c8e565b91505092959194509250565b60008060408385031215613d5657613d556133e7565b5b6000613d648582860161371d565b9250506020613d758582860161371d565b9150509250929050565b7f455243333636343a206e616d6520717565727920666f72206e6f6e657869737460008201527f656e742061747472696275746500000000000000000000000000000000000000602082015250565b6000613ddb602d8361345f565b9150613de682613d7f565b604082019050919050565b60006020820190508181036000830152613e0a81613dce565b9050919050565b7f4e487b7100000000000000000000000000000000000000000000000000000000600052602260045260246000fd5b60006002820490506001821680613e5857607f821691505b60208210811415613e6c57613e6b613e11565b5b50919050565b7f4552433732313a20617070726f76656420717565727920666f72206e6f6e657860008201527f697374656e7420746f6b656e0000000000000000000000000000000000000000602082015250565b6000613ece602c8361345f565b9150613ed982613e72565b604082019050919050565b60006020820190508181036000830152613efd81613ec1565b9050919050565b7f4552433732313a20617070726f76616c20746f2063757272656e74206f776e6560008201527f7200000000000000000000000000000000000000000000000000000000000000602082015250565b6000613f6060218361345f565b9150613f6b82613f04565b604082019050919050565b60006020820190508181036000830152613f8f81613f53565b9050919050565b7f4552433732313a20617070726f76652063616c6c6572206973206e6f74206f7760008201527f6e6572206e6f7220617070726f76656420666f7220616c6c0000000000000000602082015250565b6000613ff260388361345f565b9150613ffd82613f96565b604082019050919050565b6000602082019050818103600083015261402181613fe5565b9050919050565b7f455243333636343a20746f6b656e20686173206e6f742061747461636865642060008201527f7468652061747472696275746500000000000000000000000000000000000000602082015250565b6000614084602d8361345f565b915061408f82614028565b604082019050919050565b600060208201905081810360008301526140b381614077565b9050919050565b7f4e487b7100000000000000000000000000000000000000000000000000000000600052603260045260246000fd5b7f455243333636343a20626174636841747461636820666f72206e6f6e6578697360008201527f74656e7420617474726962757465000000000000000000000000000000000000602082015250565b6000614145602e8361345f565b9150614150826140e9565b604082019050919050565b6000602082019050818103600083015261417481614138565b9050919050565b7f4e487b7100000000000000000000000000000000000000000000000000000000600052601160045260246000fd5b60006141b5826133f1565b91506141c0836133f1565b9250827fffffffffffffffffffffffffffffffffffffffffffffffffffffffffffffffff038211156141f5576141f461417b565b5b828201905092915050565b600061420b826133f1565b91507fffffffffffffffffffffffffffffffffffffffffffffffffffffffffffffffff82141561423e5761423d61417b565b5b600182019050919050565b600081905092915050565b600080fd5b60006142658385614249565b93507f07ffffffffffffffffffffffffffffffffffffffffffffffffffffffffffffff83111561429857614297614254565b5b6020830292506142a9838584613b13565b82840190509392505050565b60006142c2828486614259565b91508190509392505050565b6000819050919050565b6000819050919050565b60006142fd6142f86142f3846142ce565b6142d8565b6133f1565b9050919050565b61430d816142e2565b82525050565b600061431f8385613631565b93507f07ffffffffffffffffffffffffffffffffffffffffffffffffffffffffffffff83111561435257614351614254565b5b602083029250614363838584613b13565b82840190509392505050565b60006060820190506143846000830187614304565b61439160208301866138ac565b81810360408301526143a4818486614313565b905095945050505050565b60006143ba826133f1565b91506143c5836133f1565b9250817fffffffffffffffffffffffffffffffffffffffffffffffffffffffffffffffff04831182151516156143fe576143fd61417b565b5b828202905092915050565b7f4552433732313a207472616e736665722063616c6c6572206973206e6f74206f60008201527f776e6572206e6f7220617070726f766564000000000000000000000000000000602082015250565b600061446560318361345f565b915061447082614409565b604082019050919050565b6000602082019050818103600083015261449481614458565b9050919050565b7f4e6f742079657420737461727465642073656c6c696e67000000000000000000600082015250565b60006144d160178361345f565b91506144dc8261449b565b602082019050919050565b60006020820190508181036000830152614500816144c4565b9050919050565b7f455243333636343a2073796d626f6c20717565727920666f72206e6f6e65786960008201527f7374656e74206174747269627574650000000000000000000000000000000000602082015250565b6000614563602f8361345f565b915061456e82614507565b604082019050919050565b6000602082019050818103600083015261459281614556565b9050919050565b7f4552433732313a206f776e657220717565727920666f72206e6f6e657869737460008201527f656e7420746f6b656e0000000000000000000000000000000000000000000000602082015250565b60006145f560298361345f565b915061460082614599565b604082019050919050565b60006020820190508181036000830152614624816145e8565b9050919050565b7f45524333363634557064617461626c653a2072656d6f766520666f72206e6f6e60008201527f6578697374656e74206174747269627574650000000000000000000000000000602082015250565b600061468760328361345f565b91506146928261462b565b604082019050919050565b600060208201905081810360008301526146b68161467a565b9050919050565b7f45524333363634557064617461626c653a20746f6b656e20686173206e6f742060008201527f6174746163686564207468652061747472696275746500000000000000000000602082015250565b600061471960368361345f565b9150614724826146bd565b604082019050919050565b600060208201905081810360008301526147488161470c565b9050919050565b600060608201905061476460008301866138ac565b6147716020830185614304565b61477e60408301846138ac565b949350505050565b7f4552433732313a2062616c616e636520717565727920666f7220746865207a6560008201527f726f206164647265737300000000000000000000000000000000000000000000602082015250565b60006147e2602a8361345f565b91506147ed82614786565b604082019050919050565b60006020820190508181036000830152614811816147d5565b9050919050565b7f45524333363634557064617461626c653a20696e63726561736520666f72206e60008201527f6f6e6578697374656e7420617474726962757465000000000000000000000000602082015250565b600061487460348361345f565b915061487f82614818565b604082019050919050565b600060208201905081810360008301526148a381614867565b9050919050565b60006060820190506148bf6000830186614304565b6148cc60208301856138ac565b6148d960408301846138ac565b949350505050565b7f455243333636343a2055524920717565727920666f72206e6f6e65786973746560008201527f6e74206174747269627574650000000000000000000000000000000000000000602082015250565b600061493d602c8361345f565b9150614948826148e1565b604082019050919050565b6000602082019050818103600083015261496c81614930565b9050919050565b600081905092915050565b600061498982613454565b6149938185614973565b93506149a3818560208601613470565b80840191505092915050565b60006149bb828561497e565b91506149c7828461497e565b91508190509392505050565b60008190508160005260206000209050919050565b600081546149f581613e40565b6149ff8186614973565b94506001821660008114614a1a5760018114614a2b57614a5e565b60ff19831686528186019350614a5e565b614a34856149d3565b60005b83811015614a5657815481890152600182019150602081019050614a37565b838801955050505b50505092915050565b6000614a7382856149e8565b9150614a7f828461497e565b91508190509392505050565b7f4552433732313a20617070726f766520746f2063616c6c657200000000000000600082015250565b6000614ac160198361345f565b9150614acc82614a8b565b602082019050919050565b60006020820190508181036000830152614af081614ab4565b9050919050565b7f455243333636343a2061747461636820666f72206e6f6e6578697374656e742060008201527f6174747269627574650000000000000000000000000000000000000000000000602082015250565b6000614b5360298361345f565b9150614b5e82614af7565b604082019050919050565b60006020820190508181036000830152614b8281614b46565b9050919050565b7f4552433732314d657461646174613a2055524920717565727920666f72206e6f60008201527f6e6578697374656e7420746f6b656e0000000000000000000000000000000000602082015250565b6000614be5602f8361345f565b9150614bf082614b89565b604082019050919050565b60006020820190508181036000830152614c1481614bd8565b9050919050565b6000614c2782876149e8565b9150614c33828661497e565b9150614c3f828561497e565b9150614c4b82846149e8565b915081905095945050505050565b7f45524333363634557064617461626c653a20646563726561736520666f72206e60008201527f6f6e6578697374656e7420617474726962757465000000000000000000000000602082015250565b6000614cb560348361345f565b9150614cc082614c59565b604082019050919050565b60006020820190508181036000830152614ce481614ca8565b9050919050565b6000614cf6826133f1565b9150614d01836133f1565b925082821015614d1457614d1361417b565b5b828203905092915050565b7f4552433732313a207472616e73666572206f6620746f6b656e2074686174206960008201527f73206e6f74206f776e0000000000000000000000000000000000000000000000602082015250565b6000614d7b60298361345f565b9150614d8682614d1f565b604082019050919050565b60006020820190508181036000830152614daa81614d6e565b9050919050565b7f4552433732313a207472616e7366657220746f20746865207a65726f2061646460008201527f7265737300000000000000000000000000000000000000000000000000000000602082015250565b6000614e0d60248361345f565b9150614e1882614db1565b604082019050919050565b60006020820190508181036000830152614e3c81614e00565b9050919050565b7f4552433732313a206f70657261746f7220717565727920666f72206e6f6e657860008201527f697374656e7420746f6b656e0000000000000000000000000000000000000000602082015250565b6000614e9f602c8361345f565b9150614eaa82614e43565b604082019050919050565b60006020820190508181036000830152614ece81614e92565b9050919050565b7f4e487b7100000000000000000000000000000000000000000000000000000000600052601260045260246000fd5b6000614f0f826133f1565b9150614f1a836133f1565b925082614f2a57614f29614ed5565b5b828204905092915050565b6000614f40826133f1565b9150614f4b836133f1565b925082614f5b57614f5a614ed5565b5b828206905092915050565b7f4552433732313a207472616e7366657220746f206e6f6e20455243373231526560008201527f63656976657220696d706c656d656e7465720000000000000000000000000000602082015250565b6000614fc260328361345f565b9150614fcd82614f66565b604082019050919050565b60006020820190508181036000830152614ff181614fb5565b9050919050565b7f4552433732313a206d696e7420746f20746865207a65726f2061646472657373600082015250565b600061502e60208361345f565b915061503982614ff8565b602082019050919050565b6000602082019050818103600083015261505d81615021565b9050919050565b7f4552433732313a20746f6b656e20616c7265616479206d696e74656400000000600082015250565b600061509a601c8361345f565b91506150a582615064565b602082019050919050565b600060208201905081810360008301526150c98161508d565b9050919050565b600081519050919050565b600082825260208201905092915050565b60006150f7826150d0565b61510181856150db565b9350615111818560208601613470565b61511a816134a3565b840191505092915050565b600060808201905061513a60008301876135fc565b61514760208301866135fc565b61515460408301856138ac565b818103606083015261516681846150ec565b905095945050505050565b6000815190506151808161353b565b92915050565b60006020828403121561519c5761519b6133e7565b5b60006151aa84828501615171565b9150509291505056fea2646970667358221220adc671680a23f4334c8089ca1c221a570e707d140e58842a0e387f6433f19c9164736f6c634300080b0033516d59376950396d354e5968766d716a677237646d555344694d6e6476446477554848396a4d6665426b5a5576482f697066733a2f2f516d59376950396d354e5968766d716a677237646d555344694d6e6476446477554848396a4d6665426b5a5576482f756e7061636b2e6a736f6e",
  "immutableReferences": {},
  "source": "pragma solidity ^0.8.0;\n\nimport \"./ERC3664/extensions/ERC3664Updatable.sol\";\nimport \"openzeppelin-solidity/contracts/token/ERC721/extensions/ERC721URIStorage.sol\";\n\n\ncontract Character is ERC3664Updatable, ERC721URIStorage{\n    using Strings for uint256;\n\n    bool public _isSalesActive;\n    bool public _isReveal;\n\n    uint256 private totalSupply = 6;\n    uint256 private attrQuantity;\n    \n    string public baseExtension = \".json\";\n    string public baseHeader = \"ipfs://\";\n    string public notRevealUri;\n    string baseURI;\n\n    constructor() ERC721(\"Item_nft\", \"ITEM\") ERC3664(\"http://localhost:3000/\"){\n        attrQuantity = 3;\n        _mint(0, 'attack', 'ATTACK', '');\n        _mint(1, 'speed', 'SPEED', '');\n        _mint(2, 'defense', 'DEFENSE', '');\n        baseURI = \"QmY7iP9m5NYhvmqjgr7dmUSDiMndvDdwUHH9jMfeBkZUvH/\";\n        _isSalesActive = true;\n        _isReveal = false;\n        notRevealUri = \"ipfs://QmY7iP9m5NYhvmqjgr7dmUSDiMndvDdwUHH9jMfeBkZUvH/unpack.json\";\n    }\n\n    function supportsInterface(bytes4 interfaceId)\n        public\n        view\n        virtual\n        override(ERC3664, ERC721)\n    returns (bool)\n    {\n        return super.supportsInterface(interfaceId);\n    }\n\n    function getAttrQuantity() external view returns(uint256){\n        return attrQuantity;\n    }\n\n    function mint(address to, uint256 tokenId) public {\n        require(_isSalesActive, \"Not yet started selling\");\n        _safeMint(to, tokenId);\n        _afterMintToken(tokenId);\n    }\n\n    function getAttrAmount(uint256 tokenId, uint attrId) public view returns(uint256){\n        return ERC3664.balanceOf(tokenId, attrId);\n    }\n    function getAttrName(uint256 attrId) public view returns(string memory){\n        return ERC3664.name(attrId);\n    }\n\n    function  setBaseUri(string memory URI) public{    //modify onlyOwner\n        baseURI = URI;\n    }\n\n    function _baseURI() internal view virtual override returns(string memory){\n        return baseURI;\n    }\n\n    function tokenURI(uint256 tokenId)\n        public\n        view\n        virtual\n        override\n        returns (string memory)\n    {\n        require(\n            _exists(tokenId),\n            \"ERC721Metadata: URI query for nonexistent token\"\n        );\n\n        if(_isReveal == false){\n            return notRevealUri;\n        }\n\n        string memory currentBaseURI = _baseURI();\n        return\n            bytes(currentBaseURI).length > 0\n                ? string(\n                    abi.encodePacked(\n                        baseHeader,\n                        currentBaseURI,\n                        tokenId.toString(),\n                        baseExtension\n                    )\n                )\n                : \"\";\n    }\n\n    function burnToken(uint256 tokenId) public {   //Temp public\n        _burn(tokenId);\n    }\n\n    function hasAttr(uint256 tokenId, uint256 attrId) external view returns(bool) { //Temp public\n        return  _hasAttr(tokenId, attrId);\n    }\n\n    function _afterMintToken(uint256 tokenId) internal {\n        uint256 id = totalSupply + tokenId * 3;\n        attach(tokenId, 0, 1);\n        attach(tokenId, 1, 1);\n        attach(tokenId, 2, 1);\n        _mint(address(this), id + 0);\n        _mint(address(this), id + 1);\n        _mint(address(this), id + 2);\n    }\n\n    function seperate(uint256 tokenId, uint256 attrId) external {   //seperate attribute from token\n        uint256 id = totalSupply + tokenId * 3;\n        remove(tokenId, attrId);\n        _transfer(address(this), ownerOf(tokenId), id + attrId);\n    }\n\n    function combine(uint256 tokenId, uint256 attrId) external {    //combine attribute with token\n        uint256 id = totalSupply + tokenId * 3;\n        attach(tokenId, attrId, 1);\n        _transfer( ownerOf(tokenId), address(this), id + attrId);\n    }\n\n    function  setSalesActive(bool state) public {    //modify onlyOwner\n        _isSalesActive = state;\n    }\n\n    function  setReveal(bool state) public{    //modify onlyOwner\n        _isReveal = state;\n    }\n}\n",
  "sourcePath": "/Users/li/Character/src/contracts/Character.sol",
  "compiler": {
    "name": "solc",
    "version": "0.8.11+commit.d7f03943.Emscripten.clang"
  },
  "schemaVersion": "3.4.4",
  "updatedAt": "2022-03-06T19:18:54.432Z",
  "networkType": "ethereum",
  "devdoc": {
    "kind": "dev",
    "methods": {
      "approve(address,uint256)": {
        "details": "See {IERC721-approve}."
      },
      "attach(uint256,uint256,uint256)": {
        "details": "See {IERC3664-attach}."
      },
      "attrURI(uint256)": {
        "details": "See {IERC721Metadata-attrURI}."
      },
      "attributesOf(uint256)": {
        "details": "See {IERC3664-attributesOf}."
      },
      "balanceOf(address)": {
        "details": "See {IERC721-balanceOf}."
      },
      "balanceOf(uint256,uint256)": {
        "details": "See {IERC3664-balanceOf}."
      },
      "balanceOfBatch(uint256,uint256[])": {
        "details": "See {IERC3664-balanceOfBatch}."
      },
      "batchAttach(uint256,uint256[],uint256[])": {
        "details": "See {IERC3664-batchAttach}."
      },
      "decrease(uint256,uint256,uint256)": {
        "details": "See {IERC3664Updatable-decrease}."
      },
      "getApproved(uint256)": {
        "details": "See {IERC721-getApproved}."
      },
      "increase(uint256,uint256,uint256)": {
        "details": "See {IERC3664Updatable-increase}."
      },
      "isApprovedForAll(address,address)": {
        "details": "See {IERC721-isApprovedForAll}."
      },
      "name()": {
        "details": "See {IERC721Metadata-name}."
      },
      "name(uint256)": {
        "details": "See {IERC3664Metadata-name}."
      },
      "ownerOf(uint256)": {
        "details": "See {IERC721-ownerOf}."
      },
      "primaryAttributeOf(uint256)": {
        "details": "See {IERC3664-primaryAttributeOf}."
      },
      "remove(uint256,uint256)": {
        "details": "See {IERC3664Updatable-remove}."
      },
      "safeTransferFrom(address,address,uint256)": {
        "details": "See {IERC721-safeTransferFrom}."
      },
      "safeTransferFrom(address,address,uint256,bytes)": {
        "details": "See {IERC721-safeTransferFrom}."
      },
      "setApprovalForAll(address,bool)": {
        "details": "See {IERC721-setApprovalForAll}."
      },
      "setPrimaryAttribute(uint256,uint256)": {
        "details": "See {IERC3664-setPrimaryAttribute}."
      },
      "symbol()": {
        "details": "See {IERC721Metadata-symbol}."
      },
      "symbol(uint256)": {
        "details": "See {IERC3664Metadata-symbol}."
      },
      "tokenURI(uint256)": {
        "details": "See {IERC721Metadata-tokenURI}."
      },
      "transferFrom(address,address,uint256)": {
        "details": "See {IERC721-transferFrom}."
      }
    },
    "version": 1
  },
  "userdoc": {
    "kind": "user",
    "methods": {},
    "version": 1
  }
}