{
  "contractName": "Character",
  "abi": [
    {
      "inputs": [],
      "stateMutability": "nonpayable",
      "type": "constructor"
    },
    {
      "anonymous": false,
      "inputs": [
        {
          "indexed": true,
          "internalType": "address",
          "name": "owner",
          "type": "address"
        },
        {
          "indexed": true,
          "internalType": "address",
          "name": "approved",
          "type": "address"
        },
        {
          "indexed": true,
          "internalType": "uint256",
          "name": "tokenId",
          "type": "uint256"
        }
      ],
      "name": "Approval",
      "type": "event"
    },
    {
      "anonymous": false,
      "inputs": [
        {
          "indexed": true,
          "internalType": "address",
          "name": "owner",
          "type": "address"
        },
        {
          "indexed": true,
          "internalType": "address",
          "name": "operator",
          "type": "address"
        },
        {
          "indexed": false,
          "internalType": "bool",
          "name": "approved",
          "type": "bool"
        }
      ],
      "name": "ApprovalForAll",
      "type": "event"
    },
    {
      "anonymous": false,
      "inputs": [
        {
          "indexed": true,
          "internalType": "uint256",
          "name": "attrId",
          "type": "uint256"
        },
        {
          "indexed": false,
          "internalType": "string",
          "name": "name",
          "type": "string"
        },
        {
          "indexed": false,
          "internalType": "string",
          "name": "symbol",
          "type": "string"
        },
        {
          "indexed": false,
          "internalType": "string",
          "name": "uri",
          "type": "string"
        }
      ],
      "name": "AttributeCreated",
      "type": "event"
    },
    {
      "anonymous": false,
      "inputs": [
        {
          "indexed": true,
          "internalType": "address",
          "name": "from",
          "type": "address"
        },
        {
          "indexed": true,
          "internalType": "address",
          "name": "to",
          "type": "address"
        },
        {
          "indexed": true,
          "internalType": "uint256",
          "name": "tokenId",
          "type": "uint256"
        }
      ],
      "name": "Transfer",
      "type": "event"
    },
    {
      "anonymous": false,
      "inputs": [
        {
          "indexed": true,
          "internalType": "address",
          "name": "operator",
          "type": "address"
        },
        {
          "indexed": false,
          "internalType": "uint256",
          "name": "from",
          "type": "uint256"
        },
        {
          "indexed": false,
          "internalType": "uint256",
          "name": "to",
          "type": "uint256"
        },
        {
          "indexed": true,
          "internalType": "uint256[]",
          "name": "attrIds",
          "type": "uint256[]"
        },
        {
          "indexed": false,
          "internalType": "uint256[]",
          "name": "values",
          "type": "uint256[]"
        }
      ],
      "name": "TransferBatch",
      "type": "event"
    },
    {
      "anonymous": false,
      "inputs": [
        {
          "indexed": true,
          "internalType": "address",
          "name": "operator",
          "type": "address"
        },
        {
          "indexed": false,
          "internalType": "uint256",
          "name": "from",
          "type": "uint256"
        },
        {
          "indexed": false,
          "internalType": "uint256",
          "name": "to",
          "type": "uint256"
        },
        {
          "indexed": true,
          "internalType": "uint256",
          "name": "attrId",
          "type": "uint256"
        },
        {
          "indexed": false,
          "internalType": "uint256",
          "name": "value",
          "type": "uint256"
        }
      ],
      "name": "TransferSingle",
      "type": "event"
    },
    {
      "inputs": [
        {
          "internalType": "address",
          "name": "to",
          "type": "address"
        },
        {
          "internalType": "uint256",
          "name": "tokenId",
          "type": "uint256"
        }
      ],
      "name": "approve",
      "outputs": [],
      "stateMutability": "nonpayable",
      "type": "function"
    },
    {
      "inputs": [
        {
          "internalType": "uint256",
          "name": "tokenId",
          "type": "uint256"
        },
        {
          "internalType": "uint256",
          "name": "attrId",
          "type": "uint256"
        },
        {
          "internalType": "uint256",
          "name": "amount",
          "type": "uint256"
        }
      ],
      "name": "attach",
      "outputs": [],
      "stateMutability": "nonpayable",
      "type": "function"
    },
    {
      "inputs": [
        {
          "internalType": "uint256",
          "name": "",
          "type": "uint256"
        },
        {
          "internalType": "uint256",
          "name": "",
          "type": "uint256"
        }
      ],
      "name": "attrBalances",
      "outputs": [
        {
          "internalType": "uint256",
          "name": "",
          "type": "uint256"
        }
      ],
      "stateMutability": "view",
      "type": "function",
      "constant": true
    },
    {
      "inputs": [
        {
          "internalType": "uint256",
          "name": "attrId",
          "type": "uint256"
        }
      ],
      "name": "attrURI",
      "outputs": [
        {
          "internalType": "string",
          "name": "",
          "type": "string"
        }
      ],
      "stateMutability": "view",
      "type": "function",
      "constant": true
    },
    {
      "inputs": [
        {
          "internalType": "uint256",
          "name": "tokenId",
          "type": "uint256"
        }
      ],
      "name": "attributesOf",
      "outputs": [
        {
          "internalType": "uint256[]",
          "name": "",
          "type": "uint256[]"
        }
      ],
      "stateMutability": "view",
      "type": "function",
      "constant": true
    },
    {
      "inputs": [
        {
          "internalType": "uint256",
          "name": "",
          "type": "uint256"
        },
        {
          "internalType": "uint256",
          "name": "",
          "type": "uint256"
        }
      ],
      "name": "attrs",
      "outputs": [
        {
          "internalType": "uint256",
          "name": "",
          "type": "uint256"
        }
      ],
      "stateMutability": "view",
      "type": "function",
      "constant": true
    },
    {
      "inputs": [
        {
          "internalType": "address",
          "name": "owner",
          "type": "address"
        }
      ],
      "name": "balanceOf",
      "outputs": [
        {
          "internalType": "uint256",
          "name": "",
          "type": "uint256"
        }
      ],
      "stateMutability": "view",
      "type": "function",
      "constant": true
    },
    {
      "inputs": [
        {
          "internalType": "uint256",
          "name": "tokenId",
          "type": "uint256"
        },
        {
          "internalType": "uint256",
          "name": "attrId",
          "type": "uint256"
        }
      ],
      "name": "balanceOf",
      "outputs": [
        {
          "internalType": "uint256",
          "name": "",
          "type": "uint256"
        }
      ],
      "stateMutability": "view",
      "type": "function",
      "constant": true
    },
    {
      "inputs": [
        {
          "internalType": "uint256",
          "name": "tokenId",
          "type": "uint256"
        },
        {
          "internalType": "uint256[]",
          "name": "attrIds",
          "type": "uint256[]"
        }
      ],
      "name": "balanceOfBatch",
      "outputs": [
        {
          "internalType": "uint256[]",
          "name": "",
          "type": "uint256[]"
        }
      ],
      "stateMutability": "view",
      "type": "function",
      "constant": true
    },
    {
      "inputs": [
        {
          "internalType": "uint256",
          "name": "tokenId",
          "type": "uint256"
        },
        {
          "internalType": "uint256[]",
          "name": "attrIds",
          "type": "uint256[]"
        },
        {
          "internalType": "uint256[]",
          "name": "amounts",
          "type": "uint256[]"
        }
      ],
      "name": "batchAttach",
      "outputs": [],
      "stateMutability": "nonpayable",
      "type": "function"
    },
    {
      "inputs": [
        {
          "internalType": "uint256",
          "name": "tokenId",
          "type": "uint256"
        }
      ],
      "name": "getApproved",
      "outputs": [
        {
          "internalType": "address",
          "name": "",
          "type": "address"
        }
      ],
      "stateMutability": "view",
      "type": "function",
      "constant": true
    },
    {
      "inputs": [
        {
          "internalType": "address",
          "name": "owner",
          "type": "address"
        },
        {
          "internalType": "address",
          "name": "operator",
          "type": "address"
        }
      ],
      "name": "isApprovedForAll",
      "outputs": [
        {
          "internalType": "bool",
          "name": "",
          "type": "bool"
        }
      ],
      "stateMutability": "view",
      "type": "function",
      "constant": true
    },
    {
      "inputs": [
        {
          "internalType": "uint256",
          "name": "attrId",
          "type": "uint256"
        }
      ],
      "name": "name",
      "outputs": [
        {
          "internalType": "string",
          "name": "",
          "type": "string"
        }
      ],
      "stateMutability": "view",
      "type": "function",
      "constant": true
    },
    {
      "inputs": [],
      "name": "name",
      "outputs": [
        {
          "internalType": "string",
          "name": "",
          "type": "string"
        }
      ],
      "stateMutability": "view",
      "type": "function",
      "constant": true
    },
    {
      "inputs": [
        {
          "internalType": "uint256",
          "name": "tokenId",
          "type": "uint256"
        }
      ],
      "name": "ownerOf",
      "outputs": [
        {
          "internalType": "address",
          "name": "",
          "type": "address"
        }
      ],
      "stateMutability": "view",
      "type": "function",
      "constant": true
    },
    {
      "inputs": [
        {
          "internalType": "uint256",
          "name": "tokenId",
          "type": "uint256"
        }
      ],
      "name": "primaryAttributeOf",
      "outputs": [
        {
          "internalType": "uint256",
          "name": "",
          "type": "uint256"
        }
      ],
      "stateMutability": "view",
      "type": "function",
      "constant": true
    },
    {
      "inputs": [
        {
          "internalType": "address",
          "name": "from",
          "type": "address"
        },
        {
          "internalType": "address",
          "name": "to",
          "type": "address"
        },
        {
          "internalType": "uint256",
          "name": "tokenId",
          "type": "uint256"
        }
      ],
      "name": "safeTransferFrom",
      "outputs": [],
      "stateMutability": "nonpayable",
      "type": "function"
    },
    {
      "inputs": [
        {
          "internalType": "address",
          "name": "from",
          "type": "address"
        },
        {
          "internalType": "address",
          "name": "to",
          "type": "address"
        },
        {
          "internalType": "uint256",
          "name": "tokenId",
          "type": "uint256"
        },
        {
          "internalType": "bytes",
          "name": "_data",
          "type": "bytes"
        }
      ],
      "name": "safeTransferFrom",
      "outputs": [],
      "stateMutability": "nonpayable",
      "type": "function"
    },
    {
      "inputs": [
        {
          "internalType": "address",
          "name": "operator",
          "type": "address"
        },
        {
          "internalType": "bool",
          "name": "approved",
          "type": "bool"
        }
      ],
      "name": "setApprovalForAll",
      "outputs": [],
      "stateMutability": "nonpayable",
      "type": "function"
    },
    {
      "inputs": [
        {
          "internalType": "uint256",
          "name": "tokenId",
          "type": "uint256"
        },
        {
          "internalType": "uint256",
          "name": "attrId",
          "type": "uint256"
        }
      ],
      "name": "setPrimaryAttribute",
      "outputs": [],
      "stateMutability": "nonpayable",
      "type": "function"
    },
    {
      "inputs": [
        {
          "internalType": "uint256",
          "name": "attrId",
          "type": "uint256"
        }
      ],
      "name": "symbol",
      "outputs": [
        {
          "internalType": "string",
          "name": "",
          "type": "string"
        }
      ],
      "stateMutability": "view",
      "type": "function",
      "constant": true
    },
    {
      "inputs": [],
      "name": "symbol",
      "outputs": [
        {
          "internalType": "string",
          "name": "",
          "type": "string"
        }
      ],
      "stateMutability": "view",
      "type": "function",
      "constant": true
    },
    {
      "inputs": [
        {
          "internalType": "uint256",
          "name": "tokenId",
          "type": "uint256"
        }
      ],
      "name": "tokenURI",
      "outputs": [
        {
          "internalType": "string",
          "name": "",
          "type": "string"
        }
      ],
      "stateMutability": "view",
      "type": "function",
      "constant": true
    },
    {
      "inputs": [
        {
          "internalType": "address",
          "name": "from",
          "type": "address"
        },
        {
          "internalType": "address",
          "name": "to",
          "type": "address"
        },
        {
          "internalType": "uint256",
          "name": "tokenId",
          "type": "uint256"
        }
      ],
      "name": "transferFrom",
      "outputs": [],
      "stateMutability": "nonpayable",
      "type": "function"
    },
    {
      "inputs": [
        {
          "internalType": "bytes4",
          "name": "interfaceId",
          "type": "bytes4"
        }
      ],
      "name": "supportsInterface",
      "outputs": [
        {
          "internalType": "bool",
          "name": "",
          "type": "bool"
        }
      ],
      "stateMutability": "view",
      "type": "function",
      "constant": true
    },
    {
      "inputs": [],
      "name": "getQuantity",
      "outputs": [
        {
          "internalType": "uint256",
          "name": "",
          "type": "uint256"
        }
      ],
      "stateMutability": "view",
      "type": "function",
      "constant": true
    },
    {
      "inputs": [
        {
          "internalType": "address",
          "name": "to",
          "type": "address"
        },
        {
          "internalType": "uint256",
          "name": "tokenId",
          "type": "uint256"
        }
      ],
      "name": "mint",
      "outputs": [],
      "stateMutability": "nonpayable",
      "type": "function"
    },
    {
      "inputs": [
        {
          "internalType": "uint256",
          "name": "tokenId",
          "type": "uint256"
        },
        {
          "internalType": "uint256",
          "name": "attrId",
          "type": "uint256"
        }
      ],
      "name": "get_attributeAmount",
      "outputs": [
        {
          "internalType": "uint256",
          "name": "",
          "type": "uint256"
        }
      ],
      "stateMutability": "view",
      "type": "function",
      "constant": true
    },
    {
      "inputs": [
        {
          "internalType": "uint256",
          "name": "attrId",
          "type": "uint256"
        }
      ],
      "name": "get_attrName",
      "outputs": [
        {
          "internalType": "string",
          "name": "",
          "type": "string"
        }
      ],
      "stateMutability": "view",
      "type": "function",
      "constant": true
    }
  ],
  "bytecode": "0x60806040523480156200001157600080fd5b506040518060400160405280600881526020017f4974656d5f6e66740000000000000000000000000000000000000000000000008152506040518060400160405280600481526020017f4954454d000000000000000000000000000000000000000000000000000000008152506040518060400160405280601681526020017f687474703a2f2f6c6f63616c686f73743a333030302f00000000000000000000815250620000c581620002b260201b60201c565b508160059080519060200190620000de92919062000450565b508060069080519060200190620000f792919062000450565b5050506003600b819055506200019060006040518060400160405280600681526020017f61747461636b00000000000000000000000000000000000000000000000000008152506040518060400160405280600681526020017f41545441434b000000000000000000000000000000000000000000000000000081525060405180602001604052806000815250620002ce60201b60201c565b6200021e60016040518060400160405280600581526020017f73706565640000000000000000000000000000000000000000000000000000008152506040518060400160405280600581526020017f535045454400000000000000000000000000000000000000000000000000000081525060405180602001604052806000815250620002ce60201b60201c565b620002ac60026040518060400160405280600781526020017f646566656e7365000000000000000000000000000000000000000000000000008152506040518060400160405280600781526020017f444546454e53450000000000000000000000000000000000000000000000000081525060405180602001604052806000815250620002ce60201b60201c565b620006f3565b8060009080519060200190620002ca92919062000450565b5050565b620002df846200042360201b60201c565b1562000322576040517f08c379a0000000000000000000000000000000000000000000000000000000008152600401620003199062000587565b60405180910390fd5b60006040518060800160405280858152602001848152602001838152602001600115158152509050806001600087815260200190815260200160002060008201518160000190805190602001906200037c92919062000450565b5060208201518160010190805190602001906200039b92919062000450565b506040820151816002019080519060200190620003ba92919062000450565b5060608201518160030160006101000a81548160ff021916908315150217905550905050847fe3c3c9bbda1d6ccb059320eed92d395bd49272efb8a675a188a9d1b4e4da4ce285858560405162000414939291906200063c565b60405180910390a25050505050565b60006001600083815260200190815260200160002060030160009054906101000a900460ff169050919050565b8280546200045e90620006bd565b90600052602060002090601f016020900481019282620004825760008555620004ce565b82601f106200049d57805160ff1916838001178555620004ce565b82800160010185558215620004ce579182015b82811115620004cd578251825591602001919060010190620004b0565b5b509050620004dd9190620004e1565b5090565b5b80821115620004fc576000816000905550600101620004e2565b5090565b600082825260208201905092915050565b7f455243333636343a2061747472696275746520616c726561647920657869737460008201527f7300000000000000000000000000000000000000000000000000000000000000602082015250565b60006200056f60218362000500565b91506200057c8262000511565b604082019050919050565b60006020820190508181036000830152620005a28162000560565b9050919050565b600081519050919050565b60005b83811015620005d4578082015181840152602081019050620005b7565b83811115620005e4576000848401525b50505050565b6000601f19601f8301169050919050565b60006200060882620005a9565b62000614818562000500565b935062000626818560208601620005b4565b6200063181620005ea565b840191505092915050565b60006060820190508181036000830152620006588186620005fb565b905081810360208301526200066e8185620005fb565b90508181036040830152620006848184620005fb565b9050949350505050565b7f4e487b7100000000000000000000000000000000000000000000000000000000600052602260045260246000fd5b60006002820490506001821680620006d657607f821691505b60208210811415620006ed57620006ec6200068e565b5b50919050565b613ed780620007036000396000f3fe608060405234801561001057600080fd5b50600436106101ce5760003560e01c80634e41a1fb116101045780639bc5ae54116100a2578063c87b56dd11610071578063c87b56dd14610599578063e829ffa1146105c9578063e985e9c5146105f9578063ea69963314610629576101ce565b80639bc5ae5414610515578063a22cb46514610545578063b4101dce14610561578063b88d4fde1461057d576101ce565b80636f567b66116100de5780636f567b661461046757806370a082311461049757806387e21d42146104c757806395d89b41146104f7576101ce565b80634e41a1fb146103d75780635d126110146104075780636352211e14610437576101ce565b80631070717b1161017157806323b872dd1161014b57806323b872dd146103535780633e1e8e251461036f57806340c10f191461039f57806342842e0e146103bb576101ce565b80631070717b146102eb578063132e09e314610307578063169dbe6e14610323576101ce565b806306fdde03116101ad57806306fdde0314610251578063081812fc1461026f57806309363c441461029f578063095ea7b3146102cf576101ce565b8062ad800c146101d35780630115949c1461020357806301ffc9a714610221575b600080fd5b6101ed60048036038101906101e891906125af565b610659565b6040516101fa9190612675565b60405180910390f35b61020b610749565b60405161021891906126a6565b60405180910390f35b61023b60048036038101906102369190612719565b610753565b6040516102489190612761565b60405180910390f35b610259610765565b6040516102669190612675565b60405180910390f35b610289600480360381019061028491906125af565b6107f7565b60405161029691906127bd565b60405180910390f35b6102b960048036038101906102b491906125af565b61087c565b6040516102c69190612896565b60405180910390f35b6102e960048036038101906102e491906128e4565b6108e7565b005b61030560048036038101906103009190612924565b6109ff565b005b610321600480360381019061031c91906129c9565b610a64565b005b61033d60048036038101906103389190612924565b610d0f565b60405161034a91906126a6565b60405180910390f35b61036d60048036038101906103689190612a5e565b610d40565b005b610389600480360381019061038491906125af565b610da0565b6040516103969190612675565b60405180910390f35b6103b960048036038101906103b491906128e4565b610db2565b005b6103d560048036038101906103d09190612a5e565b610dc0565b005b6103f160048036038101906103ec91906125af565b610de0565b6040516103fe9190612675565b60405180910390f35b610421600480360381019061041c9190612ab1565b610ed0565b60405161042e9190612896565b60405180910390f35b610451600480360381019061044c91906125af565b610f8f565b60405161045e91906127bd565b60405180910390f35b610481600480360381019061047c9190612924565b611041565b60405161048e91906126a6565b60405180910390f35b6104b160048036038101906104ac9190612b11565b611055565b6040516104be91906126a6565b60405180910390f35b6104e160048036038101906104dc91906125af565b61110d565b6040516104ee91906126a6565b60405180910390f35b6104ff61112a565b60405161050c9190612675565b60405180910390f35b61052f600480360381019061052a91906125af565b6111bc565b60405161053c9190612675565b60405180910390f35b61055f600480360381019061055a9190612b6a565b611344565b005b61057b60048036038101906105769190612baa565b6114c5565b005b61059760048036038101906105929190612d2d565b611644565b005b6105b360048036038101906105ae91906125af565b6116a6565b6040516105c09190612675565b60405180910390f35b6105e360048036038101906105de9190612924565b61174d565b6040516105f091906126a6565b60405180910390f35b610613600480360381019061060e9190612db0565b611772565b6040516106209190612761565b60405180910390f35b610643600480360381019061063e9190612924565b611806565b60405161065091906126a6565b60405180910390f35b606061066482611835565b6106a3576040517f08c379a000000000000000000000000000000000000000000000000000000000815260040161069a90612e62565b60405180910390fd5b6001600083815260200190815260200160002060000180546106c490612eb1565b80601f01602080910402602001604051908101604052809291908181526020018280546106f090612eb1565b801561073d5780601f106107125761010080835404028352916020019161073d565b820191906000526020600020905b81548152906001019060200180831161072057829003601f168201915b50505050509050919050565b6000600b54905090565b600061075e82611862565b9050919050565b60606005805461077490612eb1565b80601f01602080910402602001604051908101604052809291908181526020018280546107a090612eb1565b80156107ed5780601f106107c2576101008083540402835291602001916107ed565b820191906000526020600020905b8154815290600101906020018083116107d057829003601f168201915b5050505050905090565b600061080282611944565b610841576040517f08c379a000000000000000000000000000000000000000000000000000000000815260040161083890612f55565b60405180910390fd5b6009600083815260200190815260200160002060009054906101000a900473ffffffffffffffffffffffffffffffffffffffff169050919050565b6060600460008381526020019081526020016000208054806020026020016040519081016040528092919081815260200182805480156108db57602002820191906000526020600020905b8154815260200190600101908083116108c7575b50505050509050919050565b60006108f282610f8f565b90508073ffffffffffffffffffffffffffffffffffffffff168373ffffffffffffffffffffffffffffffffffffffff161415610963576040517f08c379a000000000000000000000000000000000000000000000000000000000815260040161095a90612fe7565b60405180910390fd5b8073ffffffffffffffffffffffffffffffffffffffff166109826119b0565b73ffffffffffffffffffffffffffffffffffffffff1614806109b157506109b0816109ab6119b0565b611772565b5b6109f0576040517f08c379a00000000000000000000000000000000000000000000000000000000081526004016109e790613079565b60405180910390fd5b6109fa83836119b8565b505050565b610a098282611a71565b610a48576040517f08c379a0000000000000000000000000000000000000000000000000000000008152600401610a3f9061310b565b60405180910390fd5b8060036000848152602001908152602001600020819055505050565b6000610a6e6119b0565b9050610b1081600088888880806020026020016040519081016040528093929190818152602001838360200280828437600081840152601f19601f82011690508083019250505050505050878780806020026020016040519081016040528093929190818152602001838360200280828437600081840152601f19601f8201169050808301925050505050505060405180602001604052806000815250611aa2565b60005b85859050811015610c9957610b40868683818110610b3457610b3361312b565b5b90506020020135611835565b610b7f576040517f08c379a0000000000000000000000000000000000000000000000000000000008152600401610b76906131cc565b60405180910390fd5b600060026000888885818110610b9857610b9761312b565b5b9050602002013581526020019081526020016000206000898152602001908152602001600020541415610c195760046000888152602001908152602001600020868683818110610beb57610bea61312b565b5b9050602002013590806001815401808255809150506001900390600052602060002001600090919091909150555b838382818110610c2c57610c2b61312b565b5b9050602002013560026000888885818110610c4a57610c4961312b565b5b90506020020135815260200190815260200160002060008981526020019081526020016000206000828254610c7f919061321b565b925050819055508080610c9190613271565b915050610b13565b508484604051610caa929190613326565b60405180910390208173ffffffffffffffffffffffffffffffffffffffff167fbfb4d8e5891aebe97980c97616b6b0af2006a58ccabe6e1b7e3da24d0906a8566000898787604051610cff94939291906133e0565b60405180910390a3505050505050565b60046020528160005260406000208181548110610d2b57600080fd5b90600052602060002001600091509150505481565b610d51610d4b6119b0565b82611aaa565b610d90576040517f08c379a0000000000000000000000000000000000000000000000000000000008152600401610d8790613492565b60405180910390fd5b610d9b838383611b88565b505050565b6060610dab82610659565b9050919050565b610dbc8282611de4565b5050565b610ddb83838360405180602001604052806000815250611644565b505050565b6060610deb82611835565b610e2a576040517f08c379a0000000000000000000000000000000000000000000000000000000008152600401610e2190613524565b60405180910390fd5b600160008381526020019081526020016000206001018054610e4b90612eb1565b80601f0160208091040260200160405190810160405280929190818152602001828054610e7790612eb1565b8015610ec45780601f10610e9957610100808354040283529160200191610ec4565b820191906000526020600020905b815481529060010190602001808311610ea757829003601f168201915b50505050509050919050565b606060008383905067ffffffffffffffff811115610ef157610ef0612c02565b5b604051908082528060200260200182016040528015610f1f5781602001602082028036833780820191505090505b50905060005b84849050811015610f8357610f5386868684818110610f4757610f4661312b565b5b90506020020135611806565b828281518110610f6657610f6561312b565b5b60200260200101818152505080610f7c90613271565b9050610f25565b50809150509392505050565b6000806007600084815260200190815260200160002060009054906101000a900473ffffffffffffffffffffffffffffffffffffffff169050600073ffffffffffffffffffffffffffffffffffffffff168173ffffffffffffffffffffffffffffffffffffffff161415611038576040517f08c379a000000000000000000000000000000000000000000000000000000000815260040161102f906135b6565b60405180910390fd5b80915050919050565b600061104d8383611806565b905092915050565b60008073ffffffffffffffffffffffffffffffffffffffff168273ffffffffffffffffffffffffffffffffffffffff1614156110c6576040517f08c379a00000000000000000000000000000000000000000000000000000000081526004016110bd90613648565b60405180910390fd5b600860008373ffffffffffffffffffffffffffffffffffffffff1673ffffffffffffffffffffffffffffffffffffffff168152602001908152602001600020549050919050565b600060036000838152602001908152602001600020549050919050565b60606006805461113990612eb1565b80601f016020809104026020016040519081016040528092919081815260200182805461116590612eb1565b80156111b25780601f10611187576101008083540402835291602001916111b2565b820191906000526020600020905b81548152906001019060200180831161119557829003601f168201915b5050505050905090565b60606111c782611835565b611206576040517f08c379a00000000000000000000000000000000000000000000000000000000081526004016111fd906136da565b60405180910390fd5b600060016000848152602001908152602001600020600201805461122990612eb1565b80601f016020809104026020016040519081016040528092919081815260200182805461125590612eb1565b80156112a25780601f10611277576101008083540402835291602001916112a2565b820191906000526020600020905b81548152906001019060200180831161128557829003601f168201915b505050505090506000815111156112e557806112bd84611e02565b6040516020016112ce929190613736565b60405160208183030381529060405291505061133f565b60008080546112f390612eb1565b90501161130f576040518060200160405280600081525061133b565b600061131a84611e02565b60405160200161132b9291906137ee565b6040516020818303038152906040525b9150505b919050565b61134c6119b0565b73ffffffffffffffffffffffffffffffffffffffff168273ffffffffffffffffffffffffffffffffffffffff1614156113ba576040517f08c379a00000000000000000000000000000000000000000000000000000000081526004016113b19061385e565b60405180910390fd5b80600a60006113c76119b0565b73ffffffffffffffffffffffffffffffffffffffff1673ffffffffffffffffffffffffffffffffffffffff16815260200190815260200160002060008473ffffffffffffffffffffffffffffffffffffffff1673ffffffffffffffffffffffffffffffffffffffff16815260200190815260200160002060006101000a81548160ff0219169083151502179055508173ffffffffffffffffffffffffffffffffffffffff166114746119b0565b73ffffffffffffffffffffffffffffffffffffffff167f17307eab39ab6107e8899845ad3d59bd9653f200f220920489ca2b5937696c31836040516114b99190612761565b60405180910390a35050565b6114ce82611835565b61150d576040517f08c379a0000000000000000000000000000000000000000000000000000000008152600401611504906138f0565b60405180910390fd5b60006115176119b0565b90506115478160008661152987611f63565b61153287611f63565b60405180602001604052806000815250611aa2565b60006002600085815260200190815260200160002060008681526020019081526020016000205414156115af57600460008581526020019081526020016000208390806001815401808255809150506001900390600052602060002001600090919091909150555b8160026000858152602001908152602001600020600086815260200190815260200160002060008282546115e3919061321b565b92505081905550828173ffffffffffffffffffffffffffffffffffffffff167f73b5fbfbf0177b0de2ffe9fd0ae9887dd73d0d865db7ab5ff3c4a6b9bb8db1e36000878660405161163693929190613910565b60405180910390a350505050565b61165561164f6119b0565b83611aaa565b611694576040517f08c379a000000000000000000000000000000000000000000000000000000000815260040161168b90613492565b60405180910390fd5b6116a084848484611fdd565b50505050565b60606116b182611944565b6116f0576040517f08c379a00000000000000000000000000000000000000000000000000000000081526004016116e7906139b9565b60405180910390fd5b60006116fa612039565b9050600081511161171a5760405180602001604052806000815250611745565b8061172484611e02565b604051602001611735929190613736565b6040516020818303038152906040525b915050919050565b6002602052816000526040600020602052806000526040600020600091509150505481565b6000600a60008473ffffffffffffffffffffffffffffffffffffffff1673ffffffffffffffffffffffffffffffffffffffff16815260200190815260200160002060008373ffffffffffffffffffffffffffffffffffffffff1673ffffffffffffffffffffffffffffffffffffffff16815260200190815260200160002060009054906101000a900460ff16905092915050565b600060026000838152602001908152602001600020600084815260200190815260200160002054905092915050565b60006001600083815260200190815260200160002060030160009054906101000a900460ff169050919050565b60007f80ac58cd000000000000000000000000000000000000000000000000000000007bffffffffffffffffffffffffffffffffffffffffffffffffffffffff1916827bffffffffffffffffffffffffffffffffffffffffffffffffffffffff1916148061192d57507f5b5e139f000000000000000000000000000000000000000000000000000000007bffffffffffffffffffffffffffffffffffffffffffffffffffffffff1916827bffffffffffffffffffffffffffffffffffffffffffffffffffffffff1916145b8061193d575061193c82612050565b5b9050919050565b60008073ffffffffffffffffffffffffffffffffffffffff166007600084815260200190815260200160002060009054906101000a900473ffffffffffffffffffffffffffffffffffffffff1673ffffffffffffffffffffffffffffffffffffffff1614159050919050565b600033905090565b816009600083815260200190815260200160002060006101000a81548173ffffffffffffffffffffffffffffffffffffffff021916908373ffffffffffffffffffffffffffffffffffffffff160217905550808273ffffffffffffffffffffffffffffffffffffffff16611a2b83610f8f565b73ffffffffffffffffffffffffffffffffffffffff167f8c5be1e5ebec7d5bd14f71427d1e84f3dd0314c0f7b2291e5b200ac8c7c3b92560405160405180910390a45050565b6000806002600084815260200190815260200160002060008581526020019081526020016000205411905092915050565b505050505050565b6000611ab582611944565b611af4576040517f08c379a0000000000000000000000000000000000000000000000000000000008152600401611aeb90613a4b565b60405180910390fd5b6000611aff83610f8f565b90508073ffffffffffffffffffffffffffffffffffffffff168473ffffffffffffffffffffffffffffffffffffffff161480611b6e57508373ffffffffffffffffffffffffffffffffffffffff16611b56846107f7565b73ffffffffffffffffffffffffffffffffffffffff16145b80611b7f5750611b7e8185611772565b5b91505092915050565b8273ffffffffffffffffffffffffffffffffffffffff16611ba882610f8f565b73ffffffffffffffffffffffffffffffffffffffff1614611bfe576040517f08c379a0000000000000000000000000000000000000000000000000000000008152600401611bf590613add565b60405180910390fd5b600073ffffffffffffffffffffffffffffffffffffffff168273ffffffffffffffffffffffffffffffffffffffff161415611c6e576040517f08c379a0000000000000000000000000000000000000000000000000000000008152600401611c6590613b6f565b60405180910390fd5b611c79838383612132565b611c846000826119b8565b6001600860008573ffffffffffffffffffffffffffffffffffffffff1673ffffffffffffffffffffffffffffffffffffffff1681526020019081526020016000206000828254611cd49190613b8f565b925050819055506001600860008473ffffffffffffffffffffffffffffffffffffffff1673ffffffffffffffffffffffffffffffffffffffff1681526020019081526020016000206000828254611d2b919061321b565b92505081905550816007600083815260200190815260200160002060006101000a81548173ffffffffffffffffffffffffffffffffffffffff021916908373ffffffffffffffffffffffffffffffffffffffff160217905550808273ffffffffffffffffffffffffffffffffffffffff168473ffffffffffffffffffffffffffffffffffffffff167fddf252ad1be2c89b69c2b068fc378daa952ba7f163c4a11628f55a4df523b3ef60405160405180910390a4505050565b611dfe828260405180602001604052806000815250612137565b5050565b60606000821415611e4a576040518060400160405280600181526020017f30000000000000000000000000000000000000000000000000000000000000008152509050611f5e565b600082905060005b60008214611e7c578080611e6590613271565b915050600a82611e759190613bf2565b9150611e52565b60008167ffffffffffffffff811115611e9857611e97612c02565b5b6040519080825280601f01601f191660200182016040528015611eca5781602001600182028036833780820191505090505b5090505b60008514611f5757600182611ee39190613b8f565b9150600a85611ef29190613c23565b6030611efe919061321b565b60f81b818381518110611f1457611f1361312b565b5b60200101907effffffffffffffffffffffffffffffffffffffffffffffffffffffffffffff1916908160001a905350600a85611f509190613bf2565b9450611ece565b8093505050505b919050565b60606000600167ffffffffffffffff811115611f8257611f81612c02565b5b604051908082528060200260200182016040528015611fb05781602001602082028036833780820191505090505b5090508281600081518110611fc857611fc761312b565b5b60200260200101818152505080915050919050565b611fe8848484611b88565b611ff484848484612192565b612033576040517f08c379a000000000000000000000000000000000000000000000000000000000815260040161202a90613cc6565b60405180910390fd5b50505050565b606060405180602001604052806000815250905090565b60007f8ee1b373000000000000000000000000000000000000000000000000000000007bffffffffffffffffffffffffffffffffffffffffffffffffffffffff1916827bffffffffffffffffffffffffffffffffffffffffffffffffffffffff1916148061211b57507fd5298fa3000000000000000000000000000000000000000000000000000000007bffffffffffffffffffffffffffffffffffffffffffffffffffffffff1916827bffffffffffffffffffffffffffffffffffffffffffffffffffffffff1916145b8061212b575061212a8261231a565b5b9050919050565b505050565b6121418383612384565b61214e6000848484612192565b61218d576040517f08c379a000000000000000000000000000000000000000000000000000000000815260040161218490613cc6565b60405180910390fd5b505050565b60006121b38473ffffffffffffffffffffffffffffffffffffffff16612552565b1561230d578373ffffffffffffffffffffffffffffffffffffffff1663150b7a026121dc6119b0565b8786866040518563ffffffff1660e01b81526004016121fe9493929190613d3b565b6020604051808303816000875af192505050801561223a57506040513d601f19601f820116820180604052508101906122379190613d9c565b60015b6122bd573d806000811461226a576040519150601f19603f3d011682016040523d82523d6000602084013e61226f565b606091505b506000815114156122b5576040517f08c379a00000000000000000000000000000000000000000000000000000000081526004016122ac90613cc6565b60405180910390fd5b805181602001fd5b63150b7a0260e01b7bffffffffffffffffffffffffffffffffffffffffffffffffffffffff1916817bffffffffffffffffffffffffffffffffffffffffffffffffffffffff191614915050612312565b600190505b949350505050565b60007f01ffc9a7000000000000000000000000000000000000000000000000000000007bffffffffffffffffffffffffffffffffffffffffffffffffffffffff1916827bffffffffffffffffffffffffffffffffffffffffffffffffffffffff1916149050919050565b600073ffffffffffffffffffffffffffffffffffffffff168273ffffffffffffffffffffffffffffffffffffffff1614156123f4576040517f08c379a00000000000000000000000000000000000000000000000000000000081526004016123eb90613e15565b60405180910390fd5b6123fd81611944565b1561243d576040517f08c379a000000000000000000000000000000000000000000000000000000000815260040161243490613e81565b60405180910390fd5b61244960008383612132565b6001600860008473ffffffffffffffffffffffffffffffffffffffff1673ffffffffffffffffffffffffffffffffffffffff1681526020019081526020016000206000828254612499919061321b565b92505081905550816007600083815260200190815260200160002060006101000a81548173ffffffffffffffffffffffffffffffffffffffff021916908373ffffffffffffffffffffffffffffffffffffffff160217905550808273ffffffffffffffffffffffffffffffffffffffff16600073ffffffffffffffffffffffffffffffffffffffff167fddf252ad1be2c89b69c2b068fc378daa952ba7f163c4a11628f55a4df523b3ef60405160405180910390a45050565b600080823b905060008111915050919050565b6000604051905090565b600080fd5b600080fd5b6000819050919050565b61258c81612579565b811461259757600080fd5b50565b6000813590506125a981612583565b92915050565b6000602082840312156125c5576125c461256f565b5b60006125d38482850161259a565b91505092915050565b600081519050919050565b600082825260208201905092915050565b60005b838110156126165780820151818401526020810190506125fb565b83811115612625576000848401525b50505050565b6000601f19601f8301169050919050565b6000612647826125dc565b61265181856125e7565b93506126618185602086016125f8565b61266a8161262b565b840191505092915050565b6000602082019050818103600083015261268f818461263c565b905092915050565b6126a081612579565b82525050565b60006020820190506126bb6000830184612697565b92915050565b60007fffffffff0000000000000000000000000000000000000000000000000000000082169050919050565b6126f6816126c1565b811461270157600080fd5b50565b600081359050612713816126ed565b92915050565b60006020828403121561272f5761272e61256f565b5b600061273d84828501612704565b91505092915050565b60008115159050919050565b61275b81612746565b82525050565b60006020820190506127766000830184612752565b92915050565b600073ffffffffffffffffffffffffffffffffffffffff82169050919050565b60006127a78261277c565b9050919050565b6127b78161279c565b82525050565b60006020820190506127d260008301846127ae565b92915050565b600081519050919050565b600082825260208201905092915050565b6000819050602082019050919050565b61280d81612579565b82525050565b600061281f8383612804565b60208301905092915050565b6000602082019050919050565b6000612843826127d8565b61284d81856127e3565b9350612858836127f4565b8060005b838110156128895781516128708882612813565b975061287b8361282b565b92505060018101905061285c565b5085935050505092915050565b600060208201905081810360008301526128b08184612838565b905092915050565b6128c18161279c565b81146128cc57600080fd5b50565b6000813590506128de816128b8565b92915050565b600080604083850312156128fb576128fa61256f565b5b6000612909858286016128cf565b925050602061291a8582860161259a565b9150509250929050565b6000806040838503121561293b5761293a61256f565b5b60006129498582860161259a565b925050602061295a8582860161259a565b9150509250929050565b600080fd5b600080fd5b600080fd5b60008083601f84011261298957612988612964565b5b8235905067ffffffffffffffff8111156129a6576129a5612969565b5b6020830191508360208202830111156129c2576129c161296e565b5b9250929050565b6000806000806000606086880312156129e5576129e461256f565b5b60006129f38882890161259a565b955050602086013567ffffffffffffffff811115612a1457612a13612574565b5b612a2088828901612973565b9450945050604086013567ffffffffffffffff811115612a4357612a42612574565b5b612a4f88828901612973565b92509250509295509295909350565b600080600060608486031215612a7757612a7661256f565b5b6000612a85868287016128cf565b9350506020612a96868287016128cf565b9250506040612aa78682870161259a565b9150509250925092565b600080600060408486031215612aca57612ac961256f565b5b6000612ad88682870161259a565b935050602084013567ffffffffffffffff811115612af957612af8612574565b5b612b0586828701612973565b92509250509250925092565b600060208284031215612b2757612b2661256f565b5b6000612b35848285016128cf565b91505092915050565b612b4781612746565b8114612b5257600080fd5b50565b600081359050612b6481612b3e565b92915050565b60008060408385031215612b8157612b8061256f565b5b6000612b8f858286016128cf565b9250506020612ba085828601612b55565b9150509250929050565b600080600060608486031215612bc357612bc261256f565b5b6000612bd18682870161259a565b9350506020612be28682870161259a565b9250506040612bf38682870161259a565b9150509250925092565b600080fd5b7f4e487b7100000000000000000000000000000000000000000000000000000000600052604160045260246000fd5b612c3a8261262b565b810181811067ffffffffffffffff82111715612c5957612c58612c02565b5b80604052505050565b6000612c6c612565565b9050612c788282612c31565b919050565b600067ffffffffffffffff821115612c9857612c97612c02565b5b612ca18261262b565b9050602081019050919050565b82818337600083830152505050565b6000612cd0612ccb84612c7d565b612c62565b905082815260208101848484011115612cec57612ceb612bfd565b5b612cf7848285612cae565b509392505050565b600082601f830112612d1457612d13612964565b5b8135612d24848260208601612cbd565b91505092915050565b60008060008060808587031215612d4757612d4661256f565b5b6000612d55878288016128cf565b9450506020612d66878288016128cf565b9350506040612d778782880161259a565b925050606085013567ffffffffffffffff811115612d9857612d97612574565b5b612da487828801612cff565b91505092959194509250565b60008060408385031215612dc757612dc661256f565b5b6000612dd5858286016128cf565b9250506020612de6858286016128cf565b9150509250929050565b7f455243333636343a206e616d6520717565727920666f72206e6f6e657869737460008201527f656e742061747472696275746500000000000000000000000000000000000000602082015250565b6000612e4c602d836125e7565b9150612e5782612df0565b604082019050919050565b60006020820190508181036000830152612e7b81612e3f565b9050919050565b7f4e487b7100000000000000000000000000000000000000000000000000000000600052602260045260246000fd5b60006002820490506001821680612ec957607f821691505b60208210811415612edd57612edc612e82565b5b50919050565b7f4552433732313a20617070726f76656420717565727920666f72206e6f6e657860008201527f697374656e7420746f6b656e0000000000000000000000000000000000000000602082015250565b6000612f3f602c836125e7565b9150612f4a82612ee3565b604082019050919050565b60006020820190508181036000830152612f6e81612f32565b9050919050565b7f4552433732313a20617070726f76616c20746f2063757272656e74206f776e6560008201527f7200000000000000000000000000000000000000000000000000000000000000602082015250565b6000612fd16021836125e7565b9150612fdc82612f75565b604082019050919050565b6000602082019050818103600083015261300081612fc4565b9050919050565b7f4552433732313a20617070726f76652063616c6c6572206973206e6f74206f7760008201527f6e6572206e6f7220617070726f76656420666f7220616c6c0000000000000000602082015250565b60006130636038836125e7565b915061306e82613007565b604082019050919050565b6000602082019050818103600083015261309281613056565b9050919050565b7f455243333636343a20746f6b656e20686173206e6f742061747461636865642060008201527f7468652061747472696275746500000000000000000000000000000000000000602082015250565b60006130f5602d836125e7565b915061310082613099565b604082019050919050565b60006020820190508181036000830152613124816130e8565b9050919050565b7f4e487b7100000000000000000000000000000000000000000000000000000000600052603260045260246000fd5b7f455243333636343a20626174636841747461636820666f72206e6f6e6578697360008201527f74656e7420617474726962757465000000000000000000000000000000000000602082015250565b60006131b6602e836125e7565b91506131c18261315a565b604082019050919050565b600060208201905081810360008301526131e5816131a9565b9050919050565b7f4e487b7100000000000000000000000000000000000000000000000000000000600052601160045260246000fd5b600061322682612579565b915061323183612579565b9250827fffffffffffffffffffffffffffffffffffffffffffffffffffffffffffffffff03821115613266576132656131ec565b5b828201905092915050565b600061327c82612579565b91507fffffffffffffffffffffffffffffffffffffffffffffffffffffffffffffffff8214156132af576132ae6131ec565b5b600182019050919050565b600081905092915050565b600080fd5b60006132d683856132ba565b93507f07ffffffffffffffffffffffffffffffffffffffffffffffffffffffffffffff831115613309576133086132c5565b5b60208302925061331a838584612cae565b82840190509392505050565b60006133338284866132ca565b91508190509392505050565b6000819050919050565b6000819050919050565b600061336e6133696133648461333f565b613349565b612579565b9050919050565b61337e81613353565b82525050565b600061339083856127e3565b93507f07ffffffffffffffffffffffffffffffffffffffffffffffffffffffffffffff8311156133c3576133c26132c5565b5b6020830292506133d4838584612cae565b82840190509392505050565b60006060820190506133f56000830187613375565b6134026020830186612697565b8181036040830152613415818486613384565b905095945050505050565b7f4552433732313a207472616e736665722063616c6c6572206973206e6f74206f60008201527f776e6572206e6f7220617070726f766564000000000000000000000000000000602082015250565b600061347c6031836125e7565b915061348782613420565b604082019050919050565b600060208201905081810360008301526134ab8161346f565b9050919050565b7f455243333636343a2073796d626f6c20717565727920666f72206e6f6e65786960008201527f7374656e74206174747269627574650000000000000000000000000000000000602082015250565b600061350e602f836125e7565b9150613519826134b2565b604082019050919050565b6000602082019050818103600083015261353d81613501565b9050919050565b7f4552433732313a206f776e657220717565727920666f72206e6f6e657869737460008201527f656e7420746f6b656e0000000000000000000000000000000000000000000000602082015250565b60006135a06029836125e7565b91506135ab82613544565b604082019050919050565b600060208201905081810360008301526135cf81613593565b9050919050565b7f4552433732313a2062616c616e636520717565727920666f7220746865207a6560008201527f726f206164647265737300000000000000000000000000000000000000000000602082015250565b6000613632602a836125e7565b915061363d826135d6565b604082019050919050565b6000602082019050818103600083015261366181613625565b9050919050565b7f455243333636343a2055524920717565727920666f72206e6f6e65786973746560008201527f6e74206174747269627574650000000000000000000000000000000000000000602082015250565b60006136c4602c836125e7565b91506136cf82613668565b604082019050919050565b600060208201905081810360008301526136f3816136b7565b9050919050565b600081905092915050565b6000613710826125dc565b61371a81856136fa565b935061372a8185602086016125f8565b80840191505092915050565b60006137428285613705565b915061374e8284613705565b91508190509392505050565b60008190508160005260206000209050919050565b6000815461377c81612eb1565b61378681866136fa565b945060018216600081146137a157600181146137b2576137e5565b60ff198316865281860193506137e5565b6137bb8561375a565b60005b838110156137dd578154818901526001820191506020810190506137be565b838801955050505b50505092915050565b60006137fa828561376f565b91506138068284613705565b91508190509392505050565b7f4552433732313a20617070726f766520746f2063616c6c657200000000000000600082015250565b60006138486019836125e7565b915061385382613812565b602082019050919050565b600060208201905081810360008301526138778161383b565b9050919050565b7f455243333636343a2061747461636820666f72206e6f6e6578697374656e742060008201527f6174747269627574650000000000000000000000000000000000000000000000602082015250565b60006138da6029836125e7565b91506138e58261387e565b604082019050919050565b60006020820190508181036000830152613909816138cd565b9050919050565b60006060820190506139256000830186613375565b6139326020830185612697565b61393f6040830184612697565b949350505050565b7f4552433732314d657461646174613a2055524920717565727920666f72206e6f60008201527f6e6578697374656e7420746f6b656e0000000000000000000000000000000000602082015250565b60006139a3602f836125e7565b91506139ae82613947565b604082019050919050565b600060208201905081810360008301526139d281613996565b9050919050565b7f4552433732313a206f70657261746f7220717565727920666f72206e6f6e657860008201527f697374656e7420746f6b656e0000000000000000000000000000000000000000602082015250565b6000613a35602c836125e7565b9150613a40826139d9565b604082019050919050565b60006020820190508181036000830152613a6481613a28565b9050919050565b7f4552433732313a207472616e73666572206f6620746f6b656e2074686174206960008201527f73206e6f74206f776e0000000000000000000000000000000000000000000000602082015250565b6000613ac76029836125e7565b9150613ad282613a6b565b604082019050919050565b60006020820190508181036000830152613af681613aba565b9050919050565b7f4552433732313a207472616e7366657220746f20746865207a65726f2061646460008201527f7265737300000000000000000000000000000000000000000000000000000000602082015250565b6000613b596024836125e7565b9150613b6482613afd565b604082019050919050565b60006020820190508181036000830152613b8881613b4c565b9050919050565b6000613b9a82612579565b9150613ba583612579565b925082821015613bb857613bb76131ec565b5b828203905092915050565b7f4e487b7100000000000000000000000000000000000000000000000000000000600052601260045260246000fd5b6000613bfd82612579565b9150613c0883612579565b925082613c1857613c17613bc3565b5b828204905092915050565b6000613c2e82612579565b9150613c3983612579565b925082613c4957613c48613bc3565b5b828206905092915050565b7f4552433732313a207472616e7366657220746f206e6f6e20455243373231526560008201527f63656976657220696d706c656d656e7465720000000000000000000000000000602082015250565b6000613cb06032836125e7565b9150613cbb82613c54565b604082019050919050565b60006020820190508181036000830152613cdf81613ca3565b9050919050565b600081519050919050565b600082825260208201905092915050565b6000613d0d82613ce6565b613d178185613cf1565b9350613d278185602086016125f8565b613d308161262b565b840191505092915050565b6000608082019050613d5060008301876127ae565b613d5d60208301866127ae565b613d6a6040830185612697565b8181036060830152613d7c8184613d02565b905095945050505050565b600081519050613d96816126ed565b92915050565b600060208284031215613db257613db161256f565b5b6000613dc084828501613d87565b91505092915050565b7f4552433732313a206d696e7420746f20746865207a65726f2061646472657373600082015250565b6000613dff6020836125e7565b9150613e0a82613dc9565b602082019050919050565b60006020820190508181036000830152613e2e81613df2565b9050919050565b7f4552433732313a20746f6b656e20616c7265616479206d696e74656400000000600082015250565b6000613e6b601c836125e7565b9150613e7682613e35565b602082019050919050565b60006020820190508181036000830152613e9a81613e5e565b905091905056fea264697066735822122019615ff02093844af268d23d93446ce822f83a63d31078adcfc1e9bc4096c87b64736f6c634300080b0033",
  "immutableReferences": {},
  "source": "pragma solidity ^0.8.0;\n\nimport \"./ERC3664/ERC3664.sol\";\nimport \"openzeppelin-solidity/contracts/token/ERC721/ERC721.sol\";\n\n\ncontract Character is ERC3664, ERC721{\n\n    uint256 private attrQuantity;\n\n    constructor() ERC721(\"Item_nft\", \"ITEM\") ERC3664(\"http://localhost:3000/\"){\n        attrQuantity = 3;\n        _mint(0, 'attack', 'ATTACK', '');\n        _mint(1, 'speed', 'SPEED', '');\n        _mint(2, 'defense', 'DEFENSE', '');\n    }\n\n    function supportsInterface(bytes4 interfaceId)\n        public\n        view\n        virtual\n        override(ERC3664, ERC721)\n    returns (bool)\n    {\n        return super.supportsInterface(interfaceId);\n    }\n\n    function getQuantity() external view returns(uint256){\n        return attrQuantity;\n    }\n\n    function mint(address to, uint256 tokenId) public {\n        _safeMint(to, tokenId);\n    }\n\n    function get_attributeAmount(uint256 tokenId, uint attrId) public view returns(uint256){\n        return ERC3664.balanceOf(tokenId, attrId);\n    }\n    function get_attrName(uint256 attrId) public view returns(string memory){\n        return ERC3664.name(attrId);\n    }\n}\n",
  "sourcePath": "/Users/li/Character/src/contracts/Character.sol",
  "compiler": {
    "name": "solc",
    "version": "0.8.11+commit.d7f03943.Emscripten.clang"
  },
  "schemaVersion": "3.4.4",
  "updatedAt": "2022-02-19T10:16:34.325Z",
  "networkType": "ethereum",
  "devdoc": {
    "kind": "dev",
    "methods": {
      "approve(address,uint256)": {
        "details": "See {IERC721-approve}."
      },
      "attach(uint256,uint256,uint256)": {
        "details": "See {IERC3664-attach}."
      },
      "attrURI(uint256)": {
        "details": "See {IERC721Metadata-attrURI}."
      },
      "attributesOf(uint256)": {
        "details": "See {IERC3664-attributesOf}."
      },
      "balanceOf(address)": {
        "details": "See {IERC721-balanceOf}."
      },
      "balanceOf(uint256,uint256)": {
        "details": "See {IERC3664-balanceOf}."
      },
      "balanceOfBatch(uint256,uint256[])": {
        "details": "See {IERC3664-balanceOfBatch}."
      },
      "batchAttach(uint256,uint256[],uint256[])": {
        "details": "See {IERC3664-batchAttach}."
      },
      "getApproved(uint256)": {
        "details": "See {IERC721-getApproved}."
      },
      "isApprovedForAll(address,address)": {
        "details": "See {IERC721-isApprovedForAll}."
      },
      "name()": {
        "details": "See {IERC721Metadata-name}."
      },
      "name(uint256)": {
        "details": "See {IERC3664Metadata-name}."
      },
      "ownerOf(uint256)": {
        "details": "See {IERC721-ownerOf}."
      },
      "primaryAttributeOf(uint256)": {
        "details": "See {IERC3664-primaryAttributeOf}."
      },
      "safeTransferFrom(address,address,uint256)": {
        "details": "See {IERC721-safeTransferFrom}."
      },
      "safeTransferFrom(address,address,uint256,bytes)": {
        "details": "See {IERC721-safeTransferFrom}."
      },
      "setApprovalForAll(address,bool)": {
        "details": "See {IERC721-setApprovalForAll}."
      },
      "setPrimaryAttribute(uint256,uint256)": {
        "details": "See {IERC3664-setPrimaryAttribute}."
      },
      "symbol()": {
        "details": "See {IERC721Metadata-symbol}."
      },
      "symbol(uint256)": {
        "details": "See {IERC3664Metadata-symbol}."
      },
      "tokenURI(uint256)": {
        "details": "See {IERC721Metadata-tokenURI}."
      },
      "transferFrom(address,address,uint256)": {
        "details": "See {IERC721-transferFrom}."
      }
    },
    "version": 1
  },
  "userdoc": {
    "kind": "user",
    "methods": {},
    "version": 1
  }
}