{
  "contractName": "Character",
  "abi": [
    {
      "inputs": [],
      "stateMutability": "nonpayable",
      "type": "constructor"
    },
    {
      "anonymous": false,
      "inputs": [
        {
          "indexed": true,
          "internalType": "address",
          "name": "owner",
          "type": "address"
        },
        {
          "indexed": true,
          "internalType": "address",
          "name": "approved",
          "type": "address"
        },
        {
          "indexed": true,
          "internalType": "uint256",
          "name": "tokenId",
          "type": "uint256"
        }
      ],
      "name": "Approval",
      "type": "event"
    },
    {
      "anonymous": false,
      "inputs": [
        {
          "indexed": true,
          "internalType": "address",
          "name": "owner",
          "type": "address"
        },
        {
          "indexed": true,
          "internalType": "address",
          "name": "operator",
          "type": "address"
        },
        {
          "indexed": false,
          "internalType": "bool",
          "name": "approved",
          "type": "bool"
        }
      ],
      "name": "ApprovalForAll",
      "type": "event"
    },
    {
      "anonymous": false,
      "inputs": [
        {
          "indexed": true,
          "internalType": "uint256",
          "name": "attrId",
          "type": "uint256"
        },
        {
          "indexed": false,
          "internalType": "string",
          "name": "name",
          "type": "string"
        },
        {
          "indexed": false,
          "internalType": "string",
          "name": "symbol",
          "type": "string"
        },
        {
          "indexed": false,
          "internalType": "string",
          "name": "uri",
          "type": "string"
        }
      ],
      "name": "AttributeCreated",
      "type": "event"
    },
    {
      "anonymous": false,
      "inputs": [
        {
          "indexed": true,
          "internalType": "address",
          "name": "from",
          "type": "address"
        },
        {
          "indexed": true,
          "internalType": "address",
          "name": "to",
          "type": "address"
        },
        {
          "indexed": true,
          "internalType": "uint256",
          "name": "tokenId",
          "type": "uint256"
        }
      ],
      "name": "Transfer",
      "type": "event"
    },
    {
      "anonymous": false,
      "inputs": [
        {
          "indexed": true,
          "internalType": "address",
          "name": "operator",
          "type": "address"
        },
        {
          "indexed": false,
          "internalType": "uint256",
          "name": "from",
          "type": "uint256"
        },
        {
          "indexed": false,
          "internalType": "uint256",
          "name": "to",
          "type": "uint256"
        },
        {
          "indexed": true,
          "internalType": "uint256[]",
          "name": "attrIds",
          "type": "uint256[]"
        },
        {
          "indexed": false,
          "internalType": "uint256[]",
          "name": "values",
          "type": "uint256[]"
        }
      ],
      "name": "TransferBatch",
      "type": "event"
    },
    {
      "anonymous": false,
      "inputs": [
        {
          "indexed": true,
          "internalType": "address",
          "name": "operator",
          "type": "address"
        },
        {
          "indexed": false,
          "internalType": "uint256",
          "name": "from",
          "type": "uint256"
        },
        {
          "indexed": false,
          "internalType": "uint256",
          "name": "to",
          "type": "uint256"
        },
        {
          "indexed": true,
          "internalType": "uint256",
          "name": "attrId",
          "type": "uint256"
        },
        {
          "indexed": false,
          "internalType": "uint256",
          "name": "value",
          "type": "uint256"
        }
      ],
      "name": "TransferSingle",
      "type": "event"
    },
    {
      "inputs": [
        {
          "internalType": "address",
          "name": "to",
          "type": "address"
        },
        {
          "internalType": "uint256",
          "name": "tokenId",
          "type": "uint256"
        }
      ],
      "name": "approve",
      "outputs": [],
      "stateMutability": "nonpayable",
      "type": "function"
    },
    {
      "inputs": [
        {
          "internalType": "uint256",
          "name": "tokenId",
          "type": "uint256"
        },
        {
          "internalType": "uint256",
          "name": "attrId",
          "type": "uint256"
        },
        {
          "internalType": "uint256",
          "name": "amount",
          "type": "uint256"
        }
      ],
      "name": "attach",
      "outputs": [],
      "stateMutability": "nonpayable",
      "type": "function"
    },
    {
      "inputs": [
        {
          "internalType": "uint256",
          "name": "",
          "type": "uint256"
        },
        {
          "internalType": "uint256",
          "name": "",
          "type": "uint256"
        }
      ],
      "name": "attrBalances",
      "outputs": [
        {
          "internalType": "uint256",
          "name": "",
          "type": "uint256"
        }
      ],
      "stateMutability": "view",
      "type": "function",
      "constant": true
    },
    {
      "inputs": [
        {
          "internalType": "uint256",
          "name": "attrId",
          "type": "uint256"
        }
      ],
      "name": "attrURI",
      "outputs": [
        {
          "internalType": "string",
          "name": "",
          "type": "string"
        }
      ],
      "stateMutability": "view",
      "type": "function",
      "constant": true
    },
    {
      "inputs": [
        {
          "internalType": "uint256",
          "name": "tokenId",
          "type": "uint256"
        }
      ],
      "name": "attributesOf",
      "outputs": [
        {
          "internalType": "uint256[]",
          "name": "",
          "type": "uint256[]"
        }
      ],
      "stateMutability": "view",
      "type": "function",
      "constant": true
    },
    {
      "inputs": [
        {
          "internalType": "uint256",
          "name": "",
          "type": "uint256"
        },
        {
          "internalType": "uint256",
          "name": "",
          "type": "uint256"
        }
      ],
      "name": "attrs",
      "outputs": [
        {
          "internalType": "uint256",
          "name": "",
          "type": "uint256"
        }
      ],
      "stateMutability": "view",
      "type": "function",
      "constant": true
    },
    {
      "inputs": [
        {
          "internalType": "address",
          "name": "owner",
          "type": "address"
        }
      ],
      "name": "balanceOf",
      "outputs": [
        {
          "internalType": "uint256",
          "name": "",
          "type": "uint256"
        }
      ],
      "stateMutability": "view",
      "type": "function",
      "constant": true
    },
    {
      "inputs": [
        {
          "internalType": "uint256",
          "name": "tokenId",
          "type": "uint256"
        },
        {
          "internalType": "uint256",
          "name": "attrId",
          "type": "uint256"
        }
      ],
      "name": "balanceOf",
      "outputs": [
        {
          "internalType": "uint256",
          "name": "",
          "type": "uint256"
        }
      ],
      "stateMutability": "view",
      "type": "function",
      "constant": true
    },
    {
      "inputs": [
        {
          "internalType": "uint256",
          "name": "tokenId",
          "type": "uint256"
        },
        {
          "internalType": "uint256[]",
          "name": "attrIds",
          "type": "uint256[]"
        }
      ],
      "name": "balanceOfBatch",
      "outputs": [
        {
          "internalType": "uint256[]",
          "name": "",
          "type": "uint256[]"
        }
      ],
      "stateMutability": "view",
      "type": "function",
      "constant": true
    },
    {
      "inputs": [],
      "name": "baseExtension",
      "outputs": [
        {
          "internalType": "string",
          "name": "",
          "type": "string"
        }
      ],
      "stateMutability": "view",
      "type": "function",
      "constant": true
    },
    {
      "inputs": [],
      "name": "baseHeader",
      "outputs": [
        {
          "internalType": "string",
          "name": "",
          "type": "string"
        }
      ],
      "stateMutability": "view",
      "type": "function",
      "constant": true
    },
    {
      "inputs": [
        {
          "internalType": "uint256",
          "name": "tokenId",
          "type": "uint256"
        },
        {
          "internalType": "uint256[]",
          "name": "attrIds",
          "type": "uint256[]"
        },
        {
          "internalType": "uint256[]",
          "name": "amounts",
          "type": "uint256[]"
        }
      ],
      "name": "batchAttach",
      "outputs": [],
      "stateMutability": "nonpayable",
      "type": "function"
    },
    {
      "inputs": [
        {
          "internalType": "uint256",
          "name": "tokenId",
          "type": "uint256"
        }
      ],
      "name": "getApproved",
      "outputs": [
        {
          "internalType": "address",
          "name": "",
          "type": "address"
        }
      ],
      "stateMutability": "view",
      "type": "function",
      "constant": true
    },
    {
      "inputs": [
        {
          "internalType": "address",
          "name": "owner",
          "type": "address"
        },
        {
          "internalType": "address",
          "name": "operator",
          "type": "address"
        }
      ],
      "name": "isApprovedForAll",
      "outputs": [
        {
          "internalType": "bool",
          "name": "",
          "type": "bool"
        }
      ],
      "stateMutability": "view",
      "type": "function",
      "constant": true
    },
    {
      "inputs": [
        {
          "internalType": "uint256",
          "name": "attrId",
          "type": "uint256"
        }
      ],
      "name": "name",
      "outputs": [
        {
          "internalType": "string",
          "name": "",
          "type": "string"
        }
      ],
      "stateMutability": "view",
      "type": "function",
      "constant": true
    },
    {
      "inputs": [],
      "name": "name",
      "outputs": [
        {
          "internalType": "string",
          "name": "",
          "type": "string"
        }
      ],
      "stateMutability": "view",
      "type": "function",
      "constant": true
    },
    {
      "inputs": [
        {
          "internalType": "uint256",
          "name": "tokenId",
          "type": "uint256"
        }
      ],
      "name": "ownerOf",
      "outputs": [
        {
          "internalType": "address",
          "name": "",
          "type": "address"
        }
      ],
      "stateMutability": "view",
      "type": "function",
      "constant": true
    },
    {
      "inputs": [
        {
          "internalType": "uint256",
          "name": "tokenId",
          "type": "uint256"
        }
      ],
      "name": "primaryAttributeOf",
      "outputs": [
        {
          "internalType": "uint256",
          "name": "",
          "type": "uint256"
        }
      ],
      "stateMutability": "view",
      "type": "function",
      "constant": true
    },
    {
      "inputs": [
        {
          "internalType": "address",
          "name": "from",
          "type": "address"
        },
        {
          "internalType": "address",
          "name": "to",
          "type": "address"
        },
        {
          "internalType": "uint256",
          "name": "tokenId",
          "type": "uint256"
        }
      ],
      "name": "safeTransferFrom",
      "outputs": [],
      "stateMutability": "nonpayable",
      "type": "function"
    },
    {
      "inputs": [
        {
          "internalType": "address",
          "name": "from",
          "type": "address"
        },
        {
          "internalType": "address",
          "name": "to",
          "type": "address"
        },
        {
          "internalType": "uint256",
          "name": "tokenId",
          "type": "uint256"
        },
        {
          "internalType": "bytes",
          "name": "_data",
          "type": "bytes"
        }
      ],
      "name": "safeTransferFrom",
      "outputs": [],
      "stateMutability": "nonpayable",
      "type": "function"
    },
    {
      "inputs": [
        {
          "internalType": "address",
          "name": "operator",
          "type": "address"
        },
        {
          "internalType": "bool",
          "name": "approved",
          "type": "bool"
        }
      ],
      "name": "setApprovalForAll",
      "outputs": [],
      "stateMutability": "nonpayable",
      "type": "function"
    },
    {
      "inputs": [
        {
          "internalType": "uint256",
          "name": "tokenId",
          "type": "uint256"
        },
        {
          "internalType": "uint256",
          "name": "attrId",
          "type": "uint256"
        }
      ],
      "name": "setPrimaryAttribute",
      "outputs": [],
      "stateMutability": "nonpayable",
      "type": "function"
    },
    {
      "inputs": [
        {
          "internalType": "uint256",
          "name": "attrId",
          "type": "uint256"
        }
      ],
      "name": "symbol",
      "outputs": [
        {
          "internalType": "string",
          "name": "",
          "type": "string"
        }
      ],
      "stateMutability": "view",
      "type": "function",
      "constant": true
    },
    {
      "inputs": [],
      "name": "symbol",
      "outputs": [
        {
          "internalType": "string",
          "name": "",
          "type": "string"
        }
      ],
      "stateMutability": "view",
      "type": "function",
      "constant": true
    },
    {
      "inputs": [
        {
          "internalType": "address",
          "name": "from",
          "type": "address"
        },
        {
          "internalType": "address",
          "name": "to",
          "type": "address"
        },
        {
          "internalType": "uint256",
          "name": "tokenId",
          "type": "uint256"
        }
      ],
      "name": "transferFrom",
      "outputs": [],
      "stateMutability": "nonpayable",
      "type": "function"
    },
    {
      "inputs": [
        {
          "internalType": "bytes4",
          "name": "interfaceId",
          "type": "bytes4"
        }
      ],
      "name": "supportsInterface",
      "outputs": [
        {
          "internalType": "bool",
          "name": "",
          "type": "bool"
        }
      ],
      "stateMutability": "view",
      "type": "function",
      "constant": true
    },
    {
      "inputs": [],
      "name": "getAttrQuantity",
      "outputs": [
        {
          "internalType": "uint256",
          "name": "",
          "type": "uint256"
        }
      ],
      "stateMutability": "view",
      "type": "function",
      "constant": true
    },
    {
      "inputs": [
        {
          "internalType": "address",
          "name": "to",
          "type": "address"
        },
        {
          "internalType": "uint256",
          "name": "tokenId",
          "type": "uint256"
        }
      ],
      "name": "mint",
      "outputs": [],
      "stateMutability": "nonpayable",
      "type": "function"
    },
    {
      "inputs": [
        {
          "internalType": "uint256",
          "name": "tokenId",
          "type": "uint256"
        },
        {
          "internalType": "uint256",
          "name": "attrId",
          "type": "uint256"
        }
      ],
      "name": "getAttrAmount",
      "outputs": [
        {
          "internalType": "uint256",
          "name": "",
          "type": "uint256"
        }
      ],
      "stateMutability": "view",
      "type": "function",
      "constant": true
    },
    {
      "inputs": [
        {
          "internalType": "uint256",
          "name": "attrId",
          "type": "uint256"
        }
      ],
      "name": "getAttrName",
      "outputs": [
        {
          "internalType": "string",
          "name": "",
          "type": "string"
        }
      ],
      "stateMutability": "view",
      "type": "function",
      "constant": true
    },
    {
      "inputs": [
        {
          "internalType": "uint256",
          "name": "tokenId",
          "type": "uint256"
        }
      ],
      "name": "tokenURI",
      "outputs": [
        {
          "internalType": "string",
          "name": "",
          "type": "string"
        }
      ],
      "stateMutability": "view",
      "type": "function",
      "constant": true
    },
    {
      "inputs": [
        {
          "internalType": "uint256",
          "name": "tokenId",
          "type": "uint256"
        }
      ],
      "name": "burnToken",
      "outputs": [],
      "stateMutability": "nonpayable",
      "type": "function"
    }
  ],
  "bytecode": "0x60806040526040518060400160405280600581526020017f2e6a736f6e000000000000000000000000000000000000000000000000000000815250600d9080519060200190620000519291906200051e565b506040518060400160405280600781526020017f697066733a2f2f00000000000000000000000000000000000000000000000000815250600e90805190602001906200009f9291906200051e565b50348015620000ad57600080fd5b506040518060400160405280600881526020017f4974656d5f6e66740000000000000000000000000000000000000000000000008152506040518060400160405280600481526020017f4954454d000000000000000000000000000000000000000000000000000000008152506040518060400160405280601681526020017f687474703a2f2f6c6f63616c686f73743a333030302f0000000000000000000081525062000161816200038060201b60201c565b5081600590805190602001906200017a9291906200051e565b508060069080519060200190620001939291906200051e565b5050506003600c819055506200022c60006040518060400160405280600681526020017f61747461636b00000000000000000000000000000000000000000000000000008152506040518060400160405280600681526020017f41545441434b0000000000000000000000000000000000000000000000000000815250604051806020016040528060008152506200039c60201b60201c565b620002ba60016040518060400160405280600581526020017f73706565640000000000000000000000000000000000000000000000000000008152506040518060400160405280600581526020017f5350454544000000000000000000000000000000000000000000000000000000815250604051806020016040528060008152506200039c60201b60201c565b6200034860026040518060400160405280600781526020017f646566656e7365000000000000000000000000000000000000000000000000008152506040518060400160405280600781526020017f444546454e534500000000000000000000000000000000000000000000000000815250604051806020016040528060008152506200039c60201b60201c565b6040518060600160405280602f815260200162004ac9602f9139600f9080519060200190620003799291906200051e565b50620007c1565b8060009080519060200190620003989291906200051e565b5050565b620003ad84620004f160201b60201c565b15620003f0576040517f08c379a0000000000000000000000000000000000000000000000000000000008152600401620003e79062000655565b60405180910390fd5b60006040518060800160405280858152602001848152602001838152602001600115158152509050806001600087815260200190815260200160002060008201518160000190805190602001906200044a9291906200051e565b506020820151816001019080519060200190620004699291906200051e565b506040820151816002019080519060200190620004889291906200051e565b5060608201518160030160006101000a81548160ff021916908315150217905550905050847fe3c3c9bbda1d6ccb059320eed92d395bd49272efb8a675a188a9d1b4e4da4ce2858585604051620004e2939291906200070a565b60405180910390a25050505050565b60006001600083815260200190815260200160002060030160009054906101000a900460ff169050919050565b8280546200052c906200078b565b90600052602060002090601f0160209004810192826200055057600085556200059c565b82601f106200056b57805160ff19168380011785556200059c565b828001600101855582156200059c579182015b828111156200059b5782518255916020019190600101906200057e565b5b509050620005ab9190620005af565b5090565b5b80821115620005ca576000816000905550600101620005b0565b5090565b600082825260208201905092915050565b7f455243333636343a2061747472696275746520616c726561647920657869737460008201527f7300000000000000000000000000000000000000000000000000000000000000602082015250565b60006200063d602183620005ce565b91506200064a82620005df565b604082019050919050565b6000602082019050818103600083015262000670816200062e565b9050919050565b600081519050919050565b60005b83811015620006a257808201518184015260208101905062000685565b83811115620006b2576000848401525b50505050565b6000601f19601f8301169050919050565b6000620006d68262000677565b620006e28185620005ce565b9350620006f481856020860162000682565b620006ff81620006b8565b840191505092915050565b60006060820190508181036000830152620007268186620006c9565b905081810360208301526200073c8185620006c9565b90508181036040830152620007528184620006c9565b9050949350505050565b7f4e487b7100000000000000000000000000000000000000000000000000000000600052602260045260246000fd5b60006002820490506001821680620007a457607f821691505b60208210811415620007bb57620007ba6200075c565b5b50919050565b6142f880620007d16000396000f3fe608060405234801561001057600080fd5b50600436106101ef5760003560e01c80635d1261101161010f578063a35efa77116100a2578063c87b56dd11610071578063c87b56dd14610612578063e829ffa114610642578063e985e9c514610672578063ea699633146106a2576101ef565b8063a35efa771461059e578063b4101dce146105bc578063b88d4fde146105d8578063c6682862146105f4576101ef565b806387e21d42116100de57806387e21d421461050457806395d89b41146105345780639bc5ae5414610552578063a22cb46514610582576101ef565b80635d126110146104585780636352211e1461048857806370a08231146104b85780637b47ec1a146104e8576101ef565b8063169dbe6e1161018757806339e6fbfd1161015657806339e6fbfd146103c057806340c10f19146103f057806342842e0e1461040c5780634e41a1fb14610428576101ef565b8063169dbe6e146103265780631903df481461035657806323b872dd1461037457806335c4792014610390576101ef565b806309363c44116101c357806309363c44146102a2578063095ea7b3146102d25780631070717b146102ee578063132e09e31461030a576101ef565b8062ad800c146101f457806301ffc9a71461022457806306fdde0314610254578063081812fc14610272575b600080fd5b61020e60048036038101906102099190612992565b6106d2565b60405161021b9190612a58565b60405180910390f35b61023e60048036038101906102399190612ad2565b6107c2565b60405161024b9190612b1a565b60405180910390f35b61025c6107d4565b6040516102699190612a58565b60405180910390f35b61028c60048036038101906102879190612992565b610866565b6040516102999190612b76565b60405180910390f35b6102bc60048036038101906102b79190612992565b6108eb565b6040516102c99190612c4f565b60405180910390f35b6102ec60048036038101906102e79190612c9d565b610956565b005b61030860048036038101906103039190612cdd565b610a6e565b005b610324600480360381019061031f9190612d82565b610ad3565b005b610340600480360381019061033b9190612cdd565b610d7e565b60405161034d9190612e26565b60405180910390f35b61035e610daf565b60405161036b9190612e26565b60405180910390f35b61038e60048036038101906103899190612e41565b610db9565b005b6103aa60048036038101906103a59190612cdd565b610e19565b6040516103b79190612e26565b60405180910390f35b6103da60048036038101906103d59190612992565b610e2d565b6040516103e79190612a58565b60405180910390f35b61040a60048036038101906104059190612c9d565b610e3f565b005b61042660048036038101906104219190612e41565b610e4d565b005b610442600480360381019061043d9190612992565b610e6d565b60405161044f9190612a58565b60405180910390f35b610472600480360381019061046d9190612e94565b610f5d565b60405161047f9190612c4f565b60405180910390f35b6104a2600480360381019061049d9190612992565b61101c565b6040516104af9190612b76565b60405180910390f35b6104d260048036038101906104cd9190612ef4565b6110ce565b6040516104df9190612e26565b60405180910390f35b61050260048036038101906104fd9190612992565b611186565b005b61051e60048036038101906105199190612992565b611192565b60405161052b9190612e26565b60405180910390f35b61053c6111af565b6040516105499190612a58565b60405180910390f35b61056c60048036038101906105679190612992565b611241565b6040516105799190612a58565b60405180910390f35b61059c60048036038101906105979190612f4d565b6113c9565b005b6105a661154a565b6040516105b39190612a58565b60405180910390f35b6105d660048036038101906105d19190612f8d565b6115d8565b005b6105f260048036038101906105ed9190613110565b611757565b005b6105fc6117b9565b6040516106099190612a58565b60405180910390f35b61062c60048036038101906106279190612992565b611847565b6040516106399190612a58565b60405180910390f35b61065c60048036038101906106579190612cdd565b6118f4565b6040516106699190612e26565b60405180910390f35b61068c60048036038101906106879190613193565b611919565b6040516106999190612b1a565b60405180910390f35b6106bc60048036038101906106b79190612cdd565b6119ad565b6040516106c99190612e26565b60405180910390f35b60606106dd826119dc565b61071c576040517f08c379a000000000000000000000000000000000000000000000000000000000815260040161071390613245565b60405180910390fd5b60016000838152602001908152602001600020600001805461073d90613294565b80601f016020809104026020016040519081016040528092919081815260200182805461076990613294565b80156107b65780601f1061078b576101008083540402835291602001916107b6565b820191906000526020600020905b81548152906001019060200180831161079957829003601f168201915b50505050509050919050565b60006107cd82611a09565b9050919050565b6060600580546107e390613294565b80601f016020809104026020016040519081016040528092919081815260200182805461080f90613294565b801561085c5780601f106108315761010080835404028352916020019161085c565b820191906000526020600020905b81548152906001019060200180831161083f57829003601f168201915b5050505050905090565b600061087182611aeb565b6108b0576040517f08c379a00000000000000000000000000000000000000000000000000000000081526004016108a790613338565b60405180910390fd5b6009600083815260200190815260200160002060009054906101000a900473ffffffffffffffffffffffffffffffffffffffff169050919050565b60606004600083815260200190815260200160002080548060200260200160405190810160405280929190818152602001828054801561094a57602002820191906000526020600020905b815481526020019060010190808311610936575b50505050509050919050565b60006109618261101c565b90508073ffffffffffffffffffffffffffffffffffffffff168373ffffffffffffffffffffffffffffffffffffffff1614156109d2576040517f08c379a00000000000000000000000000000000000000000000000000000000081526004016109c9906133ca565b60405180910390fd5b8073ffffffffffffffffffffffffffffffffffffffff166109f1611b57565b73ffffffffffffffffffffffffffffffffffffffff161480610a205750610a1f81610a1a611b57565b611919565b5b610a5f576040517f08c379a0000000000000000000000000000000000000000000000000000000008152600401610a569061345c565b60405180910390fd5b610a698383611b5f565b505050565b610a788282611c18565b610ab7576040517f08c379a0000000000000000000000000000000000000000000000000000000008152600401610aae906134ee565b60405180910390fd5b8060036000848152602001908152602001600020819055505050565b6000610add611b57565b9050610b7f81600088888880806020026020016040519081016040528093929190818152602001838360200280828437600081840152601f19601f82011690508083019250505050505050878780806020026020016040519081016040528093929190818152602001838360200280828437600081840152601f19601f8201169050808301925050505050505060405180602001604052806000815250611c49565b60005b85859050811015610d0857610baf868683818110610ba357610ba261350e565b5b905060200201356119dc565b610bee576040517f08c379a0000000000000000000000000000000000000000000000000000000008152600401610be5906135af565b60405180910390fd5b600060026000888885818110610c0757610c0661350e565b5b9050602002013581526020019081526020016000206000898152602001908152602001600020541415610c885760046000888152602001908152602001600020868683818110610c5a57610c5961350e565b5b9050602002013590806001815401808255809150506001900390600052602060002001600090919091909150555b838382818110610c9b57610c9a61350e565b5b9050602002013560026000888885818110610cb957610cb861350e565b5b90506020020135815260200190815260200160002060008981526020019081526020016000206000828254610cee91906135fe565b925050819055508080610d0090613654565b915050610b82565b508484604051610d19929190613709565b60405180910390208173ffffffffffffffffffffffffffffffffffffffff167fbfb4d8e5891aebe97980c97616b6b0af2006a58ccabe6e1b7e3da24d0906a8566000898787604051610d6e94939291906137c3565b60405180910390a3505050505050565b60046020528160005260406000208181548110610d9a57600080fd5b90600052602060002001600091509150505481565b6000600c54905090565b610dca610dc4611b57565b82611c51565b610e09576040517f08c379a0000000000000000000000000000000000000000000000000000000008152600401610e0090613875565b60405180910390fd5b610e14838383611d2f565b505050565b6000610e2583836119ad565b905092915050565b6060610e38826106d2565b9050919050565b610e498282611f8b565b5050565b610e6883838360405180602001604052806000815250611757565b505050565b6060610e78826119dc565b610eb7576040517f08c379a0000000000000000000000000000000000000000000000000000000008152600401610eae90613907565b60405180910390fd5b600160008381526020019081526020016000206001018054610ed890613294565b80601f0160208091040260200160405190810160405280929190818152602001828054610f0490613294565b8015610f515780601f10610f2657610100808354040283529160200191610f51565b820191906000526020600020905b815481529060010190602001808311610f3457829003601f168201915b50505050509050919050565b606060008383905067ffffffffffffffff811115610f7e57610f7d612fe5565b5b604051908082528060200260200182016040528015610fac5781602001602082028036833780820191505090505b50905060005b8484905081101561101057610fe086868684818110610fd457610fd361350e565b5b905060200201356119ad565b828281518110610ff357610ff261350e565b5b6020026020010181815250508061100990613654565b9050610fb2565b50809150509392505050565b6000806007600084815260200190815260200160002060009054906101000a900473ffffffffffffffffffffffffffffffffffffffff169050600073ffffffffffffffffffffffffffffffffffffffff168173ffffffffffffffffffffffffffffffffffffffff1614156110c5576040517f08c379a00000000000000000000000000000000000000000000000000000000081526004016110bc90613999565b60405180910390fd5b80915050919050565b60008073ffffffffffffffffffffffffffffffffffffffff168273ffffffffffffffffffffffffffffffffffffffff16141561113f576040517f08c379a000000000000000000000000000000000000000000000000000000000815260040161113690613a2b565b60405180910390fd5b600860008373ffffffffffffffffffffffffffffffffffffffff1673ffffffffffffffffffffffffffffffffffffffff168152602001908152602001600020549050919050565b61118f81611fa9565b50565b600060036000838152602001908152602001600020549050919050565b6060600680546111be90613294565b80601f01602080910402602001604051908101604052809291908181526020018280546111ea90613294565b80156112375780601f1061120c57610100808354040283529160200191611237565b820191906000526020600020905b81548152906001019060200180831161121a57829003601f168201915b5050505050905090565b606061124c826119dc565b61128b576040517f08c379a000000000000000000000000000000000000000000000000000000000815260040161128290613abd565b60405180910390fd5b60006001600084815260200190815260200160002060020180546112ae90613294565b80601f01602080910402602001604051908101604052809291908181526020018280546112da90613294565b80156113275780601f106112fc57610100808354040283529160200191611327565b820191906000526020600020905b81548152906001019060200180831161130a57829003601f168201915b5050505050905060008151111561136a578061134284611ffc565b604051602001611353929190613b19565b6040516020818303038152906040529150506113c4565b600080805461137890613294565b90501161139457604051806020016040528060008152506113c0565b600061139f84611ffc565b6040516020016113b0929190613bd1565b6040516020818303038152906040525b9150505b919050565b6113d1611b57565b73ffffffffffffffffffffffffffffffffffffffff168273ffffffffffffffffffffffffffffffffffffffff16141561143f576040517f08c379a000000000000000000000000000000000000000000000000000000000815260040161143690613c41565b60405180910390fd5b80600a600061144c611b57565b73ffffffffffffffffffffffffffffffffffffffff1673ffffffffffffffffffffffffffffffffffffffff16815260200190815260200160002060008473ffffffffffffffffffffffffffffffffffffffff1673ffffffffffffffffffffffffffffffffffffffff16815260200190815260200160002060006101000a81548160ff0219169083151502179055508173ffffffffffffffffffffffffffffffffffffffff166114f9611b57565b73ffffffffffffffffffffffffffffffffffffffff167f17307eab39ab6107e8899845ad3d59bd9653f200f220920489ca2b5937696c318360405161153e9190612b1a565b60405180910390a35050565b600e805461155790613294565b80601f016020809104026020016040519081016040528092919081815260200182805461158390613294565b80156115d05780601f106115a5576101008083540402835291602001916115d0565b820191906000526020600020905b8154815290600101906020018083116115b357829003601f168201915b505050505081565b6115e1826119dc565b611620576040517f08c379a000000000000000000000000000000000000000000000000000000000815260040161161790613cd3565b60405180910390fd5b600061162a611b57565b905061165a8160008661163c8761215d565b6116458761215d565b60405180602001604052806000815250611c49565b60006002600085815260200190815260200160002060008681526020019081526020016000205414156116c257600460008581526020019081526020016000208390806001815401808255809150506001900390600052602060002001600090919091909150555b8160026000858152602001908152602001600020600086815260200190815260200160002060008282546116f691906135fe565b92505081905550828173ffffffffffffffffffffffffffffffffffffffff167f73b5fbfbf0177b0de2ffe9fd0ae9887dd73d0d865db7ab5ff3c4a6b9bb8db1e36000878660405161174993929190613cf3565b60405180910390a350505050565b611768611762611b57565b83611c51565b6117a7576040517f08c379a000000000000000000000000000000000000000000000000000000000815260040161179e90613875565b60405180910390fd5b6117b3848484846121d7565b50505050565b600d80546117c690613294565b80601f01602080910402602001604051908101604052809291908181526020018280546117f290613294565b801561183f5780601f106118145761010080835404028352916020019161183f565b820191906000526020600020905b81548152906001019060200180831161182257829003601f168201915b505050505081565b606061185282611aeb565b611891576040517f08c379a000000000000000000000000000000000000000000000000000000000815260040161188890613d9c565b60405180910390fd5b600061189b612233565b905060008151116118bb57604051806020016040528060008152506118ec565b600e816118c785611ffc565b600d6040516020016118dc9493929190613dbc565b6040516020818303038152906040525b915050919050565b6002602052816000526040600020602052806000526040600020600091509150505481565b6000600a60008473ffffffffffffffffffffffffffffffffffffffff1673ffffffffffffffffffffffffffffffffffffffff16815260200190815260200160002060008373ffffffffffffffffffffffffffffffffffffffff1673ffffffffffffffffffffffffffffffffffffffff16815260200190815260200160002060009054906101000a900460ff16905092915050565b600060026000838152602001908152602001600020600084815260200190815260200160002054905092915050565b60006001600083815260200190815260200160002060030160009054906101000a900460ff169050919050565b60007f80ac58cd000000000000000000000000000000000000000000000000000000007bffffffffffffffffffffffffffffffffffffffffffffffffffffffff1916827bffffffffffffffffffffffffffffffffffffffffffffffffffffffff19161480611ad457507f5b5e139f000000000000000000000000000000000000000000000000000000007bffffffffffffffffffffffffffffffffffffffffffffffffffffffff1916827bffffffffffffffffffffffffffffffffffffffffffffffffffffffff1916145b80611ae45750611ae3826122c5565b5b9050919050565b60008073ffffffffffffffffffffffffffffffffffffffff166007600084815260200190815260200160002060009054906101000a900473ffffffffffffffffffffffffffffffffffffffff1673ffffffffffffffffffffffffffffffffffffffff1614159050919050565b600033905090565b816009600083815260200190815260200160002060006101000a81548173ffffffffffffffffffffffffffffffffffffffff021916908373ffffffffffffffffffffffffffffffffffffffff160217905550808273ffffffffffffffffffffffffffffffffffffffff16611bd28361101c565b73ffffffffffffffffffffffffffffffffffffffff167f8c5be1e5ebec7d5bd14f71427d1e84f3dd0314c0f7b2291e5b200ac8c7c3b92560405160405180910390a45050565b6000806002600084815260200190815260200160002060008581526020019081526020016000205411905092915050565b505050505050565b6000611c5c82611aeb565b611c9b576040517f08c379a0000000000000000000000000000000000000000000000000000000008152600401611c9290613e6c565b60405180910390fd5b6000611ca68361101c565b90508073ffffffffffffffffffffffffffffffffffffffff168473ffffffffffffffffffffffffffffffffffffffff161480611d1557508373ffffffffffffffffffffffffffffffffffffffff16611cfd84610866565b73ffffffffffffffffffffffffffffffffffffffff16145b80611d265750611d258185611919565b5b91505092915050565b8273ffffffffffffffffffffffffffffffffffffffff16611d4f8261101c565b73ffffffffffffffffffffffffffffffffffffffff1614611da5576040517f08c379a0000000000000000000000000000000000000000000000000000000008152600401611d9c90613efe565b60405180910390fd5b600073ffffffffffffffffffffffffffffffffffffffff168273ffffffffffffffffffffffffffffffffffffffff161415611e15576040517f08c379a0000000000000000000000000000000000000000000000000000000008152600401611e0c90613f90565b60405180910390fd5b611e208383836123a7565b611e2b600082611b5f565b6001600860008573ffffffffffffffffffffffffffffffffffffffff1673ffffffffffffffffffffffffffffffffffffffff1681526020019081526020016000206000828254611e7b9190613fb0565b925050819055506001600860008473ffffffffffffffffffffffffffffffffffffffff1673ffffffffffffffffffffffffffffffffffffffff1681526020019081526020016000206000828254611ed291906135fe565b92505081905550816007600083815260200190815260200160002060006101000a81548173ffffffffffffffffffffffffffffffffffffffff021916908373ffffffffffffffffffffffffffffffffffffffff160217905550808273ffffffffffffffffffffffffffffffffffffffff168473ffffffffffffffffffffffffffffffffffffffff167fddf252ad1be2c89b69c2b068fc378daa952ba7f163c4a11628f55a4df523b3ef60405160405180910390a4505050565b611fa58282604051806020016040528060008152506123ac565b5050565b611fb281612407565b6000600b60008381526020019081526020016000208054611fd290613294565b905014611ff957600b60008281526020019081526020016000206000611ff891906128eb565b5b50565b60606000821415612044576040518060400160405280600181526020017f30000000000000000000000000000000000000000000000000000000000000008152509050612158565b600082905060005b6000821461207657808061205f90613654565b915050600a8261206f9190614013565b915061204c565b60008167ffffffffffffffff81111561209257612091612fe5565b5b6040519080825280601f01601f1916602001820160405280156120c45781602001600182028036833780820191505090505b5090505b60008514612151576001826120dd9190613fb0565b9150600a856120ec9190614044565b60306120f891906135fe565b60f81b81838151811061210e5761210d61350e565b5b60200101907effffffffffffffffffffffffffffffffffffffffffffffffffffffffffffff1916908160001a905350600a8561214a9190614013565b94506120c8565b8093505050505b919050565b60606000600167ffffffffffffffff81111561217c5761217b612fe5565b5b6040519080825280602002602001820160405280156121aa5781602001602082028036833780820191505090505b50905082816000815181106121c2576121c161350e565b5b60200260200101818152505080915050919050565b6121e2848484611d2f565b6121ee84848484612518565b61222d576040517f08c379a0000000000000000000000000000000000000000000000000000000008152600401612224906140e7565b60405180910390fd5b50505050565b6060600f805461224290613294565b80601f016020809104026020016040519081016040528092919081815260200182805461226e90613294565b80156122bb5780601f10612290576101008083540402835291602001916122bb565b820191906000526020600020905b81548152906001019060200180831161229e57829003601f168201915b5050505050905090565b60007f8ee1b373000000000000000000000000000000000000000000000000000000007bffffffffffffffffffffffffffffffffffffffffffffffffffffffff1916827bffffffffffffffffffffffffffffffffffffffffffffffffffffffff1916148061239057507fd5298fa3000000000000000000000000000000000000000000000000000000007bffffffffffffffffffffffffffffffffffffffffffffffffffffffff1916827bffffffffffffffffffffffffffffffffffffffffffffffffffffffff1916145b806123a0575061239f826126a0565b5b9050919050565b505050565b6123b6838361270a565b6123c36000848484612518565b612402576040517f08c379a00000000000000000000000000000000000000000000000000000000081526004016123f9906140e7565b60405180910390fd5b505050565b60006124128261101c565b9050612420816000846123a7565b61242b600083611b5f565b6001600860008373ffffffffffffffffffffffffffffffffffffffff1673ffffffffffffffffffffffffffffffffffffffff168152602001908152602001600020600082825461247b9190613fb0565b925050819055506007600083815260200190815260200160002060006101000a81549073ffffffffffffffffffffffffffffffffffffffff021916905581600073ffffffffffffffffffffffffffffffffffffffff168273ffffffffffffffffffffffffffffffffffffffff167fddf252ad1be2c89b69c2b068fc378daa952ba7f163c4a11628f55a4df523b3ef60405160405180910390a45050565b60006125398473ffffffffffffffffffffffffffffffffffffffff166128d8565b15612693578373ffffffffffffffffffffffffffffffffffffffff1663150b7a02612562611b57565b8786866040518563ffffffff1660e01b8152600401612584949392919061415c565b6020604051808303816000875af19250505080156125c057506040513d601f19601f820116820180604052508101906125bd91906141bd565b60015b612643573d80600081146125f0576040519150601f19603f3d011682016040523d82523d6000602084013e6125f5565b606091505b5060008151141561263b576040517f08c379a0000000000000000000000000000000000000000000000000000000008152600401612632906140e7565b60405180910390fd5b805181602001fd5b63150b7a0260e01b7bffffffffffffffffffffffffffffffffffffffffffffffffffffffff1916817bffffffffffffffffffffffffffffffffffffffffffffffffffffffff191614915050612698565b600190505b949350505050565b60007f01ffc9a7000000000000000000000000000000000000000000000000000000007bffffffffffffffffffffffffffffffffffffffffffffffffffffffff1916827bffffffffffffffffffffffffffffffffffffffffffffffffffffffff1916149050919050565b600073ffffffffffffffffffffffffffffffffffffffff168273ffffffffffffffffffffffffffffffffffffffff16141561277a576040517f08c379a000000000000000000000000000000000000000000000000000000000815260040161277190614236565b60405180910390fd5b61278381611aeb565b156127c3576040517f08c379a00000000000000000000000000000000000000000000000000000000081526004016127ba906142a2565b60405180910390fd5b6127cf600083836123a7565b6001600860008473ffffffffffffffffffffffffffffffffffffffff1673ffffffffffffffffffffffffffffffffffffffff168152602001908152602001600020600082825461281f91906135fe565b92505081905550816007600083815260200190815260200160002060006101000a81548173ffffffffffffffffffffffffffffffffffffffff021916908373ffffffffffffffffffffffffffffffffffffffff160217905550808273ffffffffffffffffffffffffffffffffffffffff16600073ffffffffffffffffffffffffffffffffffffffff167fddf252ad1be2c89b69c2b068fc378daa952ba7f163c4a11628f55a4df523b3ef60405160405180910390a45050565b600080823b905060008111915050919050565b5080546128f790613294565b6000825580601f106129095750612928565b601f016020900490600052602060002090810190612927919061292b565b5b50565b5b8082111561294457600081600090555060010161292c565b5090565b6000604051905090565b600080fd5b600080fd5b6000819050919050565b61296f8161295c565b811461297a57600080fd5b50565b60008135905061298c81612966565b92915050565b6000602082840312156129a8576129a7612952565b5b60006129b68482850161297d565b91505092915050565b600081519050919050565b600082825260208201905092915050565b60005b838110156129f95780820151818401526020810190506129de565b83811115612a08576000848401525b50505050565b6000601f19601f8301169050919050565b6000612a2a826129bf565b612a3481856129ca565b9350612a448185602086016129db565b612a4d81612a0e565b840191505092915050565b60006020820190508181036000830152612a728184612a1f565b905092915050565b60007fffffffff0000000000000000000000000000000000000000000000000000000082169050919050565b612aaf81612a7a565b8114612aba57600080fd5b50565b600081359050612acc81612aa6565b92915050565b600060208284031215612ae857612ae7612952565b5b6000612af684828501612abd565b91505092915050565b60008115159050919050565b612b1481612aff565b82525050565b6000602082019050612b2f6000830184612b0b565b92915050565b600073ffffffffffffffffffffffffffffffffffffffff82169050919050565b6000612b6082612b35565b9050919050565b612b7081612b55565b82525050565b6000602082019050612b8b6000830184612b67565b92915050565b600081519050919050565b600082825260208201905092915050565b6000819050602082019050919050565b612bc68161295c565b82525050565b6000612bd88383612bbd565b60208301905092915050565b6000602082019050919050565b6000612bfc82612b91565b612c068185612b9c565b9350612c1183612bad565b8060005b83811015612c42578151612c298882612bcc565b9750612c3483612be4565b925050600181019050612c15565b5085935050505092915050565b60006020820190508181036000830152612c698184612bf1565b905092915050565b612c7a81612b55565b8114612c8557600080fd5b50565b600081359050612c9781612c71565b92915050565b60008060408385031215612cb457612cb3612952565b5b6000612cc285828601612c88565b9250506020612cd38582860161297d565b9150509250929050565b60008060408385031215612cf457612cf3612952565b5b6000612d028582860161297d565b9250506020612d138582860161297d565b9150509250929050565b600080fd5b600080fd5b600080fd5b60008083601f840112612d4257612d41612d1d565b5b8235905067ffffffffffffffff811115612d5f57612d5e612d22565b5b602083019150836020820283011115612d7b57612d7a612d27565b5b9250929050565b600080600080600060608688031215612d9e57612d9d612952565b5b6000612dac8882890161297d565b955050602086013567ffffffffffffffff811115612dcd57612dcc612957565b5b612dd988828901612d2c565b9450945050604086013567ffffffffffffffff811115612dfc57612dfb612957565b5b612e0888828901612d2c565b92509250509295509295909350565b612e208161295c565b82525050565b6000602082019050612e3b6000830184612e17565b92915050565b600080600060608486031215612e5a57612e59612952565b5b6000612e6886828701612c88565b9350506020612e7986828701612c88565b9250506040612e8a8682870161297d565b9150509250925092565b600080600060408486031215612ead57612eac612952565b5b6000612ebb8682870161297d565b935050602084013567ffffffffffffffff811115612edc57612edb612957565b5b612ee886828701612d2c565b92509250509250925092565b600060208284031215612f0a57612f09612952565b5b6000612f1884828501612c88565b91505092915050565b612f2a81612aff565b8114612f3557600080fd5b50565b600081359050612f4781612f21565b92915050565b60008060408385031215612f6457612f63612952565b5b6000612f7285828601612c88565b9250506020612f8385828601612f38565b9150509250929050565b600080600060608486031215612fa657612fa5612952565b5b6000612fb48682870161297d565b9350506020612fc58682870161297d565b9250506040612fd68682870161297d565b9150509250925092565b600080fd5b7f4e487b7100000000000000000000000000000000000000000000000000000000600052604160045260246000fd5b61301d82612a0e565b810181811067ffffffffffffffff8211171561303c5761303b612fe5565b5b80604052505050565b600061304f612948565b905061305b8282613014565b919050565b600067ffffffffffffffff82111561307b5761307a612fe5565b5b61308482612a0e565b9050602081019050919050565b82818337600083830152505050565b60006130b36130ae84613060565b613045565b9050828152602081018484840111156130cf576130ce612fe0565b5b6130da848285613091565b509392505050565b600082601f8301126130f7576130f6612d1d565b5b81356131078482602086016130a0565b91505092915050565b6000806000806080858703121561312a57613129612952565b5b600061313887828801612c88565b945050602061314987828801612c88565b935050604061315a8782880161297d565b925050606085013567ffffffffffffffff81111561317b5761317a612957565b5b613187878288016130e2565b91505092959194509250565b600080604083850312156131aa576131a9612952565b5b60006131b885828601612c88565b92505060206131c985828601612c88565b9150509250929050565b7f455243333636343a206e616d6520717565727920666f72206e6f6e657869737460008201527f656e742061747472696275746500000000000000000000000000000000000000602082015250565b600061322f602d836129ca565b915061323a826131d3565b604082019050919050565b6000602082019050818103600083015261325e81613222565b9050919050565b7f4e487b7100000000000000000000000000000000000000000000000000000000600052602260045260246000fd5b600060028204905060018216806132ac57607f821691505b602082108114156132c0576132bf613265565b5b50919050565b7f4552433732313a20617070726f76656420717565727920666f72206e6f6e657860008201527f697374656e7420746f6b656e0000000000000000000000000000000000000000602082015250565b6000613322602c836129ca565b915061332d826132c6565b604082019050919050565b6000602082019050818103600083015261335181613315565b9050919050565b7f4552433732313a20617070726f76616c20746f2063757272656e74206f776e6560008201527f7200000000000000000000000000000000000000000000000000000000000000602082015250565b60006133b46021836129ca565b91506133bf82613358565b604082019050919050565b600060208201905081810360008301526133e3816133a7565b9050919050565b7f4552433732313a20617070726f76652063616c6c6572206973206e6f74206f7760008201527f6e6572206e6f7220617070726f76656420666f7220616c6c0000000000000000602082015250565b60006134466038836129ca565b9150613451826133ea565b604082019050919050565b6000602082019050818103600083015261347581613439565b9050919050565b7f455243333636343a20746f6b656e20686173206e6f742061747461636865642060008201527f7468652061747472696275746500000000000000000000000000000000000000602082015250565b60006134d8602d836129ca565b91506134e38261347c565b604082019050919050565b60006020820190508181036000830152613507816134cb565b9050919050565b7f4e487b7100000000000000000000000000000000000000000000000000000000600052603260045260246000fd5b7f455243333636343a20626174636841747461636820666f72206e6f6e6578697360008201527f74656e7420617474726962757465000000000000000000000000000000000000602082015250565b6000613599602e836129ca565b91506135a48261353d565b604082019050919050565b600060208201905081810360008301526135c88161358c565b9050919050565b7f4e487b7100000000000000000000000000000000000000000000000000000000600052601160045260246000fd5b60006136098261295c565b91506136148361295c565b9250827fffffffffffffffffffffffffffffffffffffffffffffffffffffffffffffffff03821115613649576136486135cf565b5b828201905092915050565b600061365f8261295c565b91507fffffffffffffffffffffffffffffffffffffffffffffffffffffffffffffffff821415613692576136916135cf565b5b600182019050919050565b600081905092915050565b600080fd5b60006136b9838561369d565b93507f07ffffffffffffffffffffffffffffffffffffffffffffffffffffffffffffff8311156136ec576136eb6136a8565b5b6020830292506136fd838584613091565b82840190509392505050565b60006137168284866136ad565b91508190509392505050565b6000819050919050565b6000819050919050565b600061375161374c61374784613722565b61372c565b61295c565b9050919050565b61376181613736565b82525050565b60006137738385612b9c565b93507f07ffffffffffffffffffffffffffffffffffffffffffffffffffffffffffffff8311156137a6576137a56136a8565b5b6020830292506137b7838584613091565b82840190509392505050565b60006060820190506137d86000830187613758565b6137e56020830186612e17565b81810360408301526137f8818486613767565b905095945050505050565b7f4552433732313a207472616e736665722063616c6c6572206973206e6f74206f60008201527f776e6572206e6f7220617070726f766564000000000000000000000000000000602082015250565b600061385f6031836129ca565b915061386a82613803565b604082019050919050565b6000602082019050818103600083015261388e81613852565b9050919050565b7f455243333636343a2073796d626f6c20717565727920666f72206e6f6e65786960008201527f7374656e74206174747269627574650000000000000000000000000000000000602082015250565b60006138f1602f836129ca565b91506138fc82613895565b604082019050919050565b60006020820190508181036000830152613920816138e4565b9050919050565b7f4552433732313a206f776e657220717565727920666f72206e6f6e657869737460008201527f656e7420746f6b656e0000000000000000000000000000000000000000000000602082015250565b60006139836029836129ca565b915061398e82613927565b604082019050919050565b600060208201905081810360008301526139b281613976565b9050919050565b7f4552433732313a2062616c616e636520717565727920666f7220746865207a6560008201527f726f206164647265737300000000000000000000000000000000000000000000602082015250565b6000613a15602a836129ca565b9150613a20826139b9565b604082019050919050565b60006020820190508181036000830152613a4481613a08565b9050919050565b7f455243333636343a2055524920717565727920666f72206e6f6e65786973746560008201527f6e74206174747269627574650000000000000000000000000000000000000000602082015250565b6000613aa7602c836129ca565b9150613ab282613a4b565b604082019050919050565b60006020820190508181036000830152613ad681613a9a565b9050919050565b600081905092915050565b6000613af3826129bf565b613afd8185613add565b9350613b0d8185602086016129db565b80840191505092915050565b6000613b258285613ae8565b9150613b318284613ae8565b91508190509392505050565b60008190508160005260206000209050919050565b60008154613b5f81613294565b613b698186613add565b94506001821660008114613b845760018114613b9557613bc8565b60ff19831686528186019350613bc8565b613b9e85613b3d565b60005b83811015613bc057815481890152600182019150602081019050613ba1565b838801955050505b50505092915050565b6000613bdd8285613b52565b9150613be98284613ae8565b91508190509392505050565b7f4552433732313a20617070726f766520746f2063616c6c657200000000000000600082015250565b6000613c2b6019836129ca565b9150613c3682613bf5565b602082019050919050565b60006020820190508181036000830152613c5a81613c1e565b9050919050565b7f455243333636343a2061747461636820666f72206e6f6e6578697374656e742060008201527f6174747269627574650000000000000000000000000000000000000000000000602082015250565b6000613cbd6029836129ca565b9150613cc882613c61565b604082019050919050565b60006020820190508181036000830152613cec81613cb0565b9050919050565b6000606082019050613d086000830186613758565b613d156020830185612e17565b613d226040830184612e17565b949350505050565b7f4552433732314d657461646174613a2055524920717565727920666f72206e6f60008201527f6e6578697374656e7420746f6b656e0000000000000000000000000000000000602082015250565b6000613d86602f836129ca565b9150613d9182613d2a565b604082019050919050565b60006020820190508181036000830152613db581613d79565b9050919050565b6000613dc88287613b52565b9150613dd48286613ae8565b9150613de08285613ae8565b9150613dec8284613b52565b915081905095945050505050565b7f4552433732313a206f70657261746f7220717565727920666f72206e6f6e657860008201527f697374656e7420746f6b656e0000000000000000000000000000000000000000602082015250565b6000613e56602c836129ca565b9150613e6182613dfa565b604082019050919050565b60006020820190508181036000830152613e8581613e49565b9050919050565b7f4552433732313a207472616e73666572206f6620746f6b656e2074686174206960008201527f73206e6f74206f776e0000000000000000000000000000000000000000000000602082015250565b6000613ee86029836129ca565b9150613ef382613e8c565b604082019050919050565b60006020820190508181036000830152613f1781613edb565b9050919050565b7f4552433732313a207472616e7366657220746f20746865207a65726f2061646460008201527f7265737300000000000000000000000000000000000000000000000000000000602082015250565b6000613f7a6024836129ca565b9150613f8582613f1e565b604082019050919050565b60006020820190508181036000830152613fa981613f6d565b9050919050565b6000613fbb8261295c565b9150613fc68361295c565b925082821015613fd957613fd86135cf565b5b828203905092915050565b7f4e487b7100000000000000000000000000000000000000000000000000000000600052601260045260246000fd5b600061401e8261295c565b91506140298361295c565b92508261403957614038613fe4565b5b828204905092915050565b600061404f8261295c565b915061405a8361295c565b92508261406a57614069613fe4565b5b828206905092915050565b7f4552433732313a207472616e7366657220746f206e6f6e20455243373231526560008201527f63656976657220696d706c656d656e7465720000000000000000000000000000602082015250565b60006140d16032836129ca565b91506140dc82614075565b604082019050919050565b60006020820190508181036000830152614100816140c4565b9050919050565b600081519050919050565b600082825260208201905092915050565b600061412e82614107565b6141388185614112565b93506141488185602086016129db565b61415181612a0e565b840191505092915050565b60006080820190506141716000830187612b67565b61417e6020830186612b67565b61418b6040830185612e17565b818103606083015261419d8184614123565b905095945050505050565b6000815190506141b781612aa6565b92915050565b6000602082840312156141d3576141d2612952565b5b60006141e1848285016141a8565b91505092915050565b7f4552433732313a206d696e7420746f20746865207a65726f2061646472657373600082015250565b60006142206020836129ca565b915061422b826141ea565b602082019050919050565b6000602082019050818103600083015261424f81614213565b9050919050565b7f4552433732313a20746f6b656e20616c7265616479206d696e74656400000000600082015250565b600061428c601c836129ca565b915061429782614256565b602082019050919050565b600060208201905081810360008301526142bb8161427f565b905091905056fea2646970667358221220563008790cc958dcd91b9314408001d78a96af4af84709d75ee37c32522d472964736f6c634300080b0033516d634d35524a65516453747a4471707971566253765765723342536b7978386a316b797047706b776d62684c672f",
  "immutableReferences": {},
  "source": "pragma solidity ^0.8.0;\n\nimport \"./ERC3664/ERC3664.sol\";\nimport \"openzeppelin-solidity/contracts/token/ERC721/extensions/ERC721URIStorage.sol\";\n\n\ncontract Character is ERC3664, ERC721URIStorage{\n    using Strings for uint256;\n\n    uint256 private attrQuantity;\n    string public baseExtension = \".json\";\n    string public baseHeader = \"ipfs://\";\n    string baseURI;\n\n    constructor() ERC721(\"Item_nft\", \"ITEM\") ERC3664(\"http://localhost:3000/\"){\n        attrQuantity = 3;\n        _mint(0, 'attack', 'ATTACK', '');\n        _mint(1, 'speed', 'SPEED', '');\n        _mint(2, 'defense', 'DEFENSE', '');\n        baseURI = \"QmcM5RJeQdStzDqpyqVbSvWer3BSkyx8j1kypGpkwmbhLg/\";\n    }\n\n    function supportsInterface(bytes4 interfaceId)\n        public\n        view\n        virtual\n        override(ERC3664, ERC721)\n    returns (bool)\n    {\n        return super.supportsInterface(interfaceId);\n    }\n\n    function getAttrQuantity() external view returns(uint256){\n        return attrQuantity;\n    }\n\n    function mint(address to, uint256 tokenId) public {\n        _safeMint(to, tokenId);\n        //_setTokenURI(tokenId, _tokenURI);\n    }\n\n    function getAttrAmount(uint256 tokenId, uint attrId) public view returns(uint256){\n        return ERC3664.balanceOf(tokenId, attrId);\n    }\n    function getAttrName(uint256 attrId) public view returns(string memory){\n        return ERC3664.name(attrId);\n    }\n\n    function _baseURI() internal view virtual override returns(string memory){\n        return baseURI;\n    }\n\n    function tokenURI(uint256 tokenId)\n        public\n        view\n        virtual\n        override\n        returns (string memory)\n    {\n        require(\n            _exists(tokenId),\n            \"ERC721Metadata: URI query for nonexistent token\"\n        );\n\n        string memory currentBaseURI = _baseURI();\n        return\n            bytes(currentBaseURI).length > 0\n                ? string(\n                    abi.encodePacked(\n                        baseHeader,\n                        currentBaseURI,\n                        tokenId.toString(),\n                        baseExtension\n                    )\n                )\n                : \"\";\n    }\n    function burnToken(uint256 tokenId) public{\n        _burn(tokenId);\n    }\n}\n",
  "sourcePath": "/Users/sean/Desktop/Character/src/contracts/Character.sol",
  "compiler": {
    "name": "solc",
    "version": "0.8.11+commit.d7f03943.Emscripten.clang"
  },
  "schemaVersion": "3.4.5",
  "updatedAt": "2022-02-27T06:44:58.792Z",
  "networkType": "ethereum",
  "devdoc": {
    "kind": "dev",
    "methods": {
      "approve(address,uint256)": {
        "details": "See {IERC721-approve}."
      },
      "attach(uint256,uint256,uint256)": {
        "details": "See {IERC3664-attach}."
      },
      "attrURI(uint256)": {
        "details": "See {IERC721Metadata-attrURI}."
      },
      "attributesOf(uint256)": {
        "details": "See {IERC3664-attributesOf}."
      },
      "balanceOf(address)": {
        "details": "See {IERC721-balanceOf}."
      },
      "balanceOf(uint256,uint256)": {
        "details": "See {IERC3664-balanceOf}."
      },
      "balanceOfBatch(uint256,uint256[])": {
        "details": "See {IERC3664-balanceOfBatch}."
      },
      "batchAttach(uint256,uint256[],uint256[])": {
        "details": "See {IERC3664-batchAttach}."
      },
      "getApproved(uint256)": {
        "details": "See {IERC721-getApproved}."
      },
      "isApprovedForAll(address,address)": {
        "details": "See {IERC721-isApprovedForAll}."
      },
      "name()": {
        "details": "See {IERC721Metadata-name}."
      },
      "name(uint256)": {
        "details": "See {IERC3664Metadata-name}."
      },
      "ownerOf(uint256)": {
        "details": "See {IERC721-ownerOf}."
      },
      "primaryAttributeOf(uint256)": {
        "details": "See {IERC3664-primaryAttributeOf}."
      },
      "safeTransferFrom(address,address,uint256)": {
        "details": "See {IERC721-safeTransferFrom}."
      },
      "safeTransferFrom(address,address,uint256,bytes)": {
        "details": "See {IERC721-safeTransferFrom}."
      },
      "setApprovalForAll(address,bool)": {
        "details": "See {IERC721-setApprovalForAll}."
      },
      "setPrimaryAttribute(uint256,uint256)": {
        "details": "See {IERC3664-setPrimaryAttribute}."
      },
      "symbol()": {
        "details": "See {IERC721Metadata-symbol}."
      },
      "symbol(uint256)": {
        "details": "See {IERC3664Metadata-symbol}."
      },
      "tokenURI(uint256)": {
        "details": "See {IERC721Metadata-tokenURI}."
      },
      "transferFrom(address,address,uint256)": {
        "details": "See {IERC721-transferFrom}."
      }
    },
    "version": 1
  },
  "userdoc": {
    "kind": "user",
    "methods": {},
    "version": 1
  }
}