{
  "contractName": "Character",
  "abi": [
    {
      "inputs": [],
      "stateMutability": "nonpayable",
      "type": "constructor"
    },
    {
      "anonymous": false,
      "inputs": [
        {
          "indexed": true,
          "internalType": "address",
          "name": "owner",
          "type": "address"
        },
        {
          "indexed": true,
          "internalType": "address",
          "name": "approved",
          "type": "address"
        },
        {
          "indexed": true,
          "internalType": "uint256",
          "name": "tokenId",
          "type": "uint256"
        }
      ],
      "name": "Approval",
      "type": "event"
    },
    {
      "anonymous": false,
      "inputs": [
        {
          "indexed": true,
          "internalType": "address",
          "name": "owner",
          "type": "address"
        },
        {
          "indexed": true,
          "internalType": "address",
          "name": "operator",
          "type": "address"
        },
        {
          "indexed": false,
          "internalType": "bool",
          "name": "approved",
          "type": "bool"
        }
      ],
      "name": "ApprovalForAll",
      "type": "event"
    },
    {
      "anonymous": false,
      "inputs": [
        {
          "indexed": true,
          "internalType": "uint256",
          "name": "attrId",
          "type": "uint256"
        },
        {
          "indexed": false,
          "internalType": "string",
          "name": "name",
          "type": "string"
        },
        {
          "indexed": false,
          "internalType": "string",
          "name": "symbol",
          "type": "string"
        },
        {
          "indexed": false,
          "internalType": "string",
          "name": "uri",
          "type": "string"
        }
      ],
      "name": "AttributeCreated",
      "type": "event"
    },
    {
      "anonymous": false,
      "inputs": [
        {
          "indexed": true,
          "internalType": "address",
          "name": "from",
          "type": "address"
        },
        {
          "indexed": true,
          "internalType": "address",
          "name": "to",
          "type": "address"
        },
        {
          "indexed": true,
          "internalType": "uint256",
          "name": "tokenId",
          "type": "uint256"
        }
      ],
      "name": "Transfer",
      "type": "event"
    },
    {
      "anonymous": false,
      "inputs": [
        {
          "indexed": true,
          "internalType": "address",
          "name": "operator",
          "type": "address"
        },
        {
          "indexed": false,
          "internalType": "uint256",
          "name": "from",
          "type": "uint256"
        },
        {
          "indexed": false,
          "internalType": "uint256",
          "name": "to",
          "type": "uint256"
        },
        {
          "indexed": true,
          "internalType": "uint256[]",
          "name": "attrIds",
          "type": "uint256[]"
        },
        {
          "indexed": false,
          "internalType": "uint256[]",
          "name": "values",
          "type": "uint256[]"
        }
      ],
      "name": "TransferBatch",
      "type": "event"
    },
    {
      "anonymous": false,
      "inputs": [
        {
          "indexed": true,
          "internalType": "address",
          "name": "operator",
          "type": "address"
        },
        {
          "indexed": false,
          "internalType": "uint256",
          "name": "from",
          "type": "uint256"
        },
        {
          "indexed": false,
          "internalType": "uint256",
          "name": "to",
          "type": "uint256"
        },
        {
          "indexed": true,
          "internalType": "uint256",
          "name": "attrId",
          "type": "uint256"
        },
        {
          "indexed": false,
          "internalType": "uint256",
          "name": "value",
          "type": "uint256"
        }
      ],
      "name": "TransferSingle",
      "type": "event"
    },
    {
      "inputs": [
        {
          "internalType": "address",
          "name": "to",
          "type": "address"
        },
        {
          "internalType": "uint256",
          "name": "tokenId",
          "type": "uint256"
        }
      ],
      "name": "approve",
      "outputs": [],
      "stateMutability": "nonpayable",
      "type": "function"
    },
    {
      "inputs": [
        {
          "internalType": "uint256",
          "name": "tokenId",
          "type": "uint256"
        },
        {
          "internalType": "uint256",
          "name": "attrId",
          "type": "uint256"
        },
        {
          "internalType": "uint256",
          "name": "amount",
          "type": "uint256"
        }
      ],
      "name": "attach",
      "outputs": [],
      "stateMutability": "nonpayable",
      "type": "function"
    },
    {
      "inputs": [
        {
          "internalType": "uint256",
          "name": "",
          "type": "uint256"
        },
        {
          "internalType": "uint256",
          "name": "",
          "type": "uint256"
        }
      ],
      "name": "attrBalances",
      "outputs": [
        {
          "internalType": "uint256",
          "name": "",
          "type": "uint256"
        }
      ],
      "stateMutability": "view",
      "type": "function",
      "constant": true
    },
    {
      "inputs": [
        {
          "internalType": "uint256",
          "name": "attrId",
          "type": "uint256"
        }
      ],
      "name": "attrURI",
      "outputs": [
        {
          "internalType": "string",
          "name": "",
          "type": "string"
        }
      ],
      "stateMutability": "view",
      "type": "function",
      "constant": true
    },
    {
      "inputs": [
        {
          "internalType": "uint256",
          "name": "tokenId",
          "type": "uint256"
        }
      ],
      "name": "attributesOf",
      "outputs": [
        {
          "internalType": "uint256[]",
          "name": "",
          "type": "uint256[]"
        }
      ],
      "stateMutability": "view",
      "type": "function",
      "constant": true
    },
    {
      "inputs": [
        {
          "internalType": "uint256",
          "name": "",
          "type": "uint256"
        },
        {
          "internalType": "uint256",
          "name": "",
          "type": "uint256"
        }
      ],
      "name": "attrs",
      "outputs": [
        {
          "internalType": "uint256",
          "name": "",
          "type": "uint256"
        }
      ],
      "stateMutability": "view",
      "type": "function",
      "constant": true
    },
    {
      "inputs": [
        {
          "internalType": "address",
          "name": "owner",
          "type": "address"
        }
      ],
      "name": "balanceOf",
      "outputs": [
        {
          "internalType": "uint256",
          "name": "",
          "type": "uint256"
        }
      ],
      "stateMutability": "view",
      "type": "function",
      "constant": true
    },
    {
      "inputs": [
        {
          "internalType": "uint256",
          "name": "tokenId",
          "type": "uint256"
        },
        {
          "internalType": "uint256",
          "name": "attrId",
          "type": "uint256"
        }
      ],
      "name": "balanceOf",
      "outputs": [
        {
          "internalType": "uint256",
          "name": "",
          "type": "uint256"
        }
      ],
      "stateMutability": "view",
      "type": "function",
      "constant": true
    },
    {
      "inputs": [
        {
          "internalType": "uint256",
          "name": "tokenId",
          "type": "uint256"
        },
        {
          "internalType": "uint256[]",
          "name": "attrIds",
          "type": "uint256[]"
        }
      ],
      "name": "balanceOfBatch",
      "outputs": [
        {
          "internalType": "uint256[]",
          "name": "",
          "type": "uint256[]"
        }
      ],
      "stateMutability": "view",
      "type": "function",
      "constant": true
    },
    {
      "inputs": [],
      "name": "baseExtension",
      "outputs": [
        {
          "internalType": "string",
          "name": "",
          "type": "string"
        }
      ],
      "stateMutability": "view",
      "type": "function",
      "constant": true
    },
    {
      "inputs": [
        {
          "internalType": "uint256",
          "name": "tokenId",
          "type": "uint256"
        },
        {
          "internalType": "uint256[]",
          "name": "attrIds",
          "type": "uint256[]"
        },
        {
          "internalType": "uint256[]",
          "name": "amounts",
          "type": "uint256[]"
        }
      ],
      "name": "batchAttach",
      "outputs": [],
      "stateMutability": "nonpayable",
      "type": "function"
    },
    {
      "inputs": [
        {
          "internalType": "uint256",
          "name": "tokenId",
          "type": "uint256"
        }
      ],
      "name": "getApproved",
      "outputs": [
        {
          "internalType": "address",
          "name": "",
          "type": "address"
        }
      ],
      "stateMutability": "view",
      "type": "function",
      "constant": true
    },
    {
      "inputs": [
        {
          "internalType": "address",
          "name": "owner",
          "type": "address"
        },
        {
          "internalType": "address",
          "name": "operator",
          "type": "address"
        }
      ],
      "name": "isApprovedForAll",
      "outputs": [
        {
          "internalType": "bool",
          "name": "",
          "type": "bool"
        }
      ],
      "stateMutability": "view",
      "type": "function",
      "constant": true
    },
    {
      "inputs": [
        {
          "internalType": "uint256",
          "name": "attrId",
          "type": "uint256"
        }
      ],
      "name": "name",
      "outputs": [
        {
          "internalType": "string",
          "name": "",
          "type": "string"
        }
      ],
      "stateMutability": "view",
      "type": "function",
      "constant": true
    },
    {
      "inputs": [],
      "name": "name",
      "outputs": [
        {
          "internalType": "string",
          "name": "",
          "type": "string"
        }
      ],
      "stateMutability": "view",
      "type": "function",
      "constant": true
    },
    {
      "inputs": [
        {
          "internalType": "uint256",
          "name": "tokenId",
          "type": "uint256"
        }
      ],
      "name": "ownerOf",
      "outputs": [
        {
          "internalType": "address",
          "name": "",
          "type": "address"
        }
      ],
      "stateMutability": "view",
      "type": "function",
      "constant": true
    },
    {
      "inputs": [
        {
          "internalType": "uint256",
          "name": "tokenId",
          "type": "uint256"
        }
      ],
      "name": "primaryAttributeOf",
      "outputs": [
        {
          "internalType": "uint256",
          "name": "",
          "type": "uint256"
        }
      ],
      "stateMutability": "view",
      "type": "function",
      "constant": true
    },
    {
      "inputs": [
        {
          "internalType": "address",
          "name": "from",
          "type": "address"
        },
        {
          "internalType": "address",
          "name": "to",
          "type": "address"
        },
        {
          "internalType": "uint256",
          "name": "tokenId",
          "type": "uint256"
        }
      ],
      "name": "safeTransferFrom",
      "outputs": [],
      "stateMutability": "nonpayable",
      "type": "function"
    },
    {
      "inputs": [
        {
          "internalType": "address",
          "name": "from",
          "type": "address"
        },
        {
          "internalType": "address",
          "name": "to",
          "type": "address"
        },
        {
          "internalType": "uint256",
          "name": "tokenId",
          "type": "uint256"
        },
        {
          "internalType": "bytes",
          "name": "_data",
          "type": "bytes"
        }
      ],
      "name": "safeTransferFrom",
      "outputs": [],
      "stateMutability": "nonpayable",
      "type": "function"
    },
    {
      "inputs": [
        {
          "internalType": "address",
          "name": "operator",
          "type": "address"
        },
        {
          "internalType": "bool",
          "name": "approved",
          "type": "bool"
        }
      ],
      "name": "setApprovalForAll",
      "outputs": [],
      "stateMutability": "nonpayable",
      "type": "function"
    },
    {
      "inputs": [
        {
          "internalType": "uint256",
          "name": "tokenId",
          "type": "uint256"
        },
        {
          "internalType": "uint256",
          "name": "attrId",
          "type": "uint256"
        }
      ],
      "name": "setPrimaryAttribute",
      "outputs": [],
      "stateMutability": "nonpayable",
      "type": "function"
    },
    {
      "inputs": [
        {
          "internalType": "uint256",
          "name": "attrId",
          "type": "uint256"
        }
      ],
      "name": "symbol",
      "outputs": [
        {
          "internalType": "string",
          "name": "",
          "type": "string"
        }
      ],
      "stateMutability": "view",
      "type": "function",
      "constant": true
    },
    {
      "inputs": [],
      "name": "symbol",
      "outputs": [
        {
          "internalType": "string",
          "name": "",
          "type": "string"
        }
      ],
      "stateMutability": "view",
      "type": "function",
      "constant": true
    },
    {
      "inputs": [
        {
          "internalType": "address",
          "name": "from",
          "type": "address"
        },
        {
          "internalType": "address",
          "name": "to",
          "type": "address"
        },
        {
          "internalType": "uint256",
          "name": "tokenId",
          "type": "uint256"
        }
      ],
      "name": "transferFrom",
      "outputs": [],
      "stateMutability": "nonpayable",
      "type": "function"
    },
    {
      "inputs": [
        {
          "internalType": "bytes4",
          "name": "interfaceId",
          "type": "bytes4"
        }
      ],
      "name": "supportsInterface",
      "outputs": [
        {
          "internalType": "bool",
          "name": "",
          "type": "bool"
        }
      ],
      "stateMutability": "view",
      "type": "function",
      "constant": true
    },
    {
      "inputs": [],
      "name": "getAttrQuantity",
      "outputs": [
        {
          "internalType": "uint256",
          "name": "",
          "type": "uint256"
        }
      ],
      "stateMutability": "view",
      "type": "function",
      "constant": true
    },
    {
      "inputs": [
        {
          "internalType": "address",
          "name": "to",
          "type": "address"
        },
        {
          "internalType": "uint256",
          "name": "tokenId",
          "type": "uint256"
        }
      ],
      "name": "mint",
      "outputs": [],
      "stateMutability": "nonpayable",
      "type": "function"
    },
    {
      "inputs": [
        {
          "internalType": "uint256",
          "name": "tokenId",
          "type": "uint256"
        },
        {
          "internalType": "uint256",
          "name": "attrId",
          "type": "uint256"
        }
      ],
      "name": "getAttrAmount",
      "outputs": [
        {
          "internalType": "uint256",
          "name": "",
          "type": "uint256"
        }
      ],
      "stateMutability": "view",
      "type": "function",
      "constant": true
    },
    {
      "inputs": [
        {
          "internalType": "uint256",
          "name": "attrId",
          "type": "uint256"
        }
      ],
      "name": "getAttrName",
      "outputs": [
        {
          "internalType": "string",
          "name": "",
          "type": "string"
        }
      ],
      "stateMutability": "view",
      "type": "function",
      "constant": true
    },
    {
      "inputs": [
        {
          "internalType": "uint256",
          "name": "tokenId",
          "type": "uint256"
        }
      ],
      "name": "tokenURI",
      "outputs": [
        {
          "internalType": "string",
          "name": "",
          "type": "string"
        }
      ],
      "stateMutability": "view",
      "type": "function",
      "constant": true
    },
    {
      "inputs": [
        {
          "internalType": "uint256",
          "name": "tokenId",
          "type": "uint256"
        }
      ],
      "name": "burnToken",
      "outputs": [],
      "stateMutability": "nonpayable",
      "type": "function"
    }
  ],
  "bytecode": "0x60806040526040518060400160405280600581526020017f2e6a736f6e000000000000000000000000000000000000000000000000000000815250600d908051906020019062000051929190620004d0565b503480156200005f57600080fd5b506040518060400160405280600881526020017f4974656d5f6e66740000000000000000000000000000000000000000000000008152506040518060400160405280600481526020017f4954454d000000000000000000000000000000000000000000000000000000008152506040518060400160405280601681526020017f687474703a2f2f6c6f63616c686f73743a333030302f0000000000000000000081525062000113816200033260201b60201c565b5081600590805190602001906200012c929190620004d0565b50806006908051906020019062000145929190620004d0565b5050506003600c81905550620001de60006040518060400160405280600681526020017f61747461636b00000000000000000000000000000000000000000000000000008152506040518060400160405280600681526020017f41545441434b0000000000000000000000000000000000000000000000000000815250604051806020016040528060008152506200034e60201b60201c565b6200026c60016040518060400160405280600581526020017f73706565640000000000000000000000000000000000000000000000000000008152506040518060400160405280600581526020017f5350454544000000000000000000000000000000000000000000000000000000815250604051806020016040528060008152506200034e60201b60201c565b620002fa60026040518060400160405280600781526020017f646566656e7365000000000000000000000000000000000000000000000000008152506040518060400160405280600781526020017f444546454e534500000000000000000000000000000000000000000000000000815250604051806020016040528060008152506200034e60201b60201c565b604051806060016040528060368152602001620049b460369139600e90805190602001906200032b929190620004d0565b5062000773565b80600090805190602001906200034a929190620004d0565b5050565b6200035f84620004a360201b60201c565b15620003a2576040517f08c379a0000000000000000000000000000000000000000000000000000000008152600401620003999062000607565b60405180910390fd5b6000604051806080016040528085815260200184815260200183815260200160011515815250905080600160008781526020019081526020016000206000820151816000019080519060200190620003fc929190620004d0565b5060208201518160010190805190602001906200041b929190620004d0565b5060408201518160020190805190602001906200043a929190620004d0565b5060608201518160030160006101000a81548160ff021916908315150217905550905050847fe3c3c9bbda1d6ccb059320eed92d395bd49272efb8a675a188a9d1b4e4da4ce28585856040516200049493929190620006bc565b60405180910390a25050505050565b60006001600083815260200190815260200160002060030160009054906101000a900460ff169050919050565b828054620004de906200073d565b90600052602060002090601f0160209004810192826200050257600085556200054e565b82601f106200051d57805160ff19168380011785556200054e565b828001600101855582156200054e579182015b828111156200054d57825182559160200191906001019062000530565b5b5090506200055d919062000561565b5090565b5b808211156200057c57600081600090555060010162000562565b5090565b600082825260208201905092915050565b7f455243333636343a2061747472696275746520616c726561647920657869737460008201527f7300000000000000000000000000000000000000000000000000000000000000602082015250565b6000620005ef60218362000580565b9150620005fc8262000591565b604082019050919050565b600060208201905081810360008301526200062281620005e0565b9050919050565b600081519050919050565b60005b838110156200065457808201518184015260208101905062000637565b8381111562000664576000848401525b50505050565b6000601f19601f8301169050919050565b6000620006888262000629565b62000694818562000580565b9350620006a681856020860162000634565b620006b1816200066a565b840191505092915050565b60006060820190508181036000830152620006d881866200067b565b90508181036020830152620006ee81856200067b565b905081810360408301526200070481846200067b565b9050949350505050565b7f4e487b7100000000000000000000000000000000000000000000000000000000600052602260045260246000fd5b600060028204905060018216806200075657607f821691505b602082108114156200076d576200076c6200070e565b5b50919050565b61423180620007836000396000f3fe608060405234801561001057600080fd5b50600436106101e45760003560e01c80634e41a1fb1161010f578063a22cb465116100a2578063c87b56dd11610071578063c87b56dd146105e9578063e829ffa114610619578063e985e9c514610649578063ea69963314610679576101e4565b8063a22cb46514610577578063b4101dce14610593578063b88d4fde146105af578063c6682862146105cb576101e4565b80637b47ec1a116100de5780637b47ec1a146104dd57806387e21d42146104f957806395d89b41146105295780639bc5ae5414610547576101e4565b80634e41a1fb1461041d5780635d1261101461044d5780636352211e1461047d57806370a08231146104ad576101e4565b8063132e09e31161018757806335c479201161015657806335c479201461038557806339e6fbfd146103b557806340c10f19146103e557806342842e0e14610401576101e4565b8063132e09e3146102ff578063169dbe6e1461031b5780631903df481461034b57806323b872dd14610369576101e4565b8063081812fc116101c3578063081812fc1461026757806309363c4414610297578063095ea7b3146102c75780631070717b146102e3576101e4565b8062ad800c146101e957806301ffc9a71461021957806306fdde0314610249575b600080fd5b61020360048036038101906101fe91906128d8565b6106a9565b604051610210919061299e565b60405180910390f35b610233600480360381019061022e9190612a18565b610799565b6040516102409190612a60565b60405180910390f35b6102516107ab565b60405161025e919061299e565b60405180910390f35b610281600480360381019061027c91906128d8565b61083d565b60405161028e9190612abc565b60405180910390f35b6102b160048036038101906102ac91906128d8565b6108c2565b6040516102be9190612b95565b60405180910390f35b6102e160048036038101906102dc9190612be3565b61092d565b005b6102fd60048036038101906102f89190612c23565b610a45565b005b61031960048036038101906103149190612cc8565b610aaa565b005b61033560048036038101906103309190612c23565b610d55565b6040516103429190612d6c565b60405180910390f35b610353610d86565b6040516103609190612d6c565b60405180910390f35b610383600480360381019061037e9190612d87565b610d90565b005b61039f600480360381019061039a9190612c23565b610df0565b6040516103ac9190612d6c565b60405180910390f35b6103cf60048036038101906103ca91906128d8565b610e04565b6040516103dc919061299e565b60405180910390f35b6103ff60048036038101906103fa9190612be3565b610e16565b005b61041b60048036038101906104169190612d87565b610e24565b005b610437600480360381019061043291906128d8565b610e44565b604051610444919061299e565b60405180910390f35b61046760048036038101906104629190612dda565b610f34565b6040516104749190612b95565b60405180910390f35b610497600480360381019061049291906128d8565b610ff3565b6040516104a49190612abc565b60405180910390f35b6104c760048036038101906104c29190612e3a565b6110a5565b6040516104d49190612d6c565b60405180910390f35b6104f760048036038101906104f291906128d8565b61115d565b005b610513600480360381019061050e91906128d8565b611169565b6040516105209190612d6c565b60405180910390f35b610531611186565b60405161053e919061299e565b60405180910390f35b610561600480360381019061055c91906128d8565b611218565b60405161056e919061299e565b60405180910390f35b610591600480360381019061058c9190612e93565b6113a0565b005b6105ad60048036038101906105a89190612ed3565b611521565b005b6105c960048036038101906105c49190613056565b6116a0565b005b6105d3611702565b6040516105e0919061299e565b60405180910390f35b61060360048036038101906105fe91906128d8565b611790565b604051610610919061299e565b60405180910390f35b610633600480360381019061062e9190612c23565b61183a565b6040516106409190612d6c565b60405180910390f35b610663600480360381019061065e91906130d9565b61185f565b6040516106709190612a60565b60405180910390f35b610693600480360381019061068e9190612c23565b6118f3565b6040516106a09190612d6c565b60405180910390f35b60606106b482611922565b6106f3576040517f08c379a00000000000000000000000000000000000000000000000000000000081526004016106ea9061318b565b60405180910390fd5b600160008381526020019081526020016000206000018054610714906131da565b80601f0160208091040260200160405190810160405280929190818152602001828054610740906131da565b801561078d5780601f106107625761010080835404028352916020019161078d565b820191906000526020600020905b81548152906001019060200180831161077057829003601f168201915b50505050509050919050565b60006107a48261194f565b9050919050565b6060600580546107ba906131da565b80601f01602080910402602001604051908101604052809291908181526020018280546107e6906131da565b80156108335780601f1061080857610100808354040283529160200191610833565b820191906000526020600020905b81548152906001019060200180831161081657829003601f168201915b5050505050905090565b600061084882611a31565b610887576040517f08c379a000000000000000000000000000000000000000000000000000000000815260040161087e9061327e565b60405180910390fd5b6009600083815260200190815260200160002060009054906101000a900473ffffffffffffffffffffffffffffffffffffffff169050919050565b60606004600083815260200190815260200160002080548060200260200160405190810160405280929190818152602001828054801561092157602002820191906000526020600020905b81548152602001906001019080831161090d575b50505050509050919050565b600061093882610ff3565b90508073ffffffffffffffffffffffffffffffffffffffff168373ffffffffffffffffffffffffffffffffffffffff1614156109a9576040517f08c379a00000000000000000000000000000000000000000000000000000000081526004016109a090613310565b60405180910390fd5b8073ffffffffffffffffffffffffffffffffffffffff166109c8611a9d565b73ffffffffffffffffffffffffffffffffffffffff1614806109f757506109f6816109f1611a9d565b61185f565b5b610a36576040517f08c379a0000000000000000000000000000000000000000000000000000000008152600401610a2d906133a2565b60405180910390fd5b610a408383611aa5565b505050565b610a4f8282611b5e565b610a8e576040517f08c379a0000000000000000000000000000000000000000000000000000000008152600401610a8590613434565b60405180910390fd5b8060036000848152602001908152602001600020819055505050565b6000610ab4611a9d565b9050610b5681600088888880806020026020016040519081016040528093929190818152602001838360200280828437600081840152601f19601f82011690508083019250505050505050878780806020026020016040519081016040528093929190818152602001838360200280828437600081840152601f19601f8201169050808301925050505050505060405180602001604052806000815250611b8f565b60005b85859050811015610cdf57610b86868683818110610b7a57610b79613454565b5b90506020020135611922565b610bc5576040517f08c379a0000000000000000000000000000000000000000000000000000000008152600401610bbc906134f5565b60405180910390fd5b600060026000888885818110610bde57610bdd613454565b5b9050602002013581526020019081526020016000206000898152602001908152602001600020541415610c5f5760046000888152602001908152602001600020868683818110610c3157610c30613454565b5b9050602002013590806001815401808255809150506001900390600052602060002001600090919091909150555b838382818110610c7257610c71613454565b5b9050602002013560026000888885818110610c9057610c8f613454565b5b90506020020135815260200190815260200160002060008981526020019081526020016000206000828254610cc59190613544565b925050819055508080610cd79061359a565b915050610b59565b508484604051610cf092919061364f565b60405180910390208173ffffffffffffffffffffffffffffffffffffffff167fbfb4d8e5891aebe97980c97616b6b0af2006a58ccabe6e1b7e3da24d0906a8566000898787604051610d459493929190613709565b60405180910390a3505050505050565b60046020528160005260406000208181548110610d7157600080fd5b90600052602060002001600091509150505481565b6000600c54905090565b610da1610d9b611a9d565b82611b97565b610de0576040517f08c379a0000000000000000000000000000000000000000000000000000000008152600401610dd7906137bb565b60405180910390fd5b610deb838383611c75565b505050565b6000610dfc83836118f3565b905092915050565b6060610e0f826106a9565b9050919050565b610e208282611ed1565b5050565b610e3f838383604051806020016040528060008152506116a0565b505050565b6060610e4f82611922565b610e8e576040517f08c379a0000000000000000000000000000000000000000000000000000000008152600401610e859061384d565b60405180910390fd5b600160008381526020019081526020016000206001018054610eaf906131da565b80601f0160208091040260200160405190810160405280929190818152602001828054610edb906131da565b8015610f285780601f10610efd57610100808354040283529160200191610f28565b820191906000526020600020905b815481529060010190602001808311610f0b57829003601f168201915b50505050509050919050565b606060008383905067ffffffffffffffff811115610f5557610f54612f2b565b5b604051908082528060200260200182016040528015610f835781602001602082028036833780820191505090505b50905060005b84849050811015610fe757610fb786868684818110610fab57610faa613454565b5b905060200201356118f3565b828281518110610fca57610fc9613454565b5b60200260200101818152505080610fe09061359a565b9050610f89565b50809150509392505050565b6000806007600084815260200190815260200160002060009054906101000a900473ffffffffffffffffffffffffffffffffffffffff169050600073ffffffffffffffffffffffffffffffffffffffff168173ffffffffffffffffffffffffffffffffffffffff16141561109c576040517f08c379a0000000000000000000000000000000000000000000000000000000008152600401611093906138df565b60405180910390fd5b80915050919050565b60008073ffffffffffffffffffffffffffffffffffffffff168273ffffffffffffffffffffffffffffffffffffffff161415611116576040517f08c379a000000000000000000000000000000000000000000000000000000000815260040161110d90613971565b60405180910390fd5b600860008373ffffffffffffffffffffffffffffffffffffffff1673ffffffffffffffffffffffffffffffffffffffff168152602001908152602001600020549050919050565b61116681611eef565b50565b600060036000838152602001908152602001600020549050919050565b606060068054611195906131da565b80601f01602080910402602001604051908101604052809291908181526020018280546111c1906131da565b801561120e5780601f106111e35761010080835404028352916020019161120e565b820191906000526020600020905b8154815290600101906020018083116111f157829003601f168201915b5050505050905090565b606061122382611922565b611262576040517f08c379a000000000000000000000000000000000000000000000000000000000815260040161125990613a03565b60405180910390fd5b6000600160008481526020019081526020016000206002018054611285906131da565b80601f01602080910402602001604051908101604052809291908181526020018280546112b1906131da565b80156112fe5780601f106112d3576101008083540402835291602001916112fe565b820191906000526020600020905b8154815290600101906020018083116112e157829003601f168201915b50505050509050600081511115611341578061131984611f42565b60405160200161132a929190613a5f565b60405160208183030381529060405291505061139b565b600080805461134f906131da565b90501161136b5760405180602001604052806000815250611397565b600061137684611f42565b604051602001611387929190613b17565b6040516020818303038152906040525b9150505b919050565b6113a8611a9d565b73ffffffffffffffffffffffffffffffffffffffff168273ffffffffffffffffffffffffffffffffffffffff161415611416576040517f08c379a000000000000000000000000000000000000000000000000000000000815260040161140d90613b87565b60405180910390fd5b80600a6000611423611a9d565b73ffffffffffffffffffffffffffffffffffffffff1673ffffffffffffffffffffffffffffffffffffffff16815260200190815260200160002060008473ffffffffffffffffffffffffffffffffffffffff1673ffffffffffffffffffffffffffffffffffffffff16815260200190815260200160002060006101000a81548160ff0219169083151502179055508173ffffffffffffffffffffffffffffffffffffffff166114d0611a9d565b73ffffffffffffffffffffffffffffffffffffffff167f17307eab39ab6107e8899845ad3d59bd9653f200f220920489ca2b5937696c31836040516115159190612a60565b60405180910390a35050565b61152a82611922565b611569576040517f08c379a000000000000000000000000000000000000000000000000000000000815260040161156090613c19565b60405180910390fd5b6000611573611a9d565b90506115a381600086611585876120a3565b61158e876120a3565b60405180602001604052806000815250611b8f565b600060026000858152602001908152602001600020600086815260200190815260200160002054141561160b57600460008581526020019081526020016000208390806001815401808255809150506001900390600052602060002001600090919091909150555b81600260008581526020019081526020016000206000868152602001908152602001600020600082825461163f9190613544565b92505081905550828173ffffffffffffffffffffffffffffffffffffffff167f73b5fbfbf0177b0de2ffe9fd0ae9887dd73d0d865db7ab5ff3c4a6b9bb8db1e36000878660405161169293929190613c39565b60405180910390a350505050565b6116b16116ab611a9d565b83611b97565b6116f0576040517f08c379a00000000000000000000000000000000000000000000000000000000081526004016116e7906137bb565b60405180910390fd5b6116fc8484848461211d565b50505050565b600d805461170f906131da565b80601f016020809104026020016040519081016040528092919081815260200182805461173b906131da565b80156117885780601f1061175d57610100808354040283529160200191611788565b820191906000526020600020905b81548152906001019060200180831161176b57829003601f168201915b505050505081565b606061179b82611a31565b6117da576040517f08c379a00000000000000000000000000000000000000000000000000000000081526004016117d190613ce2565b60405180910390fd5b60006117e4612179565b905060008151116118045760405180602001604052806000815250611832565b8061180e84611f42565b600d60405160200161182293929190613d02565b6040516020818303038152906040525b915050919050565b6002602052816000526040600020602052806000526040600020600091509150505481565b6000600a60008473ffffffffffffffffffffffffffffffffffffffff1673ffffffffffffffffffffffffffffffffffffffff16815260200190815260200160002060008373ffffffffffffffffffffffffffffffffffffffff1673ffffffffffffffffffffffffffffffffffffffff16815260200190815260200160002060009054906101000a900460ff16905092915050565b600060026000838152602001908152602001600020600084815260200190815260200160002054905092915050565b60006001600083815260200190815260200160002060030160009054906101000a900460ff169050919050565b60007f80ac58cd000000000000000000000000000000000000000000000000000000007bffffffffffffffffffffffffffffffffffffffffffffffffffffffff1916827bffffffffffffffffffffffffffffffffffffffffffffffffffffffff19161480611a1a57507f5b5e139f000000000000000000000000000000000000000000000000000000007bffffffffffffffffffffffffffffffffffffffffffffffffffffffff1916827bffffffffffffffffffffffffffffffffffffffffffffffffffffffff1916145b80611a2a5750611a298261220b565b5b9050919050565b60008073ffffffffffffffffffffffffffffffffffffffff166007600084815260200190815260200160002060009054906101000a900473ffffffffffffffffffffffffffffffffffffffff1673ffffffffffffffffffffffffffffffffffffffff1614159050919050565b600033905090565b816009600083815260200190815260200160002060006101000a81548173ffffffffffffffffffffffffffffffffffffffff021916908373ffffffffffffffffffffffffffffffffffffffff160217905550808273ffffffffffffffffffffffffffffffffffffffff16611b1883610ff3565b73ffffffffffffffffffffffffffffffffffffffff167f8c5be1e5ebec7d5bd14f71427d1e84f3dd0314c0f7b2291e5b200ac8c7c3b92560405160405180910390a45050565b6000806002600084815260200190815260200160002060008581526020019081526020016000205411905092915050565b505050505050565b6000611ba282611a31565b611be1576040517f08c379a0000000000000000000000000000000000000000000000000000000008152600401611bd890613da5565b60405180910390fd5b6000611bec83610ff3565b90508073ffffffffffffffffffffffffffffffffffffffff168473ffffffffffffffffffffffffffffffffffffffff161480611c5b57508373ffffffffffffffffffffffffffffffffffffffff16611c438461083d565b73ffffffffffffffffffffffffffffffffffffffff16145b80611c6c5750611c6b818561185f565b5b91505092915050565b8273ffffffffffffffffffffffffffffffffffffffff16611c9582610ff3565b73ffffffffffffffffffffffffffffffffffffffff1614611ceb576040517f08c379a0000000000000000000000000000000000000000000000000000000008152600401611ce290613e37565b60405180910390fd5b600073ffffffffffffffffffffffffffffffffffffffff168273ffffffffffffffffffffffffffffffffffffffff161415611d5b576040517f08c379a0000000000000000000000000000000000000000000000000000000008152600401611d5290613ec9565b60405180910390fd5b611d668383836122ed565b611d71600082611aa5565b6001600860008573ffffffffffffffffffffffffffffffffffffffff1673ffffffffffffffffffffffffffffffffffffffff1681526020019081526020016000206000828254611dc19190613ee9565b925050819055506001600860008473ffffffffffffffffffffffffffffffffffffffff1673ffffffffffffffffffffffffffffffffffffffff1681526020019081526020016000206000828254611e189190613544565b92505081905550816007600083815260200190815260200160002060006101000a81548173ffffffffffffffffffffffffffffffffffffffff021916908373ffffffffffffffffffffffffffffffffffffffff160217905550808273ffffffffffffffffffffffffffffffffffffffff168473ffffffffffffffffffffffffffffffffffffffff167fddf252ad1be2c89b69c2b068fc378daa952ba7f163c4a11628f55a4df523b3ef60405160405180910390a4505050565b611eeb8282604051806020016040528060008152506122f2565b5050565b611ef88161234d565b6000600b60008381526020019081526020016000208054611f18906131da565b905014611f3f57600b60008281526020019081526020016000206000611f3e9190612831565b5b50565b60606000821415611f8a576040518060400160405280600181526020017f3000000000000000000000000000000000000000000000000000000000000000815250905061209e565b600082905060005b60008214611fbc578080611fa59061359a565b915050600a82611fb59190613f4c565b9150611f92565b60008167ffffffffffffffff811115611fd857611fd7612f2b565b5b6040519080825280601f01601f19166020018201604052801561200a5781602001600182028036833780820191505090505b5090505b60008514612097576001826120239190613ee9565b9150600a856120329190613f7d565b603061203e9190613544565b60f81b81838151811061205457612053613454565b5b60200101907effffffffffffffffffffffffffffffffffffffffffffffffffffffffffffff1916908160001a905350600a856120909190613f4c565b945061200e565b8093505050505b919050565b60606000600167ffffffffffffffff8111156120c2576120c1612f2b565b5b6040519080825280602002602001820160405280156120f05781602001602082028036833780820191505090505b509050828160008151811061210857612107613454565b5b60200260200101818152505080915050919050565b612128848484611c75565b6121348484848461245e565b612173576040517f08c379a000000000000000000000000000000000000000000000000000000000815260040161216a90614020565b60405180910390fd5b50505050565b6060600e8054612188906131da565b80601f01602080910402602001604051908101604052809291908181526020018280546121b4906131da565b80156122015780601f106121d657610100808354040283529160200191612201565b820191906000526020600020905b8154815290600101906020018083116121e457829003601f168201915b5050505050905090565b60007f8ee1b373000000000000000000000000000000000000000000000000000000007bffffffffffffffffffffffffffffffffffffffffffffffffffffffff1916827bffffffffffffffffffffffffffffffffffffffffffffffffffffffff191614806122d657507fd5298fa3000000000000000000000000000000000000000000000000000000007bffffffffffffffffffffffffffffffffffffffffffffffffffffffff1916827bffffffffffffffffffffffffffffffffffffffffffffffffffffffff1916145b806122e657506122e5826125e6565b5b9050919050565b505050565b6122fc8383612650565b612309600084848461245e565b612348576040517f08c379a000000000000000000000000000000000000000000000000000000000815260040161233f90614020565b60405180910390fd5b505050565b600061235882610ff3565b9050612366816000846122ed565b612371600083611aa5565b6001600860008373ffffffffffffffffffffffffffffffffffffffff1673ffffffffffffffffffffffffffffffffffffffff16815260200190815260200160002060008282546123c19190613ee9565b925050819055506007600083815260200190815260200160002060006101000a81549073ffffffffffffffffffffffffffffffffffffffff021916905581600073ffffffffffffffffffffffffffffffffffffffff168273ffffffffffffffffffffffffffffffffffffffff167fddf252ad1be2c89b69c2b068fc378daa952ba7f163c4a11628f55a4df523b3ef60405160405180910390a45050565b600061247f8473ffffffffffffffffffffffffffffffffffffffff1661281e565b156125d9578373ffffffffffffffffffffffffffffffffffffffff1663150b7a026124a8611a9d565b8786866040518563ffffffff1660e01b81526004016124ca9493929190614095565b6020604051808303816000875af192505050801561250657506040513d601f19601f8201168201806040525081019061250391906140f6565b60015b612589573d8060008114612536576040519150601f19603f3d011682016040523d82523d6000602084013e61253b565b606091505b50600081511415612581576040517f08c379a000000000000000000000000000000000000000000000000000000000815260040161257890614020565b60405180910390fd5b805181602001fd5b63150b7a0260e01b7bffffffffffffffffffffffffffffffffffffffffffffffffffffffff1916817bffffffffffffffffffffffffffffffffffffffffffffffffffffffff1916149150506125de565b600190505b949350505050565b60007f01ffc9a7000000000000000000000000000000000000000000000000000000007bffffffffffffffffffffffffffffffffffffffffffffffffffffffff1916827bffffffffffffffffffffffffffffffffffffffffffffffffffffffff1916149050919050565b600073ffffffffffffffffffffffffffffffffffffffff168273ffffffffffffffffffffffffffffffffffffffff1614156126c0576040517f08c379a00000000000000000000000000000000000000000000000000000000081526004016126b79061416f565b60405180910390fd5b6126c981611a31565b15612709576040517f08c379a0000000000000000000000000000000000000000000000000000000008152600401612700906141db565b60405180910390fd5b612715600083836122ed565b6001600860008473ffffffffffffffffffffffffffffffffffffffff1673ffffffffffffffffffffffffffffffffffffffff16815260200190815260200160002060008282546127659190613544565b92505081905550816007600083815260200190815260200160002060006101000a81548173ffffffffffffffffffffffffffffffffffffffff021916908373ffffffffffffffffffffffffffffffffffffffff160217905550808273ffffffffffffffffffffffffffffffffffffffff16600073ffffffffffffffffffffffffffffffffffffffff167fddf252ad1be2c89b69c2b068fc378daa952ba7f163c4a11628f55a4df523b3ef60405160405180910390a45050565b600080823b905060008111915050919050565b50805461283d906131da565b6000825580601f1061284f575061286e565b601f01602090049060005260206000209081019061286d9190612871565b5b50565b5b8082111561288a576000816000905550600101612872565b5090565b6000604051905090565b600080fd5b600080fd5b6000819050919050565b6128b5816128a2565b81146128c057600080fd5b50565b6000813590506128d2816128ac565b92915050565b6000602082840312156128ee576128ed612898565b5b60006128fc848285016128c3565b91505092915050565b600081519050919050565b600082825260208201905092915050565b60005b8381101561293f578082015181840152602081019050612924565b8381111561294e576000848401525b50505050565b6000601f19601f8301169050919050565b600061297082612905565b61297a8185612910565b935061298a818560208601612921565b61299381612954565b840191505092915050565b600060208201905081810360008301526129b88184612965565b905092915050565b60007fffffffff0000000000000000000000000000000000000000000000000000000082169050919050565b6129f5816129c0565b8114612a0057600080fd5b50565b600081359050612a12816129ec565b92915050565b600060208284031215612a2e57612a2d612898565b5b6000612a3c84828501612a03565b91505092915050565b60008115159050919050565b612a5a81612a45565b82525050565b6000602082019050612a756000830184612a51565b92915050565b600073ffffffffffffffffffffffffffffffffffffffff82169050919050565b6000612aa682612a7b565b9050919050565b612ab681612a9b565b82525050565b6000602082019050612ad16000830184612aad565b92915050565b600081519050919050565b600082825260208201905092915050565b6000819050602082019050919050565b612b0c816128a2565b82525050565b6000612b1e8383612b03565b60208301905092915050565b6000602082019050919050565b6000612b4282612ad7565b612b4c8185612ae2565b9350612b5783612af3565b8060005b83811015612b88578151612b6f8882612b12565b9750612b7a83612b2a565b925050600181019050612b5b565b5085935050505092915050565b60006020820190508181036000830152612baf8184612b37565b905092915050565b612bc081612a9b565b8114612bcb57600080fd5b50565b600081359050612bdd81612bb7565b92915050565b60008060408385031215612bfa57612bf9612898565b5b6000612c0885828601612bce565b9250506020612c19858286016128c3565b9150509250929050565b60008060408385031215612c3a57612c39612898565b5b6000612c48858286016128c3565b9250506020612c59858286016128c3565b9150509250929050565b600080fd5b600080fd5b600080fd5b60008083601f840112612c8857612c87612c63565b5b8235905067ffffffffffffffff811115612ca557612ca4612c68565b5b602083019150836020820283011115612cc157612cc0612c6d565b5b9250929050565b600080600080600060608688031215612ce457612ce3612898565b5b6000612cf2888289016128c3565b955050602086013567ffffffffffffffff811115612d1357612d1261289d565b5b612d1f88828901612c72565b9450945050604086013567ffffffffffffffff811115612d4257612d4161289d565b5b612d4e88828901612c72565b92509250509295509295909350565b612d66816128a2565b82525050565b6000602082019050612d816000830184612d5d565b92915050565b600080600060608486031215612da057612d9f612898565b5b6000612dae86828701612bce565b9350506020612dbf86828701612bce565b9250506040612dd0868287016128c3565b9150509250925092565b600080600060408486031215612df357612df2612898565b5b6000612e01868287016128c3565b935050602084013567ffffffffffffffff811115612e2257612e2161289d565b5b612e2e86828701612c72565b92509250509250925092565b600060208284031215612e5057612e4f612898565b5b6000612e5e84828501612bce565b91505092915050565b612e7081612a45565b8114612e7b57600080fd5b50565b600081359050612e8d81612e67565b92915050565b60008060408385031215612eaa57612ea9612898565b5b6000612eb885828601612bce565b9250506020612ec985828601612e7e565b9150509250929050565b600080600060608486031215612eec57612eeb612898565b5b6000612efa868287016128c3565b9350506020612f0b868287016128c3565b9250506040612f1c868287016128c3565b9150509250925092565b600080fd5b7f4e487b7100000000000000000000000000000000000000000000000000000000600052604160045260246000fd5b612f6382612954565b810181811067ffffffffffffffff82111715612f8257612f81612f2b565b5b80604052505050565b6000612f9561288e565b9050612fa18282612f5a565b919050565b600067ffffffffffffffff821115612fc157612fc0612f2b565b5b612fca82612954565b9050602081019050919050565b82818337600083830152505050565b6000612ff9612ff484612fa6565b612f8b565b90508281526020810184848401111561301557613014612f26565b5b613020848285612fd7565b509392505050565b600082601f83011261303d5761303c612c63565b5b813561304d848260208601612fe6565b91505092915050565b600080600080608085870312156130705761306f612898565b5b600061307e87828801612bce565b945050602061308f87828801612bce565b93505060406130a0878288016128c3565b925050606085013567ffffffffffffffff8111156130c1576130c061289d565b5b6130cd87828801613028565b91505092959194509250565b600080604083850312156130f0576130ef612898565b5b60006130fe85828601612bce565b925050602061310f85828601612bce565b9150509250929050565b7f455243333636343a206e616d6520717565727920666f72206e6f6e657869737460008201527f656e742061747472696275746500000000000000000000000000000000000000602082015250565b6000613175602d83612910565b915061318082613119565b604082019050919050565b600060208201905081810360008301526131a481613168565b9050919050565b7f4e487b7100000000000000000000000000000000000000000000000000000000600052602260045260246000fd5b600060028204905060018216806131f257607f821691505b60208210811415613206576132056131ab565b5b50919050565b7f4552433732313a20617070726f76656420717565727920666f72206e6f6e657860008201527f697374656e7420746f6b656e0000000000000000000000000000000000000000602082015250565b6000613268602c83612910565b91506132738261320c565b604082019050919050565b600060208201905081810360008301526132978161325b565b9050919050565b7f4552433732313a20617070726f76616c20746f2063757272656e74206f776e6560008201527f7200000000000000000000000000000000000000000000000000000000000000602082015250565b60006132fa602183612910565b91506133058261329e565b604082019050919050565b60006020820190508181036000830152613329816132ed565b9050919050565b7f4552433732313a20617070726f76652063616c6c6572206973206e6f74206f7760008201527f6e6572206e6f7220617070726f76656420666f7220616c6c0000000000000000602082015250565b600061338c603883612910565b915061339782613330565b604082019050919050565b600060208201905081810360008301526133bb8161337f565b9050919050565b7f455243333636343a20746f6b656e20686173206e6f742061747461636865642060008201527f7468652061747472696275746500000000000000000000000000000000000000602082015250565b600061341e602d83612910565b9150613429826133c2565b604082019050919050565b6000602082019050818103600083015261344d81613411565b9050919050565b7f4e487b7100000000000000000000000000000000000000000000000000000000600052603260045260246000fd5b7f455243333636343a20626174636841747461636820666f72206e6f6e6578697360008201527f74656e7420617474726962757465000000000000000000000000000000000000602082015250565b60006134df602e83612910565b91506134ea82613483565b604082019050919050565b6000602082019050818103600083015261350e816134d2565b9050919050565b7f4e487b7100000000000000000000000000000000000000000000000000000000600052601160045260246000fd5b600061354f826128a2565b915061355a836128a2565b9250827fffffffffffffffffffffffffffffffffffffffffffffffffffffffffffffffff0382111561358f5761358e613515565b5b828201905092915050565b60006135a5826128a2565b91507fffffffffffffffffffffffffffffffffffffffffffffffffffffffffffffffff8214156135d8576135d7613515565b5b600182019050919050565b600081905092915050565b600080fd5b60006135ff83856135e3565b93507f07ffffffffffffffffffffffffffffffffffffffffffffffffffffffffffffff831115613632576136316135ee565b5b602083029250613643838584612fd7565b82840190509392505050565b600061365c8284866135f3565b91508190509392505050565b6000819050919050565b6000819050919050565b600061369761369261368d84613668565b613672565b6128a2565b9050919050565b6136a78161367c565b82525050565b60006136b98385612ae2565b93507f07ffffffffffffffffffffffffffffffffffffffffffffffffffffffffffffff8311156136ec576136eb6135ee565b5b6020830292506136fd838584612fd7565b82840190509392505050565b600060608201905061371e600083018761369e565b61372b6020830186612d5d565b818103604083015261373e8184866136ad565b905095945050505050565b7f4552433732313a207472616e736665722063616c6c6572206973206e6f74206f60008201527f776e6572206e6f7220617070726f766564000000000000000000000000000000602082015250565b60006137a5603183612910565b91506137b082613749565b604082019050919050565b600060208201905081810360008301526137d481613798565b9050919050565b7f455243333636343a2073796d626f6c20717565727920666f72206e6f6e65786960008201527f7374656e74206174747269627574650000000000000000000000000000000000602082015250565b6000613837602f83612910565b9150613842826137db565b604082019050919050565b600060208201905081810360008301526138668161382a565b9050919050565b7f4552433732313a206f776e657220717565727920666f72206e6f6e657869737460008201527f656e7420746f6b656e0000000000000000000000000000000000000000000000602082015250565b60006138c9602983612910565b91506138d48261386d565b604082019050919050565b600060208201905081810360008301526138f8816138bc565b9050919050565b7f4552433732313a2062616c616e636520717565727920666f7220746865207a6560008201527f726f206164647265737300000000000000000000000000000000000000000000602082015250565b600061395b602a83612910565b9150613966826138ff565b604082019050919050565b6000602082019050818103600083015261398a8161394e565b9050919050565b7f455243333636343a2055524920717565727920666f72206e6f6e65786973746560008201527f6e74206174747269627574650000000000000000000000000000000000000000602082015250565b60006139ed602c83612910565b91506139f882613991565b604082019050919050565b60006020820190508181036000830152613a1c816139e0565b9050919050565b600081905092915050565b6000613a3982612905565b613a438185613a23565b9350613a53818560208601612921565b80840191505092915050565b6000613a6b8285613a2e565b9150613a778284613a2e565b91508190509392505050565b60008190508160005260206000209050919050565b60008154613aa5816131da565b613aaf8186613a23565b94506001821660008114613aca5760018114613adb57613b0e565b60ff19831686528186019350613b0e565b613ae485613a83565b60005b83811015613b0657815481890152600182019150602081019050613ae7565b838801955050505b50505092915050565b6000613b238285613a98565b9150613b2f8284613a2e565b91508190509392505050565b7f4552433732313a20617070726f766520746f2063616c6c657200000000000000600082015250565b6000613b71601983612910565b9150613b7c82613b3b565b602082019050919050565b60006020820190508181036000830152613ba081613b64565b9050919050565b7f455243333636343a2061747461636820666f72206e6f6e6578697374656e742060008201527f6174747269627574650000000000000000000000000000000000000000000000602082015250565b6000613c03602983612910565b9150613c0e82613ba7565b604082019050919050565b60006020820190508181036000830152613c3281613bf6565b9050919050565b6000606082019050613c4e600083018661369e565b613c5b6020830185612d5d565b613c686040830184612d5d565b949350505050565b7f4552433732314d657461646174613a2055524920717565727920666f72206e6f60008201527f6e6578697374656e7420746f6b656e0000000000000000000000000000000000602082015250565b6000613ccc602f83612910565b9150613cd782613c70565b604082019050919050565b60006020820190508181036000830152613cfb81613cbf565b9050919050565b6000613d0e8286613a2e565b9150613d1a8285613a2e565b9150613d268284613a98565b9150819050949350505050565b7f4552433732313a206f70657261746f7220717565727920666f72206e6f6e657860008201527f697374656e7420746f6b656e0000000000000000000000000000000000000000602082015250565b6000613d8f602c83612910565b9150613d9a82613d33565b604082019050919050565b60006020820190508181036000830152613dbe81613d82565b9050919050565b7f4552433732313a207472616e73666572206f6620746f6b656e2074686174206960008201527f73206e6f74206f776e0000000000000000000000000000000000000000000000602082015250565b6000613e21602983612910565b9150613e2c82613dc5565b604082019050919050565b60006020820190508181036000830152613e5081613e14565b9050919050565b7f4552433732313a207472616e7366657220746f20746865207a65726f2061646460008201527f7265737300000000000000000000000000000000000000000000000000000000602082015250565b6000613eb3602483612910565b9150613ebe82613e57565b604082019050919050565b60006020820190508181036000830152613ee281613ea6565b9050919050565b6000613ef4826128a2565b9150613eff836128a2565b925082821015613f1257613f11613515565b5b828203905092915050565b7f4e487b7100000000000000000000000000000000000000000000000000000000600052601260045260246000fd5b6000613f57826128a2565b9150613f62836128a2565b925082613f7257613f71613f1d565b5b828204905092915050565b6000613f88826128a2565b9150613f93836128a2565b925082613fa357613fa2613f1d565b5b828206905092915050565b7f4552433732313a207472616e7366657220746f206e6f6e20455243373231526560008201527f63656976657220696d706c656d656e7465720000000000000000000000000000602082015250565b600061400a603283612910565b915061401582613fae565b604082019050919050565b6000602082019050818103600083015261403981613ffd565b9050919050565b600081519050919050565b600082825260208201905092915050565b600061406782614040565b614071818561404b565b9350614081818560208601612921565b61408a81612954565b840191505092915050565b60006080820190506140aa6000830187612aad565b6140b76020830186612aad565b6140c46040830185612d5d565b81810360608301526140d6818461405c565b905095945050505050565b6000815190506140f0816129ec565b92915050565b60006020828403121561410c5761410b612898565b5b600061411a848285016140e1565b91505092915050565b7f4552433732313a206d696e7420746f20746865207a65726f2061646472657373600082015250565b6000614159602083612910565b915061416482614123565b602082019050919050565b600060208201905081810360008301526141888161414c565b9050919050565b7f4552433732313a20746f6b656e20616c7265616479206d696e74656400000000600082015250565b60006141c5601c83612910565b91506141d08261418f565b602082019050919050565b600060208201905081810360008301526141f4816141b8565b905091905056fea264697066735822122062a01113818dc1370d729796200c1bd5566a337d31b03ea4af49df6691833f2964736f6c634300080b0033697066733a2f2f516d5747574844445346546363743339596961596736635131546d75673448456841366134395a4c6d6866756a562f",
  "immutableReferences": {},
  "source": "pragma solidity ^0.8.0;\n\nimport \"./ERC3664/ERC3664.sol\";\nimport \"openzeppelin-solidity/contracts/token/ERC721/extensions/ERC721URIStorage.sol\";\n\n\ncontract Character is ERC3664, ERC721URIStorage{\n    using Strings for uint256;\n\n    uint256 private attrQuantity;\n    string public baseExtension = \".json\";\n    string baseURI;\n\n    constructor() ERC721(\"Item_nft\", \"ITEM\") ERC3664(\"http://localhost:3000/\"){\n        attrQuantity = 3;\n        _mint(0, 'attack', 'ATTACK', '');\n        _mint(1, 'speed', 'SPEED', '');\n        _mint(2, 'defense', 'DEFENSE', '');\n        baseURI = \"ipfs://QmWGWHDDSFTcct39YiaYg6cQ1Tmug4HEhA6a49ZLmhfujV/\";\n    }\n\n    function supportsInterface(bytes4 interfaceId)\n        public\n        view\n        virtual\n        override(ERC3664, ERC721)\n    returns (bool)\n    {\n        return super.supportsInterface(interfaceId);\n    }\n\n    function getAttrQuantity() external view returns(uint256){\n        return attrQuantity;\n    }\n\n    function mint(address to, uint256 tokenId) public {\n        _safeMint(to, tokenId);\n        //_setTokenURI(tokenId, _tokenURI);\n    }\n\n    function getAttrAmount(uint256 tokenId, uint attrId) public view returns(uint256){\n        return ERC3664.balanceOf(tokenId, attrId);\n    }\n    function getAttrName(uint256 attrId) public view returns(string memory){\n        return ERC3664.name(attrId);\n    }\n\n    function _baseURI() internal view virtual override returns(string memory){\n        return baseURI;\n    }\n\n    function tokenURI(uint256 tokenId)\n        public\n        view\n        virtual\n        override\n        returns (string memory)\n    {\n        require(\n            _exists(tokenId),\n            \"ERC721Metadata: URI query for nonexistent token\"\n        );\n\n        string memory currentBaseURI = _baseURI();\n        return\n            bytes(currentBaseURI).length > 0\n                ? string(\n                    abi.encodePacked(\n                        currentBaseURI,\n                        tokenId.toString(),\n                        baseExtension\n                    )\n                )\n                : \"\";\n    }\n    function burnToken(uint256 tokenId) public{\n        _burn(tokenId);\n    }\n}\n",
  "sourcePath": "/Users/li/Character/src/contracts/Character.sol",
  "compiler": {
    "name": "solc",
    "version": "0.8.11+commit.d7f03943.Emscripten.clang"
  },
  "schemaVersion": "3.4.4",
  "updatedAt": "2022-02-24T15:13:31.389Z",
  "networkType": "ethereum",
  "devdoc": {
    "kind": "dev",
    "methods": {
      "approve(address,uint256)": {
        "details": "See {IERC721-approve}."
      },
      "attach(uint256,uint256,uint256)": {
        "details": "See {IERC3664-attach}."
      },
      "attrURI(uint256)": {
        "details": "See {IERC721Metadata-attrURI}."
      },
      "attributesOf(uint256)": {
        "details": "See {IERC3664-attributesOf}."
      },
      "balanceOf(address)": {
        "details": "See {IERC721-balanceOf}."
      },
      "balanceOf(uint256,uint256)": {
        "details": "See {IERC3664-balanceOf}."
      },
      "balanceOfBatch(uint256,uint256[])": {
        "details": "See {IERC3664-balanceOfBatch}."
      },
      "batchAttach(uint256,uint256[],uint256[])": {
        "details": "See {IERC3664-batchAttach}."
      },
      "getApproved(uint256)": {
        "details": "See {IERC721-getApproved}."
      },
      "isApprovedForAll(address,address)": {
        "details": "See {IERC721-isApprovedForAll}."
      },
      "name()": {
        "details": "See {IERC721Metadata-name}."
      },
      "name(uint256)": {
        "details": "See {IERC3664Metadata-name}."
      },
      "ownerOf(uint256)": {
        "details": "See {IERC721-ownerOf}."
      },
      "primaryAttributeOf(uint256)": {
        "details": "See {IERC3664-primaryAttributeOf}."
      },
      "safeTransferFrom(address,address,uint256)": {
        "details": "See {IERC721-safeTransferFrom}."
      },
      "safeTransferFrom(address,address,uint256,bytes)": {
        "details": "See {IERC721-safeTransferFrom}."
      },
      "setApprovalForAll(address,bool)": {
        "details": "See {IERC721-setApprovalForAll}."
      },
      "setPrimaryAttribute(uint256,uint256)": {
        "details": "See {IERC3664-setPrimaryAttribute}."
      },
      "symbol()": {
        "details": "See {IERC721Metadata-symbol}."
      },
      "symbol(uint256)": {
        "details": "See {IERC3664Metadata-symbol}."
      },
      "tokenURI(uint256)": {
        "details": "See {IERC721Metadata-tokenURI}."
      },
      "transferFrom(address,address,uint256)": {
        "details": "See {IERC721-transferFrom}."
      }
    },
    "version": 1
  },
  "userdoc": {
    "kind": "user",
    "methods": {},
    "version": 1
  }
}