{
  "contractName": "Character",
  "abi": [
    {
      "inputs": [],
      "stateMutability": "nonpayable",
      "type": "constructor"
    },
    {
      "anonymous": false,
      "inputs": [
        {
          "indexed": true,
          "internalType": "address",
          "name": "owner",
          "type": "address"
        },
        {
          "indexed": true,
          "internalType": "address",
          "name": "approved",
          "type": "address"
        },
        {
          "indexed": true,
          "internalType": "uint256",
          "name": "tokenId",
          "type": "uint256"
        }
      ],
      "name": "Approval",
      "type": "event"
    },
    {
      "anonymous": false,
      "inputs": [
        {
          "indexed": true,
          "internalType": "address",
          "name": "owner",
          "type": "address"
        },
        {
          "indexed": true,
          "internalType": "address",
          "name": "operator",
          "type": "address"
        },
        {
          "indexed": false,
          "internalType": "bool",
          "name": "approved",
          "type": "bool"
        }
      ],
      "name": "ApprovalForAll",
      "type": "event"
    },
    {
      "anonymous": false,
      "inputs": [
        {
          "indexed": true,
          "internalType": "uint256",
          "name": "attrId",
          "type": "uint256"
        },
        {
          "indexed": false,
          "internalType": "string",
          "name": "name",
          "type": "string"
        },
        {
          "indexed": false,
          "internalType": "string",
          "name": "symbol",
          "type": "string"
        },
        {
          "indexed": false,
          "internalType": "string",
          "name": "uri",
          "type": "string"
        }
      ],
      "name": "AttributeCreated",
      "type": "event"
    },
    {
      "anonymous": false,
      "inputs": [
        {
          "indexed": true,
          "internalType": "address",
          "name": "from",
          "type": "address"
        },
        {
          "indexed": true,
          "internalType": "address",
          "name": "to",
          "type": "address"
        },
        {
          "indexed": true,
          "internalType": "uint256",
          "name": "tokenId",
          "type": "uint256"
        }
      ],
      "name": "Transfer",
      "type": "event"
    },
    {
      "anonymous": false,
      "inputs": [
        {
          "indexed": true,
          "internalType": "address",
          "name": "operator",
          "type": "address"
        },
        {
          "indexed": false,
          "internalType": "uint256",
          "name": "from",
          "type": "uint256"
        },
        {
          "indexed": false,
          "internalType": "uint256",
          "name": "to",
          "type": "uint256"
        },
        {
          "indexed": true,
          "internalType": "uint256[]",
          "name": "attrIds",
          "type": "uint256[]"
        },
        {
          "indexed": false,
          "internalType": "uint256[]",
          "name": "values",
          "type": "uint256[]"
        }
      ],
      "name": "TransferBatch",
      "type": "event"
    },
    {
      "anonymous": false,
      "inputs": [
        {
          "indexed": true,
          "internalType": "address",
          "name": "operator",
          "type": "address"
        },
        {
          "indexed": false,
          "internalType": "uint256",
          "name": "from",
          "type": "uint256"
        },
        {
          "indexed": false,
          "internalType": "uint256",
          "name": "to",
          "type": "uint256"
        },
        {
          "indexed": true,
          "internalType": "uint256",
          "name": "attrId",
          "type": "uint256"
        },
        {
          "indexed": false,
          "internalType": "uint256",
          "name": "value",
          "type": "uint256"
        }
      ],
      "name": "TransferSingle",
      "type": "event"
    },
    {
      "inputs": [
        {
          "internalType": "address",
          "name": "to",
          "type": "address"
        },
        {
          "internalType": "uint256",
          "name": "tokenId",
          "type": "uint256"
        }
      ],
      "name": "approve",
      "outputs": [],
      "stateMutability": "nonpayable",
      "type": "function"
    },
    {
      "inputs": [
        {
          "internalType": "uint256",
          "name": "tokenId",
          "type": "uint256"
        },
        {
          "internalType": "uint256",
          "name": "attrId",
          "type": "uint256"
        },
        {
          "internalType": "uint256",
          "name": "amount",
          "type": "uint256"
        }
      ],
      "name": "attach",
      "outputs": [],
      "stateMutability": "nonpayable",
      "type": "function"
    },
    {
      "inputs": [
        {
          "internalType": "uint256",
          "name": "",
          "type": "uint256"
        },
        {
          "internalType": "uint256",
          "name": "",
          "type": "uint256"
        }
      ],
      "name": "attrBalances",
      "outputs": [
        {
          "internalType": "uint256",
          "name": "",
          "type": "uint256"
        }
      ],
      "stateMutability": "view",
      "type": "function",
      "constant": true
    },
    {
      "inputs": [
        {
          "internalType": "uint256",
          "name": "attrId",
          "type": "uint256"
        }
      ],
      "name": "attrURI",
      "outputs": [
        {
          "internalType": "string",
          "name": "",
          "type": "string"
        }
      ],
      "stateMutability": "view",
      "type": "function",
      "constant": true
    },
    {
      "inputs": [
        {
          "internalType": "uint256",
          "name": "tokenId",
          "type": "uint256"
        }
      ],
      "name": "attributesOf",
      "outputs": [
        {
          "internalType": "uint256[]",
          "name": "",
          "type": "uint256[]"
        }
      ],
      "stateMutability": "view",
      "type": "function",
      "constant": true
    },
    {
      "inputs": [
        {
          "internalType": "uint256",
          "name": "",
          "type": "uint256"
        },
        {
          "internalType": "uint256",
          "name": "",
          "type": "uint256"
        }
      ],
      "name": "attrs",
      "outputs": [
        {
          "internalType": "uint256",
          "name": "",
          "type": "uint256"
        }
      ],
      "stateMutability": "view",
      "type": "function",
      "constant": true
    },
    {
      "inputs": [
        {
          "internalType": "address",
          "name": "owner",
          "type": "address"
        }
      ],
      "name": "balanceOf",
      "outputs": [
        {
          "internalType": "uint256",
          "name": "",
          "type": "uint256"
        }
      ],
      "stateMutability": "view",
      "type": "function",
      "constant": true
    },
    {
      "inputs": [
        {
          "internalType": "uint256",
          "name": "tokenId",
          "type": "uint256"
        },
        {
          "internalType": "uint256",
          "name": "attrId",
          "type": "uint256"
        }
      ],
      "name": "balanceOf",
      "outputs": [
        {
          "internalType": "uint256",
          "name": "",
          "type": "uint256"
        }
      ],
      "stateMutability": "view",
      "type": "function",
      "constant": true
    },
    {
      "inputs": [
        {
          "internalType": "uint256",
          "name": "tokenId",
          "type": "uint256"
        },
        {
          "internalType": "uint256[]",
          "name": "attrIds",
          "type": "uint256[]"
        }
      ],
      "name": "balanceOfBatch",
      "outputs": [
        {
          "internalType": "uint256[]",
          "name": "",
          "type": "uint256[]"
        }
      ],
      "stateMutability": "view",
      "type": "function",
      "constant": true
    },
    {
      "inputs": [
        {
          "internalType": "uint256",
          "name": "tokenId",
          "type": "uint256"
        },
        {
          "internalType": "uint256[]",
          "name": "attrIds",
          "type": "uint256[]"
        },
        {
          "internalType": "uint256[]",
          "name": "amounts",
          "type": "uint256[]"
        }
      ],
      "name": "batchAttach",
      "outputs": [],
      "stateMutability": "nonpayable",
      "type": "function"
    },
    {
      "inputs": [
        {
          "internalType": "uint256",
          "name": "tokenId",
          "type": "uint256"
        }
      ],
      "name": "getApproved",
      "outputs": [
        {
          "internalType": "address",
          "name": "",
          "type": "address"
        }
      ],
      "stateMutability": "view",
      "type": "function",
      "constant": true
    },
    {
      "inputs": [
        {
          "internalType": "address",
          "name": "owner",
          "type": "address"
        },
        {
          "internalType": "address",
          "name": "operator",
          "type": "address"
        }
      ],
      "name": "isApprovedForAll",
      "outputs": [
        {
          "internalType": "bool",
          "name": "",
          "type": "bool"
        }
      ],
      "stateMutability": "view",
      "type": "function",
      "constant": true
    },
    {
      "inputs": [
        {
          "internalType": "uint256",
          "name": "attrId",
          "type": "uint256"
        }
      ],
      "name": "name",
      "outputs": [
        {
          "internalType": "string",
          "name": "",
          "type": "string"
        }
      ],
      "stateMutability": "view",
      "type": "function",
      "constant": true
    },
    {
      "inputs": [],
      "name": "name",
      "outputs": [
        {
          "internalType": "string",
          "name": "",
          "type": "string"
        }
      ],
      "stateMutability": "view",
      "type": "function",
      "constant": true
    },
    {
      "inputs": [
        {
          "internalType": "uint256",
          "name": "tokenId",
          "type": "uint256"
        }
      ],
      "name": "ownerOf",
      "outputs": [
        {
          "internalType": "address",
          "name": "",
          "type": "address"
        }
      ],
      "stateMutability": "view",
      "type": "function",
      "constant": true
    },
    {
      "inputs": [
        {
          "internalType": "uint256",
          "name": "tokenId",
          "type": "uint256"
        }
      ],
      "name": "primaryAttributeOf",
      "outputs": [
        {
          "internalType": "uint256",
          "name": "",
          "type": "uint256"
        }
      ],
      "stateMutability": "view",
      "type": "function",
      "constant": true
    },
    {
      "inputs": [
        {
          "internalType": "address",
          "name": "from",
          "type": "address"
        },
        {
          "internalType": "address",
          "name": "to",
          "type": "address"
        },
        {
          "internalType": "uint256",
          "name": "tokenId",
          "type": "uint256"
        }
      ],
      "name": "safeTransferFrom",
      "outputs": [],
      "stateMutability": "nonpayable",
      "type": "function"
    },
    {
      "inputs": [
        {
          "internalType": "address",
          "name": "from",
          "type": "address"
        },
        {
          "internalType": "address",
          "name": "to",
          "type": "address"
        },
        {
          "internalType": "uint256",
          "name": "tokenId",
          "type": "uint256"
        },
        {
          "internalType": "bytes",
          "name": "_data",
          "type": "bytes"
        }
      ],
      "name": "safeTransferFrom",
      "outputs": [],
      "stateMutability": "nonpayable",
      "type": "function"
    },
    {
      "inputs": [
        {
          "internalType": "address",
          "name": "operator",
          "type": "address"
        },
        {
          "internalType": "bool",
          "name": "approved",
          "type": "bool"
        }
      ],
      "name": "setApprovalForAll",
      "outputs": [],
      "stateMutability": "nonpayable",
      "type": "function"
    },
    {
      "inputs": [
        {
          "internalType": "uint256",
          "name": "tokenId",
          "type": "uint256"
        },
        {
          "internalType": "uint256",
          "name": "attrId",
          "type": "uint256"
        }
      ],
      "name": "setPrimaryAttribute",
      "outputs": [],
      "stateMutability": "nonpayable",
      "type": "function"
    },
    {
      "inputs": [
        {
          "internalType": "uint256",
          "name": "attrId",
          "type": "uint256"
        }
      ],
      "name": "symbol",
      "outputs": [
        {
          "internalType": "string",
          "name": "",
          "type": "string"
        }
      ],
      "stateMutability": "view",
      "type": "function",
      "constant": true
    },
    {
      "inputs": [],
      "name": "symbol",
      "outputs": [
        {
          "internalType": "string",
          "name": "",
          "type": "string"
        }
      ],
      "stateMutability": "view",
      "type": "function",
      "constant": true
    },
    {
      "inputs": [
        {
          "internalType": "uint256",
          "name": "tokenId",
          "type": "uint256"
        }
      ],
      "name": "tokenURI",
      "outputs": [
        {
          "internalType": "string",
          "name": "",
          "type": "string"
        }
      ],
      "stateMutability": "view",
      "type": "function",
      "constant": true
    },
    {
      "inputs": [
        {
          "internalType": "address",
          "name": "from",
          "type": "address"
        },
        {
          "internalType": "address",
          "name": "to",
          "type": "address"
        },
        {
          "internalType": "uint256",
          "name": "tokenId",
          "type": "uint256"
        }
      ],
      "name": "transferFrom",
      "outputs": [],
      "stateMutability": "nonpayable",
      "type": "function"
    },
    {
      "inputs": [
        {
          "internalType": "bytes4",
          "name": "interfaceId",
          "type": "bytes4"
        }
      ],
      "name": "supportsInterface",
      "outputs": [
        {
          "internalType": "bool",
          "name": "",
          "type": "bool"
        }
      ],
      "stateMutability": "view",
      "type": "function",
      "constant": true
    },
    {
      "inputs": [],
      "name": "getQuantity",
      "outputs": [
        {
          "internalType": "uint256",
          "name": "",
          "type": "uint256"
        }
      ],
      "stateMutability": "view",
      "type": "function",
      "constant": true
    },
    {
      "inputs": [
        {
          "internalType": "address",
          "name": "to",
          "type": "address"
        },
        {
          "internalType": "uint256",
          "name": "tokenId",
          "type": "uint256"
        },
        {
          "internalType": "string",
          "name": "_tokenURI",
          "type": "string"
        }
      ],
      "name": "mint",
      "outputs": [],
      "stateMutability": "nonpayable",
      "type": "function"
    },
    {
      "inputs": [
        {
          "internalType": "uint256",
          "name": "tokenId",
          "type": "uint256"
        },
        {
          "internalType": "uint256",
          "name": "attrId",
          "type": "uint256"
        }
      ],
      "name": "get_attributeAmount",
      "outputs": [
        {
          "internalType": "uint256",
          "name": "",
          "type": "uint256"
        }
      ],
      "stateMutability": "view",
      "type": "function",
      "constant": true
    },
    {
      "inputs": [
        {
          "internalType": "uint256",
          "name": "attrId",
          "type": "uint256"
        }
      ],
      "name": "get_attrName",
      "outputs": [
        {
          "internalType": "string",
          "name": "",
          "type": "string"
        }
      ],
      "stateMutability": "view",
      "type": "function",
      "constant": true
    }
  ],
  "bytecode": "0x60806040523480156200001157600080fd5b506040518060400160405280600881526020017f4974656d5f6e66740000000000000000000000000000000000000000000000008152506040518060400160405280600481526020017f4954454d000000000000000000000000000000000000000000000000000000008152506040518060400160405280601681526020017f687474703a2f2f6c6f63616c686f73743a333030302f00000000000000000000815250620000c581620002b260201b60201c565b508160059080519060200190620000de92919062000450565b508060069080519060200190620000f792919062000450565b5050506003600c819055506200019060006040518060400160405280600681526020017f61747461636b00000000000000000000000000000000000000000000000000008152506040518060400160405280600681526020017f41545441434b000000000000000000000000000000000000000000000000000081525060405180602001604052806000815250620002ce60201b60201c565b6200021e60016040518060400160405280600581526020017f73706565640000000000000000000000000000000000000000000000000000008152506040518060400160405280600581526020017f535045454400000000000000000000000000000000000000000000000000000081525060405180602001604052806000815250620002ce60201b60201c565b620002ac60026040518060400160405280600781526020017f646566656e7365000000000000000000000000000000000000000000000000008152506040518060400160405280600781526020017f444546454e53450000000000000000000000000000000000000000000000000081525060405180602001604052806000815250620002ce60201b60201c565b620006f3565b8060009080519060200190620002ca92919062000450565b5050565b620002df846200042360201b60201c565b1562000322576040517f08c379a0000000000000000000000000000000000000000000000000000000008152600401620003199062000587565b60405180910390fd5b60006040518060800160405280858152602001848152602001838152602001600115158152509050806001600087815260200190815260200160002060008201518160000190805190602001906200037c92919062000450565b5060208201518160010190805190602001906200039b92919062000450565b506040820151816002019080519060200190620003ba92919062000450565b5060608201518160030160006101000a81548160ff021916908315150217905550905050847fe3c3c9bbda1d6ccb059320eed92d395bd49272efb8a675a188a9d1b4e4da4ce285858560405162000414939291906200063c565b60405180910390a25050505050565b60006001600083815260200190815260200160002060030160009054906101000a900460ff169050919050565b8280546200045e90620006bd565b90600052602060002090601f016020900481019282620004825760008555620004ce565b82601f106200049d57805160ff1916838001178555620004ce565b82800160010185558215620004ce579182015b82811115620004cd578251825591602001919060010190620004b0565b5b509050620004dd9190620004e1565b5090565b5b80821115620004fc576000816000905550600101620004e2565b5090565b600082825260208201905092915050565b7f455243333636343a2061747472696275746520616c726561647920657869737460008201527f7300000000000000000000000000000000000000000000000000000000000000602082015250565b60006200056f60218362000500565b91506200057c8262000511565b604082019050919050565b60006020820190508181036000830152620005a28162000560565b9050919050565b600081519050919050565b60005b83811015620005d4578082015181840152602081019050620005b7565b83811115620005e4576000848401525b50505050565b6000601f19601f8301169050919050565b60006200060882620005a9565b62000614818562000500565b935062000626818560208601620005b4565b6200063181620005ea565b840191505092915050565b60006060820190508181036000830152620006588186620005fb565b905081810360208301526200066e8185620005fb565b90508181036040830152620006848184620005fb565b9050949350505050565b7f4e487b7100000000000000000000000000000000000000000000000000000000600052602260045260246000fd5b60006002820490506001821680620006d657607f821691505b60208210811415620006ed57620006ec6200068e565b5b50919050565b61437f80620007036000396000f3fe608060405234801561001057600080fd5b50600436106101ce5760003560e01c80635d12611011610104578063a22cb465116100a2578063d3fc986411610071578063d3fc9864146105ad578063e829ffa1146105c9578063e985e9c5146105f9578063ea69963314610629576101ce565b8063a22cb46514610529578063b4101dce14610545578063b88d4fde14610561578063c87b56dd1461057d576101ce565b806370a08231116100de57806370a082311461047b57806387e21d42146104ab57806395d89b41146104db5780639bc5ae54146104f9576101ce565b80635d126110146103eb5780636352211e1461041b5780636f567b661461044b576101ce565b80631070717b1161017157806323b872dd1161014b57806323b872dd146103535780633e1e8e251461036f57806342842e0e1461039f5780634e41a1fb146103bb576101ce565b80631070717b146102eb578063132e09e314610307578063169dbe6e14610323576101ce565b806306fdde03116101ad57806306fdde0314610251578063081812fc1461026f57806309363c441461029f578063095ea7b3146102cf576101ce565b8062ad800c146101d35780630115949c1461020357806301ffc9a714610221575b600080fd5b6101ed60048036038101906101e89190612823565b610659565b6040516101fa91906128e9565b60405180910390f35b61020b610749565b604051610218919061291a565b60405180910390f35b61023b6004803603810190610236919061298d565b610753565b60405161024891906129d5565b60405180910390f35b610259610765565b60405161026691906128e9565b60405180910390f35b61028960048036038101906102849190612823565b6107f7565b6040516102969190612a31565b60405180910390f35b6102b960048036038101906102b49190612823565b61087c565b6040516102c69190612b0a565b60405180910390f35b6102e960048036038101906102e49190612b58565b6108e7565b005b61030560048036038101906103009190612b98565b6109ff565b005b610321600480360381019061031c9190612c3d565b610a64565b005b61033d60048036038101906103389190612b98565b610d0f565b60405161034a919061291a565b60405180910390f35b61036d60048036038101906103689190612cd2565b610d40565b005b61038960048036038101906103849190612823565b610da0565b60405161039691906128e9565b60405180910390f35b6103b960048036038101906103b49190612cd2565b610db2565b005b6103d560048036038101906103d09190612823565b610dd2565b6040516103e291906128e9565b60405180910390f35b61040560048036038101906104009190612d25565b610ec2565b6040516104129190612b0a565b60405180910390f35b61043560048036038101906104309190612823565b610f81565b6040516104429190612a31565b60405180910390f35b61046560048036038101906104609190612b98565b611033565b604051610472919061291a565b60405180910390f35b61049560048036038101906104909190612d85565b611047565b6040516104a2919061291a565b60405180910390f35b6104c560048036038101906104c09190612823565b6110ff565b6040516104d2919061291a565b60405180910390f35b6104e361111c565b6040516104f091906128e9565b60405180910390f35b610513600480360381019061050e9190612823565b6111ae565b60405161052091906128e9565b60405180910390f35b610543600480360381019061053e9190612dde565b611336565b005b61055f600480360381019061055a9190612e1e565b6114b7565b005b61057b60048036038101906105769190612fa1565b611636565b005b61059760048036038101906105929190612823565b611698565b6040516105a491906128e9565b60405180910390f35b6105c760048036038101906105c291906130c5565b6117ea565b005b6105e360048036038101906105de9190612b98565b611803565b6040516105f0919061291a565b60405180910390f35b610613600480360381019061060e9190613134565b611828565b60405161062091906129d5565b60405180910390f35b610643600480360381019061063e9190612b98565b6118bc565b604051610650919061291a565b60405180910390f35b6060610664826118eb565b6106a3576040517f08c379a000000000000000000000000000000000000000000000000000000000815260040161069a906131e6565b60405180910390fd5b6001600083815260200190815260200160002060000180546106c490613235565b80601f01602080910402602001604051908101604052809291908181526020018280546106f090613235565b801561073d5780601f106107125761010080835404028352916020019161073d565b820191906000526020600020905b81548152906001019060200180831161072057829003601f168201915b50505050509050919050565b6000600c54905090565b600061075e82611918565b9050919050565b60606005805461077490613235565b80601f01602080910402602001604051908101604052809291908181526020018280546107a090613235565b80156107ed5780601f106107c2576101008083540402835291602001916107ed565b820191906000526020600020905b8154815290600101906020018083116107d057829003601f168201915b5050505050905090565b6000610802826119fa565b610841576040517f08c379a0000000000000000000000000000000000000000000000000000000008152600401610838906132d9565b60405180910390fd5b6009600083815260200190815260200160002060009054906101000a900473ffffffffffffffffffffffffffffffffffffffff169050919050565b6060600460008381526020019081526020016000208054806020026020016040519081016040528092919081815260200182805480156108db57602002820191906000526020600020905b8154815260200190600101908083116108c7575b50505050509050919050565b60006108f282610f81565b90508073ffffffffffffffffffffffffffffffffffffffff168373ffffffffffffffffffffffffffffffffffffffff161415610963576040517f08c379a000000000000000000000000000000000000000000000000000000000815260040161095a9061336b565b60405180910390fd5b8073ffffffffffffffffffffffffffffffffffffffff16610982611a66565b73ffffffffffffffffffffffffffffffffffffffff1614806109b157506109b0816109ab611a66565b611828565b5b6109f0576040517f08c379a00000000000000000000000000000000000000000000000000000000081526004016109e7906133fd565b60405180910390fd5b6109fa8383611a6e565b505050565b610a098282611b27565b610a48576040517f08c379a0000000000000000000000000000000000000000000000000000000008152600401610a3f9061348f565b60405180910390fd5b8060036000848152602001908152602001600020819055505050565b6000610a6e611a66565b9050610b1081600088888880806020026020016040519081016040528093929190818152602001838360200280828437600081840152601f19601f82011690508083019250505050505050878780806020026020016040519081016040528093929190818152602001838360200280828437600081840152601f19601f8201169050808301925050505050505060405180602001604052806000815250611b58565b60005b85859050811015610c9957610b40868683818110610b3457610b336134af565b5b905060200201356118eb565b610b7f576040517f08c379a0000000000000000000000000000000000000000000000000000000008152600401610b7690613550565b60405180910390fd5b600060026000888885818110610b9857610b976134af565b5b9050602002013581526020019081526020016000206000898152602001908152602001600020541415610c195760046000888152602001908152602001600020868683818110610beb57610bea6134af565b5b9050602002013590806001815401808255809150506001900390600052602060002001600090919091909150555b838382818110610c2c57610c2b6134af565b5b9050602002013560026000888885818110610c4a57610c496134af565b5b90506020020135815260200190815260200160002060008981526020019081526020016000206000828254610c7f919061359f565b925050819055508080610c91906135f5565b915050610b13565b508484604051610caa9291906136aa565b60405180910390208173ffffffffffffffffffffffffffffffffffffffff167fbfb4d8e5891aebe97980c97616b6b0af2006a58ccabe6e1b7e3da24d0906a8566000898787604051610cff9493929190613764565b60405180910390a3505050505050565b60046020528160005260406000208181548110610d2b57600080fd5b90600052602060002001600091509150505481565b610d51610d4b611a66565b82611b60565b610d90576040517f08c379a0000000000000000000000000000000000000000000000000000000008152600401610d8790613816565b60405180910390fd5b610d9b838383611c3e565b505050565b6060610dab82610659565b9050919050565b610dcd83838360405180602001604052806000815250611636565b505050565b6060610ddd826118eb565b610e1c576040517f08c379a0000000000000000000000000000000000000000000000000000000008152600401610e13906138a8565b60405180910390fd5b600160008381526020019081526020016000206001018054610e3d90613235565b80601f0160208091040260200160405190810160405280929190818152602001828054610e6990613235565b8015610eb65780601f10610e8b57610100808354040283529160200191610eb6565b820191906000526020600020905b815481529060010190602001808311610e9957829003601f168201915b50505050509050919050565b606060008383905067ffffffffffffffff811115610ee357610ee2612e76565b5b604051908082528060200260200182016040528015610f115781602001602082028036833780820191505090505b50905060005b84849050811015610f7557610f4586868684818110610f3957610f386134af565b5b905060200201356118bc565b828281518110610f5857610f576134af565b5b60200260200101818152505080610f6e906135f5565b9050610f17565b50809150509392505050565b6000806007600084815260200190815260200160002060009054906101000a900473ffffffffffffffffffffffffffffffffffffffff169050600073ffffffffffffffffffffffffffffffffffffffff168173ffffffffffffffffffffffffffffffffffffffff16141561102a576040517f08c379a00000000000000000000000000000000000000000000000000000000081526004016110219061393a565b60405180910390fd5b80915050919050565b600061103f83836118bc565b905092915050565b60008073ffffffffffffffffffffffffffffffffffffffff168273ffffffffffffffffffffffffffffffffffffffff1614156110b8576040517f08c379a00000000000000000000000000000000000000000000000000000000081526004016110af906139cc565b60405180910390fd5b600860008373ffffffffffffffffffffffffffffffffffffffff1673ffffffffffffffffffffffffffffffffffffffff168152602001908152602001600020549050919050565b600060036000838152602001908152602001600020549050919050565b60606006805461112b90613235565b80601f016020809104026020016040519081016040528092919081815260200182805461115790613235565b80156111a45780601f10611179576101008083540402835291602001916111a4565b820191906000526020600020905b81548152906001019060200180831161118757829003601f168201915b5050505050905090565b60606111b9826118eb565b6111f8576040517f08c379a00000000000000000000000000000000000000000000000000000000081526004016111ef90613a5e565b60405180910390fd5b600060016000848152602001908152602001600020600201805461121b90613235565b80601f016020809104026020016040519081016040528092919081815260200182805461124790613235565b80156112945780601f1061126957610100808354040283529160200191611294565b820191906000526020600020905b81548152906001019060200180831161127757829003601f168201915b505050505090506000815111156112d757806112af84611e9a565b6040516020016112c0929190613aba565b604051602081830303815290604052915050611331565b60008080546112e590613235565b905011611301576040518060200160405280600081525061132d565b600061130c84611e9a565b60405160200161131d929190613b72565b6040516020818303038152906040525b9150505b919050565b61133e611a66565b73ffffffffffffffffffffffffffffffffffffffff168273ffffffffffffffffffffffffffffffffffffffff1614156113ac576040517f08c379a00000000000000000000000000000000000000000000000000000000081526004016113a390613be2565b60405180910390fd5b80600a60006113b9611a66565b73ffffffffffffffffffffffffffffffffffffffff1673ffffffffffffffffffffffffffffffffffffffff16815260200190815260200160002060008473ffffffffffffffffffffffffffffffffffffffff1673ffffffffffffffffffffffffffffffffffffffff16815260200190815260200160002060006101000a81548160ff0219169083151502179055508173ffffffffffffffffffffffffffffffffffffffff16611466611a66565b73ffffffffffffffffffffffffffffffffffffffff167f17307eab39ab6107e8899845ad3d59bd9653f200f220920489ca2b5937696c31836040516114ab91906129d5565b60405180910390a35050565b6114c0826118eb565b6114ff576040517f08c379a00000000000000000000000000000000000000000000000000000000081526004016114f690613c74565b60405180910390fd5b6000611509611a66565b90506115398160008661151b87611ffb565b61152487611ffb565b60405180602001604052806000815250611b58565b60006002600085815260200190815260200160002060008681526020019081526020016000205414156115a157600460008581526020019081526020016000208390806001815401808255809150506001900390600052602060002001600090919091909150555b8160026000858152602001908152602001600020600086815260200190815260200160002060008282546115d5919061359f565b92505081905550828173ffffffffffffffffffffffffffffffffffffffff167f73b5fbfbf0177b0de2ffe9fd0ae9887dd73d0d865db7ab5ff3c4a6b9bb8db1e36000878660405161162893929190613c94565b60405180910390a350505050565b611647611641611a66565b83611b60565b611686576040517f08c379a000000000000000000000000000000000000000000000000000000000815260040161167d90613816565b60405180910390fd5b61169284848484612075565b50505050565b60606116a3826119fa565b6116e2576040517f08c379a00000000000000000000000000000000000000000000000000000000081526004016116d990613d3d565b60405180910390fd5b6000600b6000848152602001908152602001600020805461170290613235565b80601f016020809104026020016040519081016040528092919081815260200182805461172e90613235565b801561177b5780601f106117505761010080835404028352916020019161177b565b820191906000526020600020905b81548152906001019060200180831161175e57829003601f168201915b50505050509050600061178c6120d1565b90506000815114156117a25781925050506117e5565b6000825111156117d75780826040516020016117bf929190613aba565b604051602081830303815290604052925050506117e5565b6117e0846120e8565b925050505b919050565b6117f4838361218f565b6117fe82826121ad565b505050565b6002602052816000526040600020602052806000526040600020600091509150505481565b6000600a60008473ffffffffffffffffffffffffffffffffffffffff1673ffffffffffffffffffffffffffffffffffffffff16815260200190815260200160002060008373ffffffffffffffffffffffffffffffffffffffff1673ffffffffffffffffffffffffffffffffffffffff16815260200190815260200160002060009054906101000a900460ff16905092915050565b600060026000838152602001908152602001600020600084815260200190815260200160002054905092915050565b60006001600083815260200190815260200160002060030160009054906101000a900460ff169050919050565b60007f80ac58cd000000000000000000000000000000000000000000000000000000007bffffffffffffffffffffffffffffffffffffffffffffffffffffffff1916827bffffffffffffffffffffffffffffffffffffffffffffffffffffffff191614806119e357507f5b5e139f000000000000000000000000000000000000000000000000000000007bffffffffffffffffffffffffffffffffffffffffffffffffffffffff1916827bffffffffffffffffffffffffffffffffffffffffffffffffffffffff1916145b806119f357506119f282612221565b5b9050919050565b60008073ffffffffffffffffffffffffffffffffffffffff166007600084815260200190815260200160002060009054906101000a900473ffffffffffffffffffffffffffffffffffffffff1673ffffffffffffffffffffffffffffffffffffffff1614159050919050565b600033905090565b816009600083815260200190815260200160002060006101000a81548173ffffffffffffffffffffffffffffffffffffffff021916908373ffffffffffffffffffffffffffffffffffffffff160217905550808273ffffffffffffffffffffffffffffffffffffffff16611ae183610f81565b73ffffffffffffffffffffffffffffffffffffffff167f8c5be1e5ebec7d5bd14f71427d1e84f3dd0314c0f7b2291e5b200ac8c7c3b92560405160405180910390a45050565b6000806002600084815260200190815260200160002060008581526020019081526020016000205411905092915050565b505050505050565b6000611b6b826119fa565b611baa576040517f08c379a0000000000000000000000000000000000000000000000000000000008152600401611ba190613dcf565b60405180910390fd5b6000611bb583610f81565b90508073ffffffffffffffffffffffffffffffffffffffff168473ffffffffffffffffffffffffffffffffffffffff161480611c2457508373ffffffffffffffffffffffffffffffffffffffff16611c0c846107f7565b73ffffffffffffffffffffffffffffffffffffffff16145b80611c355750611c348185611828565b5b91505092915050565b8273ffffffffffffffffffffffffffffffffffffffff16611c5e82610f81565b73ffffffffffffffffffffffffffffffffffffffff1614611cb4576040517f08c379a0000000000000000000000000000000000000000000000000000000008152600401611cab90613e61565b60405180910390fd5b600073ffffffffffffffffffffffffffffffffffffffff168273ffffffffffffffffffffffffffffffffffffffff161415611d24576040517f08c379a0000000000000000000000000000000000000000000000000000000008152600401611d1b90613ef3565b60405180910390fd5b611d2f838383612303565b611d3a600082611a6e565b6001600860008573ffffffffffffffffffffffffffffffffffffffff1673ffffffffffffffffffffffffffffffffffffffff1681526020019081526020016000206000828254611d8a9190613f13565b925050819055506001600860008473ffffffffffffffffffffffffffffffffffffffff1673ffffffffffffffffffffffffffffffffffffffff1681526020019081526020016000206000828254611de1919061359f565b92505081905550816007600083815260200190815260200160002060006101000a81548173ffffffffffffffffffffffffffffffffffffffff021916908373ffffffffffffffffffffffffffffffffffffffff160217905550808273ffffffffffffffffffffffffffffffffffffffff168473ffffffffffffffffffffffffffffffffffffffff167fddf252ad1be2c89b69c2b068fc378daa952ba7f163c4a11628f55a4df523b3ef60405160405180910390a4505050565b60606000821415611ee2576040518060400160405280600181526020017f30000000000000000000000000000000000000000000000000000000000000008152509050611ff6565b600082905060005b60008214611f14578080611efd906135f5565b915050600a82611f0d9190613f76565b9150611eea565b60008167ffffffffffffffff811115611f3057611f2f612e76565b5b6040519080825280601f01601f191660200182016040528015611f625781602001600182028036833780820191505090505b5090505b60008514611fef57600182611f7b9190613f13565b9150600a85611f8a9190613fa7565b6030611f96919061359f565b60f81b818381518110611fac57611fab6134af565b5b60200101907effffffffffffffffffffffffffffffffffffffffffffffffffffffffffffff1916908160001a905350600a85611fe89190613f76565b9450611f66565b8093505050505b919050565b60606000600167ffffffffffffffff81111561201a57612019612e76565b5b6040519080825280602002602001820160405280156120485781602001602082028036833780820191505090505b50905082816000815181106120605761205f6134af565b5b60200260200101818152505080915050919050565b612080848484611c3e565b61208c84848484612308565b6120cb576040517f08c379a00000000000000000000000000000000000000000000000000000000081526004016120c29061404a565b60405180910390fd5b50505050565b606060405180602001604052806000815250905090565b60606120f3826119fa565b612132576040517f08c379a0000000000000000000000000000000000000000000000000000000008152600401612129906140dc565b60405180910390fd5b600061213c6120d1565b9050600081511161215c5760405180602001604052806000815250612187565b8061216684611e9a565b604051602001612177929190613aba565b6040516020818303038152906040525b915050919050565b6121a9828260405180602001604052806000815250612490565b5050565b6121b6826119fa565b6121f5576040517f08c379a00000000000000000000000000000000000000000000000000000000081526004016121ec9061416e565b60405180910390fd5b80600b6000848152602001908152602001600020908051906020019061221c929190612736565b505050565b60007f8ee1b373000000000000000000000000000000000000000000000000000000007bffffffffffffffffffffffffffffffffffffffffffffffffffffffff1916827bffffffffffffffffffffffffffffffffffffffffffffffffffffffff191614806122ec57507fd5298fa3000000000000000000000000000000000000000000000000000000007bffffffffffffffffffffffffffffffffffffffffffffffffffffffff1916827bffffffffffffffffffffffffffffffffffffffffffffffffffffffff1916145b806122fc57506122fb826124eb565b5b9050919050565b505050565b60006123298473ffffffffffffffffffffffffffffffffffffffff16612555565b15612483578373ffffffffffffffffffffffffffffffffffffffff1663150b7a02612352611a66565b8786866040518563ffffffff1660e01b815260040161237494939291906141e3565b6020604051808303816000875af19250505080156123b057506040513d601f19601f820116820180604052508101906123ad9190614244565b60015b612433573d80600081146123e0576040519150601f19603f3d011682016040523d82523d6000602084013e6123e5565b606091505b5060008151141561242b576040517f08c379a00000000000000000000000000000000000000000000000000000000081526004016124229061404a565b60405180910390fd5b805181602001fd5b63150b7a0260e01b7bffffffffffffffffffffffffffffffffffffffffffffffffffffffff1916817bffffffffffffffffffffffffffffffffffffffffffffffffffffffff191614915050612488565b600190505b949350505050565b61249a8383612568565b6124a76000848484612308565b6124e6576040517f08c379a00000000000000000000000000000000000000000000000000000000081526004016124dd9061404a565b60405180910390fd5b505050565b60007f01ffc9a7000000000000000000000000000000000000000000000000000000007bffffffffffffffffffffffffffffffffffffffffffffffffffffffff1916827bffffffffffffffffffffffffffffffffffffffffffffffffffffffff1916149050919050565b600080823b905060008111915050919050565b600073ffffffffffffffffffffffffffffffffffffffff168273ffffffffffffffffffffffffffffffffffffffff1614156125d8576040517f08c379a00000000000000000000000000000000000000000000000000000000081526004016125cf906142bd565b60405180910390fd5b6125e1816119fa565b15612621576040517f08c379a000000000000000000000000000000000000000000000000000000000815260040161261890614329565b60405180910390fd5b61262d60008383612303565b6001600860008473ffffffffffffffffffffffffffffffffffffffff1673ffffffffffffffffffffffffffffffffffffffff168152602001908152602001600020600082825461267d919061359f565b92505081905550816007600083815260200190815260200160002060006101000a81548173ffffffffffffffffffffffffffffffffffffffff021916908373ffffffffffffffffffffffffffffffffffffffff160217905550808273ffffffffffffffffffffffffffffffffffffffff16600073ffffffffffffffffffffffffffffffffffffffff167fddf252ad1be2c89b69c2b068fc378daa952ba7f163c4a11628f55a4df523b3ef60405160405180910390a45050565b82805461274290613235565b90600052602060002090601f01602090048101928261276457600085556127ab565b82601f1061277d57805160ff19168380011785556127ab565b828001600101855582156127ab579182015b828111156127aa57825182559160200191906001019061278f565b5b5090506127b891906127bc565b5090565b5b808211156127d55760008160009055506001016127bd565b5090565b6000604051905090565b600080fd5b600080fd5b6000819050919050565b612800816127ed565b811461280b57600080fd5b50565b60008135905061281d816127f7565b92915050565b600060208284031215612839576128386127e3565b5b60006128478482850161280e565b91505092915050565b600081519050919050565b600082825260208201905092915050565b60005b8381101561288a57808201518184015260208101905061286f565b83811115612899576000848401525b50505050565b6000601f19601f8301169050919050565b60006128bb82612850565b6128c5818561285b565b93506128d581856020860161286c565b6128de8161289f565b840191505092915050565b6000602082019050818103600083015261290381846128b0565b905092915050565b612914816127ed565b82525050565b600060208201905061292f600083018461290b565b92915050565b60007fffffffff0000000000000000000000000000000000000000000000000000000082169050919050565b61296a81612935565b811461297557600080fd5b50565b60008135905061298781612961565b92915050565b6000602082840312156129a3576129a26127e3565b5b60006129b184828501612978565b91505092915050565b60008115159050919050565b6129cf816129ba565b82525050565b60006020820190506129ea60008301846129c6565b92915050565b600073ffffffffffffffffffffffffffffffffffffffff82169050919050565b6000612a1b826129f0565b9050919050565b612a2b81612a10565b82525050565b6000602082019050612a466000830184612a22565b92915050565b600081519050919050565b600082825260208201905092915050565b6000819050602082019050919050565b612a81816127ed565b82525050565b6000612a938383612a78565b60208301905092915050565b6000602082019050919050565b6000612ab782612a4c565b612ac18185612a57565b9350612acc83612a68565b8060005b83811015612afd578151612ae48882612a87565b9750612aef83612a9f565b925050600181019050612ad0565b5085935050505092915050565b60006020820190508181036000830152612b248184612aac565b905092915050565b612b3581612a10565b8114612b4057600080fd5b50565b600081359050612b5281612b2c565b92915050565b60008060408385031215612b6f57612b6e6127e3565b5b6000612b7d85828601612b43565b9250506020612b8e8582860161280e565b9150509250929050565b60008060408385031215612baf57612bae6127e3565b5b6000612bbd8582860161280e565b9250506020612bce8582860161280e565b9150509250929050565b600080fd5b600080fd5b600080fd5b60008083601f840112612bfd57612bfc612bd8565b5b8235905067ffffffffffffffff811115612c1a57612c19612bdd565b5b602083019150836020820283011115612c3657612c35612be2565b5b9250929050565b600080600080600060608688031215612c5957612c586127e3565b5b6000612c678882890161280e565b955050602086013567ffffffffffffffff811115612c8857612c876127e8565b5b612c9488828901612be7565b9450945050604086013567ffffffffffffffff811115612cb757612cb66127e8565b5b612cc388828901612be7565b92509250509295509295909350565b600080600060608486031215612ceb57612cea6127e3565b5b6000612cf986828701612b43565b9350506020612d0a86828701612b43565b9250506040612d1b8682870161280e565b9150509250925092565b600080600060408486031215612d3e57612d3d6127e3565b5b6000612d4c8682870161280e565b935050602084013567ffffffffffffffff811115612d6d57612d6c6127e8565b5b612d7986828701612be7565b92509250509250925092565b600060208284031215612d9b57612d9a6127e3565b5b6000612da984828501612b43565b91505092915050565b612dbb816129ba565b8114612dc657600080fd5b50565b600081359050612dd881612db2565b92915050565b60008060408385031215612df557612df46127e3565b5b6000612e0385828601612b43565b9250506020612e1485828601612dc9565b9150509250929050565b600080600060608486031215612e3757612e366127e3565b5b6000612e458682870161280e565b9350506020612e568682870161280e565b9250506040612e678682870161280e565b9150509250925092565b600080fd5b7f4e487b7100000000000000000000000000000000000000000000000000000000600052604160045260246000fd5b612eae8261289f565b810181811067ffffffffffffffff82111715612ecd57612ecc612e76565b5b80604052505050565b6000612ee06127d9565b9050612eec8282612ea5565b919050565b600067ffffffffffffffff821115612f0c57612f0b612e76565b5b612f158261289f565b9050602081019050919050565b82818337600083830152505050565b6000612f44612f3f84612ef1565b612ed6565b905082815260208101848484011115612f6057612f5f612e71565b5b612f6b848285612f22565b509392505050565b600082601f830112612f8857612f87612bd8565b5b8135612f98848260208601612f31565b91505092915050565b60008060008060808587031215612fbb57612fba6127e3565b5b6000612fc987828801612b43565b9450506020612fda87828801612b43565b9350506040612feb8782880161280e565b925050606085013567ffffffffffffffff81111561300c5761300b6127e8565b5b61301887828801612f73565b91505092959194509250565b600067ffffffffffffffff82111561303f5761303e612e76565b5b6130488261289f565b9050602081019050919050565b600061306861306384613024565b612ed6565b90508281526020810184848401111561308457613083612e71565b5b61308f848285612f22565b509392505050565b600082601f8301126130ac576130ab612bd8565b5b81356130bc848260208601613055565b91505092915050565b6000806000606084860312156130de576130dd6127e3565b5b60006130ec86828701612b43565b93505060206130fd8682870161280e565b925050604084013567ffffffffffffffff81111561311e5761311d6127e8565b5b61312a86828701613097565b9150509250925092565b6000806040838503121561314b5761314a6127e3565b5b600061315985828601612b43565b925050602061316a85828601612b43565b9150509250929050565b7f455243333636343a206e616d6520717565727920666f72206e6f6e657869737460008201527f656e742061747472696275746500000000000000000000000000000000000000602082015250565b60006131d0602d8361285b565b91506131db82613174565b604082019050919050565b600060208201905081810360008301526131ff816131c3565b9050919050565b7f4e487b7100000000000000000000000000000000000000000000000000000000600052602260045260246000fd5b6000600282049050600182168061324d57607f821691505b6020821081141561326157613260613206565b5b50919050565b7f4552433732313a20617070726f76656420717565727920666f72206e6f6e657860008201527f697374656e7420746f6b656e0000000000000000000000000000000000000000602082015250565b60006132c3602c8361285b565b91506132ce82613267565b604082019050919050565b600060208201905081810360008301526132f2816132b6565b9050919050565b7f4552433732313a20617070726f76616c20746f2063757272656e74206f776e6560008201527f7200000000000000000000000000000000000000000000000000000000000000602082015250565b600061335560218361285b565b9150613360826132f9565b604082019050919050565b6000602082019050818103600083015261338481613348565b9050919050565b7f4552433732313a20617070726f76652063616c6c6572206973206e6f74206f7760008201527f6e6572206e6f7220617070726f76656420666f7220616c6c0000000000000000602082015250565b60006133e760388361285b565b91506133f28261338b565b604082019050919050565b60006020820190508181036000830152613416816133da565b9050919050565b7f455243333636343a20746f6b656e20686173206e6f742061747461636865642060008201527f7468652061747472696275746500000000000000000000000000000000000000602082015250565b6000613479602d8361285b565b91506134848261341d565b604082019050919050565b600060208201905081810360008301526134a88161346c565b9050919050565b7f4e487b7100000000000000000000000000000000000000000000000000000000600052603260045260246000fd5b7f455243333636343a20626174636841747461636820666f72206e6f6e6578697360008201527f74656e7420617474726962757465000000000000000000000000000000000000602082015250565b600061353a602e8361285b565b9150613545826134de565b604082019050919050565b600060208201905081810360008301526135698161352d565b9050919050565b7f4e487b7100000000000000000000000000000000000000000000000000000000600052601160045260246000fd5b60006135aa826127ed565b91506135b5836127ed565b9250827fffffffffffffffffffffffffffffffffffffffffffffffffffffffffffffffff038211156135ea576135e9613570565b5b828201905092915050565b6000613600826127ed565b91507fffffffffffffffffffffffffffffffffffffffffffffffffffffffffffffffff82141561363357613632613570565b5b600182019050919050565b600081905092915050565b600080fd5b600061365a838561363e565b93507f07ffffffffffffffffffffffffffffffffffffffffffffffffffffffffffffff83111561368d5761368c613649565b5b60208302925061369e838584612f22565b82840190509392505050565b60006136b782848661364e565b91508190509392505050565b6000819050919050565b6000819050919050565b60006136f26136ed6136e8846136c3565b6136cd565b6127ed565b9050919050565b613702816136d7565b82525050565b60006137148385612a57565b93507f07ffffffffffffffffffffffffffffffffffffffffffffffffffffffffffffff83111561374757613746613649565b5b602083029250613758838584612f22565b82840190509392505050565b600060608201905061377960008301876136f9565b613786602083018661290b565b8181036040830152613799818486613708565b905095945050505050565b7f4552433732313a207472616e736665722063616c6c6572206973206e6f74206f60008201527f776e6572206e6f7220617070726f766564000000000000000000000000000000602082015250565b600061380060318361285b565b915061380b826137a4565b604082019050919050565b6000602082019050818103600083015261382f816137f3565b9050919050565b7f455243333636343a2073796d626f6c20717565727920666f72206e6f6e65786960008201527f7374656e74206174747269627574650000000000000000000000000000000000602082015250565b6000613892602f8361285b565b915061389d82613836565b604082019050919050565b600060208201905081810360008301526138c181613885565b9050919050565b7f4552433732313a206f776e657220717565727920666f72206e6f6e657869737460008201527f656e7420746f6b656e0000000000000000000000000000000000000000000000602082015250565b600061392460298361285b565b915061392f826138c8565b604082019050919050565b6000602082019050818103600083015261395381613917565b9050919050565b7f4552433732313a2062616c616e636520717565727920666f7220746865207a6560008201527f726f206164647265737300000000000000000000000000000000000000000000602082015250565b60006139b6602a8361285b565b91506139c18261395a565b604082019050919050565b600060208201905081810360008301526139e5816139a9565b9050919050565b7f455243333636343a2055524920717565727920666f72206e6f6e65786973746560008201527f6e74206174747269627574650000000000000000000000000000000000000000602082015250565b6000613a48602c8361285b565b9150613a53826139ec565b604082019050919050565b60006020820190508181036000830152613a7781613a3b565b9050919050565b600081905092915050565b6000613a9482612850565b613a9e8185613a7e565b9350613aae81856020860161286c565b80840191505092915050565b6000613ac68285613a89565b9150613ad28284613a89565b91508190509392505050565b60008190508160005260206000209050919050565b60008154613b0081613235565b613b0a8186613a7e565b94506001821660008114613b255760018114613b3657613b69565b60ff19831686528186019350613b69565b613b3f85613ade565b60005b83811015613b6157815481890152600182019150602081019050613b42565b838801955050505b50505092915050565b6000613b7e8285613af3565b9150613b8a8284613a89565b91508190509392505050565b7f4552433732313a20617070726f766520746f2063616c6c657200000000000000600082015250565b6000613bcc60198361285b565b9150613bd782613b96565b602082019050919050565b60006020820190508181036000830152613bfb81613bbf565b9050919050565b7f455243333636343a2061747461636820666f72206e6f6e6578697374656e742060008201527f6174747269627574650000000000000000000000000000000000000000000000602082015250565b6000613c5e60298361285b565b9150613c6982613c02565b604082019050919050565b60006020820190508181036000830152613c8d81613c51565b9050919050565b6000606082019050613ca960008301866136f9565b613cb6602083018561290b565b613cc3604083018461290b565b949350505050565b7f45524337323155524953746f726167653a2055524920717565727920666f722060008201527f6e6f6e6578697374656e7420746f6b656e000000000000000000000000000000602082015250565b6000613d2760318361285b565b9150613d3282613ccb565b604082019050919050565b60006020820190508181036000830152613d5681613d1a565b9050919050565b7f4552433732313a206f70657261746f7220717565727920666f72206e6f6e657860008201527f697374656e7420746f6b656e0000000000000000000000000000000000000000602082015250565b6000613db9602c8361285b565b9150613dc482613d5d565b604082019050919050565b60006020820190508181036000830152613de881613dac565b9050919050565b7f4552433732313a207472616e73666572206f6620746f6b656e2074686174206960008201527f73206e6f74206f776e0000000000000000000000000000000000000000000000602082015250565b6000613e4b60298361285b565b9150613e5682613def565b604082019050919050565b60006020820190508181036000830152613e7a81613e3e565b9050919050565b7f4552433732313a207472616e7366657220746f20746865207a65726f2061646460008201527f7265737300000000000000000000000000000000000000000000000000000000602082015250565b6000613edd60248361285b565b9150613ee882613e81565b604082019050919050565b60006020820190508181036000830152613f0c81613ed0565b9050919050565b6000613f1e826127ed565b9150613f29836127ed565b925082821015613f3c57613f3b613570565b5b828203905092915050565b7f4e487b7100000000000000000000000000000000000000000000000000000000600052601260045260246000fd5b6000613f81826127ed565b9150613f8c836127ed565b925082613f9c57613f9b613f47565b5b828204905092915050565b6000613fb2826127ed565b9150613fbd836127ed565b925082613fcd57613fcc613f47565b5b828206905092915050565b7f4552433732313a207472616e7366657220746f206e6f6e20455243373231526560008201527f63656976657220696d706c656d656e7465720000000000000000000000000000602082015250565b600061403460328361285b565b915061403f82613fd8565b604082019050919050565b6000602082019050818103600083015261406381614027565b9050919050565b7f4552433732314d657461646174613a2055524920717565727920666f72206e6f60008201527f6e6578697374656e7420746f6b656e0000000000000000000000000000000000602082015250565b60006140c6602f8361285b565b91506140d18261406a565b604082019050919050565b600060208201905081810360008301526140f5816140b9565b9050919050565b7f45524337323155524953746f726167653a2055524920736574206f66206e6f6e60008201527f6578697374656e7420746f6b656e000000000000000000000000000000000000602082015250565b6000614158602e8361285b565b9150614163826140fc565b604082019050919050565b600060208201905081810360008301526141878161414b565b9050919050565b600081519050919050565b600082825260208201905092915050565b60006141b58261418e565b6141bf8185614199565b93506141cf81856020860161286c565b6141d88161289f565b840191505092915050565b60006080820190506141f86000830187612a22565b6142056020830186612a22565b614212604083018561290b565b818103606083015261422481846141aa565b905095945050505050565b60008151905061423e81612961565b92915050565b60006020828403121561425a576142596127e3565b5b60006142688482850161422f565b91505092915050565b7f4552433732313a206d696e7420746f20746865207a65726f2061646472657373600082015250565b60006142a760208361285b565b91506142b282614271565b602082019050919050565b600060208201905081810360008301526142d68161429a565b9050919050565b7f4552433732313a20746f6b656e20616c7265616479206d696e74656400000000600082015250565b6000614313601c8361285b565b915061431e826142dd565b602082019050919050565b6000602082019050818103600083015261434281614306565b905091905056fea264697066735822122039b8f609c431a17b0f15ecb07647d9a645a5c13e754591d2e88d6e8665c94e6464736f6c634300080b0033",
  "immutableReferences": {},
  "source": "pragma solidity ^0.8.0;\n\nimport \"./ERC3664/ERC3664.sol\";\nimport \"openzeppelin-solidity/contracts/token/ERC721/extensions/ERC721URIStorage.sol\";\n\n\ncontract Character is ERC3664, ERC721URIStorage{\n\n    uint256 private attrQuantity;\n\n    constructor() ERC721(\"Item_nft\", \"ITEM\") ERC3664(\"http://localhost:3000/\"){\n        attrQuantity = 3;\n        _mint(0, 'attack', 'ATTACK', '');\n        _mint(1, 'speed', 'SPEED', '');\n        _mint(2, 'defense', 'DEFENSE', '');\n    }\n\n    function supportsInterface(bytes4 interfaceId)\n        public\n        view\n        virtual\n        override(ERC3664, ERC721)\n    returns (bool)\n    {\n        return super.supportsInterface(interfaceId);\n    }\n\n    function getQuantity() external view returns(uint256){\n        return attrQuantity;\n    }\n\n    function mint(address to, uint256 tokenId, string memory _tokenURI) public {\n        _safeMint(to, tokenId);\n        _setTokenURI(tokenId, _tokenURI);\n    }\n\n    function get_attributeAmount(uint256 tokenId, uint attrId) public view returns(uint256){\n        return ERC3664.balanceOf(tokenId, attrId);\n    }\n    function get_attrName(uint256 attrId) public view returns(string memory){\n        return ERC3664.name(attrId);\n    }\n}\n",
  "sourcePath": "/Users/li/Character/src/contracts/Character.sol",
  "compiler": {
    "name": "solc",
    "version": "0.8.11+commit.d7f03943.Emscripten.clang"
  },
  "schemaVersion": "3.4.4",
  "updatedAt": "2022-02-19T16:09:55.528Z",
  "networkType": "ethereum",
  "devdoc": {
    "kind": "dev",
    "methods": {
      "approve(address,uint256)": {
        "details": "See {IERC721-approve}."
      },
      "attach(uint256,uint256,uint256)": {
        "details": "See {IERC3664-attach}."
      },
      "attrURI(uint256)": {
        "details": "See {IERC721Metadata-attrURI}."
      },
      "attributesOf(uint256)": {
        "details": "See {IERC3664-attributesOf}."
      },
      "balanceOf(address)": {
        "details": "See {IERC721-balanceOf}."
      },
      "balanceOf(uint256,uint256)": {
        "details": "See {IERC3664-balanceOf}."
      },
      "balanceOfBatch(uint256,uint256[])": {
        "details": "See {IERC3664-balanceOfBatch}."
      },
      "batchAttach(uint256,uint256[],uint256[])": {
        "details": "See {IERC3664-batchAttach}."
      },
      "getApproved(uint256)": {
        "details": "See {IERC721-getApproved}."
      },
      "isApprovedForAll(address,address)": {
        "details": "See {IERC721-isApprovedForAll}."
      },
      "name()": {
        "details": "See {IERC721Metadata-name}."
      },
      "name(uint256)": {
        "details": "See {IERC3664Metadata-name}."
      },
      "ownerOf(uint256)": {
        "details": "See {IERC721-ownerOf}."
      },
      "primaryAttributeOf(uint256)": {
        "details": "See {IERC3664-primaryAttributeOf}."
      },
      "safeTransferFrom(address,address,uint256)": {
        "details": "See {IERC721-safeTransferFrom}."
      },
      "safeTransferFrom(address,address,uint256,bytes)": {
        "details": "See {IERC721-safeTransferFrom}."
      },
      "setApprovalForAll(address,bool)": {
        "details": "See {IERC721-setApprovalForAll}."
      },
      "setPrimaryAttribute(uint256,uint256)": {
        "details": "See {IERC3664-setPrimaryAttribute}."
      },
      "symbol()": {
        "details": "See {IERC721Metadata-symbol}."
      },
      "symbol(uint256)": {
        "details": "See {IERC3664Metadata-symbol}."
      },
      "tokenURI(uint256)": {
        "details": "See {IERC721Metadata-tokenURI}."
      },
      "transferFrom(address,address,uint256)": {
        "details": "See {IERC721-transferFrom}."
      }
    },
    "version": 1
  },
  "userdoc": {
    "kind": "user",
    "methods": {},
    "version": 1
  }
}