{
  "contractName": "Character",
  "abi": [
    {
      "inputs": [],
      "stateMutability": "nonpayable",
      "type": "constructor"
    },
    {
      "anonymous": false,
      "inputs": [
        {
          "indexed": true,
          "internalType": "address",
          "name": "owner",
          "type": "address"
        },
        {
          "indexed": true,
          "internalType": "address",
          "name": "approved",
          "type": "address"
        },
        {
          "indexed": true,
          "internalType": "uint256",
          "name": "tokenId",
          "type": "uint256"
        }
      ],
      "name": "Approval",
      "type": "event"
    },
    {
      "anonymous": false,
      "inputs": [
        {
          "indexed": true,
          "internalType": "address",
          "name": "owner",
          "type": "address"
        },
        {
          "indexed": true,
          "internalType": "address",
          "name": "operator",
          "type": "address"
        },
        {
          "indexed": false,
          "internalType": "bool",
          "name": "approved",
          "type": "bool"
        }
      ],
      "name": "ApprovalForAll",
      "type": "event"
    },
    {
      "anonymous": false,
      "inputs": [
        {
          "indexed": true,
          "internalType": "uint256",
          "name": "attrId",
          "type": "uint256"
        },
        {
          "indexed": false,
          "internalType": "string",
          "name": "name",
          "type": "string"
        },
        {
          "indexed": false,
          "internalType": "string",
          "name": "symbol",
          "type": "string"
        },
        {
          "indexed": false,
          "internalType": "string",
          "name": "uri",
          "type": "string"
        }
      ],
      "name": "AttributeCreated",
      "type": "event"
    },
    {
      "anonymous": false,
      "inputs": [
        {
          "indexed": true,
          "internalType": "address",
          "name": "from",
          "type": "address"
        },
        {
          "indexed": true,
          "internalType": "address",
          "name": "to",
          "type": "address"
        },
        {
          "indexed": true,
          "internalType": "uint256",
          "name": "tokenId",
          "type": "uint256"
        }
      ],
      "name": "Transfer",
      "type": "event"
    },
    {
      "anonymous": false,
      "inputs": [
        {
          "indexed": true,
          "internalType": "address",
          "name": "operator",
          "type": "address"
        },
        {
          "indexed": false,
          "internalType": "uint256",
          "name": "from",
          "type": "uint256"
        },
        {
          "indexed": false,
          "internalType": "uint256",
          "name": "to",
          "type": "uint256"
        },
        {
          "indexed": true,
          "internalType": "uint256[]",
          "name": "attrIds",
          "type": "uint256[]"
        },
        {
          "indexed": false,
          "internalType": "uint256[]",
          "name": "values",
          "type": "uint256[]"
        }
      ],
      "name": "TransferBatch",
      "type": "event"
    },
    {
      "anonymous": false,
      "inputs": [
        {
          "indexed": true,
          "internalType": "address",
          "name": "operator",
          "type": "address"
        },
        {
          "indexed": false,
          "internalType": "uint256",
          "name": "from",
          "type": "uint256"
        },
        {
          "indexed": false,
          "internalType": "uint256",
          "name": "to",
          "type": "uint256"
        },
        {
          "indexed": true,
          "internalType": "uint256",
          "name": "attrId",
          "type": "uint256"
        },
        {
          "indexed": false,
          "internalType": "uint256",
          "name": "value",
          "type": "uint256"
        }
      ],
      "name": "TransferSingle",
      "type": "event"
    },
    {
      "inputs": [
        {
          "internalType": "address",
          "name": "to",
          "type": "address"
        },
        {
          "internalType": "uint256",
          "name": "tokenId",
          "type": "uint256"
        }
      ],
      "name": "approve",
      "outputs": [],
      "stateMutability": "nonpayable",
      "type": "function"
    },
    {
      "inputs": [
        {
          "internalType": "uint256",
          "name": "tokenId",
          "type": "uint256"
        },
        {
          "internalType": "uint256",
          "name": "attrId",
          "type": "uint256"
        },
        {
          "internalType": "uint256",
          "name": "amount",
          "type": "uint256"
        }
      ],
      "name": "attach",
      "outputs": [],
      "stateMutability": "nonpayable",
      "type": "function"
    },
    {
      "inputs": [
        {
          "internalType": "uint256",
          "name": "",
          "type": "uint256"
        },
        {
          "internalType": "uint256",
          "name": "",
          "type": "uint256"
        }
      ],
      "name": "attrBalances",
      "outputs": [
        {
          "internalType": "uint256",
          "name": "",
          "type": "uint256"
        }
      ],
      "stateMutability": "view",
      "type": "function",
      "constant": true
    },
    {
      "inputs": [
        {
          "internalType": "uint256",
          "name": "attrId",
          "type": "uint256"
        }
      ],
      "name": "attrURI",
      "outputs": [
        {
          "internalType": "string",
          "name": "",
          "type": "string"
        }
      ],
      "stateMutability": "view",
      "type": "function",
      "constant": true
    },
    {
      "inputs": [
        {
          "internalType": "uint256",
          "name": "tokenId",
          "type": "uint256"
        }
      ],
      "name": "attributesOf",
      "outputs": [
        {
          "internalType": "uint256[]",
          "name": "",
          "type": "uint256[]"
        }
      ],
      "stateMutability": "view",
      "type": "function",
      "constant": true
    },
    {
      "inputs": [
        {
          "internalType": "uint256",
          "name": "",
          "type": "uint256"
        },
        {
          "internalType": "uint256",
          "name": "",
          "type": "uint256"
        }
      ],
      "name": "attrs",
      "outputs": [
        {
          "internalType": "uint256",
          "name": "",
          "type": "uint256"
        }
      ],
      "stateMutability": "view",
      "type": "function",
      "constant": true
    },
    {
      "inputs": [
        {
          "internalType": "address",
          "name": "owner",
          "type": "address"
        }
      ],
      "name": "balanceOf",
      "outputs": [
        {
          "internalType": "uint256",
          "name": "",
          "type": "uint256"
        }
      ],
      "stateMutability": "view",
      "type": "function",
      "constant": true
    },
    {
      "inputs": [
        {
          "internalType": "uint256",
          "name": "tokenId",
          "type": "uint256"
        },
        {
          "internalType": "uint256",
          "name": "attrId",
          "type": "uint256"
        }
      ],
      "name": "balanceOf",
      "outputs": [
        {
          "internalType": "uint256",
          "name": "",
          "type": "uint256"
        }
      ],
      "stateMutability": "view",
      "type": "function",
      "constant": true
    },
    {
      "inputs": [
        {
          "internalType": "uint256",
          "name": "tokenId",
          "type": "uint256"
        },
        {
          "internalType": "uint256[]",
          "name": "attrIds",
          "type": "uint256[]"
        }
      ],
      "name": "balanceOfBatch",
      "outputs": [
        {
          "internalType": "uint256[]",
          "name": "",
          "type": "uint256[]"
        }
      ],
      "stateMutability": "view",
      "type": "function",
      "constant": true
    },
    {
      "inputs": [],
      "name": "baseExtension",
      "outputs": [
        {
          "internalType": "string",
          "name": "",
          "type": "string"
        }
      ],
      "stateMutability": "view",
      "type": "function",
      "constant": true
    },
    {
      "inputs": [],
      "name": "baseHeader",
      "outputs": [
        {
          "internalType": "string",
          "name": "",
          "type": "string"
        }
      ],
      "stateMutability": "view",
      "type": "function",
      "constant": true
    },
    {
      "inputs": [
        {
          "internalType": "uint256",
          "name": "tokenId",
          "type": "uint256"
        },
        {
          "internalType": "uint256[]",
          "name": "attrIds",
          "type": "uint256[]"
        },
        {
          "internalType": "uint256[]",
          "name": "amounts",
          "type": "uint256[]"
        }
      ],
      "name": "batchAttach",
      "outputs": [],
      "stateMutability": "nonpayable",
      "type": "function"
    },
    {
      "inputs": [
        {
          "internalType": "uint256",
          "name": "tokenId",
          "type": "uint256"
        },
        {
          "internalType": "uint256",
          "name": "attrId",
          "type": "uint256"
        },
        {
          "internalType": "uint256",
          "name": "amount",
          "type": "uint256"
        }
      ],
      "name": "decrease",
      "outputs": [],
      "stateMutability": "nonpayable",
      "type": "function"
    },
    {
      "inputs": [
        {
          "internalType": "uint256",
          "name": "tokenId",
          "type": "uint256"
        }
      ],
      "name": "getApproved",
      "outputs": [
        {
          "internalType": "address",
          "name": "",
          "type": "address"
        }
      ],
      "stateMutability": "view",
      "type": "function",
      "constant": true
    },
    {
      "inputs": [
        {
          "internalType": "uint256",
          "name": "tokenId",
          "type": "uint256"
        },
        {
          "internalType": "uint256",
          "name": "attrId",
          "type": "uint256"
        },
        {
          "internalType": "uint256",
          "name": "amount",
          "type": "uint256"
        }
      ],
      "name": "increase",
      "outputs": [],
      "stateMutability": "nonpayable",
      "type": "function"
    },
    {
      "inputs": [
        {
          "internalType": "address",
          "name": "owner",
          "type": "address"
        },
        {
          "internalType": "address",
          "name": "operator",
          "type": "address"
        }
      ],
      "name": "isApprovedForAll",
      "outputs": [
        {
          "internalType": "bool",
          "name": "",
          "type": "bool"
        }
      ],
      "stateMutability": "view",
      "type": "function",
      "constant": true
    },
    {
      "inputs": [
        {
          "internalType": "uint256",
          "name": "attrId",
          "type": "uint256"
        }
      ],
      "name": "name",
      "outputs": [
        {
          "internalType": "string",
          "name": "",
          "type": "string"
        }
      ],
      "stateMutability": "view",
      "type": "function",
      "constant": true
    },
    {
      "inputs": [],
      "name": "name",
      "outputs": [
        {
          "internalType": "string",
          "name": "",
          "type": "string"
        }
      ],
      "stateMutability": "view",
      "type": "function",
      "constant": true
    },
    {
      "inputs": [
        {
          "internalType": "uint256",
          "name": "tokenId",
          "type": "uint256"
        }
      ],
      "name": "ownerOf",
      "outputs": [
        {
          "internalType": "address",
          "name": "",
          "type": "address"
        }
      ],
      "stateMutability": "view",
      "type": "function",
      "constant": true
    },
    {
      "inputs": [
        {
          "internalType": "uint256",
          "name": "tokenId",
          "type": "uint256"
        }
      ],
      "name": "primaryAttributeOf",
      "outputs": [
        {
          "internalType": "uint256",
          "name": "",
          "type": "uint256"
        }
      ],
      "stateMutability": "view",
      "type": "function",
      "constant": true
    },
    {
      "inputs": [
        {
          "internalType": "uint256",
          "name": "tokenId",
          "type": "uint256"
        },
        {
          "internalType": "uint256",
          "name": "attrId",
          "type": "uint256"
        }
      ],
      "name": "remove",
      "outputs": [],
      "stateMutability": "nonpayable",
      "type": "function"
    },
    {
      "inputs": [
        {
          "internalType": "address",
          "name": "from",
          "type": "address"
        },
        {
          "internalType": "address",
          "name": "to",
          "type": "address"
        },
        {
          "internalType": "uint256",
          "name": "tokenId",
          "type": "uint256"
        }
      ],
      "name": "safeTransferFrom",
      "outputs": [],
      "stateMutability": "nonpayable",
      "type": "function"
    },
    {
      "inputs": [
        {
          "internalType": "address",
          "name": "from",
          "type": "address"
        },
        {
          "internalType": "address",
          "name": "to",
          "type": "address"
        },
        {
          "internalType": "uint256",
          "name": "tokenId",
          "type": "uint256"
        },
        {
          "internalType": "bytes",
          "name": "_data",
          "type": "bytes"
        }
      ],
      "name": "safeTransferFrom",
      "outputs": [],
      "stateMutability": "nonpayable",
      "type": "function"
    },
    {
      "inputs": [
        {
          "internalType": "address",
          "name": "operator",
          "type": "address"
        },
        {
          "internalType": "bool",
          "name": "approved",
          "type": "bool"
        }
      ],
      "name": "setApprovalForAll",
      "outputs": [],
      "stateMutability": "nonpayable",
      "type": "function"
    },
    {
      "inputs": [
        {
          "internalType": "uint256",
          "name": "tokenId",
          "type": "uint256"
        },
        {
          "internalType": "uint256",
          "name": "attrId",
          "type": "uint256"
        }
      ],
      "name": "setPrimaryAttribute",
      "outputs": [],
      "stateMutability": "nonpayable",
      "type": "function"
    },
    {
      "inputs": [
        {
          "internalType": "uint256",
          "name": "attrId",
          "type": "uint256"
        }
      ],
      "name": "symbol",
      "outputs": [
        {
          "internalType": "string",
          "name": "",
          "type": "string"
        }
      ],
      "stateMutability": "view",
      "type": "function",
      "constant": true
    },
    {
      "inputs": [],
      "name": "symbol",
      "outputs": [
        {
          "internalType": "string",
          "name": "",
          "type": "string"
        }
      ],
      "stateMutability": "view",
      "type": "function",
      "constant": true
    },
    {
      "inputs": [
        {
          "internalType": "address",
          "name": "from",
          "type": "address"
        },
        {
          "internalType": "address",
          "name": "to",
          "type": "address"
        },
        {
          "internalType": "uint256",
          "name": "tokenId",
          "type": "uint256"
        }
      ],
      "name": "transferFrom",
      "outputs": [],
      "stateMutability": "nonpayable",
      "type": "function"
    },
    {
      "inputs": [
        {
          "internalType": "bytes4",
          "name": "interfaceId",
          "type": "bytes4"
        }
      ],
      "name": "supportsInterface",
      "outputs": [
        {
          "internalType": "bool",
          "name": "",
          "type": "bool"
        }
      ],
      "stateMutability": "view",
      "type": "function",
      "constant": true
    },
    {
      "inputs": [],
      "name": "getAttrQuantity",
      "outputs": [
        {
          "internalType": "uint256",
          "name": "",
          "type": "uint256"
        }
      ],
      "stateMutability": "view",
      "type": "function",
      "constant": true
    },
    {
      "inputs": [
        {
          "internalType": "address",
          "name": "to",
          "type": "address"
        },
        {
          "internalType": "uint256",
          "name": "tokenId",
          "type": "uint256"
        }
      ],
      "name": "mint",
      "outputs": [],
      "stateMutability": "nonpayable",
      "type": "function"
    },
    {
      "inputs": [
        {
          "internalType": "uint256",
          "name": "tokenId",
          "type": "uint256"
        },
        {
          "internalType": "uint256",
          "name": "attrId",
          "type": "uint256"
        }
      ],
      "name": "getAttrAmount",
      "outputs": [
        {
          "internalType": "uint256",
          "name": "",
          "type": "uint256"
        }
      ],
      "stateMutability": "view",
      "type": "function",
      "constant": true
    },
    {
      "inputs": [
        {
          "internalType": "uint256",
          "name": "attrId",
          "type": "uint256"
        }
      ],
      "name": "getAttrName",
      "outputs": [
        {
          "internalType": "string",
          "name": "",
          "type": "string"
        }
      ],
      "stateMutability": "view",
      "type": "function",
      "constant": true
    },
    {
      "inputs": [
        {
          "internalType": "uint256",
          "name": "tokenId",
          "type": "uint256"
        }
      ],
      "name": "tokenURI",
      "outputs": [
        {
          "internalType": "string",
          "name": "",
          "type": "string"
        }
      ],
      "stateMutability": "view",
      "type": "function",
      "constant": true
    },
    {
      "inputs": [
        {
          "internalType": "uint256",
          "name": "tokenId",
          "type": "uint256"
        }
      ],
      "name": "burnToken",
      "outputs": [],
      "stateMutability": "nonpayable",
      "type": "function"
    },
    {
      "inputs": [
        {
          "internalType": "uint256",
          "name": "tokenId",
          "type": "uint256"
        },
        {
          "internalType": "uint256",
          "name": "attrId",
          "type": "uint256"
        }
      ],
      "name": "hasAttr",
      "outputs": [
        {
          "internalType": "bool",
          "name": "",
          "type": "bool"
        }
      ],
      "stateMutability": "view",
      "type": "function",
      "constant": true
    },
    {
      "inputs": [
        {
          "internalType": "uint256",
          "name": "tokenId",
          "type": "uint256"
        },
        {
          "internalType": "uint256",
          "name": "attrId",
          "type": "uint256"
        }
      ],
      "name": "seperate",
      "outputs": [],
      "stateMutability": "nonpayable",
      "type": "function"
    }
  ],
  "bytecode": "0x6080604052600a600c556040518060400160405280600581526020017f2e6a736f6e000000000000000000000000000000000000000000000000000000815250600e90805190602001906200005692919062000523565b506040518060400160405280600781526020017f697066733a2f2f00000000000000000000000000000000000000000000000000815250600f9080519060200190620000a492919062000523565b50348015620000b257600080fd5b506040518060400160405280600881526020017f4974656d5f6e66740000000000000000000000000000000000000000000000008152506040518060400160405280600481526020017f4954454d000000000000000000000000000000000000000000000000000000008152506040518060400160405280601681526020017f687474703a2f2f6c6f63616c686f73743a333030302f0000000000000000000081525062000166816200038560201b60201c565b5081600590805190602001906200017f92919062000523565b5080600690805190602001906200019892919062000523565b5050506003600d819055506200023160006040518060400160405280600681526020017f61747461636b00000000000000000000000000000000000000000000000000008152506040518060400160405280600681526020017f41545441434b000000000000000000000000000000000000000000000000000081525060405180602001604052806000815250620003a160201b60201c565b620002bf60016040518060400160405280600581526020017f73706565640000000000000000000000000000000000000000000000000000008152506040518060400160405280600581526020017f535045454400000000000000000000000000000000000000000000000000000081525060405180602001604052806000815250620003a160201b60201c565b6200034d60026040518060400160405280600781526020017f646566656e7365000000000000000000000000000000000000000000000000008152506040518060400160405280600781526020017f444546454e53450000000000000000000000000000000000000000000000000081525060405180602001604052806000815250620003a160201b60201c565b6040518060600160405280602f815260200162005426602f9139601090805190602001906200037e92919062000523565b50620007c6565b80600090805190602001906200039d92919062000523565b5050565b620003b284620004f660201b60201c565b15620003f5576040517f08c379a0000000000000000000000000000000000000000000000000000000008152600401620003ec906200065a565b60405180910390fd5b60006040518060800160405280858152602001848152602001838152602001600115158152509050806001600087815260200190815260200160002060008201518160000190805190602001906200044f92919062000523565b5060208201518160010190805190602001906200046e92919062000523565b5060408201518160020190805190602001906200048d92919062000523565b5060608201518160030160006101000a81548160ff021916908315150217905550905050847fe3c3c9bbda1d6ccb059320eed92d395bd49272efb8a675a188a9d1b4e4da4ce2858585604051620004e7939291906200070f565b60405180910390a25050505050565b60006001600083815260200190815260200160002060030160009054906101000a900460ff169050919050565b828054620005319062000790565b90600052602060002090601f016020900481019282620005555760008555620005a1565b82601f106200057057805160ff1916838001178555620005a1565b82800160010185558215620005a1579182015b82811115620005a057825182559160200191906001019062000583565b5b509050620005b09190620005b4565b5090565b5b80821115620005cf576000816000905550600101620005b5565b5090565b600082825260208201905092915050565b7f455243333636343a2061747472696275746520616c726561647920657869737460008201527f7300000000000000000000000000000000000000000000000000000000000000602082015250565b600062000642602183620005d3565b91506200064f82620005e4565b604082019050919050565b60006020820190508181036000830152620006758162000633565b9050919050565b600081519050919050565b60005b83811015620006a75780820151818401526020810190506200068a565b83811115620006b7576000848401525b50505050565b6000601f19601f8301169050919050565b6000620006db826200067c565b620006e78185620005d3565b9350620006f981856020860162000687565b6200070481620006bd565b840191505092915050565b600060608201905081810360008301526200072b8186620006ce565b90508181036020830152620007418185620006ce565b90508181036040830152620007578184620006ce565b9050949350505050565b7f4e487b7100000000000000000000000000000000000000000000000000000000600052602260045260246000fd5b60006002820490506001821680620007a957607f821691505b60208210811415620007c057620007bf62000761565b5b50919050565b614c5080620007d66000396000f3fe608060405234801561001057600080fd5b50600436106102265760003560e01c80635d12611011610130578063a22cb465116100b8578063c87b56dd1161007c578063c87b56dd146106cd578063e829ffa1146106fd578063e985e9c51461072d578063ea6996331461075d578063f8fb14fa1461078d57610226565b8063a22cb4651461063d578063a35efa7714610659578063b4101dce14610677578063b88d4fde14610693578063c6682862146106af57610226565b8063756cb823116100ff578063756cb823146105875780637b47ec1a146105a357806387e21d42146105bf57806395d89b41146105ef5780639bc5ae541461060d57610226565b80635d126110146104db5780636352211e1461050b5780636526db7a1461053b57806370a082311461055757610226565b806314679612116101b357806335c479201161018257806335c479201461041357806339e6fbfd1461044357806340c10f191461047357806342842e0e1461048f5780634e41a1fb146104ab57610226565b8063146796121461038d578063169dbe6e146103a95780631903df48146103d957806323b872dd146103f757610226565b806309363c44116101fa57806309363c44146102d9578063095ea7b3146103095780631070717b146103255780631084103414610341578063132e09e31461037157610226565b8062ad800c1461022b57806301ffc9a71461025b57806306fdde031461028b578063081812fc146102a9575b600080fd5b61024560048036038101906102409190613011565b6107a9565b60405161025291906130d7565b60405180910390f35b61027560048036038101906102709190613151565b610899565b6040516102829190613199565b60405180910390f35b6102936108ab565b6040516102a091906130d7565b60405180910390f35b6102c360048036038101906102be9190613011565b61093d565b6040516102d091906131f5565b60405180910390f35b6102f360048036038101906102ee9190613011565b6109c2565b60405161030091906132ce565b60405180910390f35b610323600480360381019061031e919061331c565b610a2d565b005b61033f600480360381019061033a919061335c565b610b45565b005b61035b6004803603810190610356919061335c565b610baa565b6040516103689190613199565b60405180910390f35b61038b60048036038101906103869190613401565b610bbe565b005b6103a760048036038101906103a2919061335c565b610e69565b005b6103c360048036038101906103be919061335c565b610eb4565b6040516103d091906134a5565b60405180910390f35b6103e1610ee5565b6040516103ee91906134a5565b60405180910390f35b610411600480360381019061040c91906134c0565b610eef565b005b61042d6004803603810190610428919061335c565b610f4f565b60405161043a91906134a5565b60405180910390f35b61045d60048036038101906104589190613011565b610f63565b60405161046a91906130d7565b60405180910390f35b61048d6004803603810190610488919061331c565b610f75565b005b6104a960048036038101906104a491906134c0565b610f8c565b005b6104c560048036038101906104c09190613011565b610fac565b6040516104d291906130d7565b60405180910390f35b6104f560048036038101906104f09190613513565b61109c565b60405161050291906132ce565b60405180910390f35b61052560048036038101906105209190613011565b61115b565b60405161053291906131f5565b60405180910390f35b6105556004803603810190610550919061335c565b61120d565b005b610571600480360381019061056c9190613573565b611399565b60405161057e91906134a5565b60405180910390f35b6105a1600480360381019061059c91906135a0565b611451565b005b6105bd60048036038101906105b89190613011565b6115b1565b005b6105d960048036038101906105d49190613011565b6115bd565b6040516105e691906134a5565b60405180910390f35b6105f76115da565b60405161060491906130d7565b60405180910390f35b61062760048036038101906106229190613011565b61166c565b60405161063491906130d7565b60405180910390f35b6106576004803603810190610652919061361f565b6117f4565b005b610661611975565b60405161066e91906130d7565b60405180910390f35b610691600480360381019061068c91906135a0565b611a03565b005b6106ad60048036038101906106a8919061378f565b611b82565b005b6106b7611be4565b6040516106c491906130d7565b60405180910390f35b6106e760048036038101906106e29190613011565b611c72565b6040516106f491906130d7565b60405180910390f35b6107176004803603810190610712919061335c565b611d1f565b60405161072491906134a5565b60405180910390f35b61074760048036038101906107429190613812565b611d44565b6040516107549190613199565b60405180910390f35b6107776004803603810190610772919061335c565b611dd8565b60405161078491906134a5565b60405180910390f35b6107a760048036038101906107a291906135a0565b611e07565b005b60606107b482611f97565b6107f3576040517f08c379a00000000000000000000000000000000000000000000000000000000081526004016107ea906138c4565b60405180910390fd5b60016000838152602001908152602001600020600001805461081490613913565b80601f016020809104026020016040519081016040528092919081815260200182805461084090613913565b801561088d5780601f106108625761010080835404028352916020019161088d565b820191906000526020600020905b81548152906001019060200180831161087057829003601f168201915b50505050509050919050565b60006108a482611fc4565b9050919050565b6060600580546108ba90613913565b80601f01602080910402602001604051908101604052809291908181526020018280546108e690613913565b80156109335780601f1061090857610100808354040283529160200191610933565b820191906000526020600020905b81548152906001019060200180831161091657829003601f168201915b5050505050905090565b6000610948826120a6565b610987576040517f08c379a000000000000000000000000000000000000000000000000000000000815260040161097e906139b7565b60405180910390fd5b6009600083815260200190815260200160002060009054906101000a900473ffffffffffffffffffffffffffffffffffffffff169050919050565b606060046000838152602001908152602001600020805480602002602001604051908101604052809291908181526020018280548015610a2157602002820191906000526020600020905b815481526020019060010190808311610a0d575b50505050509050919050565b6000610a388261115b565b90508073ffffffffffffffffffffffffffffffffffffffff168373ffffffffffffffffffffffffffffffffffffffff161415610aa9576040517f08c379a0000000000000000000000000000000000000000000000000000000008152600401610aa090613a49565b60405180910390fd5b8073ffffffffffffffffffffffffffffffffffffffff16610ac8612112565b73ffffffffffffffffffffffffffffffffffffffff161480610af75750610af681610af1612112565b611d44565b5b610b36576040517f08c379a0000000000000000000000000000000000000000000000000000000008152600401610b2d90613adb565b60405180910390fd5b610b40838361211a565b505050565b610b4f82826121d3565b610b8e576040517f08c379a0000000000000000000000000000000000000000000000000000000008152600401610b8590613b6d565b60405180910390fd5b8060036000848152602001908152602001600020819055505050565b6000610bb683836121d3565b905092915050565b6000610bc8612112565b9050610c6a81600088888880806020026020016040519081016040528093929190818152602001838360200280828437600081840152601f19601f82011690508083019250505050505050878780806020026020016040519081016040528093929190818152602001838360200280828437600081840152601f19601f8201169050808301925050505050505060405180602001604052806000815250612204565b60005b85859050811015610df357610c9a868683818110610c8e57610c8d613b8d565b5b90506020020135611f97565b610cd9576040517f08c379a0000000000000000000000000000000000000000000000000000000008152600401610cd090613c2e565b60405180910390fd5b600060026000888885818110610cf257610cf1613b8d565b5b9050602002013581526020019081526020016000206000898152602001908152602001600020541415610d735760046000888152602001908152602001600020868683818110610d4557610d44613b8d565b5b9050602002013590806001815401808255809150506001900390600052602060002001600090919091909150555b838382818110610d8657610d85613b8d565b5b9050602002013560026000888885818110610da457610da3613b8d565b5b90506020020135815260200190815260200160002060008981526020019081526020016000206000828254610dd99190613c7d565b925050819055508080610deb90613cd3565b915050610c6d565b508484604051610e04929190613d88565b60405180910390208173ffffffffffffffffffffffffffffffffffffffff167fbfb4d8e5891aebe97980c97616b6b0af2006a58ccabe6e1b7e3da24d0906a8566000898787604051610e599493929190613e42565b60405180910390a3505050505050565b6000600383610e789190613e82565b600c54610e859190613c7d565b9050610e91838361120d565b610eaf30610e9e8561115b565b8484610eaa9190613c7d565b61220c565b505050565b60046020528160005260406000208181548110610ed057600080fd5b90600052602060002001600091509150505481565b6000600d54905090565b610f00610efa612112565b82612468565b610f3f576040517f08c379a0000000000000000000000000000000000000000000000000000000008152600401610f3690613f4e565b60405180910390fd5b610f4a83838361220c565b505050565b6000610f5b8383611dd8565b905092915050565b6060610f6e826107a9565b9050919050565b610f7f8282612546565b610f8881612564565b5050565b610fa783838360405180602001604052806000815250611b82565b505050565b6060610fb782611f97565b610ff6576040517f08c379a0000000000000000000000000000000000000000000000000000000008152600401610fed90613fe0565b60405180910390fd5b60016000838152602001908152602001600020600101805461101790613913565b80601f016020809104026020016040519081016040528092919081815260200182805461104390613913565b80156110905780601f1061106557610100808354040283529160200191611090565b820191906000526020600020905b81548152906001019060200180831161107357829003601f168201915b50505050509050919050565b606060008383905067ffffffffffffffff8111156110bd576110bc613664565b5b6040519080825280602002602001820160405280156110eb5781602001602082028036833780820191505090505b50905060005b8484905081101561114f5761111f8686868481811061111357611112613b8d565b5b90506020020135611dd8565b82828151811061113257611131613b8d565b5b6020026020010181815250508061114890613cd3565b90506110f1565b50809150509392505050565b6000806007600084815260200190815260200160002060009054906101000a900473ffffffffffffffffffffffffffffffffffffffff169050600073ffffffffffffffffffffffffffffffffffffffff168173ffffffffffffffffffffffffffffffffffffffff161415611204576040517f08c379a00000000000000000000000000000000000000000000000000000000081526004016111fb90614072565b60405180910390fd5b80915050919050565b61121681611f97565b611255576040517f08c379a000000000000000000000000000000000000000000000000000000000815260040161124c90614104565b60405180910390fd5b6000600260008381526020019081526020016000206000848152602001908152602001600020549050600081116112c1576040517f08c379a00000000000000000000000000000000000000000000000000000000081526004016112b890614196565b60405180910390fd5b60006112cb612112565b90506112fb818560006112dd876125c8565b6112e6876125c8565b60405180602001604052806000815250612204565b6002600084815260200190815260200160002060008581526020019081526020016000206000905561133f6004600086815260200190815260200160002084612642565b828173ffffffffffffffffffffffffffffffffffffffff167f73b5fbfbf0177b0de2ffe9fd0ae9887dd73d0d865db7ab5ff3c4a6b9bb8db1e38660008660405161138b939291906141b6565b60405180910390a350505050565b60008073ffffffffffffffffffffffffffffffffffffffff168273ffffffffffffffffffffffffffffffffffffffff16141561140a576040517f08c379a00000000000000000000000000000000000000000000000000000000081526004016114019061425f565b60405180910390fd5b600860008373ffffffffffffffffffffffffffffffffffffffff1673ffffffffffffffffffffffffffffffffffffffff168152602001908152602001600020549050919050565b61145a82611f97565b611499576040517f08c379a0000000000000000000000000000000000000000000000000000000008152600401611490906142f1565b60405180910390fd5b6114a383836121d3565b6114e2576040517f08c379a00000000000000000000000000000000000000000000000000000000081526004016114d990614196565b60405180910390fd5b60006114ec612112565b905061151c816000866114fe876125c8565b611507876125c8565b60405180602001604052806000815250612204565b8160026000858152602001908152602001600020600086815260200190815260200160002060008282546115509190613c7d565b92505081905550828173ffffffffffffffffffffffffffffffffffffffff167f73b5fbfbf0177b0de2ffe9fd0ae9887dd73d0d865db7ab5ff3c4a6b9bb8db1e3600087866040516115a393929190614311565b60405180910390a350505050565b6115ba816126a2565b50565b600060036000838152602001908152602001600020549050919050565b6060600680546115e990613913565b80601f016020809104026020016040519081016040528092919081815260200182805461161590613913565b80156116625780601f1061163757610100808354040283529160200191611662565b820191906000526020600020905b81548152906001019060200180831161164557829003601f168201915b5050505050905090565b606061167782611f97565b6116b6576040517f08c379a00000000000000000000000000000000000000000000000000000000081526004016116ad906143ba565b60405180910390fd5b60006001600084815260200190815260200160002060020180546116d990613913565b80601f016020809104026020016040519081016040528092919081815260200182805461170590613913565b80156117525780601f1061172757610100808354040283529160200191611752565b820191906000526020600020905b81548152906001019060200180831161173557829003601f168201915b50505050509050600081511115611795578061176d846126f5565b60405160200161177e929190614416565b6040516020818303038152906040529150506117ef565b60008080546117a390613913565b9050116117bf57604051806020016040528060008152506117eb565b60006117ca846126f5565b6040516020016117db9291906144ce565b6040516020818303038152906040525b9150505b919050565b6117fc612112565b73ffffffffffffffffffffffffffffffffffffffff168273ffffffffffffffffffffffffffffffffffffffff16141561186a576040517f08c379a00000000000000000000000000000000000000000000000000000000081526004016118619061453e565b60405180910390fd5b80600a6000611877612112565b73ffffffffffffffffffffffffffffffffffffffff1673ffffffffffffffffffffffffffffffffffffffff16815260200190815260200160002060008473ffffffffffffffffffffffffffffffffffffffff1673ffffffffffffffffffffffffffffffffffffffff16815260200190815260200160002060006101000a81548160ff0219169083151502179055508173ffffffffffffffffffffffffffffffffffffffff16611924612112565b73ffffffffffffffffffffffffffffffffffffffff167f17307eab39ab6107e8899845ad3d59bd9653f200f220920489ca2b5937696c31836040516119699190613199565b60405180910390a35050565b600f805461198290613913565b80601f01602080910402602001604051908101604052809291908181526020018280546119ae90613913565b80156119fb5780601f106119d0576101008083540402835291602001916119fb565b820191906000526020600020905b8154815290600101906020018083116119de57829003601f168201915b505050505081565b611a0c82611f97565b611a4b576040517f08c379a0000000000000000000000000000000000000000000000000000000008152600401611a42906145d0565b60405180910390fd5b6000611a55612112565b9050611a8581600086611a67876125c8565b611a70876125c8565b60405180602001604052806000815250612204565b6000600260008581526020019081526020016000206000868152602001908152602001600020541415611aed57600460008581526020019081526020016000208390806001815401808255809150506001900390600052602060002001600090919091909150555b816002600085815260200190815260200160002060008681526020019081526020016000206000828254611b219190613c7d565b92505081905550828173ffffffffffffffffffffffffffffffffffffffff167f73b5fbfbf0177b0de2ffe9fd0ae9887dd73d0d865db7ab5ff3c4a6b9bb8db1e360008786604051611b7493929190614311565b60405180910390a350505050565b611b93611b8d612112565b83612468565b611bd2576040517f08c379a0000000000000000000000000000000000000000000000000000000008152600401611bc990613f4e565b60405180910390fd5b611bde84848484612856565b50505050565b600e8054611bf190613913565b80601f0160208091040260200160405190810160405280929190818152602001828054611c1d90613913565b8015611c6a5780601f10611c3f57610100808354040283529160200191611c6a565b820191906000526020600020905b815481529060010190602001808311611c4d57829003601f168201915b505050505081565b6060611c7d826120a6565b611cbc576040517f08c379a0000000000000000000000000000000000000000000000000000000008152600401611cb390614662565b60405180910390fd5b6000611cc66128b2565b90506000815111611ce65760405180602001604052806000815250611d17565b600f81611cf2856126f5565b600e604051602001611d079493929190614682565b6040516020818303038152906040525b915050919050565b6002602052816000526040600020602052806000526040600020600091509150505481565b6000600a60008473ffffffffffffffffffffffffffffffffffffffff1673ffffffffffffffffffffffffffffffffffffffff16815260200190815260200160002060008373ffffffffffffffffffffffffffffffffffffffff1673ffffffffffffffffffffffffffffffffffffffff16815260200190815260200160002060009054906101000a900460ff16905092915050565b600060026000838152602001908152602001600020600084815260200190815260200160002054905092915050565b611e1082611f97565b611e4f576040517f08c379a0000000000000000000000000000000000000000000000000000000008152600401611e4690614732565b60405180910390fd5b611e5983836121d3565b611e98576040517f08c379a0000000000000000000000000000000000000000000000000000000008152600401611e8f90614196565b60405180910390fd5b6000611ea2612112565b9050611ed281856000611eb4876125c8565b611ebd876125c8565b60405180602001604052806000815250612204565b600060026000858152602001908152602001600020600086815260200190815260200160002054905082811015611f0857600080fd5b8281611f149190614752565b60026000868152602001908152602001600020600087815260200190815260200160002081905550838273ffffffffffffffffffffffffffffffffffffffff167f73b5fbfbf0177b0de2ffe9fd0ae9887dd73d0d865db7ab5ff3c4a6b9bb8db1e387600087604051611f88939291906141b6565b60405180910390a35050505050565b60006001600083815260200190815260200160002060030160009054906101000a900460ff169050919050565b60007f80ac58cd000000000000000000000000000000000000000000000000000000007bffffffffffffffffffffffffffffffffffffffffffffffffffffffff1916827bffffffffffffffffffffffffffffffffffffffffffffffffffffffff1916148061208f57507f5b5e139f000000000000000000000000000000000000000000000000000000007bffffffffffffffffffffffffffffffffffffffffffffffffffffffff1916827bffffffffffffffffffffffffffffffffffffffffffffffffffffffff1916145b8061209f575061209e82612944565b5b9050919050565b60008073ffffffffffffffffffffffffffffffffffffffff166007600084815260200190815260200160002060009054906101000a900473ffffffffffffffffffffffffffffffffffffffff1673ffffffffffffffffffffffffffffffffffffffff1614159050919050565b600033905090565b816009600083815260200190815260200160002060006101000a81548173ffffffffffffffffffffffffffffffffffffffff021916908373ffffffffffffffffffffffffffffffffffffffff160217905550808273ffffffffffffffffffffffffffffffffffffffff1661218d8361115b565b73ffffffffffffffffffffffffffffffffffffffff167f8c5be1e5ebec7d5bd14f71427d1e84f3dd0314c0f7b2291e5b200ac8c7c3b92560405160405180910390a45050565b6000806002600084815260200190815260200160002060008581526020019081526020016000205411905092915050565b505050505050565b8273ffffffffffffffffffffffffffffffffffffffff1661222c8261115b565b73ffffffffffffffffffffffffffffffffffffffff1614612282576040517f08c379a0000000000000000000000000000000000000000000000000000000008152600401612279906147f8565b60405180910390fd5b600073ffffffffffffffffffffffffffffffffffffffff168273ffffffffffffffffffffffffffffffffffffffff1614156122f2576040517f08c379a00000000000000000000000000000000000000000000000000000000081526004016122e99061488a565b60405180910390fd5b6122fd838383612a26565b61230860008261211a565b6001600860008573ffffffffffffffffffffffffffffffffffffffff1673ffffffffffffffffffffffffffffffffffffffff16815260200190815260200160002060008282546123589190614752565b925050819055506001600860008473ffffffffffffffffffffffffffffffffffffffff1673ffffffffffffffffffffffffffffffffffffffff16815260200190815260200160002060008282546123af9190613c7d565b92505081905550816007600083815260200190815260200160002060006101000a81548173ffffffffffffffffffffffffffffffffffffffff021916908373ffffffffffffffffffffffffffffffffffffffff160217905550808273ffffffffffffffffffffffffffffffffffffffff168473ffffffffffffffffffffffffffffffffffffffff167fddf252ad1be2c89b69c2b068fc378daa952ba7f163c4a11628f55a4df523b3ef60405160405180910390a4505050565b6000612473826120a6565b6124b2576040517f08c379a00000000000000000000000000000000000000000000000000000000081526004016124a99061491c565b60405180910390fd5b60006124bd8361115b565b90508073ffffffffffffffffffffffffffffffffffffffff168473ffffffffffffffffffffffffffffffffffffffff16148061252c57508373ffffffffffffffffffffffffffffffffffffffff166125148461093d565b73ffffffffffffffffffffffffffffffffffffffff16145b8061253d575061253c8185611d44565b5b91505092915050565b612560828260405180602001604052806000815250612a2b565b5050565b60006003826125739190613e82565b600c546125809190613c7d565b9050612598306000836125939190613c7d565b612a86565b6125ae306001836125a99190613c7d565b612a86565b6125c4306002836125bf9190613c7d565b612a86565b5050565b60606000600167ffffffffffffffff8111156125e7576125e6613664565b5b6040519080825280602002602001820160405280156126155781602001602082028036833780820191505090505b509050828160008151811061262d5761262c613b8d565b5b60200260200101818152505080915050919050565b60005b8183828154811061265957612658613b8d565b5b90600052602060002001541461267c57808061267490613cd3565b915050612645565b82818154811061268f5761268e613b8d565b5b9060005260206000200160009055505050565b6126ab81612c54565b6000600b600083815260200190815260200160002080546126cb90613913565b9050146126f257600b600082815260200190815260200160002060006126f19190612f6a565b5b50565b6060600082141561273d576040518060400160405280600181526020017f30000000000000000000000000000000000000000000000000000000000000008152509050612851565b600082905060005b6000821461276f57808061275890613cd3565b915050600a82612768919061496b565b9150612745565b60008167ffffffffffffffff81111561278b5761278a613664565b5b6040519080825280601f01601f1916602001820160405280156127bd5781602001600182028036833780820191505090505b5090505b6000851461284a576001826127d69190614752565b9150600a856127e5919061499c565b60306127f19190613c7d565b60f81b81838151811061280757612806613b8d565b5b60200101907effffffffffffffffffffffffffffffffffffffffffffffffffffffffffffff1916908160001a905350600a85612843919061496b565b94506127c1565b8093505050505b919050565b61286184848461220c565b61286d84848484612d65565b6128ac576040517f08c379a00000000000000000000000000000000000000000000000000000000081526004016128a390614a3f565b60405180910390fd5b50505050565b6060601080546128c190613913565b80601f01602080910402602001604051908101604052809291908181526020018280546128ed90613913565b801561293a5780601f1061290f5761010080835404028352916020019161293a565b820191906000526020600020905b81548152906001019060200180831161291d57829003601f168201915b5050505050905090565b60007f8ee1b373000000000000000000000000000000000000000000000000000000007bffffffffffffffffffffffffffffffffffffffffffffffffffffffff1916827bffffffffffffffffffffffffffffffffffffffffffffffffffffffff19161480612a0f57507fd5298fa3000000000000000000000000000000000000000000000000000000007bffffffffffffffffffffffffffffffffffffffffffffffffffffffff1916827bffffffffffffffffffffffffffffffffffffffffffffffffffffffff1916145b80612a1f5750612a1e82612eed565b5b9050919050565b505050565b612a358383612a86565b612a426000848484612d65565b612a81576040517f08c379a0000000000000000000000000000000000000000000000000000000008152600401612a7890614a3f565b60405180910390fd5b505050565b600073ffffffffffffffffffffffffffffffffffffffff168273ffffffffffffffffffffffffffffffffffffffff161415612af6576040517f08c379a0000000000000000000000000000000000000000000000000000000008152600401612aed90614aab565b60405180910390fd5b612aff816120a6565b15612b3f576040517f08c379a0000000000000000000000000000000000000000000000000000000008152600401612b3690614b17565b60405180910390fd5b612b4b60008383612a26565b6001600860008473ffffffffffffffffffffffffffffffffffffffff1673ffffffffffffffffffffffffffffffffffffffff1681526020019081526020016000206000828254612b9b9190613c7d565b92505081905550816007600083815260200190815260200160002060006101000a81548173ffffffffffffffffffffffffffffffffffffffff021916908373ffffffffffffffffffffffffffffffffffffffff160217905550808273ffffffffffffffffffffffffffffffffffffffff16600073ffffffffffffffffffffffffffffffffffffffff167fddf252ad1be2c89b69c2b068fc378daa952ba7f163c4a11628f55a4df523b3ef60405160405180910390a45050565b6000612c5f8261115b565b9050612c6d81600084612a26565b612c7860008361211a565b6001600860008373ffffffffffffffffffffffffffffffffffffffff1673ffffffffffffffffffffffffffffffffffffffff1681526020019081526020016000206000828254612cc89190614752565b925050819055506007600083815260200190815260200160002060006101000a81549073ffffffffffffffffffffffffffffffffffffffff021916905581600073ffffffffffffffffffffffffffffffffffffffff168273ffffffffffffffffffffffffffffffffffffffff167fddf252ad1be2c89b69c2b068fc378daa952ba7f163c4a11628f55a4df523b3ef60405160405180910390a45050565b6000612d868473ffffffffffffffffffffffffffffffffffffffff16612f57565b15612ee0578373ffffffffffffffffffffffffffffffffffffffff1663150b7a02612daf612112565b8786866040518563ffffffff1660e01b8152600401612dd19493929190614b8c565b6020604051808303816000875af1925050508015612e0d57506040513d601f19601f82011682018060405250810190612e0a9190614bed565b60015b612e90573d8060008114612e3d576040519150601f19603f3d011682016040523d82523d6000602084013e612e42565b606091505b50600081511415612e88576040517f08c379a0000000000000000000000000000000000000000000000000000000008152600401612e7f90614a3f565b60405180910390fd5b805181602001fd5b63150b7a0260e01b7bffffffffffffffffffffffffffffffffffffffffffffffffffffffff1916817bffffffffffffffffffffffffffffffffffffffffffffffffffffffff191614915050612ee5565b600190505b949350505050565b60007f01ffc9a7000000000000000000000000000000000000000000000000000000007bffffffffffffffffffffffffffffffffffffffffffffffffffffffff1916827bffffffffffffffffffffffffffffffffffffffffffffffffffffffff1916149050919050565b600080823b905060008111915050919050565b508054612f7690613913565b6000825580601f10612f885750612fa7565b601f016020900490600052602060002090810190612fa69190612faa565b5b50565b5b80821115612fc3576000816000905550600101612fab565b5090565b6000604051905090565b600080fd5b600080fd5b6000819050919050565b612fee81612fdb565b8114612ff957600080fd5b50565b60008135905061300b81612fe5565b92915050565b60006020828403121561302757613026612fd1565b5b600061303584828501612ffc565b91505092915050565b600081519050919050565b600082825260208201905092915050565b60005b8381101561307857808201518184015260208101905061305d565b83811115613087576000848401525b50505050565b6000601f19601f8301169050919050565b60006130a98261303e565b6130b38185613049565b93506130c381856020860161305a565b6130cc8161308d565b840191505092915050565b600060208201905081810360008301526130f1818461309e565b905092915050565b60007fffffffff0000000000000000000000000000000000000000000000000000000082169050919050565b61312e816130f9565b811461313957600080fd5b50565b60008135905061314b81613125565b92915050565b60006020828403121561316757613166612fd1565b5b60006131758482850161313c565b91505092915050565b60008115159050919050565b6131938161317e565b82525050565b60006020820190506131ae600083018461318a565b92915050565b600073ffffffffffffffffffffffffffffffffffffffff82169050919050565b60006131df826131b4565b9050919050565b6131ef816131d4565b82525050565b600060208201905061320a60008301846131e6565b92915050565b600081519050919050565b600082825260208201905092915050565b6000819050602082019050919050565b61324581612fdb565b82525050565b6000613257838361323c565b60208301905092915050565b6000602082019050919050565b600061327b82613210565b613285818561321b565b93506132908361322c565b8060005b838110156132c15781516132a8888261324b565b97506132b383613263565b925050600181019050613294565b5085935050505092915050565b600060208201905081810360008301526132e88184613270565b905092915050565b6132f9816131d4565b811461330457600080fd5b50565b600081359050613316816132f0565b92915050565b6000806040838503121561333357613332612fd1565b5b600061334185828601613307565b925050602061335285828601612ffc565b9150509250929050565b6000806040838503121561337357613372612fd1565b5b600061338185828601612ffc565b925050602061339285828601612ffc565b9150509250929050565b600080fd5b600080fd5b600080fd5b60008083601f8401126133c1576133c061339c565b5b8235905067ffffffffffffffff8111156133de576133dd6133a1565b5b6020830191508360208202830111156133fa576133f96133a6565b5b9250929050565b60008060008060006060868803121561341d5761341c612fd1565b5b600061342b88828901612ffc565b955050602086013567ffffffffffffffff81111561344c5761344b612fd6565b5b613458888289016133ab565b9450945050604086013567ffffffffffffffff81111561347b5761347a612fd6565b5b613487888289016133ab565b92509250509295509295909350565b61349f81612fdb565b82525050565b60006020820190506134ba6000830184613496565b92915050565b6000806000606084860312156134d9576134d8612fd1565b5b60006134e786828701613307565b93505060206134f886828701613307565b925050604061350986828701612ffc565b9150509250925092565b60008060006040848603121561352c5761352b612fd1565b5b600061353a86828701612ffc565b935050602084013567ffffffffffffffff81111561355b5761355a612fd6565b5b613567868287016133ab565b92509250509250925092565b60006020828403121561358957613588612fd1565b5b600061359784828501613307565b91505092915050565b6000806000606084860312156135b9576135b8612fd1565b5b60006135c786828701612ffc565b93505060206135d886828701612ffc565b92505060406135e986828701612ffc565b9150509250925092565b6135fc8161317e565b811461360757600080fd5b50565b600081359050613619816135f3565b92915050565b6000806040838503121561363657613635612fd1565b5b600061364485828601613307565b92505060206136558582860161360a565b9150509250929050565b600080fd5b7f4e487b7100000000000000000000000000000000000000000000000000000000600052604160045260246000fd5b61369c8261308d565b810181811067ffffffffffffffff821117156136bb576136ba613664565b5b80604052505050565b60006136ce612fc7565b90506136da8282613693565b919050565b600067ffffffffffffffff8211156136fa576136f9613664565b5b6137038261308d565b9050602081019050919050565b82818337600083830152505050565b600061373261372d846136df565b6136c4565b90508281526020810184848401111561374e5761374d61365f565b5b613759848285613710565b509392505050565b600082601f8301126137765761377561339c565b5b813561378684826020860161371f565b91505092915050565b600080600080608085870312156137a9576137a8612fd1565b5b60006137b787828801613307565b94505060206137c887828801613307565b93505060406137d987828801612ffc565b925050606085013567ffffffffffffffff8111156137fa576137f9612fd6565b5b61380687828801613761565b91505092959194509250565b6000806040838503121561382957613828612fd1565b5b600061383785828601613307565b925050602061384885828601613307565b9150509250929050565b7f455243333636343a206e616d6520717565727920666f72206e6f6e657869737460008201527f656e742061747472696275746500000000000000000000000000000000000000602082015250565b60006138ae602d83613049565b91506138b982613852565b604082019050919050565b600060208201905081810360008301526138dd816138a1565b9050919050565b7f4e487b7100000000000000000000000000000000000000000000000000000000600052602260045260246000fd5b6000600282049050600182168061392b57607f821691505b6020821081141561393f5761393e6138e4565b5b50919050565b7f4552433732313a20617070726f76656420717565727920666f72206e6f6e657860008201527f697374656e7420746f6b656e0000000000000000000000000000000000000000602082015250565b60006139a1602c83613049565b91506139ac82613945565b604082019050919050565b600060208201905081810360008301526139d081613994565b9050919050565b7f4552433732313a20617070726f76616c20746f2063757272656e74206f776e6560008201527f7200000000000000000000000000000000000000000000000000000000000000602082015250565b6000613a33602183613049565b9150613a3e826139d7565b604082019050919050565b60006020820190508181036000830152613a6281613a26565b9050919050565b7f4552433732313a20617070726f76652063616c6c6572206973206e6f74206f7760008201527f6e6572206e6f7220617070726f76656420666f7220616c6c0000000000000000602082015250565b6000613ac5603883613049565b9150613ad082613a69565b604082019050919050565b60006020820190508181036000830152613af481613ab8565b9050919050565b7f455243333636343a20746f6b656e20686173206e6f742061747461636865642060008201527f7468652061747472696275746500000000000000000000000000000000000000602082015250565b6000613b57602d83613049565b9150613b6282613afb565b604082019050919050565b60006020820190508181036000830152613b8681613b4a565b9050919050565b7f4e487b7100000000000000000000000000000000000000000000000000000000600052603260045260246000fd5b7f455243333636343a20626174636841747461636820666f72206e6f6e6578697360008201527f74656e7420617474726962757465000000000000000000000000000000000000602082015250565b6000613c18602e83613049565b9150613c2382613bbc565b604082019050919050565b60006020820190508181036000830152613c4781613c0b565b9050919050565b7f4e487b7100000000000000000000000000000000000000000000000000000000600052601160045260246000fd5b6000613c8882612fdb565b9150613c9383612fdb565b9250827fffffffffffffffffffffffffffffffffffffffffffffffffffffffffffffffff03821115613cc857613cc7613c4e565b5b828201905092915050565b6000613cde82612fdb565b91507fffffffffffffffffffffffffffffffffffffffffffffffffffffffffffffffff821415613d1157613d10613c4e565b5b600182019050919050565b600081905092915050565b600080fd5b6000613d388385613d1c565b93507f07ffffffffffffffffffffffffffffffffffffffffffffffffffffffffffffff831115613d6b57613d6a613d27565b5b602083029250613d7c838584613710565b82840190509392505050565b6000613d95828486613d2c565b91508190509392505050565b6000819050919050565b6000819050919050565b6000613dd0613dcb613dc684613da1565b613dab565b612fdb565b9050919050565b613de081613db5565b82525050565b6000613df2838561321b565b93507f07ffffffffffffffffffffffffffffffffffffffffffffffffffffffffffffff831115613e2557613e24613d27565b5b602083029250613e36838584613710565b82840190509392505050565b6000606082019050613e576000830187613dd7565b613e646020830186613496565b8181036040830152613e77818486613de6565b905095945050505050565b6000613e8d82612fdb565b9150613e9883612fdb565b9250817fffffffffffffffffffffffffffffffffffffffffffffffffffffffffffffffff0483118215151615613ed157613ed0613c4e565b5b828202905092915050565b7f4552433732313a207472616e736665722063616c6c6572206973206e6f74206f60008201527f776e6572206e6f7220617070726f766564000000000000000000000000000000602082015250565b6000613f38603183613049565b9150613f4382613edc565b604082019050919050565b60006020820190508181036000830152613f6781613f2b565b9050919050565b7f455243333636343a2073796d626f6c20717565727920666f72206e6f6e65786960008201527f7374656e74206174747269627574650000000000000000000000000000000000602082015250565b6000613fca602f83613049565b9150613fd582613f6e565b604082019050919050565b60006020820190508181036000830152613ff981613fbd565b9050919050565b7f4552433732313a206f776e657220717565727920666f72206e6f6e657869737460008201527f656e7420746f6b656e0000000000000000000000000000000000000000000000602082015250565b600061405c602983613049565b915061406782614000565b604082019050919050565b6000602082019050818103600083015261408b8161404f565b9050919050565b7f45524333363634557064617461626c653a2072656d6f766520666f72206e6f6e60008201527f6578697374656e74206174747269627574650000000000000000000000000000602082015250565b60006140ee603283613049565b91506140f982614092565b604082019050919050565b6000602082019050818103600083015261411d816140e1565b9050919050565b7f45524333363634557064617461626c653a20746f6b656e20686173206e6f742060008201527f6174746163686564207468652061747472696275746500000000000000000000602082015250565b6000614180603683613049565b915061418b82614124565b604082019050919050565b600060208201905081810360008301526141af81614173565b9050919050565b60006060820190506141cb6000830186613496565b6141d86020830185613dd7565b6141e56040830184613496565b949350505050565b7f4552433732313a2062616c616e636520717565727920666f7220746865207a6560008201527f726f206164647265737300000000000000000000000000000000000000000000602082015250565b6000614249602a83613049565b9150614254826141ed565b604082019050919050565b600060208201905081810360008301526142788161423c565b9050919050565b7f45524333363634557064617461626c653a20696e63726561736520666f72206e60008201527f6f6e6578697374656e7420617474726962757465000000000000000000000000602082015250565b60006142db603483613049565b91506142e68261427f565b604082019050919050565b6000602082019050818103600083015261430a816142ce565b9050919050565b60006060820190506143266000830186613dd7565b6143336020830185613496565b6143406040830184613496565b949350505050565b7f455243333636343a2055524920717565727920666f72206e6f6e65786973746560008201527f6e74206174747269627574650000000000000000000000000000000000000000602082015250565b60006143a4602c83613049565b91506143af82614348565b604082019050919050565b600060208201905081810360008301526143d381614397565b9050919050565b600081905092915050565b60006143f08261303e565b6143fa81856143da565b935061440a81856020860161305a565b80840191505092915050565b600061442282856143e5565b915061442e82846143e5565b91508190509392505050565b60008190508160005260206000209050919050565b6000815461445c81613913565b61446681866143da565b945060018216600081146144815760018114614492576144c5565b60ff198316865281860193506144c5565b61449b8561443a565b60005b838110156144bd5781548189015260018201915060208101905061449e565b838801955050505b50505092915050565b60006144da828561444f565b91506144e682846143e5565b91508190509392505050565b7f4552433732313a20617070726f766520746f2063616c6c657200000000000000600082015250565b6000614528601983613049565b9150614533826144f2565b602082019050919050565b600060208201905081810360008301526145578161451b565b9050919050565b7f455243333636343a2061747461636820666f72206e6f6e6578697374656e742060008201527f6174747269627574650000000000000000000000000000000000000000000000602082015250565b60006145ba602983613049565b91506145c58261455e565b604082019050919050565b600060208201905081810360008301526145e9816145ad565b9050919050565b7f4552433732314d657461646174613a2055524920717565727920666f72206e6f60008201527f6e6578697374656e7420746f6b656e0000000000000000000000000000000000602082015250565b600061464c602f83613049565b9150614657826145f0565b604082019050919050565b6000602082019050818103600083015261467b8161463f565b9050919050565b600061468e828761444f565b915061469a82866143e5565b91506146a682856143e5565b91506146b2828461444f565b915081905095945050505050565b7f45524333363634557064617461626c653a20646563726561736520666f72206e60008201527f6f6e6578697374656e7420617474726962757465000000000000000000000000602082015250565b600061471c603483613049565b9150614727826146c0565b604082019050919050565b6000602082019050818103600083015261474b8161470f565b9050919050565b600061475d82612fdb565b915061476883612fdb565b92508282101561477b5761477a613c4e565b5b828203905092915050565b7f4552433732313a207472616e73666572206f6620746f6b656e2074686174206960008201527f73206e6f74206f776e0000000000000000000000000000000000000000000000602082015250565b60006147e2602983613049565b91506147ed82614786565b604082019050919050565b60006020820190508181036000830152614811816147d5565b9050919050565b7f4552433732313a207472616e7366657220746f20746865207a65726f2061646460008201527f7265737300000000000000000000000000000000000000000000000000000000602082015250565b6000614874602483613049565b915061487f82614818565b604082019050919050565b600060208201905081810360008301526148a381614867565b9050919050565b7f4552433732313a206f70657261746f7220717565727920666f72206e6f6e657860008201527f697374656e7420746f6b656e0000000000000000000000000000000000000000602082015250565b6000614906602c83613049565b9150614911826148aa565b604082019050919050565b60006020820190508181036000830152614935816148f9565b9050919050565b7f4e487b7100000000000000000000000000000000000000000000000000000000600052601260045260246000fd5b600061497682612fdb565b915061498183612fdb565b9250826149915761499061493c565b5b828204905092915050565b60006149a782612fdb565b91506149b283612fdb565b9250826149c2576149c161493c565b5b828206905092915050565b7f4552433732313a207472616e7366657220746f206e6f6e20455243373231526560008201527f63656976657220696d706c656d656e7465720000000000000000000000000000602082015250565b6000614a29603283613049565b9150614a34826149cd565b604082019050919050565b60006020820190508181036000830152614a5881614a1c565b9050919050565b7f4552433732313a206d696e7420746f20746865207a65726f2061646472657373600082015250565b6000614a95602083613049565b9150614aa082614a5f565b602082019050919050565b60006020820190508181036000830152614ac481614a88565b9050919050565b7f4552433732313a20746f6b656e20616c7265616479206d696e74656400000000600082015250565b6000614b01601c83613049565b9150614b0c82614acb565b602082019050919050565b60006020820190508181036000830152614b3081614af4565b9050919050565b600081519050919050565b600082825260208201905092915050565b6000614b5e82614b37565b614b688185614b42565b9350614b7881856020860161305a565b614b818161308d565b840191505092915050565b6000608082019050614ba160008301876131e6565b614bae60208301866131e6565b614bbb6040830185613496565b8181036060830152614bcd8184614b53565b905095945050505050565b600081519050614be781613125565b92915050565b600060208284031215614c0357614c02612fd1565b5b6000614c1184828501614bd8565b9150509291505056fea2646970667358221220f291fe40414f24d58eff46faed4f48f7f4dbd14db8432023b57d13605d70c8e264736f6c634300080b0033516d634d35524a65516453747a4471707971566253765765723342536b7978386a316b797047706b776d62684c672f",
  "immutableReferences": {},
  "source": "pragma solidity ^0.8.0;\n\nimport \"./ERC3664/extensions/ERC3664Updatable.sol\";\nimport \"openzeppelin-solidity/contracts/token/ERC721/extensions/ERC721URIStorage.sol\";\n\n\ncontract Character is ERC3664Updatable, ERC721URIStorage{\n    using Strings for uint256;\n\n    uint256 private totalSupply = 10;\n    uint256 private attrQuantity;\n    string public baseExtension = \".json\";\n    string public baseHeader = \"ipfs://\";\n    string baseURI;\n\n    constructor() ERC721(\"Item_nft\", \"ITEM\") ERC3664(\"http://localhost:3000/\"){\n        attrQuantity = 3;\n        _mint(0, 'attack', 'ATTACK', '');\n        _mint(1, 'speed', 'SPEED', '');\n        _mint(2, 'defense', 'DEFENSE', '');\n        baseURI = \"QmcM5RJeQdStzDqpyqVbSvWer3BSkyx8j1kypGpkwmbhLg/\";\n    }\n\n    function supportsInterface(bytes4 interfaceId)\n        public\n        view\n        virtual\n        override(ERC3664, ERC721)\n    returns (bool)\n    {\n        return super.supportsInterface(interfaceId);\n    }\n\n    function getAttrQuantity() external view returns(uint256){\n        return attrQuantity;\n    }\n\n    function mint(address to, uint256 tokenId) public {\n        _safeMint(to, tokenId);\n        _afterMintToken(tokenId);\n    }\n\n    function getAttrAmount(uint256 tokenId, uint attrId) public view returns(uint256){\n        return ERC3664.balanceOf(tokenId, attrId);\n    }\n    function getAttrName(uint256 attrId) public view returns(string memory){\n        return ERC3664.name(attrId);\n    }\n\n    function _baseURI() internal view virtual override returns(string memory){\n        return baseURI;\n    }\n\n    function tokenURI(uint256 tokenId)\n        public\n        view\n        virtual\n        override\n        returns (string memory)\n    {\n        require(\n            _exists(tokenId),\n            \"ERC721Metadata: URI query for nonexistent token\"\n        );\n\n        string memory currentBaseURI = _baseURI();\n        return\n            bytes(currentBaseURI).length > 0\n                ? string(\n                    abi.encodePacked(\n                        baseHeader,\n                        currentBaseURI,\n                        tokenId.toString(),\n                        baseExtension\n                    )\n                )\n                : \"\";\n    }\n    function burnToken(uint256 tokenId) public {\n        _burn(tokenId);\n    }\n\n    function hasAttr(uint256 tokenId, uint256 attrId) external view returns(bool){\n        return  _hasAttr(tokenId, attrId);\n    }\n\n    function _afterMintToken(uint256 tokenId) internal {\n        uint256 id = totalSupply + tokenId * 3;\n        _mint(address(this), id + 0);\n        _mint(address(this), id + 1);\n        _mint(address(this), id + 2);\n    }\n\n    function seperate(uint256 tokenId, uint256 attrId) external {\n        uint256 id = totalSupply + tokenId * 3;\n        remove(tokenId, attrId);\n        _transfer(address(this), ownerOf(tokenId), id + attrId);\n    }\n}\n",
  "sourcePath": "/Users/li/Character/src/contracts/Character.sol",
  "compiler": {
    "name": "solc",
    "version": "0.8.11+commit.d7f03943.Emscripten.clang"
  },
  "schemaVersion": "3.4.4",
  "updatedAt": "2022-02-28T16:14:46.056Z",
  "networkType": "ethereum",
  "devdoc": {
    "kind": "dev",
    "methods": {
      "approve(address,uint256)": {
        "details": "See {IERC721-approve}."
      },
      "attach(uint256,uint256,uint256)": {
        "details": "See {IERC3664-attach}."
      },
      "attrURI(uint256)": {
        "details": "See {IERC721Metadata-attrURI}."
      },
      "attributesOf(uint256)": {
        "details": "See {IERC3664-attributesOf}."
      },
      "balanceOf(address)": {
        "details": "See {IERC721-balanceOf}."
      },
      "balanceOf(uint256,uint256)": {
        "details": "See {IERC3664-balanceOf}."
      },
      "balanceOfBatch(uint256,uint256[])": {
        "details": "See {IERC3664-balanceOfBatch}."
      },
      "batchAttach(uint256,uint256[],uint256[])": {
        "details": "See {IERC3664-batchAttach}."
      },
      "decrease(uint256,uint256,uint256)": {
        "details": "See {IERC3664Updatable-decrease}."
      },
      "getApproved(uint256)": {
        "details": "See {IERC721-getApproved}."
      },
      "increase(uint256,uint256,uint256)": {
        "details": "See {IERC3664Updatable-increase}."
      },
      "isApprovedForAll(address,address)": {
        "details": "See {IERC721-isApprovedForAll}."
      },
      "name()": {
        "details": "See {IERC721Metadata-name}."
      },
      "name(uint256)": {
        "details": "See {IERC3664Metadata-name}."
      },
      "ownerOf(uint256)": {
        "details": "See {IERC721-ownerOf}."
      },
      "primaryAttributeOf(uint256)": {
        "details": "See {IERC3664-primaryAttributeOf}."
      },
      "remove(uint256,uint256)": {
        "details": "See {IERC3664Updatable-remove}."
      },
      "safeTransferFrom(address,address,uint256)": {
        "details": "See {IERC721-safeTransferFrom}."
      },
      "safeTransferFrom(address,address,uint256,bytes)": {
        "details": "See {IERC721-safeTransferFrom}."
      },
      "setApprovalForAll(address,bool)": {
        "details": "See {IERC721-setApprovalForAll}."
      },
      "setPrimaryAttribute(uint256,uint256)": {
        "details": "See {IERC3664-setPrimaryAttribute}."
      },
      "symbol()": {
        "details": "See {IERC721Metadata-symbol}."
      },
      "symbol(uint256)": {
        "details": "See {IERC3664Metadata-symbol}."
      },
      "tokenURI(uint256)": {
        "details": "See {IERC721Metadata-tokenURI}."
      },
      "transferFrom(address,address,uint256)": {
        "details": "See {IERC721-transferFrom}."
      }
    },
    "version": 1
  },
  "userdoc": {
    "kind": "user",
    "methods": {},
    "version": 1
  }
}