{
  "contractName": "Character",
  "abi": [
    {
      "inputs": [],
      "stateMutability": "nonpayable",
      "type": "constructor"
    },
    {
      "anonymous": false,
      "inputs": [
        {
          "indexed": true,
          "internalType": "address",
          "name": "owner",
          "type": "address"
        },
        {
          "indexed": true,
          "internalType": "address",
          "name": "approved",
          "type": "address"
        },
        {
          "indexed": true,
          "internalType": "uint256",
          "name": "tokenId",
          "type": "uint256"
        }
      ],
      "name": "Approval",
      "type": "event"
    },
    {
      "anonymous": false,
      "inputs": [
        {
          "indexed": true,
          "internalType": "address",
          "name": "owner",
          "type": "address"
        },
        {
          "indexed": true,
          "internalType": "address",
          "name": "operator",
          "type": "address"
        },
        {
          "indexed": false,
          "internalType": "bool",
          "name": "approved",
          "type": "bool"
        }
      ],
      "name": "ApprovalForAll",
      "type": "event"
    },
    {
      "anonymous": false,
      "inputs": [
        {
          "indexed": true,
          "internalType": "uint256",
          "name": "attrId",
          "type": "uint256"
        },
        {
          "indexed": false,
          "internalType": "string",
          "name": "name",
          "type": "string"
        },
        {
          "indexed": false,
          "internalType": "string",
          "name": "symbol",
          "type": "string"
        },
        {
          "indexed": false,
          "internalType": "string",
          "name": "uri",
          "type": "string"
        }
      ],
      "name": "AttributeCreated",
      "type": "event"
    },
    {
      "anonymous": false,
      "inputs": [
        {
          "indexed": true,
          "internalType": "address",
          "name": "from",
          "type": "address"
        },
        {
          "indexed": true,
          "internalType": "address",
          "name": "to",
          "type": "address"
        },
        {
          "indexed": true,
          "internalType": "uint256",
          "name": "tokenId",
          "type": "uint256"
        }
      ],
      "name": "Transfer",
      "type": "event"
    },
    {
      "anonymous": false,
      "inputs": [
        {
          "indexed": true,
          "internalType": "address",
          "name": "operator",
          "type": "address"
        },
        {
          "indexed": false,
          "internalType": "uint256",
          "name": "from",
          "type": "uint256"
        },
        {
          "indexed": false,
          "internalType": "uint256",
          "name": "to",
          "type": "uint256"
        },
        {
          "indexed": true,
          "internalType": "uint256[]",
          "name": "attrIds",
          "type": "uint256[]"
        },
        {
          "indexed": false,
          "internalType": "uint256[]",
          "name": "values",
          "type": "uint256[]"
        }
      ],
      "name": "TransferBatch",
      "type": "event"
    },
    {
      "anonymous": false,
      "inputs": [
        {
          "indexed": true,
          "internalType": "address",
          "name": "operator",
          "type": "address"
        },
        {
          "indexed": false,
          "internalType": "uint256",
          "name": "from",
          "type": "uint256"
        },
        {
          "indexed": false,
          "internalType": "uint256",
          "name": "to",
          "type": "uint256"
        },
        {
          "indexed": true,
          "internalType": "uint256",
          "name": "attrId",
          "type": "uint256"
        },
        {
          "indexed": false,
          "internalType": "uint256",
          "name": "value",
          "type": "uint256"
        }
      ],
      "name": "TransferSingle",
      "type": "event"
    },
    {
      "inputs": [
        {
          "internalType": "address",
          "name": "to",
          "type": "address"
        },
        {
          "internalType": "uint256",
          "name": "tokenId",
          "type": "uint256"
        }
      ],
      "name": "approve",
      "outputs": [],
      "stateMutability": "nonpayable",
      "type": "function"
    },
    {
      "inputs": [
        {
          "internalType": "uint256",
          "name": "tokenId",
          "type": "uint256"
        },
        {
          "internalType": "uint256",
          "name": "attrId",
          "type": "uint256"
        },
        {
          "internalType": "uint256",
          "name": "amount",
          "type": "uint256"
        }
      ],
      "name": "attach",
      "outputs": [],
      "stateMutability": "nonpayable",
      "type": "function"
    },
    {
      "inputs": [
        {
          "internalType": "uint256",
          "name": "",
          "type": "uint256"
        },
        {
          "internalType": "uint256",
          "name": "",
          "type": "uint256"
        }
      ],
      "name": "attrBalances",
      "outputs": [
        {
          "internalType": "uint256",
          "name": "",
          "type": "uint256"
        }
      ],
      "stateMutability": "view",
      "type": "function",
      "constant": true
    },
    {
      "inputs": [
        {
          "internalType": "uint256",
          "name": "attrId",
          "type": "uint256"
        }
      ],
      "name": "attrURI",
      "outputs": [
        {
          "internalType": "string",
          "name": "",
          "type": "string"
        }
      ],
      "stateMutability": "view",
      "type": "function",
      "constant": true
    },
    {
      "inputs": [
        {
          "internalType": "uint256",
          "name": "tokenId",
          "type": "uint256"
        }
      ],
      "name": "attributesOf",
      "outputs": [
        {
          "internalType": "uint256[]",
          "name": "",
          "type": "uint256[]"
        }
      ],
      "stateMutability": "view",
      "type": "function",
      "constant": true
    },
    {
      "inputs": [
        {
          "internalType": "uint256",
          "name": "",
          "type": "uint256"
        },
        {
          "internalType": "uint256",
          "name": "",
          "type": "uint256"
        }
      ],
      "name": "attrs",
      "outputs": [
        {
          "internalType": "uint256",
          "name": "",
          "type": "uint256"
        }
      ],
      "stateMutability": "view",
      "type": "function",
      "constant": true
    },
    {
      "inputs": [
        {
          "internalType": "address",
          "name": "owner",
          "type": "address"
        }
      ],
      "name": "balanceOf",
      "outputs": [
        {
          "internalType": "uint256",
          "name": "",
          "type": "uint256"
        }
      ],
      "stateMutability": "view",
      "type": "function",
      "constant": true
    },
    {
      "inputs": [
        {
          "internalType": "uint256",
          "name": "tokenId",
          "type": "uint256"
        },
        {
          "internalType": "uint256",
          "name": "attrId",
          "type": "uint256"
        }
      ],
      "name": "balanceOf",
      "outputs": [
        {
          "internalType": "uint256",
          "name": "",
          "type": "uint256"
        }
      ],
      "stateMutability": "view",
      "type": "function",
      "constant": true
    },
    {
      "inputs": [
        {
          "internalType": "uint256",
          "name": "tokenId",
          "type": "uint256"
        },
        {
          "internalType": "uint256[]",
          "name": "attrIds",
          "type": "uint256[]"
        }
      ],
      "name": "balanceOfBatch",
      "outputs": [
        {
          "internalType": "uint256[]",
          "name": "",
          "type": "uint256[]"
        }
      ],
      "stateMutability": "view",
      "type": "function",
      "constant": true
    },
    {
      "inputs": [],
      "name": "baseExtension",
      "outputs": [
        {
          "internalType": "string",
          "name": "",
          "type": "string"
        }
      ],
      "stateMutability": "view",
      "type": "function",
      "constant": true
    },
    {
      "inputs": [
        {
          "internalType": "uint256",
          "name": "tokenId",
          "type": "uint256"
        },
        {
          "internalType": "uint256[]",
          "name": "attrIds",
          "type": "uint256[]"
        },
        {
          "internalType": "uint256[]",
          "name": "amounts",
          "type": "uint256[]"
        }
      ],
      "name": "batchAttach",
      "outputs": [],
      "stateMutability": "nonpayable",
      "type": "function"
    },
    {
      "inputs": [
        {
          "internalType": "uint256",
          "name": "tokenId",
          "type": "uint256"
        }
      ],
      "name": "getApproved",
      "outputs": [
        {
          "internalType": "address",
          "name": "",
          "type": "address"
        }
      ],
      "stateMutability": "view",
      "type": "function",
      "constant": true
    },
    {
      "inputs": [
        {
          "internalType": "address",
          "name": "owner",
          "type": "address"
        },
        {
          "internalType": "address",
          "name": "operator",
          "type": "address"
        }
      ],
      "name": "isApprovedForAll",
      "outputs": [
        {
          "internalType": "bool",
          "name": "",
          "type": "bool"
        }
      ],
      "stateMutability": "view",
      "type": "function",
      "constant": true
    },
    {
      "inputs": [
        {
          "internalType": "uint256",
          "name": "attrId",
          "type": "uint256"
        }
      ],
      "name": "name",
      "outputs": [
        {
          "internalType": "string",
          "name": "",
          "type": "string"
        }
      ],
      "stateMutability": "view",
      "type": "function",
      "constant": true
    },
    {
      "inputs": [],
      "name": "name",
      "outputs": [
        {
          "internalType": "string",
          "name": "",
          "type": "string"
        }
      ],
      "stateMutability": "view",
      "type": "function",
      "constant": true
    },
    {
      "inputs": [
        {
          "internalType": "uint256",
          "name": "tokenId",
          "type": "uint256"
        }
      ],
      "name": "ownerOf",
      "outputs": [
        {
          "internalType": "address",
          "name": "",
          "type": "address"
        }
      ],
      "stateMutability": "view",
      "type": "function",
      "constant": true
    },
    {
      "inputs": [
        {
          "internalType": "uint256",
          "name": "tokenId",
          "type": "uint256"
        }
      ],
      "name": "primaryAttributeOf",
      "outputs": [
        {
          "internalType": "uint256",
          "name": "",
          "type": "uint256"
        }
      ],
      "stateMutability": "view",
      "type": "function",
      "constant": true
    },
    {
      "inputs": [
        {
          "internalType": "address",
          "name": "from",
          "type": "address"
        },
        {
          "internalType": "address",
          "name": "to",
          "type": "address"
        },
        {
          "internalType": "uint256",
          "name": "tokenId",
          "type": "uint256"
        }
      ],
      "name": "safeTransferFrom",
      "outputs": [],
      "stateMutability": "nonpayable",
      "type": "function"
    },
    {
      "inputs": [
        {
          "internalType": "address",
          "name": "from",
          "type": "address"
        },
        {
          "internalType": "address",
          "name": "to",
          "type": "address"
        },
        {
          "internalType": "uint256",
          "name": "tokenId",
          "type": "uint256"
        },
        {
          "internalType": "bytes",
          "name": "_data",
          "type": "bytes"
        }
      ],
      "name": "safeTransferFrom",
      "outputs": [],
      "stateMutability": "nonpayable",
      "type": "function"
    },
    {
      "inputs": [
        {
          "internalType": "address",
          "name": "operator",
          "type": "address"
        },
        {
          "internalType": "bool",
          "name": "approved",
          "type": "bool"
        }
      ],
      "name": "setApprovalForAll",
      "outputs": [],
      "stateMutability": "nonpayable",
      "type": "function"
    },
    {
      "inputs": [
        {
          "internalType": "uint256",
          "name": "tokenId",
          "type": "uint256"
        },
        {
          "internalType": "uint256",
          "name": "attrId",
          "type": "uint256"
        }
      ],
      "name": "setPrimaryAttribute",
      "outputs": [],
      "stateMutability": "nonpayable",
      "type": "function"
    },
    {
      "inputs": [
        {
          "internalType": "uint256",
          "name": "attrId",
          "type": "uint256"
        }
      ],
      "name": "symbol",
      "outputs": [
        {
          "internalType": "string",
          "name": "",
          "type": "string"
        }
      ],
      "stateMutability": "view",
      "type": "function",
      "constant": true
    },
    {
      "inputs": [],
      "name": "symbol",
      "outputs": [
        {
          "internalType": "string",
          "name": "",
          "type": "string"
        }
      ],
      "stateMutability": "view",
      "type": "function",
      "constant": true
    },
    {
      "inputs": [
        {
          "internalType": "address",
          "name": "from",
          "type": "address"
        },
        {
          "internalType": "address",
          "name": "to",
          "type": "address"
        },
        {
          "internalType": "uint256",
          "name": "tokenId",
          "type": "uint256"
        }
      ],
      "name": "transferFrom",
      "outputs": [],
      "stateMutability": "nonpayable",
      "type": "function"
    },
    {
      "inputs": [
        {
          "internalType": "bytes4",
          "name": "interfaceId",
          "type": "bytes4"
        }
      ],
      "name": "supportsInterface",
      "outputs": [
        {
          "internalType": "bool",
          "name": "",
          "type": "bool"
        }
      ],
      "stateMutability": "view",
      "type": "function",
      "constant": true
    },
    {
      "inputs": [],
      "name": "getQuantity",
      "outputs": [
        {
          "internalType": "uint256",
          "name": "",
          "type": "uint256"
        }
      ],
      "stateMutability": "view",
      "type": "function",
      "constant": true
    },
    {
      "inputs": [
        {
          "internalType": "address",
          "name": "to",
          "type": "address"
        },
        {
          "internalType": "uint256",
          "name": "tokenId",
          "type": "uint256"
        }
      ],
      "name": "mint",
      "outputs": [],
      "stateMutability": "nonpayable",
      "type": "function"
    },
    {
      "inputs": [
        {
          "internalType": "uint256",
          "name": "tokenId",
          "type": "uint256"
        },
        {
          "internalType": "uint256",
          "name": "attrId",
          "type": "uint256"
        }
      ],
      "name": "get_attributeAmount",
      "outputs": [
        {
          "internalType": "uint256",
          "name": "",
          "type": "uint256"
        }
      ],
      "stateMutability": "view",
      "type": "function",
      "constant": true
    },
    {
      "inputs": [
        {
          "internalType": "uint256",
          "name": "attrId",
          "type": "uint256"
        }
      ],
      "name": "get_attrName",
      "outputs": [
        {
          "internalType": "string",
          "name": "",
          "type": "string"
        }
      ],
      "stateMutability": "view",
      "type": "function",
      "constant": true
    },
    {
      "inputs": [
        {
          "internalType": "uint256",
          "name": "tokenId",
          "type": "uint256"
        }
      ],
      "name": "tokenURI",
      "outputs": [
        {
          "internalType": "string",
          "name": "",
          "type": "string"
        }
      ],
      "stateMutability": "view",
      "type": "function",
      "constant": true
    }
  ],
  "bytecode": "0x60806040526040518060400160405280600581526020017f2e6a736f6e000000000000000000000000000000000000000000000000000000815250600d908051906020019062000051929190620004d0565b503480156200005f57600080fd5b506040518060400160405280600881526020017f4974656d5f6e66740000000000000000000000000000000000000000000000008152506040518060400160405280600481526020017f4954454d000000000000000000000000000000000000000000000000000000008152506040518060400160405280601681526020017f687474703a2f2f6c6f63616c686f73743a333030302f0000000000000000000081525062000113816200033260201b60201c565b5081600590805190602001906200012c929190620004d0565b50806006908051906020019062000145929190620004d0565b5050506003600c81905550620001de60006040518060400160405280600681526020017f61747461636b00000000000000000000000000000000000000000000000000008152506040518060400160405280600681526020017f41545441434b0000000000000000000000000000000000000000000000000000815250604051806020016040528060008152506200034e60201b60201c565b6200026c60016040518060400160405280600581526020017f73706565640000000000000000000000000000000000000000000000000000008152506040518060400160405280600581526020017f5350454544000000000000000000000000000000000000000000000000000000815250604051806020016040528060008152506200034e60201b60201c565b620002fa60026040518060400160405280600781526020017f646566656e7365000000000000000000000000000000000000000000000000008152506040518060400160405280600781526020017f444546454e534500000000000000000000000000000000000000000000000000815250604051806020016040528060008152506200034e60201b60201c565b604051806060016040528060368152602001620047c060369139600e90805190602001906200032b929190620004d0565b5062000773565b80600090805190602001906200034a929190620004d0565b5050565b6200035f84620004a360201b60201c565b15620003a2576040517f08c379a0000000000000000000000000000000000000000000000000000000008152600401620003999062000607565b60405180910390fd5b6000604051806080016040528085815260200184815260200183815260200160011515815250905080600160008781526020019081526020016000206000820151816000019080519060200190620003fc929190620004d0565b5060208201518160010190805190602001906200041b929190620004d0565b5060408201518160020190805190602001906200043a929190620004d0565b5060608201518160030160006101000a81548160ff021916908315150217905550905050847fe3c3c9bbda1d6ccb059320eed92d395bd49272efb8a675a188a9d1b4e4da4ce28585856040516200049493929190620006bc565b60405180910390a25050505050565b60006001600083815260200190815260200160002060030160009054906101000a900460ff169050919050565b828054620004de906200073d565b90600052602060002090601f0160209004810192826200050257600085556200054e565b82601f106200051d57805160ff19168380011785556200054e565b828001600101855582156200054e579182015b828111156200054d57825182559160200191906001019062000530565b5b5090506200055d919062000561565b5090565b5b808211156200057c57600081600090555060010162000562565b5090565b600082825260208201905092915050565b7f455243333636343a2061747472696275746520616c726561647920657869737460008201527f7300000000000000000000000000000000000000000000000000000000000000602082015250565b6000620005ef60218362000580565b9150620005fc8262000591565b604082019050919050565b600060208201905081810360008301526200062281620005e0565b9050919050565b600081519050919050565b60005b838110156200065457808201518184015260208101905062000637565b8381111562000664576000848401525b50505050565b6000601f19601f8301169050919050565b6000620006888262000629565b62000694818562000580565b9350620006a681856020860162000634565b620006b1816200066a565b840191505092915050565b60006060820190508181036000830152620006d881866200067b565b90508181036020830152620006ee81856200067b565b905081810360408301526200070481846200067b565b9050949350505050565b7f4e487b7100000000000000000000000000000000000000000000000000000000600052602260045260246000fd5b600060028204905060018216806200075657607f821691505b602082108114156200076d576200076c6200070e565b5b50919050565b61403d80620007836000396000f3fe608060405234801561001057600080fd5b50600436106101d95760003560e01c80635d12611011610104578063a22cb465116100a2578063c87b56dd11610071578063c87b56dd146105c2578063e829ffa1146105f2578063e985e9c514610622578063ea69963314610652576101d9565b8063a22cb46514610550578063b4101dce1461056c578063b88d4fde14610588578063c6682862146105a4576101d9565b806370a08231116100de57806370a08231146104a257806387e21d42146104d257806395d89b41146105025780639bc5ae5414610520576101d9565b80635d126110146104125780636352211e146104425780636f567b6614610472576101d9565b80631070717b1161017c5780633e1e8e251161014b5780633e1e8e251461037a57806340c10f19146103aa57806342842e0e146103c65780634e41a1fb146103e2576101d9565b80631070717b146102f6578063132e09e314610312578063169dbe6e1461032e57806323b872dd1461035e576101d9565b806306fdde03116101b857806306fdde031461025c578063081812fc1461027a57806309363c44146102aa578063095ea7b3146102da576101d9565b8062ad800c146101de5780630115949c1461020e57806301ffc9a71461022c575b600080fd5b6101f860048036038101906101f391906126e4565b610682565b60405161020591906127aa565b60405180910390f35b610216610772565b60405161022391906127db565b60405180910390f35b6102466004803603810190610241919061284e565b61077c565b6040516102539190612896565b60405180910390f35b61026461078e565b60405161027191906127aa565b60405180910390f35b610294600480360381019061028f91906126e4565b610820565b6040516102a191906128f2565b60405180910390f35b6102c460048036038101906102bf91906126e4565b6108a5565b6040516102d191906129cb565b60405180910390f35b6102f460048036038101906102ef9190612a19565b610910565b005b610310600480360381019061030b9190612a59565b610a28565b005b61032c60048036038101906103279190612afe565b610a8d565b005b61034860048036038101906103439190612a59565b610d38565b60405161035591906127db565b60405180910390f35b61037860048036038101906103739190612b93565b610d69565b005b610394600480360381019061038f91906126e4565b610dc9565b6040516103a191906127aa565b60405180910390f35b6103c460048036038101906103bf9190612a19565b610ddb565b005b6103e060048036038101906103db9190612b93565b610de9565b005b6103fc60048036038101906103f791906126e4565b610e09565b60405161040991906127aa565b60405180910390f35b61042c60048036038101906104279190612be6565b610ef9565b60405161043991906129cb565b60405180910390f35b61045c600480360381019061045791906126e4565b610fb8565b60405161046991906128f2565b60405180910390f35b61048c60048036038101906104879190612a59565b61106a565b60405161049991906127db565b60405180910390f35b6104bc60048036038101906104b79190612c46565b61107e565b6040516104c991906127db565b60405180910390f35b6104ec60048036038101906104e791906126e4565b611136565b6040516104f991906127db565b60405180910390f35b61050a611153565b60405161051791906127aa565b60405180910390f35b61053a600480360381019061053591906126e4565b6111e5565b60405161054791906127aa565b60405180910390f35b61056a60048036038101906105659190612c9f565b61136d565b005b61058660048036038101906105819190612cdf565b6114ee565b005b6105a2600480360381019061059d9190612e62565b61166d565b005b6105ac6116cf565b6040516105b991906127aa565b60405180910390f35b6105dc60048036038101906105d791906126e4565b61175d565b6040516105e991906127aa565b60405180910390f35b61060c60048036038101906106079190612a59565b611807565b60405161061991906127db565b60405180910390f35b61063c60048036038101906106379190612ee5565b61182c565b6040516106499190612896565b60405180910390f35b61066c60048036038101906106679190612a59565b6118c0565b60405161067991906127db565b60405180910390f35b606061068d826118ef565b6106cc576040517f08c379a00000000000000000000000000000000000000000000000000000000081526004016106c390612f97565b60405180910390fd5b6001600083815260200190815260200160002060000180546106ed90612fe6565b80601f016020809104026020016040519081016040528092919081815260200182805461071990612fe6565b80156107665780601f1061073b57610100808354040283529160200191610766565b820191906000526020600020905b81548152906001019060200180831161074957829003601f168201915b50505050509050919050565b6000600c54905090565b60006107878261191c565b9050919050565b60606005805461079d90612fe6565b80601f01602080910402602001604051908101604052809291908181526020018280546107c990612fe6565b80156108165780601f106107eb57610100808354040283529160200191610816565b820191906000526020600020905b8154815290600101906020018083116107f957829003601f168201915b5050505050905090565b600061082b826119fe565b61086a576040517f08c379a00000000000000000000000000000000000000000000000000000000081526004016108619061308a565b60405180910390fd5b6009600083815260200190815260200160002060009054906101000a900473ffffffffffffffffffffffffffffffffffffffff169050919050565b60606004600083815260200190815260200160002080548060200260200160405190810160405280929190818152602001828054801561090457602002820191906000526020600020905b8154815260200190600101908083116108f0575b50505050509050919050565b600061091b82610fb8565b90508073ffffffffffffffffffffffffffffffffffffffff168373ffffffffffffffffffffffffffffffffffffffff16141561098c576040517f08c379a00000000000000000000000000000000000000000000000000000000081526004016109839061311c565b60405180910390fd5b8073ffffffffffffffffffffffffffffffffffffffff166109ab611a6a565b73ffffffffffffffffffffffffffffffffffffffff1614806109da57506109d9816109d4611a6a565b61182c565b5b610a19576040517f08c379a0000000000000000000000000000000000000000000000000000000008152600401610a10906131ae565b60405180910390fd5b610a238383611a72565b505050565b610a328282611b2b565b610a71576040517f08c379a0000000000000000000000000000000000000000000000000000000008152600401610a6890613240565b60405180910390fd5b8060036000848152602001908152602001600020819055505050565b6000610a97611a6a565b9050610b3981600088888880806020026020016040519081016040528093929190818152602001838360200280828437600081840152601f19601f82011690508083019250505050505050878780806020026020016040519081016040528093929190818152602001838360200280828437600081840152601f19601f8201169050808301925050505050505060405180602001604052806000815250611b5c565b60005b85859050811015610cc257610b69868683818110610b5d57610b5c613260565b5b905060200201356118ef565b610ba8576040517f08c379a0000000000000000000000000000000000000000000000000000000008152600401610b9f90613301565b60405180910390fd5b600060026000888885818110610bc157610bc0613260565b5b9050602002013581526020019081526020016000206000898152602001908152602001600020541415610c425760046000888152602001908152602001600020868683818110610c1457610c13613260565b5b9050602002013590806001815401808255809150506001900390600052602060002001600090919091909150555b838382818110610c5557610c54613260565b5b9050602002013560026000888885818110610c7357610c72613260565b5b90506020020135815260200190815260200160002060008981526020019081526020016000206000828254610ca89190613350565b925050819055508080610cba906133a6565b915050610b3c565b508484604051610cd392919061345b565b60405180910390208173ffffffffffffffffffffffffffffffffffffffff167fbfb4d8e5891aebe97980c97616b6b0af2006a58ccabe6e1b7e3da24d0906a8566000898787604051610d289493929190613515565b60405180910390a3505050505050565b60046020528160005260406000208181548110610d5457600080fd5b90600052602060002001600091509150505481565b610d7a610d74611a6a565b82611b64565b610db9576040517f08c379a0000000000000000000000000000000000000000000000000000000008152600401610db0906135c7565b60405180910390fd5b610dc4838383611c42565b505050565b6060610dd482610682565b9050919050565b610de58282611e9e565b5050565b610e048383836040518060200160405280600081525061166d565b505050565b6060610e14826118ef565b610e53576040517f08c379a0000000000000000000000000000000000000000000000000000000008152600401610e4a90613659565b60405180910390fd5b600160008381526020019081526020016000206001018054610e7490612fe6565b80601f0160208091040260200160405190810160405280929190818152602001828054610ea090612fe6565b8015610eed5780601f10610ec257610100808354040283529160200191610eed565b820191906000526020600020905b815481529060010190602001808311610ed057829003601f168201915b50505050509050919050565b606060008383905067ffffffffffffffff811115610f1a57610f19612d37565b5b604051908082528060200260200182016040528015610f485781602001602082028036833780820191505090505b50905060005b84849050811015610fac57610f7c86868684818110610f7057610f6f613260565b5b905060200201356118c0565b828281518110610f8f57610f8e613260565b5b60200260200101818152505080610fa5906133a6565b9050610f4e565b50809150509392505050565b6000806007600084815260200190815260200160002060009054906101000a900473ffffffffffffffffffffffffffffffffffffffff169050600073ffffffffffffffffffffffffffffffffffffffff168173ffffffffffffffffffffffffffffffffffffffff161415611061576040517f08c379a0000000000000000000000000000000000000000000000000000000008152600401611058906136eb565b60405180910390fd5b80915050919050565b600061107683836118c0565b905092915050565b60008073ffffffffffffffffffffffffffffffffffffffff168273ffffffffffffffffffffffffffffffffffffffff1614156110ef576040517f08c379a00000000000000000000000000000000000000000000000000000000081526004016110e69061377d565b60405180910390fd5b600860008373ffffffffffffffffffffffffffffffffffffffff1673ffffffffffffffffffffffffffffffffffffffff168152602001908152602001600020549050919050565b600060036000838152602001908152602001600020549050919050565b60606006805461116290612fe6565b80601f016020809104026020016040519081016040528092919081815260200182805461118e90612fe6565b80156111db5780601f106111b0576101008083540402835291602001916111db565b820191906000526020600020905b8154815290600101906020018083116111be57829003601f168201915b5050505050905090565b60606111f0826118ef565b61122f576040517f08c379a00000000000000000000000000000000000000000000000000000000081526004016112269061380f565b60405180910390fd5b600060016000848152602001908152602001600020600201805461125290612fe6565b80601f016020809104026020016040519081016040528092919081815260200182805461127e90612fe6565b80156112cb5780601f106112a0576101008083540402835291602001916112cb565b820191906000526020600020905b8154815290600101906020018083116112ae57829003601f168201915b5050505050905060008151111561130e57806112e684611ebc565b6040516020016112f792919061386b565b604051602081830303815290604052915050611368565b600080805461131c90612fe6565b9050116113385760405180602001604052806000815250611364565b600061134384611ebc565b604051602001611354929190613923565b6040516020818303038152906040525b9150505b919050565b611375611a6a565b73ffffffffffffffffffffffffffffffffffffffff168273ffffffffffffffffffffffffffffffffffffffff1614156113e3576040517f08c379a00000000000000000000000000000000000000000000000000000000081526004016113da90613993565b60405180910390fd5b80600a60006113f0611a6a565b73ffffffffffffffffffffffffffffffffffffffff1673ffffffffffffffffffffffffffffffffffffffff16815260200190815260200160002060008473ffffffffffffffffffffffffffffffffffffffff1673ffffffffffffffffffffffffffffffffffffffff16815260200190815260200160002060006101000a81548160ff0219169083151502179055508173ffffffffffffffffffffffffffffffffffffffff1661149d611a6a565b73ffffffffffffffffffffffffffffffffffffffff167f17307eab39ab6107e8899845ad3d59bd9653f200f220920489ca2b5937696c31836040516114e29190612896565b60405180910390a35050565b6114f7826118ef565b611536576040517f08c379a000000000000000000000000000000000000000000000000000000000815260040161152d90613a25565b60405180910390fd5b6000611540611a6a565b9050611570816000866115528761201d565b61155b8761201d565b60405180602001604052806000815250611b5c565b60006002600085815260200190815260200160002060008681526020019081526020016000205414156115d857600460008581526020019081526020016000208390806001815401808255809150506001900390600052602060002001600090919091909150555b81600260008581526020019081526020016000206000868152602001908152602001600020600082825461160c9190613350565b92505081905550828173ffffffffffffffffffffffffffffffffffffffff167f73b5fbfbf0177b0de2ffe9fd0ae9887dd73d0d865db7ab5ff3c4a6b9bb8db1e36000878660405161165f93929190613a45565b60405180910390a350505050565b61167e611678611a6a565b83611b64565b6116bd576040517f08c379a00000000000000000000000000000000000000000000000000000000081526004016116b4906135c7565b60405180910390fd5b6116c984848484612097565b50505050565b600d80546116dc90612fe6565b80601f016020809104026020016040519081016040528092919081815260200182805461170890612fe6565b80156117555780601f1061172a57610100808354040283529160200191611755565b820191906000526020600020905b81548152906001019060200180831161173857829003601f168201915b505050505081565b6060611768826119fe565b6117a7576040517f08c379a000000000000000000000000000000000000000000000000000000000815260040161179e90613aee565b60405180910390fd5b60006117b16120f3565b905060008151116117d157604051806020016040528060008152506117ff565b806117db84611ebc565b600d6040516020016117ef93929190613b0e565b6040516020818303038152906040525b915050919050565b6002602052816000526040600020602052806000526040600020600091509150505481565b6000600a60008473ffffffffffffffffffffffffffffffffffffffff1673ffffffffffffffffffffffffffffffffffffffff16815260200190815260200160002060008373ffffffffffffffffffffffffffffffffffffffff1673ffffffffffffffffffffffffffffffffffffffff16815260200190815260200160002060009054906101000a900460ff16905092915050565b600060026000838152602001908152602001600020600084815260200190815260200160002054905092915050565b60006001600083815260200190815260200160002060030160009054906101000a900460ff169050919050565b60007f80ac58cd000000000000000000000000000000000000000000000000000000007bffffffffffffffffffffffffffffffffffffffffffffffffffffffff1916827bffffffffffffffffffffffffffffffffffffffffffffffffffffffff191614806119e757507f5b5e139f000000000000000000000000000000000000000000000000000000007bffffffffffffffffffffffffffffffffffffffffffffffffffffffff1916827bffffffffffffffffffffffffffffffffffffffffffffffffffffffff1916145b806119f757506119f682612185565b5b9050919050565b60008073ffffffffffffffffffffffffffffffffffffffff166007600084815260200190815260200160002060009054906101000a900473ffffffffffffffffffffffffffffffffffffffff1673ffffffffffffffffffffffffffffffffffffffff1614159050919050565b600033905090565b816009600083815260200190815260200160002060006101000a81548173ffffffffffffffffffffffffffffffffffffffff021916908373ffffffffffffffffffffffffffffffffffffffff160217905550808273ffffffffffffffffffffffffffffffffffffffff16611ae583610fb8565b73ffffffffffffffffffffffffffffffffffffffff167f8c5be1e5ebec7d5bd14f71427d1e84f3dd0314c0f7b2291e5b200ac8c7c3b92560405160405180910390a45050565b6000806002600084815260200190815260200160002060008581526020019081526020016000205411905092915050565b505050505050565b6000611b6f826119fe565b611bae576040517f08c379a0000000000000000000000000000000000000000000000000000000008152600401611ba590613bb1565b60405180910390fd5b6000611bb983610fb8565b90508073ffffffffffffffffffffffffffffffffffffffff168473ffffffffffffffffffffffffffffffffffffffff161480611c2857508373ffffffffffffffffffffffffffffffffffffffff16611c1084610820565b73ffffffffffffffffffffffffffffffffffffffff16145b80611c395750611c38818561182c565b5b91505092915050565b8273ffffffffffffffffffffffffffffffffffffffff16611c6282610fb8565b73ffffffffffffffffffffffffffffffffffffffff1614611cb8576040517f08c379a0000000000000000000000000000000000000000000000000000000008152600401611caf90613c43565b60405180910390fd5b600073ffffffffffffffffffffffffffffffffffffffff168273ffffffffffffffffffffffffffffffffffffffff161415611d28576040517f08c379a0000000000000000000000000000000000000000000000000000000008152600401611d1f90613cd5565b60405180910390fd5b611d33838383612267565b611d3e600082611a72565b6001600860008573ffffffffffffffffffffffffffffffffffffffff1673ffffffffffffffffffffffffffffffffffffffff1681526020019081526020016000206000828254611d8e9190613cf5565b925050819055506001600860008473ffffffffffffffffffffffffffffffffffffffff1673ffffffffffffffffffffffffffffffffffffffff1681526020019081526020016000206000828254611de59190613350565b92505081905550816007600083815260200190815260200160002060006101000a81548173ffffffffffffffffffffffffffffffffffffffff021916908373ffffffffffffffffffffffffffffffffffffffff160217905550808273ffffffffffffffffffffffffffffffffffffffff168473ffffffffffffffffffffffffffffffffffffffff167fddf252ad1be2c89b69c2b068fc378daa952ba7f163c4a11628f55a4df523b3ef60405160405180910390a4505050565b611eb882826040518060200160405280600081525061226c565b5050565b60606000821415611f04576040518060400160405280600181526020017f30000000000000000000000000000000000000000000000000000000000000008152509050612018565b600082905060005b60008214611f36578080611f1f906133a6565b915050600a82611f2f9190613d58565b9150611f0c565b60008167ffffffffffffffff811115611f5257611f51612d37565b5b6040519080825280601f01601f191660200182016040528015611f845781602001600182028036833780820191505090505b5090505b6000851461201157600182611f9d9190613cf5565b9150600a85611fac9190613d89565b6030611fb89190613350565b60f81b818381518110611fce57611fcd613260565b5b60200101907effffffffffffffffffffffffffffffffffffffffffffffffffffffffffffff1916908160001a905350600a8561200a9190613d58565b9450611f88565b8093505050505b919050565b60606000600167ffffffffffffffff81111561203c5761203b612d37565b5b60405190808252806020026020018201604052801561206a5781602001602082028036833780820191505090505b509050828160008151811061208257612081613260565b5b60200260200101818152505080915050919050565b6120a2848484611c42565b6120ae848484846122c7565b6120ed576040517f08c379a00000000000000000000000000000000000000000000000000000000081526004016120e490613e2c565b60405180910390fd5b50505050565b6060600e805461210290612fe6565b80601f016020809104026020016040519081016040528092919081815260200182805461212e90612fe6565b801561217b5780601f106121505761010080835404028352916020019161217b565b820191906000526020600020905b81548152906001019060200180831161215e57829003601f168201915b5050505050905090565b60007f8ee1b373000000000000000000000000000000000000000000000000000000007bffffffffffffffffffffffffffffffffffffffffffffffffffffffff1916827bffffffffffffffffffffffffffffffffffffffffffffffffffffffff1916148061225057507fd5298fa3000000000000000000000000000000000000000000000000000000007bffffffffffffffffffffffffffffffffffffffffffffffffffffffff1916827bffffffffffffffffffffffffffffffffffffffffffffffffffffffff1916145b80612260575061225f8261244f565b5b9050919050565b505050565b61227683836124b9565b61228360008484846122c7565b6122c2576040517f08c379a00000000000000000000000000000000000000000000000000000000081526004016122b990613e2c565b60405180910390fd5b505050565b60006122e88473ffffffffffffffffffffffffffffffffffffffff16612687565b15612442578373ffffffffffffffffffffffffffffffffffffffff1663150b7a02612311611a6a565b8786866040518563ffffffff1660e01b81526004016123339493929190613ea1565b6020604051808303816000875af192505050801561236f57506040513d601f19601f8201168201806040525081019061236c9190613f02565b60015b6123f2573d806000811461239f576040519150601f19603f3d011682016040523d82523d6000602084013e6123a4565b606091505b506000815114156123ea576040517f08c379a00000000000000000000000000000000000000000000000000000000081526004016123e190613e2c565b60405180910390fd5b805181602001fd5b63150b7a0260e01b7bffffffffffffffffffffffffffffffffffffffffffffffffffffffff1916817bffffffffffffffffffffffffffffffffffffffffffffffffffffffff191614915050612447565b600190505b949350505050565b60007f01ffc9a7000000000000000000000000000000000000000000000000000000007bffffffffffffffffffffffffffffffffffffffffffffffffffffffff1916827bffffffffffffffffffffffffffffffffffffffffffffffffffffffff1916149050919050565b600073ffffffffffffffffffffffffffffffffffffffff168273ffffffffffffffffffffffffffffffffffffffff161415612529576040517f08c379a000000000000000000000000000000000000000000000000000000000815260040161252090613f7b565b60405180910390fd5b612532816119fe565b15612572576040517f08c379a000000000000000000000000000000000000000000000000000000000815260040161256990613fe7565b60405180910390fd5b61257e60008383612267565b6001600860008473ffffffffffffffffffffffffffffffffffffffff1673ffffffffffffffffffffffffffffffffffffffff16815260200190815260200160002060008282546125ce9190613350565b92505081905550816007600083815260200190815260200160002060006101000a81548173ffffffffffffffffffffffffffffffffffffffff021916908373ffffffffffffffffffffffffffffffffffffffff160217905550808273ffffffffffffffffffffffffffffffffffffffff16600073ffffffffffffffffffffffffffffffffffffffff167fddf252ad1be2c89b69c2b068fc378daa952ba7f163c4a11628f55a4df523b3ef60405160405180910390a45050565b600080823b905060008111915050919050565b6000604051905090565b600080fd5b600080fd5b6000819050919050565b6126c1816126ae565b81146126cc57600080fd5b50565b6000813590506126de816126b8565b92915050565b6000602082840312156126fa576126f96126a4565b5b6000612708848285016126cf565b91505092915050565b600081519050919050565b600082825260208201905092915050565b60005b8381101561274b578082015181840152602081019050612730565b8381111561275a576000848401525b50505050565b6000601f19601f8301169050919050565b600061277c82612711565b612786818561271c565b935061279681856020860161272d565b61279f81612760565b840191505092915050565b600060208201905081810360008301526127c48184612771565b905092915050565b6127d5816126ae565b82525050565b60006020820190506127f060008301846127cc565b92915050565b60007fffffffff0000000000000000000000000000000000000000000000000000000082169050919050565b61282b816127f6565b811461283657600080fd5b50565b60008135905061284881612822565b92915050565b600060208284031215612864576128636126a4565b5b600061287284828501612839565b91505092915050565b60008115159050919050565b6128908161287b565b82525050565b60006020820190506128ab6000830184612887565b92915050565b600073ffffffffffffffffffffffffffffffffffffffff82169050919050565b60006128dc826128b1565b9050919050565b6128ec816128d1565b82525050565b600060208201905061290760008301846128e3565b92915050565b600081519050919050565b600082825260208201905092915050565b6000819050602082019050919050565b612942816126ae565b82525050565b60006129548383612939565b60208301905092915050565b6000602082019050919050565b60006129788261290d565b6129828185612918565b935061298d83612929565b8060005b838110156129be5781516129a58882612948565b97506129b083612960565b925050600181019050612991565b5085935050505092915050565b600060208201905081810360008301526129e5818461296d565b905092915050565b6129f6816128d1565b8114612a0157600080fd5b50565b600081359050612a13816129ed565b92915050565b60008060408385031215612a3057612a2f6126a4565b5b6000612a3e85828601612a04565b9250506020612a4f858286016126cf565b9150509250929050565b60008060408385031215612a7057612a6f6126a4565b5b6000612a7e858286016126cf565b9250506020612a8f858286016126cf565b9150509250929050565b600080fd5b600080fd5b600080fd5b60008083601f840112612abe57612abd612a99565b5b8235905067ffffffffffffffff811115612adb57612ada612a9e565b5b602083019150836020820283011115612af757612af6612aa3565b5b9250929050565b600080600080600060608688031215612b1a57612b196126a4565b5b6000612b28888289016126cf565b955050602086013567ffffffffffffffff811115612b4957612b486126a9565b5b612b5588828901612aa8565b9450945050604086013567ffffffffffffffff811115612b7857612b776126a9565b5b612b8488828901612aa8565b92509250509295509295909350565b600080600060608486031215612bac57612bab6126a4565b5b6000612bba86828701612a04565b9350506020612bcb86828701612a04565b9250506040612bdc868287016126cf565b9150509250925092565b600080600060408486031215612bff57612bfe6126a4565b5b6000612c0d868287016126cf565b935050602084013567ffffffffffffffff811115612c2e57612c2d6126a9565b5b612c3a86828701612aa8565b92509250509250925092565b600060208284031215612c5c57612c5b6126a4565b5b6000612c6a84828501612a04565b91505092915050565b612c7c8161287b565b8114612c8757600080fd5b50565b600081359050612c9981612c73565b92915050565b60008060408385031215612cb657612cb56126a4565b5b6000612cc485828601612a04565b9250506020612cd585828601612c8a565b9150509250929050565b600080600060608486031215612cf857612cf76126a4565b5b6000612d06868287016126cf565b9350506020612d17868287016126cf565b9250506040612d28868287016126cf565b9150509250925092565b600080fd5b7f4e487b7100000000000000000000000000000000000000000000000000000000600052604160045260246000fd5b612d6f82612760565b810181811067ffffffffffffffff82111715612d8e57612d8d612d37565b5b80604052505050565b6000612da161269a565b9050612dad8282612d66565b919050565b600067ffffffffffffffff821115612dcd57612dcc612d37565b5b612dd682612760565b9050602081019050919050565b82818337600083830152505050565b6000612e05612e0084612db2565b612d97565b905082815260208101848484011115612e2157612e20612d32565b5b612e2c848285612de3565b509392505050565b600082601f830112612e4957612e48612a99565b5b8135612e59848260208601612df2565b91505092915050565b60008060008060808587031215612e7c57612e7b6126a4565b5b6000612e8a87828801612a04565b9450506020612e9b87828801612a04565b9350506040612eac878288016126cf565b925050606085013567ffffffffffffffff811115612ecd57612ecc6126a9565b5b612ed987828801612e34565b91505092959194509250565b60008060408385031215612efc57612efb6126a4565b5b6000612f0a85828601612a04565b9250506020612f1b85828601612a04565b9150509250929050565b7f455243333636343a206e616d6520717565727920666f72206e6f6e657869737460008201527f656e742061747472696275746500000000000000000000000000000000000000602082015250565b6000612f81602d8361271c565b9150612f8c82612f25565b604082019050919050565b60006020820190508181036000830152612fb081612f74565b9050919050565b7f4e487b7100000000000000000000000000000000000000000000000000000000600052602260045260246000fd5b60006002820490506001821680612ffe57607f821691505b6020821081141561301257613011612fb7565b5b50919050565b7f4552433732313a20617070726f76656420717565727920666f72206e6f6e657860008201527f697374656e7420746f6b656e0000000000000000000000000000000000000000602082015250565b6000613074602c8361271c565b915061307f82613018565b604082019050919050565b600060208201905081810360008301526130a381613067565b9050919050565b7f4552433732313a20617070726f76616c20746f2063757272656e74206f776e6560008201527f7200000000000000000000000000000000000000000000000000000000000000602082015250565b600061310660218361271c565b9150613111826130aa565b604082019050919050565b60006020820190508181036000830152613135816130f9565b9050919050565b7f4552433732313a20617070726f76652063616c6c6572206973206e6f74206f7760008201527f6e6572206e6f7220617070726f76656420666f7220616c6c0000000000000000602082015250565b600061319860388361271c565b91506131a38261313c565b604082019050919050565b600060208201905081810360008301526131c78161318b565b9050919050565b7f455243333636343a20746f6b656e20686173206e6f742061747461636865642060008201527f7468652061747472696275746500000000000000000000000000000000000000602082015250565b600061322a602d8361271c565b9150613235826131ce565b604082019050919050565b600060208201905081810360008301526132598161321d565b9050919050565b7f4e487b7100000000000000000000000000000000000000000000000000000000600052603260045260246000fd5b7f455243333636343a20626174636841747461636820666f72206e6f6e6578697360008201527f74656e7420617474726962757465000000000000000000000000000000000000602082015250565b60006132eb602e8361271c565b91506132f68261328f565b604082019050919050565b6000602082019050818103600083015261331a816132de565b9050919050565b7f4e487b7100000000000000000000000000000000000000000000000000000000600052601160045260246000fd5b600061335b826126ae565b9150613366836126ae565b9250827fffffffffffffffffffffffffffffffffffffffffffffffffffffffffffffffff0382111561339b5761339a613321565b5b828201905092915050565b60006133b1826126ae565b91507fffffffffffffffffffffffffffffffffffffffffffffffffffffffffffffffff8214156133e4576133e3613321565b5b600182019050919050565b600081905092915050565b600080fd5b600061340b83856133ef565b93507f07ffffffffffffffffffffffffffffffffffffffffffffffffffffffffffffff83111561343e5761343d6133fa565b5b60208302925061344f838584612de3565b82840190509392505050565b60006134688284866133ff565b91508190509392505050565b6000819050919050565b6000819050919050565b60006134a361349e61349984613474565b61347e565b6126ae565b9050919050565b6134b381613488565b82525050565b60006134c58385612918565b93507f07ffffffffffffffffffffffffffffffffffffffffffffffffffffffffffffff8311156134f8576134f76133fa565b5b602083029250613509838584612de3565b82840190509392505050565b600060608201905061352a60008301876134aa565b61353760208301866127cc565b818103604083015261354a8184866134b9565b905095945050505050565b7f4552433732313a207472616e736665722063616c6c6572206973206e6f74206f60008201527f776e6572206e6f7220617070726f766564000000000000000000000000000000602082015250565b60006135b160318361271c565b91506135bc82613555565b604082019050919050565b600060208201905081810360008301526135e0816135a4565b9050919050565b7f455243333636343a2073796d626f6c20717565727920666f72206e6f6e65786960008201527f7374656e74206174747269627574650000000000000000000000000000000000602082015250565b6000613643602f8361271c565b915061364e826135e7565b604082019050919050565b6000602082019050818103600083015261367281613636565b9050919050565b7f4552433732313a206f776e657220717565727920666f72206e6f6e657869737460008201527f656e7420746f6b656e0000000000000000000000000000000000000000000000602082015250565b60006136d560298361271c565b91506136e082613679565b604082019050919050565b60006020820190508181036000830152613704816136c8565b9050919050565b7f4552433732313a2062616c616e636520717565727920666f7220746865207a6560008201527f726f206164647265737300000000000000000000000000000000000000000000602082015250565b6000613767602a8361271c565b91506137728261370b565b604082019050919050565b600060208201905081810360008301526137968161375a565b9050919050565b7f455243333636343a2055524920717565727920666f72206e6f6e65786973746560008201527f6e74206174747269627574650000000000000000000000000000000000000000602082015250565b60006137f9602c8361271c565b91506138048261379d565b604082019050919050565b60006020820190508181036000830152613828816137ec565b9050919050565b600081905092915050565b600061384582612711565b61384f818561382f565b935061385f81856020860161272d565b80840191505092915050565b6000613877828561383a565b9150613883828461383a565b91508190509392505050565b60008190508160005260206000209050919050565b600081546138b181612fe6565b6138bb818661382f565b945060018216600081146138d657600181146138e75761391a565b60ff1983168652818601935061391a565b6138f08561388f565b60005b83811015613912578154818901526001820191506020810190506138f3565b838801955050505b50505092915050565b600061392f82856138a4565b915061393b828461383a565b91508190509392505050565b7f4552433732313a20617070726f766520746f2063616c6c657200000000000000600082015250565b600061397d60198361271c565b915061398882613947565b602082019050919050565b600060208201905081810360008301526139ac81613970565b9050919050565b7f455243333636343a2061747461636820666f72206e6f6e6578697374656e742060008201527f6174747269627574650000000000000000000000000000000000000000000000602082015250565b6000613a0f60298361271c565b9150613a1a826139b3565b604082019050919050565b60006020820190508181036000830152613a3e81613a02565b9050919050565b6000606082019050613a5a60008301866134aa565b613a6760208301856127cc565b613a7460408301846127cc565b949350505050565b7f4552433732314d657461646174613a2055524920717565727920666f72206e6f60008201527f6e6578697374656e7420746f6b656e0000000000000000000000000000000000602082015250565b6000613ad8602f8361271c565b9150613ae382613a7c565b604082019050919050565b60006020820190508181036000830152613b0781613acb565b9050919050565b6000613b1a828661383a565b9150613b26828561383a565b9150613b3282846138a4565b9150819050949350505050565b7f4552433732313a206f70657261746f7220717565727920666f72206e6f6e657860008201527f697374656e7420746f6b656e0000000000000000000000000000000000000000602082015250565b6000613b9b602c8361271c565b9150613ba682613b3f565b604082019050919050565b60006020820190508181036000830152613bca81613b8e565b9050919050565b7f4552433732313a207472616e73666572206f6620746f6b656e2074686174206960008201527f73206e6f74206f776e0000000000000000000000000000000000000000000000602082015250565b6000613c2d60298361271c565b9150613c3882613bd1565b604082019050919050565b60006020820190508181036000830152613c5c81613c20565b9050919050565b7f4552433732313a207472616e7366657220746f20746865207a65726f2061646460008201527f7265737300000000000000000000000000000000000000000000000000000000602082015250565b6000613cbf60248361271c565b9150613cca82613c63565b604082019050919050565b60006020820190508181036000830152613cee81613cb2565b9050919050565b6000613d00826126ae565b9150613d0b836126ae565b925082821015613d1e57613d1d613321565b5b828203905092915050565b7f4e487b7100000000000000000000000000000000000000000000000000000000600052601260045260246000fd5b6000613d63826126ae565b9150613d6e836126ae565b925082613d7e57613d7d613d29565b5b828204905092915050565b6000613d94826126ae565b9150613d9f836126ae565b925082613daf57613dae613d29565b5b828206905092915050565b7f4552433732313a207472616e7366657220746f206e6f6e20455243373231526560008201527f63656976657220696d706c656d656e7465720000000000000000000000000000602082015250565b6000613e1660328361271c565b9150613e2182613dba565b604082019050919050565b60006020820190508181036000830152613e4581613e09565b9050919050565b600081519050919050565b600082825260208201905092915050565b6000613e7382613e4c565b613e7d8185613e57565b9350613e8d81856020860161272d565b613e9681612760565b840191505092915050565b6000608082019050613eb660008301876128e3565b613ec360208301866128e3565b613ed060408301856127cc565b8181036060830152613ee28184613e68565b905095945050505050565b600081519050613efc81612822565b92915050565b600060208284031215613f1857613f176126a4565b5b6000613f2684828501613eed565b91505092915050565b7f4552433732313a206d696e7420746f20746865207a65726f2061646472657373600082015250565b6000613f6560208361271c565b9150613f7082613f2f565b602082019050919050565b60006020820190508181036000830152613f9481613f58565b9050919050565b7f4552433732313a20746f6b656e20616c7265616479206d696e74656400000000600082015250565b6000613fd1601c8361271c565b9150613fdc82613f9b565b602082019050919050565b6000602082019050818103600083015261400081613fc4565b905091905056fea2646970667358221220f77067102dbc7ff04dcdfd05757bdd05f05df598643a753f22ce6a3b3a18334664736f6c634300080b0033697066733a2f2f516d5747574844445346546363743339596961596736635131546d75673448456841366134395a4c6d6866756a562f",
  "immutableReferences": {},
  "source": "pragma solidity ^0.8.0;\n\nimport \"./ERC3664/ERC3664.sol\";\nimport \"openzeppelin-solidity/contracts/token/ERC721/extensions/ERC721URIStorage.sol\";\n\n\ncontract Character is ERC3664, ERC721URIStorage{\n    using Strings for uint256;\n\n    uint256 private attrQuantity;\n    string public baseExtension = \".json\";\n    string baseURI;\n\n    constructor() ERC721(\"Item_nft\", \"ITEM\") ERC3664(\"http://localhost:3000/\"){\n        attrQuantity = 3;\n        _mint(0, 'attack', 'ATTACK', '');\n        _mint(1, 'speed', 'SPEED', '');\n        _mint(2, 'defense', 'DEFENSE', '');\n        baseURI = \"ipfs://QmWGWHDDSFTcct39YiaYg6cQ1Tmug4HEhA6a49ZLmhfujV/\";\n    }\n\n    function supportsInterface(bytes4 interfaceId)\n        public\n        view\n        virtual\n        override(ERC3664, ERC721)\n    returns (bool)\n    {\n        return super.supportsInterface(interfaceId);\n    }\n\n    function getQuantity() external view returns(uint256){\n        return attrQuantity;\n    }\n\n    function mint(address to, uint256 tokenId) public {\n        _safeMint(to, tokenId);\n        //_setTokenURI(tokenId, _tokenURI);\n    }\n\n    function get_attributeAmount(uint256 tokenId, uint attrId) public view returns(uint256){\n        return ERC3664.balanceOf(tokenId, attrId);\n    }\n    function get_attrName(uint256 attrId) public view returns(string memory){\n        return ERC3664.name(attrId);\n    }\n\n    function _baseURI() internal view virtual override returns(string memory){\n        return baseURI;\n    }\n\n    function tokenURI(uint256 tokenId)\n        public\n        view\n        virtual\n        override\n        returns (string memory)\n    {\n        require(\n            _exists(tokenId),\n            \"ERC721Metadata: URI query for nonexistent token\"\n        );\n\n        string memory currentBaseURI = _baseURI();\n        return\n            bytes(currentBaseURI).length > 0\n                ? string(\n                    abi.encodePacked(\n                        currentBaseURI,\n                        tokenId.toString(),\n                        baseExtension\n                    )\n                )\n                : \"\";\n    }\n}\n",
  "sourcePath": "/Users/li/Character/src/contracts/Character.sol",
  "compiler": {
    "name": "solc",
    "version": "0.8.11+commit.d7f03943.Emscripten.clang"
  },
  "schemaVersion": "3.4.4",
  "updatedAt": "2022-02-22T16:35:29.298Z",
  "networkType": "ethereum",
  "devdoc": {
    "kind": "dev",
    "methods": {
      "approve(address,uint256)": {
        "details": "See {IERC721-approve}."
      },
      "attach(uint256,uint256,uint256)": {
        "details": "See {IERC3664-attach}."
      },
      "attrURI(uint256)": {
        "details": "See {IERC721Metadata-attrURI}."
      },
      "attributesOf(uint256)": {
        "details": "See {IERC3664-attributesOf}."
      },
      "balanceOf(address)": {
        "details": "See {IERC721-balanceOf}."
      },
      "balanceOf(uint256,uint256)": {
        "details": "See {IERC3664-balanceOf}."
      },
      "balanceOfBatch(uint256,uint256[])": {
        "details": "See {IERC3664-balanceOfBatch}."
      },
      "batchAttach(uint256,uint256[],uint256[])": {
        "details": "See {IERC3664-batchAttach}."
      },
      "getApproved(uint256)": {
        "details": "See {IERC721-getApproved}."
      },
      "isApprovedForAll(address,address)": {
        "details": "See {IERC721-isApprovedForAll}."
      },
      "name()": {
        "details": "See {IERC721Metadata-name}."
      },
      "name(uint256)": {
        "details": "See {IERC3664Metadata-name}."
      },
      "ownerOf(uint256)": {
        "details": "See {IERC721-ownerOf}."
      },
      "primaryAttributeOf(uint256)": {
        "details": "See {IERC3664-primaryAttributeOf}."
      },
      "safeTransferFrom(address,address,uint256)": {
        "details": "See {IERC721-safeTransferFrom}."
      },
      "safeTransferFrom(address,address,uint256,bytes)": {
        "details": "See {IERC721-safeTransferFrom}."
      },
      "setApprovalForAll(address,bool)": {
        "details": "See {IERC721-setApprovalForAll}."
      },
      "setPrimaryAttribute(uint256,uint256)": {
        "details": "See {IERC3664-setPrimaryAttribute}."
      },
      "symbol()": {
        "details": "See {IERC721Metadata-symbol}."
      },
      "symbol(uint256)": {
        "details": "See {IERC3664Metadata-symbol}."
      },
      "tokenURI(uint256)": {
        "details": "See {IERC721Metadata-tokenURI}."
      },
      "transferFrom(address,address,uint256)": {
        "details": "See {IERC721-transferFrom}."
      }
    },
    "version": 1
  },
  "userdoc": {
    "kind": "user",
    "methods": {},
    "version": 1
  }
}