{
  "contractName": "Character",
  "abi": [
    {
      "inputs": [],
      "stateMutability": "nonpayable",
      "type": "constructor"
    },
    {
      "anonymous": false,
      "inputs": [
        {
          "indexed": true,
          "internalType": "uint256",
          "name": "attrId",
          "type": "uint256"
        },
        {
          "indexed": false,
          "internalType": "string",
          "name": "name",
          "type": "string"
        },
        {
          "indexed": false,
          "internalType": "string",
          "name": "symbol",
          "type": "string"
        },
        {
          "indexed": false,
          "internalType": "string",
          "name": "uri",
          "type": "string"
        }
      ],
      "name": "AttributeCreated",
      "type": "event"
    },
    {
      "anonymous": false,
      "inputs": [
        {
          "indexed": true,
          "internalType": "address",
          "name": "operator",
          "type": "address"
        },
        {
          "indexed": false,
          "internalType": "uint256",
          "name": "from",
          "type": "uint256"
        },
        {
          "indexed": false,
          "internalType": "uint256",
          "name": "to",
          "type": "uint256"
        },
        {
          "indexed": true,
          "internalType": "uint256[]",
          "name": "attrIds",
          "type": "uint256[]"
        },
        {
          "indexed": false,
          "internalType": "uint256[]",
          "name": "values",
          "type": "uint256[]"
        }
      ],
      "name": "TransferBatch",
      "type": "event"
    },
    {
      "anonymous": false,
      "inputs": [
        {
          "indexed": true,
          "internalType": "address",
          "name": "operator",
          "type": "address"
        },
        {
          "indexed": false,
          "internalType": "uint256",
          "name": "from",
          "type": "uint256"
        },
        {
          "indexed": false,
          "internalType": "uint256",
          "name": "to",
          "type": "uint256"
        },
        {
          "indexed": true,
          "internalType": "uint256",
          "name": "attrId",
          "type": "uint256"
        },
        {
          "indexed": false,
          "internalType": "uint256",
          "name": "value",
          "type": "uint256"
        }
      ],
      "name": "TransferSingle",
      "type": "event"
    },
    {
      "inputs": [
        {
          "internalType": "uint256",
          "name": "tokenId",
          "type": "uint256"
        },
        {
          "internalType": "uint256",
          "name": "attrId",
          "type": "uint256"
        },
        {
          "internalType": "uint256",
          "name": "amount",
          "type": "uint256"
        }
      ],
      "name": "attach",
      "outputs": [],
      "stateMutability": "nonpayable",
      "type": "function"
    },
    {
      "inputs": [
        {
          "internalType": "uint256",
          "name": "",
          "type": "uint256"
        },
        {
          "internalType": "uint256",
          "name": "",
          "type": "uint256"
        }
      ],
      "name": "attrBalances",
      "outputs": [
        {
          "internalType": "uint256",
          "name": "",
          "type": "uint256"
        }
      ],
      "stateMutability": "view",
      "type": "function",
      "constant": true
    },
    {
      "inputs": [
        {
          "internalType": "uint256",
          "name": "attrId",
          "type": "uint256"
        }
      ],
      "name": "attrURI",
      "outputs": [
        {
          "internalType": "string",
          "name": "",
          "type": "string"
        }
      ],
      "stateMutability": "view",
      "type": "function",
      "constant": true
    },
    {
      "inputs": [
        {
          "internalType": "uint256",
          "name": "tokenId",
          "type": "uint256"
        }
      ],
      "name": "attributesOf",
      "outputs": [
        {
          "internalType": "uint256[]",
          "name": "",
          "type": "uint256[]"
        }
      ],
      "stateMutability": "view",
      "type": "function",
      "constant": true
    },
    {
      "inputs": [
        {
          "internalType": "uint256",
          "name": "",
          "type": "uint256"
        },
        {
          "internalType": "uint256",
          "name": "",
          "type": "uint256"
        }
      ],
      "name": "attrs",
      "outputs": [
        {
          "internalType": "uint256",
          "name": "",
          "type": "uint256"
        }
      ],
      "stateMutability": "view",
      "type": "function",
      "constant": true
    },
    {
      "inputs": [
        {
          "internalType": "uint256",
          "name": "tokenId",
          "type": "uint256"
        },
        {
          "internalType": "uint256",
          "name": "attrId",
          "type": "uint256"
        }
      ],
      "name": "balanceOf",
      "outputs": [
        {
          "internalType": "uint256",
          "name": "",
          "type": "uint256"
        }
      ],
      "stateMutability": "view",
      "type": "function",
      "constant": true
    },
    {
      "inputs": [
        {
          "internalType": "uint256",
          "name": "tokenId",
          "type": "uint256"
        },
        {
          "internalType": "uint256[]",
          "name": "attrIds",
          "type": "uint256[]"
        }
      ],
      "name": "balanceOfBatch",
      "outputs": [
        {
          "internalType": "uint256[]",
          "name": "",
          "type": "uint256[]"
        }
      ],
      "stateMutability": "view",
      "type": "function",
      "constant": true
    },
    {
      "inputs": [
        {
          "internalType": "uint256",
          "name": "tokenId",
          "type": "uint256"
        },
        {
          "internalType": "uint256[]",
          "name": "attrIds",
          "type": "uint256[]"
        },
        {
          "internalType": "uint256[]",
          "name": "amounts",
          "type": "uint256[]"
        }
      ],
      "name": "batchAttach",
      "outputs": [],
      "stateMutability": "nonpayable",
      "type": "function"
    },
    {
      "inputs": [
        {
          "internalType": "uint256",
          "name": "attrId",
          "type": "uint256"
        }
      ],
      "name": "name",
      "outputs": [
        {
          "internalType": "string",
          "name": "",
          "type": "string"
        }
      ],
      "stateMutability": "view",
      "type": "function",
      "constant": true
    },
    {
      "inputs": [
        {
          "internalType": "uint256",
          "name": "tokenId",
          "type": "uint256"
        }
      ],
      "name": "primaryAttributeOf",
      "outputs": [
        {
          "internalType": "uint256",
          "name": "",
          "type": "uint256"
        }
      ],
      "stateMutability": "view",
      "type": "function",
      "constant": true
    },
    {
      "inputs": [
        {
          "internalType": "uint256",
          "name": "tokenId",
          "type": "uint256"
        },
        {
          "internalType": "uint256",
          "name": "attrId",
          "type": "uint256"
        }
      ],
      "name": "setPrimaryAttribute",
      "outputs": [],
      "stateMutability": "nonpayable",
      "type": "function"
    },
    {
      "inputs": [
        {
          "internalType": "bytes4",
          "name": "interfaceId",
          "type": "bytes4"
        }
      ],
      "name": "supportsInterface",
      "outputs": [
        {
          "internalType": "bool",
          "name": "",
          "type": "bool"
        }
      ],
      "stateMutability": "view",
      "type": "function",
      "constant": true
    },
    {
      "inputs": [
        {
          "internalType": "uint256",
          "name": "attrId",
          "type": "uint256"
        }
      ],
      "name": "symbol",
      "outputs": [
        {
          "internalType": "string",
          "name": "",
          "type": "string"
        }
      ],
      "stateMutability": "view",
      "type": "function",
      "constant": true
    },
    {
      "inputs": [
        {
          "internalType": "uint256",
          "name": "attrId",
          "type": "uint256"
        },
        {
          "internalType": "string",
          "name": "_name",
          "type": "string"
        },
        {
          "internalType": "string",
          "name": "_symbol",
          "type": "string"
        },
        {
          "internalType": "string",
          "name": "_uri",
          "type": "string"
        }
      ],
      "name": "mint",
      "outputs": [
        {
          "internalType": "bool",
          "name": "",
          "type": "bool"
        }
      ],
      "stateMutability": "nonpayable",
      "type": "function"
    }
  ],
  "bytecode": "0x60806040523480156200001157600080fd5b506040518060400160405280600e81526020017f68747470733a2f2f666f784e465400000000000000000000000000000000000081525062000059816200006060201b60201c565b5062000191565b8060009080519060200190620000789291906200007c565b5050565b8280546200008a906200015b565b90600052602060002090601f016020900481019282620000ae5760008555620000fa565b82601f10620000c957805160ff1916838001178555620000fa565b82800160010185558215620000fa579182015b82811115620000f9578251825591602001919060010190620000dc565b5b5090506200010991906200010d565b5090565b5b80821115620001285760008160009055506001016200010e565b5090565b7f4e487b7100000000000000000000000000000000000000000000000000000000600052602260045260246000fd5b600060028204905060018216806200017457607f821691505b602082108114156200018b576200018a6200012c565b5b50919050565b6122d080620001a16000396000f3fe608060405234801561001057600080fd5b50600436106100e95760003560e01c80635d1261101161008c578063acdd145411610066578063acdd1454146102a6578063b4101dce146102d6578063e829ffa1146102f2578063ea69963314610322576100e9565b80635d1261101461021657806387e21d42146102465780639bc5ae5414610276576100e9565b80631070717b116100c85780631070717b1461017e578063132e09e31461019a578063169dbe6e146101b65780634e41a1fb146101e6576100e9565b8062ad800c146100ee57806301ffc9a71461011e57806309363c441461014e575b600080fd5b610108600480360381019061010391906112f3565b610352565b60405161011591906113b9565b60405180910390f35b61013860048036038101906101339190611433565b610442565b604051610145919061147b565b60405180910390f35b610168600480360381019061016391906112f3565b610524565b6040516101759190611554565b60405180910390f35b61019860048036038101906101939190611576565b61058f565b005b6101b460048036038101906101af919061161b565b6105f4565b005b6101d060048036038101906101cb9190611576565b61089f565b6040516101dd91906116bf565b60405180910390f35b61020060048036038101906101fb91906112f3565b6108d0565b60405161020d91906113b9565b60405180910390f35b610230600480360381019061022b91906116da565b6109c0565b60405161023d9190611554565b60405180910390f35b610260600480360381019061025b91906112f3565b610a7f565b60405161026d91906116bf565b60405180910390f35b610290600480360381019061028b91906112f3565b610a9c565b60405161029d91906113b9565b60405180910390f35b6102c060048036038101906102bb919061186a565b610c24565b6040516102cd919061147b565b60405180910390f35b6102f060048036038101906102eb9190611925565b610c3e565b005b61030c60048036038101906103079190611576565b610dbd565b60405161031991906116bf565b60405180910390f35b61033c60048036038101906103379190611576565b610de2565b60405161034991906116bf565b60405180910390f35b606061035d82610e11565b61039c576040517f08c379a0000000000000000000000000000000000000000000000000000000008152600401610393906119ea565b60405180910390fd5b6001600083815260200190815260200160002060000180546103bd90611a39565b80601f01602080910402602001604051908101604052809291908181526020018280546103e990611a39565b80156104365780601f1061040b57610100808354040283529160200191610436565b820191906000526020600020905b81548152906001019060200180831161041957829003601f168201915b50505050509050919050565b60007f8ee1b373000000000000000000000000000000000000000000000000000000007bffffffffffffffffffffffffffffffffffffffffffffffffffffffff1916827bffffffffffffffffffffffffffffffffffffffffffffffffffffffff1916148061050d57507fd5298fa3000000000000000000000000000000000000000000000000000000007bffffffffffffffffffffffffffffffffffffffffffffffffffffffff1916827bffffffffffffffffffffffffffffffffffffffffffffffffffffffff1916145b8061051d575061051c82610e3e565b5b9050919050565b60606004600083815260200190815260200160002080548060200260200160405190810160405280929190818152602001828054801561058357602002820191906000526020600020905b81548152602001906001019080831161056f575b50505050509050919050565b6105998282610ea8565b6105d8576040517f08c379a00000000000000000000000000000000000000000000000000000000081526004016105cf90611add565b60405180910390fd5b8060036000848152602001908152602001600020819055505050565b60006105fe610ed9565b90506106a081600088888880806020026020016040519081016040528093929190818152602001838360200280828437600081840152601f19601f82011690508083019250505050505050878780806020026020016040519081016040528093929190818152602001838360200280828437600081840152601f19601f8201169050808301925050505050505060405180602001604052806000815250610ee1565b60005b85859050811015610829576106d08686838181106106c4576106c3611afd565b5b90506020020135610e11565b61070f576040517f08c379a000000000000000000000000000000000000000000000000000000000815260040161070690611b9e565b60405180910390fd5b60006002600088888581811061072857610727611afd565b5b90506020020135815260200190815260200160002060008981526020019081526020016000205414156107a9576004600088815260200190815260200160002086868381811061077b5761077a611afd565b5b9050602002013590806001815401808255809150506001900390600052602060002001600090919091909150555b8383828181106107bc576107bb611afd565b5b90506020020135600260008888858181106107da576107d9611afd565b5b9050602002013581526020019081526020016000206000898152602001908152602001600020600082825461080f9190611bed565b92505081905550808061082190611c43565b9150506106a3565b50848460405161083a929190611cf8565b60405180910390208173ffffffffffffffffffffffffffffffffffffffff167fbfb4d8e5891aebe97980c97616b6b0af2006a58ccabe6e1b7e3da24d0906a856600089878760405161088f9493929190611db2565b60405180910390a3505050505050565b600460205281600052604060002081815481106108bb57600080fd5b90600052602060002001600091509150505481565b60606108db82610e11565b61091a576040517f08c379a000000000000000000000000000000000000000000000000000000000815260040161091190611e64565b60405180910390fd5b60016000838152602001908152602001600020600101805461093b90611a39565b80601f016020809104026020016040519081016040528092919081815260200182805461096790611a39565b80156109b45780601f10610989576101008083540402835291602001916109b4565b820191906000526020600020905b81548152906001019060200180831161099757829003601f168201915b50505050509050919050565b606060008383905067ffffffffffffffff8111156109e1576109e061173f565b5b604051908082528060200260200182016040528015610a0f5781602001602082028036833780820191505090505b50905060005b84849050811015610a7357610a4386868684818110610a3757610a36611afd565b5b90506020020135610de2565b828281518110610a5657610a55611afd565b5b60200260200101818152505080610a6c90611c43565b9050610a15565b50809150509392505050565b600060036000838152602001908152602001600020549050919050565b6060610aa782610e11565b610ae6576040517f08c379a0000000000000000000000000000000000000000000000000000000008152600401610add90611ef6565b60405180910390fd5b6000600160008481526020019081526020016000206002018054610b0990611a39565b80601f0160208091040260200160405190810160405280929190818152602001828054610b3590611a39565b8015610b825780601f10610b5757610100808354040283529160200191610b82565b820191906000526020600020905b815481529060010190602001808311610b6557829003601f168201915b50505050509050600081511115610bc55780610b9d84610ee9565b604051602001610bae929190611f52565b604051602081830303815290604052915050610c1f565b6000808054610bd390611a39565b905011610bef5760405180602001604052806000815250610c1b565b6000610bfa84610ee9565b604051602001610c0b92919061200a565b6040516020818303038152906040525b9150505b919050565b6000610c328585858561104a565b60019050949350505050565b610c4782610e11565b610c86576040517f08c379a0000000000000000000000000000000000000000000000000000000008152600401610c7d906120a0565b60405180910390fd5b6000610c90610ed9565b9050610cc081600086610ca28761118c565b610cab8761118c565b60405180602001604052806000815250610ee1565b6000600260008581526020019081526020016000206000868152602001908152602001600020541415610d2857600460008581526020019081526020016000208390806001815401808255809150506001900390600052602060002001600090919091909150555b816002600085815260200190815260200160002060008681526020019081526020016000206000828254610d5c9190611bed565b92505081905550828173ffffffffffffffffffffffffffffffffffffffff167f73b5fbfbf0177b0de2ffe9fd0ae9887dd73d0d865db7ab5ff3c4a6b9bb8db1e360008786604051610daf939291906120c0565b60405180910390a350505050565b6002602052816000526040600020602052806000526040600020600091509150505481565b600060026000838152602001908152602001600020600084815260200190815260200160002054905092915050565b60006001600083815260200190815260200160002060030160009054906101000a900460ff169050919050565b60007f01ffc9a7000000000000000000000000000000000000000000000000000000007bffffffffffffffffffffffffffffffffffffffffffffffffffffffff1916827bffffffffffffffffffffffffffffffffffffffffffffffffffffffff1916149050919050565b6000806002600084815260200190815260200160002060008581526020019081526020016000205411905092915050565b600033905090565b505050505050565b60606000821415610f31576040518060400160405280600181526020017f30000000000000000000000000000000000000000000000000000000000000008152509050611045565b600082905060005b60008214610f63578080610f4c90611c43565b915050600a82610f5c9190612126565b9150610f39565b60008167ffffffffffffffff811115610f7f57610f7e61173f565b5b6040519080825280601f01601f191660200182016040528015610fb15781602001600182028036833780820191505090505b5090505b6000851461103e57600182610fca9190612157565b9150600a85610fd9919061218b565b6030610fe59190611bed565b60f81b818381518110610ffb57610ffa611afd565b5b60200101907effffffffffffffffffffffffffffffffffffffffffffffffffffffffffffff1916908160001a905350600a856110379190612126565b9450610fb5565b8093505050505b919050565b61105384610e11565b15611093576040517f08c379a000000000000000000000000000000000000000000000000000000000815260040161108a9061222e565b60405180910390fd5b60006040518060800160405280858152602001848152602001838152602001600115158152509050806001600087815260200190815260200160002060008201518160000190805190602001906110eb929190611206565b506020820151816001019080519060200190611108929190611206565b506040820151816002019080519060200190611125929190611206565b5060608201518160030160006101000a81548160ff021916908315150217905550905050847fe3c3c9bbda1d6ccb059320eed92d395bd49272efb8a675a188a9d1b4e4da4ce285858560405161117d9392919061224e565b60405180910390a25050505050565b60606000600167ffffffffffffffff8111156111ab576111aa61173f565b5b6040519080825280602002602001820160405280156111d95781602001602082028036833780820191505090505b50905082816000815181106111f1576111f0611afd565b5b60200260200101818152505080915050919050565b82805461121290611a39565b90600052602060002090601f016020900481019282611234576000855561127b565b82601f1061124d57805160ff191683800117855561127b565b8280016001018555821561127b579182015b8281111561127a57825182559160200191906001019061125f565b5b509050611288919061128c565b5090565b5b808211156112a557600081600090555060010161128d565b5090565b6000604051905090565b600080fd5b600080fd5b6000819050919050565b6112d0816112bd565b81146112db57600080fd5b50565b6000813590506112ed816112c7565b92915050565b600060208284031215611309576113086112b3565b5b6000611317848285016112de565b91505092915050565b600081519050919050565b600082825260208201905092915050565b60005b8381101561135a57808201518184015260208101905061133f565b83811115611369576000848401525b50505050565b6000601f19601f8301169050919050565b600061138b82611320565b611395818561132b565b93506113a581856020860161133c565b6113ae8161136f565b840191505092915050565b600060208201905081810360008301526113d38184611380565b905092915050565b60007fffffffff0000000000000000000000000000000000000000000000000000000082169050919050565b611410816113db565b811461141b57600080fd5b50565b60008135905061142d81611407565b92915050565b600060208284031215611449576114486112b3565b5b60006114578482850161141e565b91505092915050565b60008115159050919050565b61147581611460565b82525050565b6000602082019050611490600083018461146c565b92915050565b600081519050919050565b600082825260208201905092915050565b6000819050602082019050919050565b6114cb816112bd565b82525050565b60006114dd83836114c2565b60208301905092915050565b6000602082019050919050565b600061150182611496565b61150b81856114a1565b9350611516836114b2565b8060005b8381101561154757815161152e88826114d1565b9750611539836114e9565b92505060018101905061151a565b5085935050505092915050565b6000602082019050818103600083015261156e81846114f6565b905092915050565b6000806040838503121561158d5761158c6112b3565b5b600061159b858286016112de565b92505060206115ac858286016112de565b9150509250929050565b600080fd5b600080fd5b600080fd5b60008083601f8401126115db576115da6115b6565b5b8235905067ffffffffffffffff8111156115f8576115f76115bb565b5b602083019150836020820283011115611614576116136115c0565b5b9250929050565b600080600080600060608688031215611637576116366112b3565b5b6000611645888289016112de565b955050602086013567ffffffffffffffff811115611666576116656112b8565b5b611672888289016115c5565b9450945050604086013567ffffffffffffffff811115611695576116946112b8565b5b6116a1888289016115c5565b92509250509295509295909350565b6116b9816112bd565b82525050565b60006020820190506116d460008301846116b0565b92915050565b6000806000604084860312156116f3576116f26112b3565b5b6000611701868287016112de565b935050602084013567ffffffffffffffff811115611722576117216112b8565b5b61172e868287016115c5565b92509250509250925092565b600080fd5b7f4e487b7100000000000000000000000000000000000000000000000000000000600052604160045260246000fd5b6117778261136f565b810181811067ffffffffffffffff821117156117965761179561173f565b5b80604052505050565b60006117a96112a9565b90506117b5828261176e565b919050565b600067ffffffffffffffff8211156117d5576117d461173f565b5b6117de8261136f565b9050602081019050919050565b82818337600083830152505050565b600061180d611808846117ba565b61179f565b9050828152602081018484840111156118295761182861173a565b5b6118348482856117eb565b509392505050565b600082601f830112611851576118506115b6565b5b81356118618482602086016117fa565b91505092915050565b60008060008060808587031215611884576118836112b3565b5b6000611892878288016112de565b945050602085013567ffffffffffffffff8111156118b3576118b26112b8565b5b6118bf8782880161183c565b935050604085013567ffffffffffffffff8111156118e0576118df6112b8565b5b6118ec8782880161183c565b925050606085013567ffffffffffffffff81111561190d5761190c6112b8565b5b6119198782880161183c565b91505092959194509250565b60008060006060848603121561193e5761193d6112b3565b5b600061194c868287016112de565b935050602061195d868287016112de565b925050604061196e868287016112de565b9150509250925092565b7f455243333636343a206e616d6520717565727920666f72206e6f6e657869737460008201527f656e742061747472696275746500000000000000000000000000000000000000602082015250565b60006119d4602d8361132b565b91506119df82611978565b604082019050919050565b60006020820190508181036000830152611a03816119c7565b9050919050565b7f4e487b7100000000000000000000000000000000000000000000000000000000600052602260045260246000fd5b60006002820490506001821680611a5157607f821691505b60208210811415611a6557611a64611a0a565b5b50919050565b7f455243333636343a20746f6b656e20686173206e6f742061747461636865642060008201527f7468652061747472696275746500000000000000000000000000000000000000602082015250565b6000611ac7602d8361132b565b9150611ad282611a6b565b604082019050919050565b60006020820190508181036000830152611af681611aba565b9050919050565b7f4e487b7100000000000000000000000000000000000000000000000000000000600052603260045260246000fd5b7f455243333636343a20626174636841747461636820666f72206e6f6e6578697360008201527f74656e7420617474726962757465000000000000000000000000000000000000602082015250565b6000611b88602e8361132b565b9150611b9382611b2c565b604082019050919050565b60006020820190508181036000830152611bb781611b7b565b9050919050565b7f4e487b7100000000000000000000000000000000000000000000000000000000600052601160045260246000fd5b6000611bf8826112bd565b9150611c03836112bd565b9250827fffffffffffffffffffffffffffffffffffffffffffffffffffffffffffffffff03821115611c3857611c37611bbe565b5b828201905092915050565b6000611c4e826112bd565b91507fffffffffffffffffffffffffffffffffffffffffffffffffffffffffffffffff821415611c8157611c80611bbe565b5b600182019050919050565b600081905092915050565b600080fd5b6000611ca88385611c8c565b93507f07ffffffffffffffffffffffffffffffffffffffffffffffffffffffffffffff831115611cdb57611cda611c97565b5b602083029250611cec8385846117eb565b82840190509392505050565b6000611d05828486611c9c565b91508190509392505050565b6000819050919050565b6000819050919050565b6000611d40611d3b611d3684611d11565b611d1b565b6112bd565b9050919050565b611d5081611d25565b82525050565b6000611d6283856114a1565b93507f07ffffffffffffffffffffffffffffffffffffffffffffffffffffffffffffff831115611d9557611d94611c97565b5b602083029250611da68385846117eb565b82840190509392505050565b6000606082019050611dc76000830187611d47565b611dd460208301866116b0565b8181036040830152611de7818486611d56565b905095945050505050565b7f455243333636343a2073796d626f6c20717565727920666f72206e6f6e65786960008201527f7374656e74206174747269627574650000000000000000000000000000000000602082015250565b6000611e4e602f8361132b565b9150611e5982611df2565b604082019050919050565b60006020820190508181036000830152611e7d81611e41565b9050919050565b7f455243333636343a2055524920717565727920666f72206e6f6e65786973746560008201527f6e74206174747269627574650000000000000000000000000000000000000000602082015250565b6000611ee0602c8361132b565b9150611eeb82611e84565b604082019050919050565b60006020820190508181036000830152611f0f81611ed3565b9050919050565b600081905092915050565b6000611f2c82611320565b611f368185611f16565b9350611f4681856020860161133c565b80840191505092915050565b6000611f5e8285611f21565b9150611f6a8284611f21565b91508190509392505050565b60008190508160005260206000209050919050565b60008154611f9881611a39565b611fa28186611f16565b94506001821660008114611fbd5760018114611fce57612001565b60ff19831686528186019350612001565b611fd785611f76565b60005b83811015611ff957815481890152600182019150602081019050611fda565b838801955050505b50505092915050565b60006120168285611f8b565b91506120228284611f21565b91508190509392505050565b7f455243333636343a2061747461636820666f72206e6f6e6578697374656e742060008201527f6174747269627574650000000000000000000000000000000000000000000000602082015250565b600061208a60298361132b565b91506120958261202e565b604082019050919050565b600060208201905081810360008301526120b98161207d565b9050919050565b60006060820190506120d56000830186611d47565b6120e260208301856116b0565b6120ef60408301846116b0565b949350505050565b7f4e487b7100000000000000000000000000000000000000000000000000000000600052601260045260246000fd5b6000612131826112bd565b915061213c836112bd565b92508261214c5761214b6120f7565b5b828204905092915050565b6000612162826112bd565b915061216d836112bd565b9250828210156121805761217f611bbe565b5b828203905092915050565b6000612196826112bd565b91506121a1836112bd565b9250826121b1576121b06120f7565b5b828206905092915050565b7f455243333636343a2061747472696275746520616c726561647920657869737460008201527f7300000000000000000000000000000000000000000000000000000000000000602082015250565b600061221860218361132b565b9150612223826121bc565b604082019050919050565b600060208201905081810360008301526122478161220b565b9050919050565b600060608201905081810360008301526122688186611380565b9050818103602083015261227c8185611380565b905081810360408301526122908184611380565b905094935050505056fea26469706673582212203d685e81e76194e3c8253707a3560cc555ac0dfd9864b5d06df6c6558069af9c64736f6c634300080b0033",
  "immutableReferences": {},
  "source": "pragma solidity ^0.8.0;\n\nimport \"./ERC3664/ERC3664.sol\";\nimport \"openzeppelin-solidity/contracts/token/ERC721/ERC721.sol\";\n\ncontract Character is ERC3664{\n    constructor () ERC3664(\"https://foxNFT\"){}\n\n    function mint(\n        uint256 attrId,\n        string memory _name,\n        string memory _symbol,\n        string memory _uri\n    )public returns(bool){\n        _mint(attrId, _name, _symbol, _uri);\n        return true;\n    }\n}\n",
  "sourcePath": "/Users/li/Character/src/contracts/Character.sol",
  "compiler": {
    "name": "solc",
    "version": "0.8.11+commit.d7f03943.Emscripten.clang"
  },
  "schemaVersion": "3.4.4",
  "updatedAt": "2022-02-13T13:41:04.406Z",
  "networkType": "ethereum",
  "devdoc": {
    "kind": "dev",
    "methods": {
      "attach(uint256,uint256,uint256)": {
        "details": "See {IERC3664-attach}."
      },
      "attrURI(uint256)": {
        "details": "See {IERC721Metadata-attrURI}."
      },
      "attributesOf(uint256)": {
        "details": "See {IERC3664-attributesOf}."
      },
      "balanceOf(uint256,uint256)": {
        "details": "See {IERC3664-balanceOf}."
      },
      "balanceOfBatch(uint256,uint256[])": {
        "details": "See {IERC3664-balanceOfBatch}."
      },
      "batchAttach(uint256,uint256[],uint256[])": {
        "details": "See {IERC3664-batchAttach}."
      },
      "name(uint256)": {
        "details": "See {IERC3664Metadata-name}."
      },
      "primaryAttributeOf(uint256)": {
        "details": "See {IERC3664-primaryAttributeOf}."
      },
      "setPrimaryAttribute(uint256,uint256)": {
        "details": "See {IERC3664-setPrimaryAttribute}."
      },
      "supportsInterface(bytes4)": {
        "details": "See {IERC165-supportsInterface}."
      },
      "symbol(uint256)": {
        "details": "See {IERC3664Metadata-symbol}."
      }
    },
    "version": 1
  },
  "userdoc": {
    "kind": "user",
    "methods": {},
    "version": 1
  }
}