{
  "contractName": "ERC3664",
  "abi": [
    {
      "inputs": [
        {
          "internalType": "string",
          "name": "uri_",
          "type": "string"
        }
      ],
      "stateMutability": "nonpayable",
      "type": "constructor"
    },
    {
      "anonymous": false,
      "inputs": [
        {
          "indexed": true,
          "internalType": "uint256",
          "name": "attrId",
          "type": "uint256"
        },
        {
          "indexed": false,
          "internalType": "string",
          "name": "name",
          "type": "string"
        },
        {
          "indexed": false,
          "internalType": "string",
          "name": "symbol",
          "type": "string"
        },
        {
          "indexed": false,
          "internalType": "string",
          "name": "uri",
          "type": "string"
        }
      ],
      "name": "AttributeCreated",
      "type": "event"
    },
    {
      "anonymous": false,
      "inputs": [
        {
          "indexed": true,
          "internalType": "address",
          "name": "operator",
          "type": "address"
        },
        {
          "indexed": false,
          "internalType": "uint256",
          "name": "from",
          "type": "uint256"
        },
        {
          "indexed": false,
          "internalType": "uint256",
          "name": "to",
          "type": "uint256"
        },
        {
          "indexed": true,
          "internalType": "uint256[]",
          "name": "attrIds",
          "type": "uint256[]"
        },
        {
          "indexed": false,
          "internalType": "uint256[]",
          "name": "values",
          "type": "uint256[]"
        }
      ],
      "name": "TransferBatch",
      "type": "event"
    },
    {
      "anonymous": false,
      "inputs": [
        {
          "indexed": true,
          "internalType": "address",
          "name": "operator",
          "type": "address"
        },
        {
          "indexed": false,
          "internalType": "uint256",
          "name": "from",
          "type": "uint256"
        },
        {
          "indexed": false,
          "internalType": "uint256",
          "name": "to",
          "type": "uint256"
        },
        {
          "indexed": true,
          "internalType": "uint256",
          "name": "attrId",
          "type": "uint256"
        },
        {
          "indexed": false,
          "internalType": "uint256",
          "name": "value",
          "type": "uint256"
        }
      ],
      "name": "TransferSingle",
      "type": "event"
    },
    {
      "inputs": [
        {
          "internalType": "uint256",
          "name": "",
          "type": "uint256"
        },
        {
          "internalType": "uint256",
          "name": "",
          "type": "uint256"
        }
      ],
      "name": "attrBalances",
      "outputs": [
        {
          "internalType": "uint256",
          "name": "",
          "type": "uint256"
        }
      ],
      "stateMutability": "view",
      "type": "function"
    },
    {
      "inputs": [
        {
          "internalType": "uint256",
          "name": "",
          "type": "uint256"
        },
        {
          "internalType": "uint256",
          "name": "",
          "type": "uint256"
        }
      ],
      "name": "attrs",
      "outputs": [
        {
          "internalType": "uint256",
          "name": "",
          "type": "uint256"
        }
      ],
      "stateMutability": "view",
      "type": "function"
    },
    {
      "inputs": [
        {
          "internalType": "bytes4",
          "name": "interfaceId",
          "type": "bytes4"
        }
      ],
      "name": "supportsInterface",
      "outputs": [
        {
          "internalType": "bool",
          "name": "",
          "type": "bool"
        }
      ],
      "stateMutability": "view",
      "type": "function"
    },
    {
      "inputs": [
        {
          "internalType": "uint256",
          "name": "attrId",
          "type": "uint256"
        }
      ],
      "name": "name",
      "outputs": [
        {
          "internalType": "string",
          "name": "",
          "type": "string"
        }
      ],
      "stateMutability": "view",
      "type": "function"
    },
    {
      "inputs": [
        {
          "internalType": "uint256",
          "name": "attrId",
          "type": "uint256"
        }
      ],
      "name": "symbol",
      "outputs": [
        {
          "internalType": "string",
          "name": "",
          "type": "string"
        }
      ],
      "stateMutability": "view",
      "type": "function"
    },
    {
      "inputs": [
        {
          "internalType": "uint256",
          "name": "attrId",
          "type": "uint256"
        }
      ],
      "name": "attrURI",
      "outputs": [
        {
          "internalType": "string",
          "name": "",
          "type": "string"
        }
      ],
      "stateMutability": "view",
      "type": "function"
    },
    {
      "inputs": [
        {
          "internalType": "uint256",
          "name": "tokenId",
          "type": "uint256"
        }
      ],
      "name": "primaryAttributeOf",
      "outputs": [
        {
          "internalType": "uint256",
          "name": "",
          "type": "uint256"
        }
      ],
      "stateMutability": "view",
      "type": "function"
    },
    {
      "inputs": [
        {
          "internalType": "uint256",
          "name": "tokenId",
          "type": "uint256"
        },
        {
          "internalType": "uint256",
          "name": "attrId",
          "type": "uint256"
        }
      ],
      "name": "setPrimaryAttribute",
      "outputs": [],
      "stateMutability": "nonpayable",
      "type": "function"
    },
    {
      "inputs": [
        {
          "internalType": "uint256",
          "name": "tokenId",
          "type": "uint256"
        }
      ],
      "name": "attributesOf",
      "outputs": [
        {
          "internalType": "uint256[]",
          "name": "",
          "type": "uint256[]"
        }
      ],
      "stateMutability": "view",
      "type": "function"
    },
    {
      "inputs": [
        {
          "internalType": "uint256",
          "name": "tokenId",
          "type": "uint256"
        },
        {
          "internalType": "uint256",
          "name": "attrId",
          "type": "uint256"
        }
      ],
      "name": "balanceOf",
      "outputs": [
        {
          "internalType": "uint256",
          "name": "",
          "type": "uint256"
        }
      ],
      "stateMutability": "view",
      "type": "function"
    },
    {
      "inputs": [
        {
          "internalType": "uint256",
          "name": "tokenId",
          "type": "uint256"
        },
        {
          "internalType": "uint256[]",
          "name": "attrIds",
          "type": "uint256[]"
        }
      ],
      "name": "balanceOfBatch",
      "outputs": [
        {
          "internalType": "uint256[]",
          "name": "",
          "type": "uint256[]"
        }
      ],
      "stateMutability": "view",
      "type": "function"
    },
    {
      "inputs": [
        {
          "internalType": "uint256",
          "name": "tokenId",
          "type": "uint256"
        },
        {
          "internalType": "uint256",
          "name": "attrId",
          "type": "uint256"
        },
        {
          "internalType": "uint256",
          "name": "amount",
          "type": "uint256"
        }
      ],
      "name": "attach",
      "outputs": [],
      "stateMutability": "nonpayable",
      "type": "function"
    },
    {
      "inputs": [
        {
          "internalType": "uint256",
          "name": "tokenId",
          "type": "uint256"
        },
        {
          "internalType": "uint256[]",
          "name": "attrIds",
          "type": "uint256[]"
        },
        {
          "internalType": "uint256[]",
          "name": "amounts",
          "type": "uint256[]"
        }
      ],
      "name": "batchAttach",
      "outputs": [],
      "stateMutability": "nonpayable",
      "type": "function"
    }
  ],
  "bytecode": "0x60806040523480156200001157600080fd5b506040516200216f3803806200216f8339818101604052810190620000379190620002b8565b62000048816200004f60201b60201c565b506200036e565b8060009080519060200190620000679291906200006b565b5050565b828054620000799062000338565b90600052602060002090601f0160209004810192826200009d5760008555620000e9565b82601f10620000b857805160ff1916838001178555620000e9565b82800160010185558215620000e9579182015b82811115620000e8578251825591602001919060010190620000cb565b5b509050620000f89190620000fc565b5090565b5b8082111562000117576000816000905550600101620000fd565b5090565b6000604051905090565b600080fd5b600080fd5b600080fd5b600080fd5b6000601f19601f8301169050919050565b7f4e487b7100000000000000000000000000000000000000000000000000000000600052604160045260246000fd5b620001848262000139565b810181811067ffffffffffffffff82111715620001a657620001a56200014a565b5b80604052505050565b6000620001bb6200011b565b9050620001c9828262000179565b919050565b600067ffffffffffffffff821115620001ec57620001eb6200014a565b5b620001f78262000139565b9050602081019050919050565b60005b838110156200022457808201518184015260208101905062000207565b8381111562000234576000848401525b50505050565b6000620002516200024b84620001ce565b620001af565b90508281526020810184848401111562000270576200026f62000134565b5b6200027d84828562000204565b509392505050565b600082601f8301126200029d576200029c6200012f565b5b8151620002af8482602086016200023a565b91505092915050565b600060208284031215620002d157620002d062000125565b5b600082015167ffffffffffffffff811115620002f257620002f16200012a565b5b620003008482850162000285565b91505092915050565b7f4e487b7100000000000000000000000000000000000000000000000000000000600052602260045260246000fd5b600060028204905060018216806200035157607f821691505b6020821081141562000368576200036762000309565b5b50919050565b611df1806200037e6000396000f3fe608060405234801561001057600080fd5b50600436106100ce5760003560e01c80634e41a1fb1161008c5780639bc5ae54116100665780639bc5ae541461025b578063b4101dce1461028b578063e829ffa1146102a7578063ea699633146102d7576100ce565b80634e41a1fb146101cb5780635d126110146101fb57806387e21d421461022b576100ce565b8062ad800c146100d357806301ffc9a71461010357806309363c44146101335780631070717b14610163578063132e09e31461017f578063169dbe6e1461019b575b600080fd5b6100ed60048036038101906100e8919061109f565b610307565b6040516100fa9190611165565b60405180910390f35b61011d600480360381019061011891906111df565b6103f7565b60405161012a9190611227565b60405180910390f35b61014d6004803603810190610148919061109f565b6104d9565b60405161015a9190611300565b60405180910390f35b61017d60048036038101906101789190611322565b610544565b005b610199600480360381019061019491906113c7565b6105a9565b005b6101b560048036038101906101b09190611322565b610854565b6040516101c2919061146b565b60405180910390f35b6101e560048036038101906101e0919061109f565b610885565b6040516101f29190611165565b60405180910390f35b61021560048036038101906102109190611486565b610975565b6040516102229190611300565b60405180910390f35b6102456004803603810190610240919061109f565b610a34565b604051610252919061146b565b60405180910390f35b6102756004803603810190610270919061109f565b610a51565b6040516102829190611165565b60405180910390f35b6102a560048036038101906102a091906114e6565b610bd9565b005b6102c160048036038101906102bc9190611322565b610d58565b6040516102ce919061146b565b60405180910390f35b6102f160048036038101906102ec9190611322565b610d7d565b6040516102fe919061146b565b60405180910390f35b606061031282610dac565b610351576040517f08c379a0000000000000000000000000000000000000000000000000000000008152600401610348906115ab565b60405180910390fd5b600160008381526020019081526020016000206000018054610372906115fa565b80601f016020809104026020016040519081016040528092919081815260200182805461039e906115fa565b80156103eb5780601f106103c0576101008083540402835291602001916103eb565b820191906000526020600020905b8154815290600101906020018083116103ce57829003601f168201915b50505050509050919050565b60007f8ee1b373000000000000000000000000000000000000000000000000000000007bffffffffffffffffffffffffffffffffffffffffffffffffffffffff1916827bffffffffffffffffffffffffffffffffffffffffffffffffffffffff191614806104c257507fd5298fa3000000000000000000000000000000000000000000000000000000007bffffffffffffffffffffffffffffffffffffffffffffffffffffffff1916827bffffffffffffffffffffffffffffffffffffffffffffffffffffffff1916145b806104d257506104d182610dd9565b5b9050919050565b60606004600083815260200190815260200160002080548060200260200160405190810160405280929190818152602001828054801561053857602002820191906000526020600020905b815481526020019060010190808311610524575b50505050509050919050565b61054e8282610e43565b61058d576040517f08c379a00000000000000000000000000000000000000000000000000000000081526004016105849061169e565b60405180910390fd5b8060036000848152602001908152602001600020819055505050565b60006105b3610e74565b905061065581600088888880806020026020016040519081016040528093929190818152602001838360200280828437600081840152601f19601f82011690508083019250505050505050878780806020026020016040519081016040528093929190818152602001838360200280828437600081840152601f19601f8201169050808301925050505050505060405180602001604052806000815250610e7c565b60005b858590508110156107de57610685868683818110610679576106786116be565b5b90506020020135610dac565b6106c4576040517f08c379a00000000000000000000000000000000000000000000000000000000081526004016106bb9061175f565b60405180910390fd5b6000600260008888858181106106dd576106dc6116be565b5b905060200201358152602001908152602001600020600089815260200190815260200160002054141561075e57600460008881526020019081526020016000208686838181106107305761072f6116be565b5b9050602002013590806001815401808255809150506001900390600052602060002001600090919091909150555b838382818110610771576107706116be565b5b905060200201356002600088888581811061078f5761078e6116be565b5b905060200201358152602001908152602001600020600089815260200190815260200160002060008282546107c491906117ae565b9250508190555080806107d690611804565b915050610658565b5084846040516107ef9291906118c8565b60405180910390208173ffffffffffffffffffffffffffffffffffffffff167fbfb4d8e5891aebe97980c97616b6b0af2006a58ccabe6e1b7e3da24d0906a85660008987876040516108449493929190611982565b60405180910390a3505050505050565b6004602052816000526040600020818154811061087057600080fd5b90600052602060002001600091509150505481565b606061089082610dac565b6108cf576040517f08c379a00000000000000000000000000000000000000000000000000000000081526004016108c690611a34565b60405180910390fd5b6001600083815260200190815260200160002060010180546108f0906115fa565b80601f016020809104026020016040519081016040528092919081815260200182805461091c906115fa565b80156109695780601f1061093e57610100808354040283529160200191610969565b820191906000526020600020905b81548152906001019060200180831161094c57829003601f168201915b50505050509050919050565b606060008383905067ffffffffffffffff81111561099657610995611a54565b5b6040519080825280602002602001820160405280156109c45781602001602082028036833780820191505090505b50905060005b84849050811015610a28576109f8868686848181106109ec576109eb6116be565b5b90506020020135610d7d565b828281518110610a0b57610a0a6116be565b5b60200260200101818152505080610a2190611804565b90506109ca565b50809150509392505050565b600060036000838152602001908152602001600020549050919050565b6060610a5c82610dac565b610a9b576040517f08c379a0000000000000000000000000000000000000000000000000000000008152600401610a9290611af5565b60405180910390fd5b6000600160008481526020019081526020016000206002018054610abe906115fa565b80601f0160208091040260200160405190810160405280929190818152602001828054610aea906115fa565b8015610b375780601f10610b0c57610100808354040283529160200191610b37565b820191906000526020600020905b815481529060010190602001808311610b1a57829003601f168201915b50505050509050600081511115610b7a5780610b5284610e84565b604051602001610b63929190611b51565b604051602081830303815290604052915050610bd4565b6000808054610b88906115fa565b905011610ba45760405180602001604052806000815250610bd0565b6000610baf84610e84565b604051602001610bc0929190611c09565b6040516020818303038152906040525b9150505b919050565b610be282610dac565b610c21576040517f08c379a0000000000000000000000000000000000000000000000000000000008152600401610c1890611c9f565b60405180910390fd5b6000610c2b610e74565b9050610c5b81600086610c3d87610fe5565b610c4687610fe5565b60405180602001604052806000815250610e7c565b6000600260008581526020019081526020016000206000868152602001908152602001600020541415610cc357600460008581526020019081526020016000208390806001815401808255809150506001900390600052602060002001600090919091909150555b816002600085815260200190815260200160002060008681526020019081526020016000206000828254610cf791906117ae565b92505081905550828173ffffffffffffffffffffffffffffffffffffffff167f73b5fbfbf0177b0de2ffe9fd0ae9887dd73d0d865db7ab5ff3c4a6b9bb8db1e360008786604051610d4a93929190611cbf565b60405180910390a350505050565b6002602052816000526040600020602052806000526040600020600091509150505481565b600060026000838152602001908152602001600020600084815260200190815260200160002054905092915050565b60006001600083815260200190815260200160002060030160009054906101000a900460ff169050919050565b60007f01ffc9a7000000000000000000000000000000000000000000000000000000007bffffffffffffffffffffffffffffffffffffffffffffffffffffffff1916827bffffffffffffffffffffffffffffffffffffffffffffffffffffffff1916149050919050565b6000806002600084815260200190815260200160002060008581526020019081526020016000205411905092915050565b600033905090565b505050505050565b60606000821415610ecc576040518060400160405280600181526020017f30000000000000000000000000000000000000000000000000000000000000008152509050610fe0565b600082905060005b60008214610efe578080610ee790611804565b915050600a82610ef79190611d25565b9150610ed4565b60008167ffffffffffffffff811115610f1a57610f19611a54565b5b6040519080825280601f01601f191660200182016040528015610f4c5781602001600182028036833780820191505090505b5090505b60008514610fd957600182610f659190611d56565b9150600a85610f749190611d8a565b6030610f8091906117ae565b60f81b818381518110610f9657610f956116be565b5b60200101907effffffffffffffffffffffffffffffffffffffffffffffffffffffffffffff1916908160001a905350600a85610fd29190611d25565b9450610f50565b8093505050505b919050565b60606000600167ffffffffffffffff81111561100457611003611a54565b5b6040519080825280602002602001820160405280156110325781602001602082028036833780820191505090505b509050828160008151811061104a576110496116be565b5b60200260200101818152505080915050919050565b600080fd5b600080fd5b6000819050919050565b61107c81611069565b811461108757600080fd5b50565b60008135905061109981611073565b92915050565b6000602082840312156110b5576110b461105f565b5b60006110c38482850161108a565b91505092915050565b600081519050919050565b600082825260208201905092915050565b60005b838110156111065780820151818401526020810190506110eb565b83811115611115576000848401525b50505050565b6000601f19601f8301169050919050565b6000611137826110cc565b61114181856110d7565b93506111518185602086016110e8565b61115a8161111b565b840191505092915050565b6000602082019050818103600083015261117f818461112c565b905092915050565b60007fffffffff0000000000000000000000000000000000000000000000000000000082169050919050565b6111bc81611187565b81146111c757600080fd5b50565b6000813590506111d9816111b3565b92915050565b6000602082840312156111f5576111f461105f565b5b6000611203848285016111ca565b91505092915050565b60008115159050919050565b6112218161120c565b82525050565b600060208201905061123c6000830184611218565b92915050565b600081519050919050565b600082825260208201905092915050565b6000819050602082019050919050565b61127781611069565b82525050565b6000611289838361126e565b60208301905092915050565b6000602082019050919050565b60006112ad82611242565b6112b7818561124d565b93506112c28361125e565b8060005b838110156112f35781516112da888261127d565b97506112e583611295565b9250506001810190506112c6565b5085935050505092915050565b6000602082019050818103600083015261131a81846112a2565b905092915050565b600080604083850312156113395761133861105f565b5b60006113478582860161108a565b92505060206113588582860161108a565b9150509250929050565b600080fd5b600080fd5b600080fd5b60008083601f84011261138757611386611362565b5b8235905067ffffffffffffffff8111156113a4576113a3611367565b5b6020830191508360208202830111156113c0576113bf61136c565b5b9250929050565b6000806000806000606086880312156113e3576113e261105f565b5b60006113f18882890161108a565b955050602086013567ffffffffffffffff81111561141257611411611064565b5b61141e88828901611371565b9450945050604086013567ffffffffffffffff81111561144157611440611064565b5b61144d88828901611371565b92509250509295509295909350565b61146581611069565b82525050565b6000602082019050611480600083018461145c565b92915050565b60008060006040848603121561149f5761149e61105f565b5b60006114ad8682870161108a565b935050602084013567ffffffffffffffff8111156114ce576114cd611064565b5b6114da86828701611371565b92509250509250925092565b6000806000606084860312156114ff576114fe61105f565b5b600061150d8682870161108a565b935050602061151e8682870161108a565b925050604061152f8682870161108a565b9150509250925092565b7f455243333636343a206e616d6520717565727920666f72206e6f6e657869737460008201527f656e742061747472696275746500000000000000000000000000000000000000602082015250565b6000611595602d836110d7565b91506115a082611539565b604082019050919050565b600060208201905081810360008301526115c481611588565b9050919050565b7f4e487b7100000000000000000000000000000000000000000000000000000000600052602260045260246000fd5b6000600282049050600182168061161257607f821691505b60208210811415611626576116256115cb565b5b50919050565b7f455243333636343a20746f6b656e20686173206e6f742061747461636865642060008201527f7468652061747472696275746500000000000000000000000000000000000000602082015250565b6000611688602d836110d7565b91506116938261162c565b604082019050919050565b600060208201905081810360008301526116b78161167b565b9050919050565b7f4e487b7100000000000000000000000000000000000000000000000000000000600052603260045260246000fd5b7f455243333636343a20626174636841747461636820666f72206e6f6e6578697360008201527f74656e7420617474726962757465000000000000000000000000000000000000602082015250565b6000611749602e836110d7565b9150611754826116ed565b604082019050919050565b600060208201905081810360008301526117788161173c565b9050919050565b7f4e487b7100000000000000000000000000000000000000000000000000000000600052601160045260246000fd5b60006117b982611069565b91506117c483611069565b9250827fffffffffffffffffffffffffffffffffffffffffffffffffffffffffffffffff038211156117f9576117f861177f565b5b828201905092915050565b600061180f82611069565b91507fffffffffffffffffffffffffffffffffffffffffffffffffffffffffffffffff8214156118425761184161177f565b5b600182019050919050565b600081905092915050565b600080fd5b82818337600083830152505050565b6000611878838561184d565b93507f07ffffffffffffffffffffffffffffffffffffffffffffffffffffffffffffff8311156118ab576118aa611858565b5b6020830292506118bc83858461185d565b82840190509392505050565b60006118d582848661186c565b91508190509392505050565b6000819050919050565b6000819050919050565b600061191061190b611906846118e1565b6118eb565b611069565b9050919050565b611920816118f5565b82525050565b6000611932838561124d565b93507f07ffffffffffffffffffffffffffffffffffffffffffffffffffffffffffffff83111561196557611964611858565b5b60208302925061197683858461185d565b82840190509392505050565b60006060820190506119976000830187611917565b6119a4602083018661145c565b81810360408301526119b7818486611926565b905095945050505050565b7f455243333636343a2073796d626f6c20717565727920666f72206e6f6e65786960008201527f7374656e74206174747269627574650000000000000000000000000000000000602082015250565b6000611a1e602f836110d7565b9150611a29826119c2565b604082019050919050565b60006020820190508181036000830152611a4d81611a11565b9050919050565b7f4e487b7100000000000000000000000000000000000000000000000000000000600052604160045260246000fd5b7f455243333636343a2055524920717565727920666f72206e6f6e65786973746560008201527f6e74206174747269627574650000000000000000000000000000000000000000602082015250565b6000611adf602c836110d7565b9150611aea82611a83565b604082019050919050565b60006020820190508181036000830152611b0e81611ad2565b9050919050565b600081905092915050565b6000611b2b826110cc565b611b358185611b15565b9350611b458185602086016110e8565b80840191505092915050565b6000611b5d8285611b20565b9150611b698284611b20565b91508190509392505050565b60008190508160005260206000209050919050565b60008154611b97816115fa565b611ba18186611b15565b94506001821660008114611bbc5760018114611bcd57611c00565b60ff19831686528186019350611c00565b611bd685611b75565b60005b83811015611bf857815481890152600182019150602081019050611bd9565b838801955050505b50505092915050565b6000611c158285611b8a565b9150611c218284611b20565b91508190509392505050565b7f455243333636343a2061747461636820666f72206e6f6e6578697374656e742060008201527f6174747269627574650000000000000000000000000000000000000000000000602082015250565b6000611c896029836110d7565b9150611c9482611c2d565b604082019050919050565b60006020820190508181036000830152611cb881611c7c565b9050919050565b6000606082019050611cd46000830186611917565b611ce1602083018561145c565b611cee604083018461145c565b949350505050565b7f4e487b7100000000000000000000000000000000000000000000000000000000600052601260045260246000fd5b6000611d3082611069565b9150611d3b83611069565b925082611d4b57611d4a611cf6565b5b828204905092915050565b6000611d6182611069565b9150611d6c83611069565b925082821015611d7f57611d7e61177f565b5b828203905092915050565b6000611d9582611069565b9150611da083611069565b925082611db057611daf611cf6565b5b82820690509291505056fea2646970667358221220ef935595d69234aa43b4997dc8cc7d580d1d5d34ec4f7326dd931423aaa9046d64736f6c634300080b0033",
  "immutableReferences": {},
  "source": "// SPDX-License-Identifier: MIT\n\npragma solidity ^0.8.0;\n\nimport \"openzeppelin-solidity/contracts/utils/Context.sol\";\nimport \"openzeppelin-solidity/contracts/utils/Strings.sol\";\nimport \"openzeppelin-solidity/contracts/utils/introspection/ERC165.sol\";\nimport \"./IERC3664.sol\";\nimport \"./extensions/IERC3664Metadata.sol\";\n\ncontract ERC3664 is Context, ERC165, IERC3664, IERC3664Metadata {\n    using Strings for uint256;\n\n    struct AttrMetadata {\n        string name;\n        string symbol;\n        string uri;\n        bool exist;\n    }\n\n    // Used as the URI for all attribute types by relying on ID substitution, e.g. https://attr-cdn-domain/{id}.json\n    string private _baseUri;\n    // attrId => metadata\n    mapping(uint256 => AttrMetadata) private _attrMetadatas;\n    // attrId => tokenId => amount\n    mapping(uint256 => mapping(uint256 => uint256)) public attrBalances;\n    // tokenId => primary attribute Id\n    mapping(uint256 => uint256) private _primaryAttrs;\n    // tokenId => all attached attributes\n    mapping(uint256 => uint256[]) public attrs;\n\n    constructor(string memory uri_) {\n        _setURI(uri_);\n    }\n\n    /**\n     * @dev See {IERC165-supportsInterface}.\n     */\n    function supportsInterface(bytes4 interfaceId)\n        public\n        view\n        virtual\n        override(ERC165, IERC165)\n        returns (bool)\n    {\n        return\n            interfaceId == type(IERC3664).interfaceId ||\n            interfaceId == type(IERC3664Metadata).interfaceId ||\n            super.supportsInterface(interfaceId);\n    }\n\n    /**\n     * @dev See {IERC3664Metadata-name}.\n     */\n    function name(uint256 attrId)\n        public\n        view\n        virtual\n        override\n        returns (string memory)\n    {\n        require(\n            _attrExists(attrId),\n            \"ERC3664: name query for nonexistent attribute\"\n        );\n\n        return _attrMetadatas[attrId].name;\n    }\n\n    /**\n     * @dev See {IERC3664Metadata-symbol}.\n     */\n    function symbol(uint256 attrId)\n        public\n        view\n        virtual\n        override\n        returns (string memory)\n    {\n        require(\n            _attrExists(attrId),\n            \"ERC3664: symbol query for nonexistent attribute\"\n        );\n\n        return _attrMetadatas[attrId].symbol;\n    }\n\n    /**\n     * @dev See {IERC721Metadata-attrURI}.\n     */\n    function attrURI(uint256 attrId)\n        public\n        view\n        virtual\n        override\n        returns (string memory)\n    {\n        require(\n            _attrExists(attrId),\n            \"ERC3664: URI query for nonexistent attribute\"\n        );\n\n        string memory uri = _attrMetadatas[attrId].uri;\n        if (bytes(uri).length > 0) {\n            return string(abi.encodePacked(uri, attrId.toString()));\n        } else {\n            return\n                bytes(_baseUri).length > 0\n                    ? string(abi.encodePacked(_baseUri, attrId.toString()))\n                    : \"\";\n        }\n    }\n\n    /**\n     * @dev See {IERC3664-primaryAttributeOf}.\n     */\n    function primaryAttributeOf(uint256 tokenId)\n        public\n        view\n        virtual\n        override\n        returns (uint256)\n    {\n        return _primaryAttrs[tokenId];\n    }\n\n    /**\n     * @dev See {IERC3664-setPrimaryAttribute}.\n     */\n    function setPrimaryAttribute(uint256 tokenId, uint256 attrId)\n        public\n        virtual\n        override\n    {\n        require(\n            _hasAttr(tokenId, attrId),\n            \"ERC3664: token has not attached the attribute\"\n        );\n\n        _primaryAttrs[tokenId] = attrId;\n    }\n\n    /**\n     * @dev See {IERC3664-attributesOf}.\n     */\n    function attributesOf(uint256 tokenId)\n        public\n        view\n        virtual\n        override\n        returns (uint256[] memory)\n    {\n        return attrs[tokenId];\n    }\n\n    /**\n     * @dev See {IERC3664-balanceOf}.\n     */\n    function balanceOf(uint256 tokenId, uint256 attrId)\n        public\n        view\n        virtual\n        override\n        returns (uint256)\n    {\n        return attrBalances[attrId][tokenId];\n    }\n\n    /**\n     * @dev See {IERC3664-balanceOfBatch}.\n     */\n    function balanceOfBatch(uint256 tokenId, uint256[] calldata attrIds)\n        public\n        view\n        virtual\n        override\n        returns (uint256[] memory)\n    {\n        uint256[] memory batchBalances = new uint256[](attrIds.length);\n\n        for (uint256 i = 0; i < attrIds.length; ++i) {\n            batchBalances[i] = balanceOf(tokenId, attrIds[i]);\n        }\n\n        return batchBalances;\n    }\n\n    /**\n     * @dev See {IERC3664-attach}.\n     */\n    function attach(\n        uint256 tokenId,\n        uint256 attrId,\n        uint256 amount\n    ) public virtual override {\n        require(\n            _attrExists(attrId),\n            \"ERC3664: attach for nonexistent attribute\"\n        );\n\n        address operator = _msgSender();\n\n        _beforeAttrTransfer(\n            operator,\n            0,\n            tokenId,\n            _asSingletonArray(attrId),\n            _asSingletonArray(amount),\n            \"\"\n        );\n\n        if (attrBalances[attrId][tokenId] == 0) {\n            attrs[tokenId].push(attrId);\n        }\n\n        attrBalances[attrId][tokenId] += amount;\n\n        emit TransferSingle(operator, 0, tokenId, attrId, amount);\n    }\n\n    /**\n     * @dev See {IERC3664-batchAttach}.\n     */\n    function batchAttach(\n        uint256 tokenId,\n        uint256[] calldata attrIds,\n        uint256[] calldata amounts\n    ) public virtual override {\n        address operator = _msgSender();\n\n        _beforeAttrTransfer(operator, 0, tokenId, attrIds, amounts, \"\");\n\n        for (uint256 i = 0; i < attrIds.length; i++) {\n            require(\n                _attrExists(attrIds[i]),\n                \"ERC3664: batchAttach for nonexistent attribute\"\n            );\n\n            if (attrBalances[attrIds[i]][tokenId] == 0) {\n                attrs[tokenId].push(attrIds[i]);\n            }\n\n            attrBalances[attrIds[i]][tokenId] += amounts[i];\n        }\n\n        emit TransferBatch(operator, 0, tokenId, attrIds, amounts);\n    }\n\n    /**\n     * @dev Mint new attribute type with metadata.\n     *\n     * Emits a {NewAttribute} event.\n     */\n    function _mint(\n        uint256 attrId,\n        string memory _name,\n        string memory _symbol,\n        string memory _uri\n    ) internal virtual {\n        require(!_attrExists(attrId), \"ERC3664: attribute already exists\");\n\n        AttrMetadata memory data = AttrMetadata(_name, _symbol, _uri, true);\n        _attrMetadatas[attrId] = data;\n\n        emit AttributeCreated(attrId, _name, _symbol, _uri);\n    }\n\n    /**\n     * @dev [Batched] version of {_mint}.\n     */\n    function _mintBatch(\n        uint256[] memory attrIds,\n        string[] memory names,\n        string[] memory symbols,\n        string[] memory uris\n    ) internal virtual {\n        require(\n            attrIds.length == names.length,\n            \"ERC3664: attrIds and names length mismatch\"\n        );\n        require(\n            names.length == symbols.length,\n            \"ERC3664: names and symbols length mismatch\"\n        );\n        require(\n            symbols.length == uris.length,\n            \"ERC3664: symbols and uris length mismatch\"\n        );\n\n        for (uint256 i = 0; i < attrIds.length; i++) {\n            _mint(attrIds[i], names[i], symbols[i], uris[i]);\n        }\n    }\n\n    /**\n     * @dev Destroys `amount` values of attribute type `attrId` from `tokenId`\n     */\n    function _burn(\n        uint256 tokenId,\n        uint256 attrId,\n        uint256 amount\n    ) internal virtual {\n        address operator = _msgSender();\n\n        _beforeAttrTransfer(\n            operator,\n            tokenId,\n            0,\n            _asSingletonArray(attrId),\n            _asSingletonArray(amount),\n            \"\"\n        );\n\n        uint256 tokenBalance = attrBalances[attrId][tokenId];\n        require(\n            tokenBalance >= amount,\n            \"ERC3664: insufficient balance for transfer\"\n        );\n        unchecked {\n            attrBalances[attrId][tokenId] = tokenBalance - amount;\n        }\n\n        emit TransferSingle(operator, tokenId, 0, attrId, amount);\n    }\n\n    /**\n     * @dev [Batched] version of {_burn}.\n     */\n    function _burnBatch(\n        uint256 tokenId,\n        uint256[] memory attrIds,\n        uint256[] memory amounts\n    ) internal virtual {\n        require(\n            attrIds.length == amounts.length,\n            \"ERC3664: attrIds and amounts length mismatch\"\n        );\n\n        address operator = _msgSender();\n\n        _beforeAttrTransfer(operator, tokenId, 0, attrIds, amounts, \"\");\n\n        for (uint256 i = 0; i < attrIds.length; i++) {\n            uint256 tokenBalance = attrBalances[attrIds[i]][tokenId];\n            require(\n                tokenBalance >= amounts[i],\n                \"ERC3664: insufficient balance for transfer\"\n            );\n            unchecked {\n                attrBalances[attrIds[i]][tokenId] = tokenBalance - amounts[i];\n            }\n        }\n\n        emit TransferBatch(operator, tokenId, 0, attrIds, amounts);\n    }\n\n    /**\n     * @dev Hook that is called before any attribute transfer. This includes attaching\n     * and removing, as well as batched variants.\n     *\n     * The same hook is called on both single and batched variants. For single\n     * attaches, the length of the `attrIds` and `amounts` arrays will be 1.\n     *\n     * Calling conditions (for each `attrIds` and `amounts` pair):\n     */\n    function _beforeAttrTransfer(\n        address operator,\n        uint256 from,\n        uint256 to,\n        uint256[] memory attrIds,\n        uint256[] memory amounts,\n        bytes memory data\n    ) internal virtual {}\n\n    /**\n     * @dev Sets a new URI for all attribute types\n     *\n     * If set, the resulting URI for each\n     * attribute will be the concatenation of the `_baseUri` and the `attrId`. Empty\n     * by default, can be overriden in child contracts.\n     */\n    function _setURI(string memory newuri) internal virtual {\n        _baseUri = newuri;\n    }\n\n    /**\n     * @dev Returns whether `attrId` exists.\n     *\n     * Attribute start existing when they are minted (`_mint`),\n     * and stop existing when they are burned (`_burn`).\n     */\n    function _attrExists(uint256 attrId) internal view returns (bool) {\n        return _attrMetadatas[attrId].exist;\n    }\n\n    function _hasAttr(uint256 tokenId, uint256 attrId)\n        internal\n        view\n        returns (bool)\n    {\n        return attrBalances[attrId][tokenId] > 0;\n    }\n\n    function _asSingletonArray(uint256 element)\n        internal\n        pure\n        returns (uint256[] memory)\n    {\n        uint256[] memory array = new uint256[](1);\n        array[0] = element;\n\n        return array;\n    }\n\n    function _removeByValue(uint256[] storage values, uint256 value) internal {\n        uint256 i = 0;\n        while (values[i] != value) {\n            i++;\n        }\n        delete values[i];\n    }\n}\n",
  "sourcePath": "/Users/li/Character/src/contracts/ERC3664/ERC3664.sol",
  "compiler": {
    "name": "solc",
    "version": "0.8.11+commit.d7f03943.Emscripten.clang"
  },
  "schemaVersion": "3.4.4",
  "updatedAt": "2022-02-19T15:51:59.857Z",
  "devdoc": {
    "kind": "dev",
    "methods": {
      "attach(uint256,uint256,uint256)": {
        "details": "See {IERC3664-attach}."
      },
      "attrURI(uint256)": {
        "details": "See {IERC721Metadata-attrURI}."
      },
      "attributesOf(uint256)": {
        "details": "See {IERC3664-attributesOf}."
      },
      "balanceOf(uint256,uint256)": {
        "details": "See {IERC3664-balanceOf}."
      },
      "balanceOfBatch(uint256,uint256[])": {
        "details": "See {IERC3664-balanceOfBatch}."
      },
      "batchAttach(uint256,uint256[],uint256[])": {
        "details": "See {IERC3664-batchAttach}."
      },
      "name(uint256)": {
        "details": "See {IERC3664Metadata-name}."
      },
      "primaryAttributeOf(uint256)": {
        "details": "See {IERC3664-primaryAttributeOf}."
      },
      "setPrimaryAttribute(uint256,uint256)": {
        "details": "See {IERC3664-setPrimaryAttribute}."
      },
      "supportsInterface(bytes4)": {
        "details": "See {IERC165-supportsInterface}."
      },
      "symbol(uint256)": {
        "details": "See {IERC3664Metadata-symbol}."
      }
    },
    "version": 1
  },
  "userdoc": {
    "kind": "user",
    "methods": {},
    "version": 1
  }
}