{
  "contractName": "ERC3664Generic",
  "abi": [
    {
      "inputs": [
        {
          "internalType": "string",
          "name": "uri_",
          "type": "string"
        }
      ],
      "stateMutability": "nonpayable",
      "type": "constructor"
    },
    {
      "anonymous": false,
      "inputs": [
        {
          "indexed": true,
          "internalType": "uint256",
          "name": "attrId",
          "type": "uint256"
        },
        {
          "indexed": false,
          "internalType": "string",
          "name": "name",
          "type": "string"
        },
        {
          "indexed": false,
          "internalType": "string",
          "name": "symbol",
          "type": "string"
        },
        {
          "indexed": false,
          "internalType": "string",
          "name": "uri",
          "type": "string"
        }
      ],
      "name": "AttributeCreated",
      "type": "event"
    },
    {
      "anonymous": false,
      "inputs": [
        {
          "indexed": true,
          "internalType": "bytes32",
          "name": "role",
          "type": "bytes32"
        },
        {
          "indexed": true,
          "internalType": "bytes32",
          "name": "previousAdminRole",
          "type": "bytes32"
        },
        {
          "indexed": true,
          "internalType": "bytes32",
          "name": "newAdminRole",
          "type": "bytes32"
        }
      ],
      "name": "RoleAdminChanged",
      "type": "event"
    },
    {
      "anonymous": false,
      "inputs": [
        {
          "indexed": true,
          "internalType": "bytes32",
          "name": "role",
          "type": "bytes32"
        },
        {
          "indexed": true,
          "internalType": "address",
          "name": "account",
          "type": "address"
        },
        {
          "indexed": true,
          "internalType": "address",
          "name": "sender",
          "type": "address"
        }
      ],
      "name": "RoleGranted",
      "type": "event"
    },
    {
      "anonymous": false,
      "inputs": [
        {
          "indexed": true,
          "internalType": "bytes32",
          "name": "role",
          "type": "bytes32"
        },
        {
          "indexed": true,
          "internalType": "address",
          "name": "account",
          "type": "address"
        },
        {
          "indexed": true,
          "internalType": "address",
          "name": "sender",
          "type": "address"
        }
      ],
      "name": "RoleRevoked",
      "type": "event"
    },
    {
      "anonymous": false,
      "inputs": [
        {
          "indexed": true,
          "internalType": "address",
          "name": "operator",
          "type": "address"
        },
        {
          "indexed": false,
          "internalType": "uint256",
          "name": "from",
          "type": "uint256"
        },
        {
          "indexed": false,
          "internalType": "uint256",
          "name": "to",
          "type": "uint256"
        },
        {
          "indexed": true,
          "internalType": "uint256[]",
          "name": "attrIds",
          "type": "uint256[]"
        },
        {
          "indexed": false,
          "internalType": "uint256[]",
          "name": "values",
          "type": "uint256[]"
        }
      ],
      "name": "TransferBatch",
      "type": "event"
    },
    {
      "anonymous": false,
      "inputs": [
        {
          "indexed": true,
          "internalType": "address",
          "name": "operator",
          "type": "address"
        },
        {
          "indexed": false,
          "internalType": "uint256",
          "name": "from",
          "type": "uint256"
        },
        {
          "indexed": false,
          "internalType": "uint256",
          "name": "to",
          "type": "uint256"
        },
        {
          "indexed": true,
          "internalType": "uint256",
          "name": "attrId",
          "type": "uint256"
        },
        {
          "indexed": false,
          "internalType": "uint256",
          "name": "value",
          "type": "uint256"
        }
      ],
      "name": "TransferSingle",
      "type": "event"
    },
    {
      "inputs": [],
      "name": "ATTACH_ROLE",
      "outputs": [
        {
          "internalType": "bytes32",
          "name": "",
          "type": "bytes32"
        }
      ],
      "stateMutability": "view",
      "type": "function"
    },
    {
      "inputs": [],
      "name": "DEFAULT_ADMIN_ROLE",
      "outputs": [
        {
          "internalType": "bytes32",
          "name": "",
          "type": "bytes32"
        }
      ],
      "stateMutability": "view",
      "type": "function"
    },
    {
      "inputs": [],
      "name": "MINTER_ROLE",
      "outputs": [
        {
          "internalType": "bytes32",
          "name": "",
          "type": "bytes32"
        }
      ],
      "stateMutability": "view",
      "type": "function"
    },
    {
      "inputs": [
        {
          "internalType": "uint256",
          "name": "",
          "type": "uint256"
        },
        {
          "internalType": "uint256",
          "name": "",
          "type": "uint256"
        }
      ],
      "name": "attrBalances",
      "outputs": [
        {
          "internalType": "uint256",
          "name": "",
          "type": "uint256"
        }
      ],
      "stateMutability": "view",
      "type": "function"
    },
    {
      "inputs": [
        {
          "internalType": "uint256",
          "name": "attrId",
          "type": "uint256"
        }
      ],
      "name": "attrURI",
      "outputs": [
        {
          "internalType": "string",
          "name": "",
          "type": "string"
        }
      ],
      "stateMutability": "view",
      "type": "function"
    },
    {
      "inputs": [
        {
          "internalType": "uint256",
          "name": "tokenId",
          "type": "uint256"
        }
      ],
      "name": "attributesOf",
      "outputs": [
        {
          "internalType": "uint256[]",
          "name": "",
          "type": "uint256[]"
        }
      ],
      "stateMutability": "view",
      "type": "function"
    },
    {
      "inputs": [
        {
          "internalType": "uint256",
          "name": "",
          "type": "uint256"
        },
        {
          "internalType": "uint256",
          "name": "",
          "type": "uint256"
        }
      ],
      "name": "attrs",
      "outputs": [
        {
          "internalType": "uint256",
          "name": "",
          "type": "uint256"
        }
      ],
      "stateMutability": "view",
      "type": "function"
    },
    {
      "inputs": [
        {
          "internalType": "uint256",
          "name": "tokenId",
          "type": "uint256"
        },
        {
          "internalType": "uint256",
          "name": "attrId",
          "type": "uint256"
        }
      ],
      "name": "balanceOf",
      "outputs": [
        {
          "internalType": "uint256",
          "name": "",
          "type": "uint256"
        }
      ],
      "stateMutability": "view",
      "type": "function"
    },
    {
      "inputs": [
        {
          "internalType": "uint256",
          "name": "tokenId",
          "type": "uint256"
        },
        {
          "internalType": "uint256[]",
          "name": "attrIds",
          "type": "uint256[]"
        }
      ],
      "name": "balanceOfBatch",
      "outputs": [
        {
          "internalType": "uint256[]",
          "name": "",
          "type": "uint256[]"
        }
      ],
      "stateMutability": "view",
      "type": "function"
    },
    {
      "inputs": [
        {
          "internalType": "bytes32",
          "name": "role",
          "type": "bytes32"
        }
      ],
      "name": "getRoleAdmin",
      "outputs": [
        {
          "internalType": "bytes32",
          "name": "",
          "type": "bytes32"
        }
      ],
      "stateMutability": "view",
      "type": "function"
    },
    {
      "inputs": [
        {
          "internalType": "bytes32",
          "name": "role",
          "type": "bytes32"
        },
        {
          "internalType": "uint256",
          "name": "index",
          "type": "uint256"
        }
      ],
      "name": "getRoleMember",
      "outputs": [
        {
          "internalType": "address",
          "name": "",
          "type": "address"
        }
      ],
      "stateMutability": "view",
      "type": "function"
    },
    {
      "inputs": [
        {
          "internalType": "bytes32",
          "name": "role",
          "type": "bytes32"
        }
      ],
      "name": "getRoleMemberCount",
      "outputs": [
        {
          "internalType": "uint256",
          "name": "",
          "type": "uint256"
        }
      ],
      "stateMutability": "view",
      "type": "function"
    },
    {
      "inputs": [
        {
          "internalType": "bytes32",
          "name": "role",
          "type": "bytes32"
        },
        {
          "internalType": "address",
          "name": "account",
          "type": "address"
        }
      ],
      "name": "grantRole",
      "outputs": [],
      "stateMutability": "nonpayable",
      "type": "function"
    },
    {
      "inputs": [
        {
          "internalType": "bytes32",
          "name": "role",
          "type": "bytes32"
        },
        {
          "internalType": "address",
          "name": "account",
          "type": "address"
        }
      ],
      "name": "hasRole",
      "outputs": [
        {
          "internalType": "bool",
          "name": "",
          "type": "bool"
        }
      ],
      "stateMutability": "view",
      "type": "function"
    },
    {
      "inputs": [
        {
          "internalType": "uint256",
          "name": "attrId",
          "type": "uint256"
        }
      ],
      "name": "name",
      "outputs": [
        {
          "internalType": "string",
          "name": "",
          "type": "string"
        }
      ],
      "stateMutability": "view",
      "type": "function"
    },
    {
      "inputs": [
        {
          "internalType": "uint256",
          "name": "tokenId",
          "type": "uint256"
        }
      ],
      "name": "primaryAttributeOf",
      "outputs": [
        {
          "internalType": "uint256",
          "name": "",
          "type": "uint256"
        }
      ],
      "stateMutability": "view",
      "type": "function"
    },
    {
      "inputs": [
        {
          "internalType": "bytes32",
          "name": "role",
          "type": "bytes32"
        },
        {
          "internalType": "address",
          "name": "account",
          "type": "address"
        }
      ],
      "name": "renounceRole",
      "outputs": [],
      "stateMutability": "nonpayable",
      "type": "function"
    },
    {
      "inputs": [
        {
          "internalType": "bytes32",
          "name": "role",
          "type": "bytes32"
        },
        {
          "internalType": "address",
          "name": "account",
          "type": "address"
        }
      ],
      "name": "revokeRole",
      "outputs": [],
      "stateMutability": "nonpayable",
      "type": "function"
    },
    {
      "inputs": [
        {
          "internalType": "uint256",
          "name": "tokenId",
          "type": "uint256"
        },
        {
          "internalType": "uint256",
          "name": "attrId",
          "type": "uint256"
        }
      ],
      "name": "setPrimaryAttribute",
      "outputs": [],
      "stateMutability": "nonpayable",
      "type": "function"
    },
    {
      "inputs": [
        {
          "internalType": "uint256",
          "name": "attrId",
          "type": "uint256"
        }
      ],
      "name": "symbol",
      "outputs": [
        {
          "internalType": "string",
          "name": "",
          "type": "string"
        }
      ],
      "stateMutability": "view",
      "type": "function"
    },
    {
      "inputs": [
        {
          "internalType": "uint256",
          "name": "_attrId",
          "type": "uint256"
        },
        {
          "internalType": "string",
          "name": "_name",
          "type": "string"
        },
        {
          "internalType": "string",
          "name": "_symbol",
          "type": "string"
        },
        {
          "internalType": "string",
          "name": "_uri",
          "type": "string"
        }
      ],
      "name": "mint",
      "outputs": [],
      "stateMutability": "nonpayable",
      "type": "function"
    },
    {
      "inputs": [
        {
          "internalType": "uint256[]",
          "name": "attrIds",
          "type": "uint256[]"
        },
        {
          "internalType": "string[]",
          "name": "names",
          "type": "string[]"
        },
        {
          "internalType": "string[]",
          "name": "symbols",
          "type": "string[]"
        },
        {
          "internalType": "string[]",
          "name": "uris",
          "type": "string[]"
        }
      ],
      "name": "mintBatch",
      "outputs": [],
      "stateMutability": "nonpayable",
      "type": "function"
    },
    {
      "inputs": [
        {
          "internalType": "uint256",
          "name": "tokenId",
          "type": "uint256"
        },
        {
          "internalType": "uint256",
          "name": "attrId",
          "type": "uint256"
        },
        {
          "internalType": "uint256",
          "name": "amount",
          "type": "uint256"
        }
      ],
      "name": "attach",
      "outputs": [],
      "stateMutability": "nonpayable",
      "type": "function"
    },
    {
      "inputs": [
        {
          "internalType": "uint256",
          "name": "tokenId",
          "type": "uint256"
        },
        {
          "internalType": "uint256[]",
          "name": "attrIds",
          "type": "uint256[]"
        },
        {
          "internalType": "uint256[]",
          "name": "amounts",
          "type": "uint256[]"
        }
      ],
      "name": "batchAttach",
      "outputs": [],
      "stateMutability": "nonpayable",
      "type": "function"
    },
    {
      "inputs": [
        {
          "internalType": "bytes4",
          "name": "interfaceId",
          "type": "bytes4"
        }
      ],
      "name": "supportsInterface",
      "outputs": [
        {
          "internalType": "bool",
          "name": "",
          "type": "bool"
        }
      ],
      "stateMutability": "view",
      "type": "function"
    }
  ],
  "bytecode": "0x60806040523480156200001157600080fd5b5060405162004303380380620043038339818101604052810190620000379190620005f8565b806200004981620000f760201b60201c565b506200006e6000801b620000626200011360201b60201c565b6200011b60201b60201c565b620000af7f9f2df0fed2c77648de5860a4cc508cd0818c85b8b8a1ab4ceeef8d981c8956a6620000a36200011360201b60201c565b6200011b60201b60201c565b620000f07f8b16888c296865dbfb46a3f5241555370dc784c1a8890b825830bee0b73996df620000e46200011360201b60201c565b6200011b60201b60201c565b50620006ae565b80600090805190602001906200010f929190620003ab565b5050565b600033905090565b6200013282826200016360201b62000f361760201c565b6200015e81600660008581526020019081526020016000206200017960201b62000f441790919060201c565b505050565b620001758282620001b160201b60201c565b5050565b6000620001a9836000018373ffffffffffffffffffffffffffffffffffffffff1660001b620002a360201b60201c565b905092915050565b620001c382826200031d60201b60201c565b6200029f5760016005600084815260200190815260200160002060000160008373ffffffffffffffffffffffffffffffffffffffff1673ffffffffffffffffffffffffffffffffffffffff16815260200190815260200160002060006101000a81548160ff021916908315150217905550620002446200011360201b60201c565b73ffffffffffffffffffffffffffffffffffffffff168173ffffffffffffffffffffffffffffffffffffffff16837f2f8788117e7eff1d82e926ec794901d17c78024a50270940304540a733656f0d60405160405180910390a45b5050565b6000620002b783836200038860201b60201c565b6200031257826000018290806001815401808255809150506001900390600052602060002001600090919091909150558260000180549050836001016000848152602001908152602001600020819055506001905062000317565b600090505b92915050565b60006005600084815260200190815260200160002060000160008373ffffffffffffffffffffffffffffffffffffffff1673ffffffffffffffffffffffffffffffffffffffff16815260200190815260200160002060009054906101000a900460ff16905092915050565b600080836001016000848152602001908152602001600020541415905092915050565b828054620003b99062000678565b90600052602060002090601f016020900481019282620003dd576000855562000429565b82601f10620003f857805160ff191683800117855562000429565b8280016001018555821562000429579182015b82811115620004285782518255916020019190600101906200040b565b5b5090506200043891906200043c565b5090565b5b80821115620004575760008160009055506001016200043d565b5090565b6000604051905090565b600080fd5b600080fd5b600080fd5b600080fd5b6000601f19601f8301169050919050565b7f4e487b7100000000000000000000000000000000000000000000000000000000600052604160045260246000fd5b620004c48262000479565b810181811067ffffffffffffffff82111715620004e657620004e56200048a565b5b80604052505050565b6000620004fb6200045b565b9050620005098282620004b9565b919050565b600067ffffffffffffffff8211156200052c576200052b6200048a565b5b620005378262000479565b9050602081019050919050565b60005b838110156200056457808201518184015260208101905062000547565b8381111562000574576000848401525b50505050565b6000620005916200058b846200050e565b620004ef565b905082815260208101848484011115620005b057620005af62000474565b5b620005bd84828562000544565b509392505050565b600082601f830112620005dd57620005dc6200046f565b5b8151620005ef8482602086016200057a565b91505092915050565b60006020828403121562000611576200061062000465565b5b600082015167ffffffffffffffff8111156200063257620006316200046a565b5b6200064084828501620005c5565b91505092915050565b7f4e487b7100000000000000000000000000000000000000000000000000000000600052602260045260246000fd5b600060028204905060018216806200069157607f821691505b60208210811415620006a857620006a762000649565b5b50919050565b613c4580620006be6000396000f3fe608060405234801561001057600080fd5b50600436106101725760003560e01c806387e21d42116100de578063acdd145411610097578063d539139311610071578063d5391393146104b7578063d547741f146104d5578063e829ffa1146104f1578063ea6996331461052157610172565b8063acdd14541461044f578063b4101dce1461046b578063ca15c8731461048757610172565b806387e21d42146103535780639010d07c1461038357806391d14854146103b357806398ec8f33146103e35780639bc5ae5414610401578063a217fddf1461043157610172565b8063248a9ca311610130578063248a9ca31461026f5780632f2ff15d1461029f57806336568abe146102bb5780633fffa0c1146102d75780634e41a1fb146102f35780635d1261101461032357610172565b8062ad800c1461017757806301ffc9a7146101a757806309363c44146101d75780631070717b14610207578063132e09e314610223578063169dbe6e1461023f575b600080fd5b610191600480360381019061018c919061236f565b610551565b60405161019e9190612435565b60405180910390f35b6101c160048036038101906101bc91906124af565b610641565b6040516101ce91906124f7565b60405180910390f35b6101f160048036038101906101ec919061236f565b610653565b6040516101fe91906125d0565b60405180910390f35b610221600480360381019061021c91906125f2565b6106be565b005b61023d60048036038101906102389190612697565b610723565b005b610259600480360381019061025491906125f2565b6107a7565b604051610266919061273b565b60405180910390f35b6102896004803603810190610284919061278c565b6107d8565b60405161029691906127c8565b60405180910390f35b6102b960048036038101906102b49190612841565b6107f8565b005b6102d560048036038101906102d09190612841565b61082c565b005b6102f160048036038101906102ec91906128d7565b610860565b005b61030d6004803603810190610308919061236f565b61094b565b60405161031a9190612435565b60405180910390f35b61033d600480360381019061033891906129c0565b610a3b565b60405161034a91906125d0565b60405180910390f35b61036d6004803603810190610368919061236f565b610afa565b60405161037a919061273b565b60405180910390f35b61039d60048036038101906103989190612a20565b610b17565b6040516103aa9190612a6f565b60405180910390f35b6103cd60048036038101906103c89190612841565b610b46565b6040516103da91906124f7565b60405180910390f35b6103eb610bb1565b6040516103f891906127c8565b60405180910390f35b61041b6004803603810190610416919061236f565b610bd5565b6040516104289190612435565b60405180910390f35b610439610d5d565b60405161044691906127c8565b60405180910390f35b61046960048036038101906104649190612bba565b610d64565b005b61048560048036038101906104809190612c75565b610de6565b005b6104a1600480360381019061049c919061278c565b610e66565b6040516104ae919061273b565b60405180910390f35b6104bf610e8a565b6040516104cc91906127c8565b60405180910390f35b6104ef60048036038101906104ea9190612841565b610eae565b005b61050b600480360381019061050691906125f2565b610ee2565b604051610518919061273b565b60405180910390f35b61053b600480360381019061053691906125f2565b610f07565b604051610548919061273b565b60405180910390f35b606061055c82610f74565b61059b576040517f08c379a000000000000000000000000000000000000000000000000000000000815260040161059290612d3a565b60405180910390fd5b6001600083815260200190815260200160002060000180546105bc90612d89565b80601f01602080910402602001604051908101604052809291908181526020018280546105e890612d89565b80156106355780601f1061060a57610100808354040283529160200191610635565b820191906000526020600020905b81548152906001019060200180831161061857829003601f168201915b50505050509050919050565b600061064c82610fa1565b9050919050565b6060600460008381526020019081526020016000208054806020026020016040519081016040528092919081815260200182805480156106b257602002820191906000526020600020905b81548152602001906001019080831161069e575b50505050509050919050565b6106c8828261101b565b610707576040517f08c379a00000000000000000000000000000000000000000000000000000000081526004016106fe90612e2d565b60405180910390fd5b8060036000848152602001908152602001600020819055505050565b6107547f8b16888c296865dbfb46a3f5241555370dc784c1a8890b825830bee0b73996df61074f61104c565b610b46565b610793576040517f08c379a000000000000000000000000000000000000000000000000000000000815260040161078a90612ebf565b60405180910390fd5b6107a08585858585611054565b5050505050565b600460205281600052604060002081815481106107c357600080fd5b90600052602060002001600091509150505481565b600060056000838152602001908152602001600020600101549050919050565b61080282826112ff565b6108278160066000858152602001908152602001600020610f4490919063ffffffff16565b505050565b6108368282611328565b61085b81600660008581526020019081526020016000206113ab90919063ffffffff16565b505050565b6108917f9f2df0fed2c77648de5860a4cc508cd0818c85b8b8a1ab4ceeef8d981c8956a661088c61104c565b610b46565b6108d0576040517f08c379a00000000000000000000000000000000000000000000000000000000081526004016108c790612f51565b60405180910390fd5b610941888880806020026020016040519081016040528093929190818152602001838360200280828437600081840152601f19601f820116905080830192505050505050508787906109229190613024565b86869061092f9190613024565b85859061093c9190613024565b6113db565b5050505050505050565b606061095682610f74565b610995576040517f08c379a000000000000000000000000000000000000000000000000000000000815260040161098c906130ab565b60405180910390fd5b6001600083815260200190815260200160002060010180546109b690612d89565b80601f01602080910402602001604051908101604052809291908181526020018280546109e290612d89565b8015610a2f5780601f10610a0457610100808354040283529160200191610a2f565b820191906000526020600020905b815481529060010190602001808311610a1257829003601f168201915b50505050509050919050565b606060008383905067ffffffffffffffff811115610a5c57610a5b612a8f565b5b604051908082528060200260200182016040528015610a8a5781602001602082028036833780820191505090505b50905060005b84849050811015610aee57610abe86868684818110610ab257610ab16130cb565b5b90506020020135610f07565b828281518110610ad157610ad06130cb565b5b60200260200101818152505080610ae790613129565b9050610a90565b50809150509392505050565b600060036000838152602001908152602001600020549050919050565b6000610b3e826006600086815260200190815260200160002061154190919063ffffffff16565b905092915050565b60006005600084815260200190815260200160002060000160008373ffffffffffffffffffffffffffffffffffffffff1673ffffffffffffffffffffffffffffffffffffffff16815260200190815260200160002060009054906101000a900460ff16905092915050565b7f8b16888c296865dbfb46a3f5241555370dc784c1a8890b825830bee0b73996df81565b6060610be082610f74565b610c1f576040517f08c379a0000000000000000000000000000000000000000000000000000000008152600401610c16906131e4565b60405180910390fd5b6000600160008481526020019081526020016000206002018054610c4290612d89565b80601f0160208091040260200160405190810160405280929190818152602001828054610c6e90612d89565b8015610cbb5780601f10610c9057610100808354040283529160200191610cbb565b820191906000526020600020905b815481529060010190602001808311610c9e57829003601f168201915b50505050509050600081511115610cfe5780610cd68461155b565b604051602001610ce7929190613240565b604051602081830303815290604052915050610d58565b6000808054610d0c90612d89565b905011610d285760405180602001604052806000815250610d54565b6000610d338461155b565b604051602001610d449291906132f8565b6040516020818303038152906040525b9150505b919050565b6000801b81565b610d957f9f2df0fed2c77648de5860a4cc508cd0818c85b8b8a1ab4ceeef8d981c8956a6610d9061104c565b610b46565b610dd4576040517f08c379a0000000000000000000000000000000000000000000000000000000008152600401610dcb90612f51565b60405180910390fd5b610de0848484846116bc565b50505050565b610e177f8b16888c296865dbfb46a3f5241555370dc784c1a8890b825830bee0b73996df610e1261104c565b610b46565b610e56576040517f08c379a0000000000000000000000000000000000000000000000000000000008152600401610e4d90612ebf565b60405180910390fd5b610e618383836117fe565b505050565b6000610e836006600084815260200190815260200160002061197d565b9050919050565b7f9f2df0fed2c77648de5860a4cc508cd0818c85b8b8a1ab4ceeef8d981c8956a681565b610eb88282611992565b610edd81600660008581526020019081526020016000206113ab90919063ffffffff16565b505050565b6002602052816000526040600020602052806000526040600020600091509150505481565b600060026000838152602001908152602001600020600084815260200190815260200160002054905092915050565b610f4082826119bb565b5050565b6000610f6c836000018373ffffffffffffffffffffffffffffffffffffffff1660001b611a9c565b905092915050565b60006001600083815260200190815260200160002060030160009054906101000a900460ff169050919050565b60007f5a05180f000000000000000000000000000000000000000000000000000000007bffffffffffffffffffffffffffffffffffffffffffffffffffffffff1916827bffffffffffffffffffffffffffffffffffffffffffffffffffffffff19161480611014575061101382611b0c565b5b9050919050565b6000806002600084815260200190815260200160002060008581526020019081526020016000205411905092915050565b600033905090565b600061105e61104c565b905061110081600088888880806020026020016040519081016040528093929190818152602001838360200280828437600081840152601f19601f82011690508083019250505050505050878780806020026020016040519081016040528093929190818152602001838360200280828437600081840152601f19601f8201169050808301925050505050505060405180602001604052806000815250611b86565b60005b8585905081101561128957611130868683818110611124576111236130cb565b5b90506020020135610f74565b61116f576040517f08c379a00000000000000000000000000000000000000000000000000000000081526004016111669061338e565b60405180910390fd5b600060026000888885818110611188576111876130cb565b5b905060200201358152602001908152602001600020600089815260200190815260200160002054141561120957600460008881526020019081526020016000208686838181106111db576111da6130cb565b5b9050602002013590806001815401808255809150506001900390600052602060002001600090919091909150555b83838281811061121c5761121b6130cb565b5b905060200201356002600088888581811061123a576112396130cb565b5b9050602002013581526020019081526020016000206000898152602001908152602001600020600082825461126f91906133ae565b92505081905550808061128190613129565b915050611103565b50848460405161129a929190613470565b60405180910390208173ffffffffffffffffffffffffffffffffffffffff167fbfb4d8e5891aebe97980c97616b6b0af2006a58ccabe6e1b7e3da24d0906a85660008987876040516112ef949392919061352a565b60405180910390a3505050505050565b611308826107d8565b6113198161131461104c565b611b8e565b61132383836119bb565b505050565b61133061104c565b73ffffffffffffffffffffffffffffffffffffffff168173ffffffffffffffffffffffffffffffffffffffff161461139d576040517f08c379a0000000000000000000000000000000000000000000000000000000008152600401611394906135dc565b60405180910390fd5b6113a78282611c2b565b5050565b60006113d3836000018373ffffffffffffffffffffffffffffffffffffffff1660001b611d0d565b905092915050565b825184511461141f576040517f08c379a00000000000000000000000000000000000000000000000000000000081526004016114169061366e565b60405180910390fd5b8151835114611463576040517f08c379a000000000000000000000000000000000000000000000000000000000815260040161145a90613700565b60405180910390fd5b80518251146114a7576040517f08c379a000000000000000000000000000000000000000000000000000000000815260040161149e90613792565b60405180910390fd5b60005b845181101561153a576115278582815181106114c9576114c86130cb565b5b60200260200101518583815181106114e4576114e36130cb565b5b60200260200101518584815181106114ff576114fe6130cb565b5b602002602001015185858151811061151a576115196130cb565b5b60200260200101516116bc565b808061153290613129565b9150506114aa565b5050505050565b60006115508360000183611e21565b60001c905092915050565b606060008214156115a3576040518060400160405280600181526020017f300000000000000000000000000000000000000000000000000000000000000081525090506116b7565b600082905060005b600082146115d55780806115be90613129565b915050600a826115ce91906137e1565b91506115ab565b60008167ffffffffffffffff8111156115f1576115f0612a8f565b5b6040519080825280601f01601f1916602001820160405280156116235781602001600182028036833780820191505090505b5090505b600085146116b05760018261163c9190613812565b9150600a8561164b9190613846565b603061165791906133ae565b60f81b81838151811061166d5761166c6130cb565b5b60200101907effffffffffffffffffffffffffffffffffffffffffffffffffffffffffffff1916908160001a905350600a856116a991906137e1565b9450611627565b8093505050505b919050565b6116c584610f74565b15611705576040517f08c379a00000000000000000000000000000000000000000000000000000000081526004016116fc906138e9565b60405180910390fd5b600060405180608001604052808581526020018481526020018381526020016001151581525090508060016000878152602001908152602001600020600082015181600001908051906020019061175d929190612282565b50602082015181600101908051906020019061177a929190612282565b506040820151816002019080519060200190611797929190612282565b5060608201518160030160006101000a81548160ff021916908315150217905550905050847fe3c3c9bbda1d6ccb059320eed92d395bd49272efb8a675a188a9d1b4e4da4ce28585856040516117ef93929190613909565b60405180910390a25050505050565b61180782610f74565b611846576040517f08c379a000000000000000000000000000000000000000000000000000000000815260040161183d906139c7565b60405180910390fd5b600061185061104c565b90506118808160008661186287611e4c565b61186b87611e4c565b60405180602001604052806000815250611b86565b60006002600085815260200190815260200160002060008681526020019081526020016000205414156118e857600460008581526020019081526020016000208390806001815401808255809150506001900390600052602060002001600090919091909150555b81600260008581526020019081526020016000206000868152602001908152602001600020600082825461191c91906133ae565b92505081905550828173ffffffffffffffffffffffffffffffffffffffff167f73b5fbfbf0177b0de2ffe9fd0ae9887dd73d0d865db7ab5ff3c4a6b9bb8db1e36000878660405161196f939291906139e7565b60405180910390a350505050565b600061198b82600001611ec6565b9050919050565b61199b826107d8565b6119ac816119a761104c565b611b8e565b6119b68383611c2b565b505050565b6119c58282610b46565b611a985760016005600084815260200190815260200160002060000160008373ffffffffffffffffffffffffffffffffffffffff1673ffffffffffffffffffffffffffffffffffffffff16815260200190815260200160002060006101000a81548160ff021916908315150217905550611a3d61104c565b73ffffffffffffffffffffffffffffffffffffffff168173ffffffffffffffffffffffffffffffffffffffff16837f2f8788117e7eff1d82e926ec794901d17c78024a50270940304540a733656f0d60405160405180910390a45b5050565b6000611aa88383611ed7565b611b01578260000182908060018154018082558091505060019003906000526020600020016000909190919091505582600001805490508360010160008481526020019081526020016000208190555060019050611b06565b600090505b92915050565b60007f7965db0b000000000000000000000000000000000000000000000000000000007bffffffffffffffffffffffffffffffffffffffffffffffffffffffff1916827bffffffffffffffffffffffffffffffffffffffffffffffffffffffff19161480611b7f5750611b7e82611efa565b5b9050919050565b505050505050565b611b988282610b46565b611c2757611bbd8173ffffffffffffffffffffffffffffffffffffffff166014611fdc565b611bcb8360001c6020611fdc565b604051602001611bdc929190613ab6565b6040516020818303038152906040526040517f08c379a0000000000000000000000000000000000000000000000000000000008152600401611c1e9190612435565b60405180910390fd5b5050565b611c358282610b46565b15611d095760006005600084815260200190815260200160002060000160008373ffffffffffffffffffffffffffffffffffffffff1673ffffffffffffffffffffffffffffffffffffffff16815260200190815260200160002060006101000a81548160ff021916908315150217905550611cae61104c565b73ffffffffffffffffffffffffffffffffffffffff168173ffffffffffffffffffffffffffffffffffffffff16837ff6391f5c32d9c69d2a47ea670b442974b53935d1edc7fd64eb21e047a839171b60405160405180910390a45b5050565b60008083600101600084815260200190815260200160002054905060008114611e15576000600182611d3f9190613812565b9050600060018660000180549050611d579190613812565b9050818114611dc6576000866000018281548110611d7857611d776130cb565b5b9060005260206000200154905080876000018481548110611d9c57611d9b6130cb565b5b90600052602060002001819055508387600101600083815260200190815260200160002081905550505b85600001805480611dda57611dd9613af0565b5b600190038181906000526020600020016000905590558560010160008681526020019081526020016000206000905560019350505050611e1b565b60009150505b92915050565b6000826000018281548110611e3957611e386130cb565b5b9060005260206000200154905092915050565b60606000600167ffffffffffffffff811115611e6b57611e6a612a8f565b5b604051908082528060200260200182016040528015611e995781602001602082028036833780820191505090505b5090508281600081518110611eb157611eb06130cb565b5b60200260200101818152505080915050919050565b600081600001805490509050919050565b600080836001016000848152602001908152602001600020541415905092915050565b60007f8ee1b373000000000000000000000000000000000000000000000000000000007bffffffffffffffffffffffffffffffffffffffffffffffffffffffff1916827bffffffffffffffffffffffffffffffffffffffffffffffffffffffff19161480611fc557507fd5298fa3000000000000000000000000000000000000000000000000000000007bffffffffffffffffffffffffffffffffffffffffffffffffffffffff1916827bffffffffffffffffffffffffffffffffffffffffffffffffffffffff1916145b80611fd55750611fd482612218565b5b9050919050565b606060006002836002611fef9190613b1f565b611ff991906133ae565b67ffffffffffffffff81111561201257612011612a8f565b5b6040519080825280601f01601f1916602001820160405280156120445781602001600182028036833780820191505090505b5090507f30000000000000000000000000000000000000000000000000000000000000008160008151811061207c5761207b6130cb565b5b60200101907effffffffffffffffffffffffffffffffffffffffffffffffffffffffffffff1916908160001a9053507f7800000000000000000000000000000000000000000000000000000000000000816001815181106120e0576120df6130cb565b5b60200101907effffffffffffffffffffffffffffffffffffffffffffffffffffffffffffff1916908160001a905350600060018460026121209190613b1f565b61212a91906133ae565b90505b60018111156121ca577f3031323334353637383961626364656600000000000000000000000000000000600f86166010811061216c5761216b6130cb565b5b1a60f81b828281518110612183576121826130cb565b5b60200101907effffffffffffffffffffffffffffffffffffffffffffffffffffffffffffff1916908160001a905350600485901c9450806121c390613b79565b905061212d565b506000841461220e576040517f08c379a000000000000000000000000000000000000000000000000000000000815260040161220590613bef565b60405180910390fd5b8091505092915050565b60007f01ffc9a7000000000000000000000000000000000000000000000000000000007bffffffffffffffffffffffffffffffffffffffffffffffffffffffff1916827bffffffffffffffffffffffffffffffffffffffffffffffffffffffff1916149050919050565b82805461228e90612d89565b90600052602060002090601f0160209004810192826122b057600085556122f7565b82601f106122c957805160ff19168380011785556122f7565b828001600101855582156122f7579182015b828111156122f65782518255916020019190600101906122db565b5b5090506123049190612308565b5090565b5b80821115612321576000816000905550600101612309565b5090565b6000604051905090565b600080fd5b600080fd5b6000819050919050565b61234c81612339565b811461235757600080fd5b50565b60008135905061236981612343565b92915050565b6000602082840312156123855761238461232f565b5b60006123938482850161235a565b91505092915050565b600081519050919050565b600082825260208201905092915050565b60005b838110156123d65780820151818401526020810190506123bb565b838111156123e5576000848401525b50505050565b6000601f19601f8301169050919050565b60006124078261239c565b61241181856123a7565b93506124218185602086016123b8565b61242a816123eb565b840191505092915050565b6000602082019050818103600083015261244f81846123fc565b905092915050565b60007fffffffff0000000000000000000000000000000000000000000000000000000082169050919050565b61248c81612457565b811461249757600080fd5b50565b6000813590506124a981612483565b92915050565b6000602082840312156124c5576124c461232f565b5b60006124d38482850161249a565b91505092915050565b60008115159050919050565b6124f1816124dc565b82525050565b600060208201905061250c60008301846124e8565b92915050565b600081519050919050565b600082825260208201905092915050565b6000819050602082019050919050565b61254781612339565b82525050565b6000612559838361253e565b60208301905092915050565b6000602082019050919050565b600061257d82612512565b612587818561251d565b93506125928361252e565b8060005b838110156125c35781516125aa888261254d565b97506125b583612565565b925050600181019050612596565b5085935050505092915050565b600060208201905081810360008301526125ea8184612572565b905092915050565b600080604083850312156126095761260861232f565b5b60006126178582860161235a565b92505060206126288582860161235a565b9150509250929050565b600080fd5b600080fd5b600080fd5b60008083601f84011261265757612656612632565b5b8235905067ffffffffffffffff81111561267457612673612637565b5b6020830191508360208202830111156126905761268f61263c565b5b9250929050565b6000806000806000606086880312156126b3576126b261232f565b5b60006126c18882890161235a565b955050602086013567ffffffffffffffff8111156126e2576126e1612334565b5b6126ee88828901612641565b9450945050604086013567ffffffffffffffff81111561271157612710612334565b5b61271d88828901612641565b92509250509295509295909350565b61273581612339565b82525050565b6000602082019050612750600083018461272c565b92915050565b6000819050919050565b61276981612756565b811461277457600080fd5b50565b60008135905061278681612760565b92915050565b6000602082840312156127a2576127a161232f565b5b60006127b084828501612777565b91505092915050565b6127c281612756565b82525050565b60006020820190506127dd60008301846127b9565b92915050565b600073ffffffffffffffffffffffffffffffffffffffff82169050919050565b600061280e826127e3565b9050919050565b61281e81612803565b811461282957600080fd5b50565b60008135905061283b81612815565b92915050565b600080604083850312156128585761285761232f565b5b600061286685828601612777565b92505060206128778582860161282c565b9150509250929050565b60008083601f84011261289757612896612632565b5b8235905067ffffffffffffffff8111156128b4576128b3612637565b5b6020830191508360208202830111156128d0576128cf61263c565b5b9250929050565b6000806000806000806000806080898b0312156128f7576128f661232f565b5b600089013567ffffffffffffffff81111561291557612914612334565b5b6129218b828c01612641565b9850985050602089013567ffffffffffffffff81111561294457612943612334565b5b6129508b828c01612881565b9650965050604089013567ffffffffffffffff81111561297357612972612334565b5b61297f8b828c01612881565b9450945050606089013567ffffffffffffffff8111156129a2576129a1612334565b5b6129ae8b828c01612881565b92509250509295985092959890939650565b6000806000604084860312156129d9576129d861232f565b5b60006129e78682870161235a565b935050602084013567ffffffffffffffff811115612a0857612a07612334565b5b612a1486828701612641565b92509250509250925092565b60008060408385031215612a3757612a3661232f565b5b6000612a4585828601612777565b9250506020612a568582860161235a565b9150509250929050565b612a6981612803565b82525050565b6000602082019050612a846000830184612a60565b92915050565b600080fd5b7f4e487b7100000000000000000000000000000000000000000000000000000000600052604160045260246000fd5b612ac7826123eb565b810181811067ffffffffffffffff82111715612ae657612ae5612a8f565b5b80604052505050565b6000612af9612325565b9050612b058282612abe565b919050565b600067ffffffffffffffff821115612b2557612b24612a8f565b5b612b2e826123eb565b9050602081019050919050565b82818337600083830152505050565b6000612b5d612b5884612b0a565b612aef565b905082815260208101848484011115612b7957612b78612a8a565b5b612b84848285612b3b565b509392505050565b600082601f830112612ba157612ba0612632565b5b8135612bb1848260208601612b4a565b91505092915050565b60008060008060808587031215612bd457612bd361232f565b5b6000612be28782880161235a565b945050602085013567ffffffffffffffff811115612c0357612c02612334565b5b612c0f87828801612b8c565b935050604085013567ffffffffffffffff811115612c3057612c2f612334565b5b612c3c87828801612b8c565b925050606085013567ffffffffffffffff811115612c5d57612c5c612334565b5b612c6987828801612b8c565b91505092959194509250565b600080600060608486031215612c8e57612c8d61232f565b5b6000612c9c8682870161235a565b9350506020612cad8682870161235a565b9250506040612cbe8682870161235a565b9150509250925092565b7f455243333636343a206e616d6520717565727920666f72206e6f6e657869737460008201527f656e742061747472696275746500000000000000000000000000000000000000602082015250565b6000612d24602d836123a7565b9150612d2f82612cc8565b604082019050919050565b60006020820190508181036000830152612d5381612d17565b9050919050565b7f4e487b7100000000000000000000000000000000000000000000000000000000600052602260045260246000fd5b60006002820490506001821680612da157607f821691505b60208210811415612db557612db4612d5a565b5b50919050565b7f455243333636343a20746f6b656e20686173206e6f742061747461636865642060008201527f7468652061747472696275746500000000000000000000000000000000000000602082015250565b6000612e17602d836123a7565b9150612e2282612dbb565b604082019050919050565b60006020820190508181036000830152612e4681612e0a565b9050919050565b7f4552433336363447656e657269633a206d75737420686176652061747461636860008201527f20726f6c6520746f206174746163680000000000000000000000000000000000602082015250565b6000612ea9602f836123a7565b9150612eb482612e4d565b604082019050919050565b60006020820190508181036000830152612ed881612e9c565b9050919050565b7f4552433336363447656e657269633a206d7573742068617665206d696e74657260008201527f20726f6c6520746f206d696e7400000000000000000000000000000000000000602082015250565b6000612f3b602d836123a7565b9150612f4682612edf565b604082019050919050565b60006020820190508181036000830152612f6a81612f2e565b9050919050565b600067ffffffffffffffff821115612f8c57612f8b612a8f565b5b602082029050602081019050919050565b6000612fb0612fab84612f71565b612aef565b90508083825260208201905060208402830185811115612fd357612fd261263c565b5b835b8181101561301a57803567ffffffffffffffff811115612ff857612ff7612632565b5b8086016130058982612b8c565b85526020850194505050602081019050612fd5565b5050509392505050565b6000613031368484612f9d565b905092915050565b7f455243333636343a2073796d626f6c20717565727920666f72206e6f6e65786960008201527f7374656e74206174747269627574650000000000000000000000000000000000602082015250565b6000613095602f836123a7565b91506130a082613039565b604082019050919050565b600060208201905081810360008301526130c481613088565b9050919050565b7f4e487b7100000000000000000000000000000000000000000000000000000000600052603260045260246000fd5b7f4e487b7100000000000000000000000000000000000000000000000000000000600052601160045260246000fd5b600061313482612339565b91507fffffffffffffffffffffffffffffffffffffffffffffffffffffffffffffffff821415613167576131666130fa565b5b600182019050919050565b7f455243333636343a2055524920717565727920666f72206e6f6e65786973746560008201527f6e74206174747269627574650000000000000000000000000000000000000000602082015250565b60006131ce602c836123a7565b91506131d982613172565b604082019050919050565b600060208201905081810360008301526131fd816131c1565b9050919050565b600081905092915050565b600061321a8261239c565b6132248185613204565b93506132348185602086016123b8565b80840191505092915050565b600061324c828561320f565b9150613258828461320f565b91508190509392505050565b60008190508160005260206000209050919050565b6000815461328681612d89565b6132908186613204565b945060018216600081146132ab57600181146132bc576132ef565b60ff198316865281860193506132ef565b6132c585613264565b60005b838110156132e7578154818901526001820191506020810190506132c8565b838801955050505b50505092915050565b60006133048285613279565b9150613310828461320f565b91508190509392505050565b7f455243333636343a20626174636841747461636820666f72206e6f6e6578697360008201527f74656e7420617474726962757465000000000000000000000000000000000000602082015250565b6000613378602e836123a7565b91506133838261331c565b604082019050919050565b600060208201905081810360008301526133a78161336b565b9050919050565b60006133b982612339565b91506133c483612339565b9250827fffffffffffffffffffffffffffffffffffffffffffffffffffffffffffffffff038211156133f9576133f86130fa565b5b828201905092915050565b600081905092915050565b600080fd5b60006134208385613404565b93507f07ffffffffffffffffffffffffffffffffffffffffffffffffffffffffffffff8311156134535761345261340f565b5b602083029250613464838584612b3b565b82840190509392505050565b600061347d828486613414565b91508190509392505050565b6000819050919050565b6000819050919050565b60006134b86134b36134ae84613489565b613493565b612339565b9050919050565b6134c88161349d565b82525050565b60006134da838561251d565b93507f07ffffffffffffffffffffffffffffffffffffffffffffffffffffffffffffff83111561350d5761350c61340f565b5b60208302925061351e838584612b3b565b82840190509392505050565b600060608201905061353f60008301876134bf565b61354c602083018661272c565b818103604083015261355f8184866134ce565b905095945050505050565b7f416363657373436f6e74726f6c3a2063616e206f6e6c792072656e6f756e636560008201527f20726f6c657320666f722073656c660000000000000000000000000000000000602082015250565b60006135c6602f836123a7565b91506135d18261356a565b604082019050919050565b600060208201905081810360008301526135f5816135b9565b9050919050565b7f455243333636343a206174747249647320616e64206e616d6573206c656e677460008201527f68206d69736d6174636800000000000000000000000000000000000000000000602082015250565b6000613658602a836123a7565b9150613663826135fc565b604082019050919050565b600060208201905081810360008301526136878161364b565b9050919050565b7f455243333636343a206e616d657320616e642073796d626f6c73206c656e677460008201527f68206d69736d6174636800000000000000000000000000000000000000000000602082015250565b60006136ea602a836123a7565b91506136f58261368e565b604082019050919050565b60006020820190508181036000830152613719816136dd565b9050919050565b7f455243333636343a2073796d626f6c7320616e642075726973206c656e67746860008201527f206d69736d617463680000000000000000000000000000000000000000000000602082015250565b600061377c6029836123a7565b915061378782613720565b604082019050919050565b600060208201905081810360008301526137ab8161376f565b9050919050565b7f4e487b7100000000000000000000000000000000000000000000000000000000600052601260045260246000fd5b60006137ec82612339565b91506137f783612339565b925082613807576138066137b2565b5b828204905092915050565b600061381d82612339565b915061382883612339565b92508282101561383b5761383a6130fa565b5b828203905092915050565b600061385182612339565b915061385c83612339565b92508261386c5761386b6137b2565b5b828206905092915050565b7f455243333636343a2061747472696275746520616c726561647920657869737460008201527f7300000000000000000000000000000000000000000000000000000000000000602082015250565b60006138d36021836123a7565b91506138de82613877565b604082019050919050565b60006020820190508181036000830152613902816138c6565b9050919050565b6000606082019050818103600083015261392381866123fc565b9050818103602083015261393781856123fc565b9050818103604083015261394b81846123fc565b9050949350505050565b7f455243333636343a2061747461636820666f72206e6f6e6578697374656e742060008201527f6174747269627574650000000000000000000000000000000000000000000000602082015250565b60006139b16029836123a7565b91506139bc82613955565b604082019050919050565b600060208201905081810360008301526139e0816139a4565b9050919050565b60006060820190506139fc60008301866134bf565b613a09602083018561272c565b613a16604083018461272c565b949350505050565b7f416363657373436f6e74726f6c3a206163636f756e7420000000000000000000600082015250565b6000613a54601783613204565b9150613a5f82613a1e565b601782019050919050565b7f206973206d697373696e6720726f6c6520000000000000000000000000000000600082015250565b6000613aa0601183613204565b9150613aab82613a6a565b601182019050919050565b6000613ac182613a47565b9150613acd828561320f565b9150613ad882613a93565b9150613ae4828461320f565b91508190509392505050565b7f4e487b7100000000000000000000000000000000000000000000000000000000600052603160045260246000fd5b6000613b2a82612339565b9150613b3583612339565b9250817fffffffffffffffffffffffffffffffffffffffffffffffffffffffffffffffff0483118215151615613b6e57613b6d6130fa565b5b828202905092915050565b6000613b8482612339565b91506000821415613b9857613b976130fa565b5b600182039050919050565b7f537472696e67733a20686578206c656e67746820696e73756666696369656e74600082015250565b6000613bd96020836123a7565b9150613be482613ba3565b602082019050919050565b60006020820190508181036000830152613c0881613bcc565b905091905056fea2646970667358221220540452f60c59e7f86c916ae02481b6b6d0527a21a9cb609d534833ca4579920364736f6c634300080b0033",
  "immutableReferences": {},
  "source": "// SPDX-License-Identifier: MIT\n\npragma solidity ^0.8.0;\n\nimport \"../ERC3664.sol\";\nimport \"openzeppelin-solidity/contracts/access/AccessControlEnumerable.sol\";\n\ncontract ERC3664Generic is ERC3664, AccessControlEnumerable {\n    bytes32 public constant MINTER_ROLE = keccak256(\"MINTER_ROLE\");\n    bytes32 public constant ATTACH_ROLE = keccak256(\"ATTACH_ROLE\");\n\n    constructor(string memory uri_) ERC3664(uri_) {\n        _setupRole(DEFAULT_ADMIN_ROLE, _msgSender());\n\n        _setupRole(MINTER_ROLE, _msgSender());\n        _setupRole(ATTACH_ROLE, _msgSender());\n    }\n\n    /**\n     * @dev Mint new attribute type with metadata.\n     *\n     * See {ERC3664-_mint}.\n     */\n    function mint(\n        uint256 _attrId,\n        string memory _name,\n        string memory _symbol,\n        string memory _uri\n    ) public virtual {\n        require(\n            hasRole(MINTER_ROLE, _msgSender()),\n            \"ERC3664Generic: must have minter role to mint\"\n        );\n\n        _mint(_attrId, _name, _symbol, _uri);\n    }\n\n    /**\n     * @dev [Batched] version of {mint}.\n     */\n    function mintBatch(\n        uint256[] calldata attrIds,\n        string[] calldata names,\n        string[] calldata symbols,\n        string[] calldata uris\n    ) public virtual {\n        require(\n            hasRole(MINTER_ROLE, _msgSender()),\n            \"ERC3664Generic: must have minter role to mint\"\n        );\n\n        _mintBatch(attrIds, names, symbols, uris);\n    }\n\n    /**\n     * @dev See {ERC3664-attach}.\n     */\n    function attach(\n        uint256 tokenId,\n        uint256 attrId,\n        uint256 amount\n    ) public virtual override {\n        require(\n            hasRole(ATTACH_ROLE, _msgSender()),\n            \"ERC3664Generic: must have attach role to attach\"\n        );\n\n        super.attach(tokenId, attrId, amount);\n    }\n\n    /**\n     * @dev See {ERC3664-batchAttach}.\n     */\n    function batchAttach(\n        uint256 tokenId,\n        uint256[] calldata attrIds,\n        uint256[] calldata amounts\n    ) public virtual override {\n        require(\n            hasRole(ATTACH_ROLE, _msgSender()),\n            \"ERC3664Generic: must have attach role to attach\"\n        );\n\n        super.batchAttach(tokenId, attrIds, amounts);\n    }\n\n    /**\n     * @dev See {IERC165-supportsInterface}.\n     */\n    function supportsInterface(bytes4 interfaceId)\n        public\n        view\n        virtual\n        override(AccessControlEnumerable, ERC3664)\n        returns (bool)\n    {\n        return super.supportsInterface(interfaceId);\n    }\n}\n",
  "sourcePath": "/Users/li/Character/src/contracts/ERC3664/presets/ERC3664Generic.sol",
  "compiler": {
    "name": "solc",
    "version": "0.8.11+commit.d7f03943.Emscripten.clang"
  },
  "schemaVersion": "3.4.4",
  "updatedAt": "2022-02-19T15:51:59.950Z",
  "devdoc": {
    "kind": "dev",
    "methods": {
      "attach(uint256,uint256,uint256)": {
        "details": "See {ERC3664-attach}."
      },
      "attrURI(uint256)": {
        "details": "See {IERC721Metadata-attrURI}."
      },
      "attributesOf(uint256)": {
        "details": "See {IERC3664-attributesOf}."
      },
      "balanceOf(uint256,uint256)": {
        "details": "See {IERC3664-balanceOf}."
      },
      "balanceOfBatch(uint256,uint256[])": {
        "details": "See {IERC3664-balanceOfBatch}."
      },
      "batchAttach(uint256,uint256[],uint256[])": {
        "details": "See {ERC3664-batchAttach}."
      },
      "getRoleAdmin(bytes32)": {
        "details": "Returns the admin role that controls `role`. See {grantRole} and {revokeRole}. To change a role's admin, use {_setRoleAdmin}."
      },
      "getRoleMember(bytes32,uint256)": {
        "details": "Returns one of the accounts that have `role`. `index` must be a value between 0 and {getRoleMemberCount}, non-inclusive. Role bearers are not sorted in any particular way, and their ordering may change at any point. WARNING: When using {getRoleMember} and {getRoleMemberCount}, make sure you perform all queries on the same block. See the following https://forum.openzeppelin.com/t/iterating-over-elements-on-enumerableset-in-openzeppelin-contracts/2296[forum post] for more information."
      },
      "getRoleMemberCount(bytes32)": {
        "details": "Returns the number of accounts that have `role`. Can be used together with {getRoleMember} to enumerate all bearers of a role."
      },
      "grantRole(bytes32,address)": {
        "details": "Overload {grantRole} to track enumerable memberships"
      },
      "hasRole(bytes32,address)": {
        "details": "Returns `true` if `account` has been granted `role`."
      },
      "mint(uint256,string,string,string)": {
        "details": "Mint new attribute type with metadata. See {ERC3664-_mint}."
      },
      "mintBatch(uint256[],string[],string[],string[])": {
        "details": "[Batched] version of {mint}."
      },
      "name(uint256)": {
        "details": "See {IERC3664Metadata-name}."
      },
      "primaryAttributeOf(uint256)": {
        "details": "See {IERC3664-primaryAttributeOf}."
      },
      "renounceRole(bytes32,address)": {
        "details": "Overload {renounceRole} to track enumerable memberships"
      },
      "revokeRole(bytes32,address)": {
        "details": "Overload {revokeRole} to track enumerable memberships"
      },
      "setPrimaryAttribute(uint256,uint256)": {
        "details": "See {IERC3664-setPrimaryAttribute}."
      },
      "supportsInterface(bytes4)": {
        "details": "See {IERC165-supportsInterface}."
      },
      "symbol(uint256)": {
        "details": "See {IERC3664Metadata-symbol}."
      }
    },
    "version": 1
  },
  "userdoc": {
    "kind": "user",
    "methods": {},
    "version": 1
  }
}